:100000004D424E014D3448305201040001000000C1
:100010006000000000C000000000000000000000C0
:100020000000360100000000000000000004000095
:1000300001005201010025000004000000940000AE
:100040000200050126002C0000980000001C0000A2
:10005000030005012D002F0000B40000000C00007B
:10006000001C00203502000000000000000000001D
:100070000000000000000000000000000000000080
:100080000000000000000000000000000000000070
:10009000000000000000000000000000550000000B
:1000A0005700000051010000790000008D000000A1
:1000B00000000000FEE708B5044B01221A70044B53
:1000C0000022DA77034B1B68984708BD0000002028
:1000D0000800005034000020034B01225A70A02376
:1000E0000022DB051A70704700000020034B01223C
:1000F0009A70A0230022DB059A7070470000002050
:100100008D23013B002B01D0C046FAE7044B10229F
:100110001B78DBB21807C00F134018437047C04666
:100120002B0000500F4BF7B518261E700E4BA02762
:100130001E70FFF7E5FFFF050B4B01AC00252C37C8
:1001400060701D703E70FFF7DBFF064B20703D7046
:100150001D7023786278181C504040001340034300
:10016000D8B2FEBD2A0000502D00005000230360CD
:1001700030B50B601312012B13D10423013B10D3B4
:10018000084DD4B25D5D641BF8D4074A9D00126827
:10019000AA58002A05D012190260044AD35C1C1B1D
:1001A0000C6030BDE0030000DC030000E40300004D
:1001B00070B58022D2051379DBB2002B19D12B4CFC
:1001C0006360A3602A4B1289261C251C1B6892B20F
:1001D00010361435E260301C291C002B06D09847DD
:1001E0002169002937D1E268301C291CFFF7BEFFC6
:1001F00031E0012B0CD11D4B186900282BD09968D8
:100200005C69A14227DA4C1C9C60137A435422E0BB
:10021000022B1BD1154C2369002B12D06068616939
:1002200088420EDA1B5C1BBAD360124B1B68002B92
:1002300003D0E268101880B29847636801336360A6
:1002400009E080230022DB05DA6004E0032B02D101
:10025000064B00229A60C0468023DB0501221A70FB
:10026000C04602221A7000221A7070BD00000020E1
:100270003C0000203800002080230222DB05FF32F2
:100280001A600421024AFF31118000221A7070475F
:1002900006000040F0B5A023DB059B68524A1F21F1
:1002A0008DB0DBB21160D12B0BD0D02B01D8013334
:1002B000DBB2A022D2059168FF20814319439160EF
:1002C000F1E74A4B4A4A191D043B934203D20022EC
:1002D0001A600B1CF6E7FFF7CFFF464A8023DB02CC
:1002E0001A80454A0027093A92B25A809F80C04638
:1002F000424ADE88424D10685268424C0A922A886F
:1003000009ABB6B21A8123625E810990FFF70AFF3A
:100310003D4B34211A7803AB1A704D225A709970F4
:100320005A7148214522D9709A7130219B22197146
:10033000D8716362520005AB0597A3611A8007ABC1
:1003400001220797E3615A70304B0697DA89304BE8
:1003500008975F882F4B211C1B8828310B70211CAC
:100360001B0A29310B702C4901235B420B702B486F
:100370002B4903700B702B48211C2E312F34037036
:100380000B7023702B889E4229D1274B9A4226D08E
:10039000BA4224D1254EF7899F4220D0F689B4462F
:1003A000234E7788BC451AD1224FF889984216D03F
:1003B000FF89EB889F4212D1174B18481A70120A16
:1003C00073880270164A9BB2164813701B0A03709A
:1003D000EB889BB20B701B0A237000F049F8164B98
:1003E00002221A6062B6FEE72800005004000020D6
:1003F000400000200004000000C00000F0BF00002A
:10040000F8BF00000000002047000050000400007A
:10041000FC970000FE0300002A0000202B000020B3
:100420002C0000202D000020FFFF0000009800009D
:10043000FCB3000000B4000000E100E01800002060
:100440002030407008080C08FFFFFFFFFFFFFFFF90
:10045000FFFFFFFFFFFFFFFFFFFFFFFFFFFF360173
:100460004D344830434F5432000000000000520128
:10047000F0B5D5B002AF03F0BFFD05F0F1FAF862B8
:1004800008F0E8FD08F01AFE09F0F2F900F06EFE3F
:10049000D54AD64B1A60D64AD64B1A60D64AD74BA5
:1004A0001A6005F0DDFA7863052800D113E316D849
:1004B000022800D1BEE207D8002827D0012800D1A9
:1004C000ABE27C6BFC62ECE77D6B032D00D1F4E2C8
:1004D000042DF6D105F04AFB02F00EFBF6E27E6B2E
:1004E000092E00D114E307D8072E00D1FCE2082E14
:1004F000E7D105F03BFB01E37C6B0A2C00D123E341
:100500000B2CDED105F032FB00F0F6FB05F0BEFA55
:10051000041E1AD00128D4D1B94B02221B68391C01
:100520001E6A1D69BE617E6B1A621E6168313F23BF
:10053000301C321C8E80BE667D610B7105F096FB0F
:100540007E627E6BFC63BE63AFE00124012C02D0AF
:10055000022C0AD092E0002001F0E2FF03F06EF9D5
:10056000C0B205F0D1FB01F0C1FFA54B6E461B6880
:100570003E6358681C681B694443E3189B000A33B8
:10058000DB08DB00F11A7E1DFF368D46301C002192
:10059000142208F0E1FE962040003B1C8C21B4336D
:1005A0003A1849005A607A189A60391C283ADE6075
:1005B0001A61A831143A934E4A60143A8A6032683C
:1005C00002AD5361904BA4001B682C19BC635460AE
:1005D000916115602D331A786C465200131C083354
:1005E000DB08DB00E41AA54602AC0021201CFC63FA
:1005F00008F0B2FE05F03AFC2A1C4178BB6B0020E3
:1006000000F0A0FEFC6A002C01D005F0AFFA7F4B91
:1006100000221B689A6005F071FB041C03F00EF9C0
:10062000A04204D0201C03F00EF902241DE0FC6B54
:100630003A1C00943B1CB96BB432A833281C01F05F
:1006400053FC724B724A1B68041C9968914202D099
:100650009A6801329A60002807D105F017FA00283D
:1006600003D105F0FDF90028D5D0326800231360CE
:100670005360536193613D6BFB62AD4605F006FA32
:10068000002800D01DE705F0EBF9002800D15DE758
:1006900017E7022C0ED005F0F9F9012800D0B5E1DA
:1006A00005F0DEF9002800D0B0E1FC6B012CF0D1A0
:1006B00001F01CFF524D6E462B683E611C68586865
:1006C0001B694443E3189B000A33DB08DB00F11A83
:1006D0008D4602AE3E6302F0F1FC8C2040003A1CD5
:1006E0003B1860325A60043A9A60043ADA60391C66
:1006F000043A1A61F031043A4A60043A8A602A687E
:100700006D4690695269A400424392000A32D208B1
:10071000D200AD1AAD4602ADFD61AAB07D1D02A8A2
:10072000FF352860AAB0842002AA4000C251354A91
:100730003D6B12682C190026546053619161BE65AF
:100740001560BC6205F092FB041C03F0A7FF617802
:1007500005203A6BBB6A00F0F5FD04F01FFB2B4B44
:10076000F8691B68596900F0FFFBFC6AB44201D0CC
:1007700005F0FCF90020391C7031A223021C8E8088
:100780003E670B7105F072FA204B1B689E600026D5
:100790006C46FC6005F0B2FA96210024A8254900B9
:1007A0003B1CEC5148337D18391C1C80AB61DC319B
:1007B000144B69601439A9601B6820393A1CB432A3
:1007C000E9604439146054606A6129611D61F8620E
:1007D0007C6603F033F8FA6A90421BD0101C0224A6
:1007E00003F031F8FC63F2E0CD5C00003C00002037
:1007F000495D000038000020E110000034000020B6
:100800001003002044000020E80A002040000020DF
:10081000FFFFFF7F002E75D1C64B68461B68B8608E
:100820009A6951005A6901324A43131C0833DB08A4
:10083000DB00C51AAD4602AD281C311C3D6208F034
:100840008BFDB86BBC4D082808D104F0A7FA2B68C3
:10085000F869596900F088FBBE6350E0042003F09A
:10086000BFF92B68386A5969FA6905F03FFF051E20
:10087000012D11D103F012FF052003F0B1F9391C4D
:100880007831A323301C321C8E80BE670B712E1C66
:1008900005F0ECF9BC6332E0A84CF8692368396ACA
:1008A00039331A7805F0FAFF23687D6A39331B78EB
:1008B0005B009D420ADD03F0F1FE052001213A6B49
:1008C000BB6A00F03FFD04F069FA7E627D6A23682E
:1008D000013538337D62187802F0B5FF02F0CAFFA7
:1008E000236800243933187802F0A0FD002002F0BC
:1008F000D5FDF86A02F0A7FF02F0E0FFFC63BD68D7
:10090000AD465BE08D4B8C261B6876003A33187839
:10091000894B1B68186002F089FD052003F038F947
:100920003B1CF0330093386BBB19B96A2A1C00F0EA
:10093000E7FF0126F863002840D1781DFF30B96B2E
:1009400007F074FDB863032804D0072800D0D9E16C
:10095000182505E0781DFF3008F0AAF8051E28D0FC
:1009600005F0A2F801266B1E321C9A401040D840B8
:1009700000D1C7E102214420C155381C4522443032
:100980000024D55504F0F8FF03F0F6F8301C02F00F
:1009900042FD201C05F082F8391C88310E23201CF2
:1009A000221C8C800C600B7105F060F903F076FE60
:1009B00004E003F0E1F802F0BFFF01265E4B604A5D
:1009C0001B689968914202D09A6801329A605D4C26
:1009D000002223681A61FD68AD46FD6B954208D17F
:1009E00005F054F8012804D105F03AF8002800D1A8
:1009F000CEE603F053FE22680023136053601361B8
:100A0000536193613E69FB62B54644E6494BBC695C
:100A10001B687D691C621D6153E505F0A7F805F0B0
:100A20001FF80128FBD008F0F3FA00F09FFB04F058
:100A30001BFE46E502F024FB00F0FAFE08F0E8FA9F
:100A40003C4B1B6803CB02F0C7FB3E4B1B6858694D
:100A500000F01AFF04F04AFF002003F095F903F0BC
:100A6000FBF800F06BF901F041FD05F07FF805F0AF
:100A700097F8032812D006D801280CD0022815D1E7
:100A800002F01AF912E005280ED00AD306280DD17B
:100A900002F09EFC0AE002F04BF807E002F0A4F935
:100AA00004E004F00DFC01E002F080FC04F0D8FF4B
:100AB0000228DCD000F0CEFE03E505F057F801F087
:100AC00015FD04F0CDFF0328FBD0FAE404F0C8FFC5
:100AD0000428FBD0F5E405F049F803F0C1FA04F06E
:100AE000BFFF0528FBD0ECE405F040F8012001F041
:100AF00017FD04F0B5FF0728FBD0E2E4002003F067
:100B00006FF803F04FF904F0ABFF0828F6D0D8E4F3
:100B100005F02CF8002002F052FB002003F060F8F2
:100B200003F040F904F09CFF0928F6D0012002F000
:100B300046FBC6E41003002040000020E80A002025
:100B4000FFFFFF7F440000206C4600207C6208F01D
:100B5000E7FA08F0B3FA002003F016F9754C68467E
:100B600023685E681D681B697543EB180733DB0853
:100B7000DB00C01A8546FD6302ADBD6302F080FA5A
:100B8000051C02F095FA061C02F086FA2468F86249
:100B9000311CE268B86B08F09DFBF96BB86BBA22A8
:100BA000FF324018B1182269386308F093FBAB7923
:100BB000013B0FD36A79013AFAD36979BE6B594385
:100BC00089187118FE6AF0186430067808783018B1
:100BD0000870F0E7EB79013B0AD3BD6BFE6BAA19F5
:100BE000FD6AE9187C310878D15C4118D154F2E7EC
:100BF000626823696E46D3189B000A33DB08DB006A
:100C0000F61AB54602ACFC6304F0B0FF494C391C3F
:100C1000236890311D681A790D704A708A705A1DC8
:100C2000D27F1B69BE6BCA700B71002201234B710E
:100C30000420131C009604F0DFFF396BB86B04F03E
:100C40005DFA002002F0CCFF23683B4958680E682B
:100C5000B8620022B86A824206DAB069940000598C
:100C6000FD6B01322851F5E7FC6B8200A4181D6969
:100C70000E68A4460022AA4206DA346A910064583B
:100C8000604644500132F6E71A68391C98310A7000
:100C9000BC6A9A684C708A700533DB7F0132CB7076
:100CA000254B92001B6804245B690D719A184C71E6
:100CB00000920022131C022004F09EFF391CA03178
:100CC00001230B701B4BFD6B1B6805201A794A70C2
:100CD0008A705A1DD27F1B69CA7000220B714C7139
:100CE000131C009504F088FF04F0BAFE0A288DD08A
:100CF0007E6AB546FFF7E5FB04F0B2FE0B28FBD099
:100D0000FFF7DFFBBC6B082C00D052E602F034FF8B
:100D1000012002F080FB0024391C8031A223201C1A
:100D2000221C8C800C600B71261C04F09FFF04F0C9
:100D300035F843E61003002040000020F8B5184DB8
:100D40007146281C764603F095FA164C276802F087
:100D500009FE7862276802F009FEB862276802F08F
:100D600009FE7861276802F009FEF861276802F041
:100D700051FEB861276802F061FE0B4B0B491B68FE
:100D8000096838621878097C22684143023311618E
:100D9000E432281C311C136003F084FAF8BDC0460D
:100DA000DD0C000040000020EC0A0020E80A0020D2
:100DB000014B18607047C046E80A0020014B1868D4
:100DC0007047C046E80A0020014B18607047C046D3
:100DD000EC0A0020014B18687047C046EC0A00205E
:100DE000014B18687047C04640000020014B58680E
:100DF0007047C0464000002082B0F0B589B0109C1A
:100E0000151C0F930693029407900E1C119C02F080
:100E100037F947793A4B04978279964206D11B6895
:100E20000021DA69AB00D05A03910BE01A68354B08
:100E300052691968731C896803964B43EB18013398
:100E40009B00D05A0499714349194A00A418238879
:100E5000069E0193019F7318874203D8C61B029F09
:100E6000BE521CE0029EB61805960027F65F0136BA
:100E700010D01F787EB2B446013601DA013703E0A4
:100E80006646002E06DD013F1F7002235B42238071
:100E900001202FE0069F79180F78002F01D12080C4
:100EA0000CE07FB27C1C05D1019E059F301A388072
:100EB000002002E0012F01D1FF2008701978039C67
:100EC000049E079F48B274437D19002805DC029EEA
:100ED000B25E013208D0002906D12A5700203E2AEE
:100EE00008DC0131197005E02A57002A01DD0139BB
:100EF0001970002009B0F0BC08BC02B01847C04609
:100F0000400000201003002070B5154C7146201CD5
:100F1000754603F0AFF9134B00221B68191C88318A
:100F20000A601E1C01219C364942181C3160B260C7
:100F30000830083EF18232607283C26790300160EF
:100F4000826008380183191CAC31026004330A80C6
:100F500020390A60201C291CDA6703F0A3F970BD50
:100F6000A90E000040000020F0B5754685B003953D
:100F7000294D01900F1C281C714603F07BF9274B6B
:100F800000211B680198DA69920008F0E5F904F085
:100F90006DFF02904478214D002C21D0042002F0F6
:100FA0001FFE28684269561E009617D38369009970
:100FB000019E5943C918890071180439013B0BD3AC
:100FC000866856439E190136B600F5590E68AC4640
:100FD000B44465460D60F0E7009AE4E7013CDAE7C7
:100FE0002F687D69013D11D3BC69019A261C6E43AF
:100FF0003619B6009619043E013CF3D3029B3068C3
:10100000597808F099F800043060F4E70248039931
:1010100003F048F905B0F0BD090F000010030020EF
:1010200038B5114C7146201C754603F023F90F4B5F
:10103000201C1B68DA6A002A02DD596BCA420BD4F5
:101040000B4A11680B4A2C3112680C783432117833
:1010500000228C42524100E001227433291C1A7094
:1010600003F020F938BDC046C10F00004000002049
:1010700044000020E80A0020F0B52E4F72468BB0E5
:101080007146381C019203F0F5F82B4D2B681A1CA1
:10109000CC321178583A002904D1191CB0310978A2
:1010A000002901D0002111701478002C25D0996FEF
:1010B000002407915A6B03A90892DB6A07AA0993D7
:1010C00003234B708B707C235B42CB700126102373
:1010D000201C8C800E700B7104F0C8FD2B689A6F79
:1010E000D96F8A4202DC92199A671CE09C67134B05
:1010F0001B682C331C70341C15E05A6B05A9079231
:10110000DB6A0920089301230B7002234B708B705C
:101110007C235B42CB7007AA64238C800B7104F0A4
:10112000A5FD2B689C67381C019903F0BBF8201CB7
:101130000BB0F0BD1910000040000020440000205A
:1011400038B5094C7146201C754603F093F804F03D
:101150009DFC002802D1022002F01AFD291C201C4F
:1011600003F0A0F838BDC046E110000037B5114CBF
:101170007146201C754603F07DF805F009FC02F06D
:10118000A1FD021E07D16946A923888000900B713A
:1011900004F06CFDFEE7084B1B6803CB02F01CF863
:1011A00005F00EFCFFF7CAFD291C201C03F07AF89D
:1011B00037BDC0460D11000010030020F0B587B008
:1011C00000AF7546786039615C487146FD6003F098
:1011D00051F802F0A1FF83000A33DB08DB006E4602
:1011E000F61AB546041C684602F09CFF63000833FB
:1011F000DB08DB00F61A301C6D46B546BE6002F017
:10120000ABFF4F4B1B68191C88310868632807DD4A
:101210000120002240420A604861CA61191DCA6764
:101220001A1C88321068191C013008311060CA6F0E
:10123000632A09DD00220120CA67404290318A609A
:1012400008601A1D0121D1671A1C0832D16F0131C3
:10125000D167191C94310E68012E07DD0120002290
:1012600040420A60C8824A8308390A601A1C9432D4
:10127000116801311160191C90310868012809DDDD
:10128000002201200A608A8340421A1C08838C32A3
:10129000012111601A1C9032116801311160002285
:1012A000101C013C08D3A1006958BE6840186100B9
:1012B000715A521892B2F4E7191CAA310024A426DC
:1012C0001D19B446AC447D6165462D68854201D246
:1012D000664630607E699C363568854200D930604C
:1012E0008E88964200D28A800E88964200D90A8063
:1012F000043C261C02390836E1D11A1DD26F7D68E4
:1013000092009A18111CA0319832096812683E693F
:101310008A1A2A801A1C8C321268084852009B18BC
:101320001A1CAC32A83312881B88F968D31A338090
:1013300002F0B8FFBD4607B0F0BDC0465D11000029
:1013400040000020F0B5284E85B075460191041C80
:101350007146301C1F1C0395009202F08BFF234D39
:1013600000212B680098DA68920007F0F5FF2B68DF
:10137000381C1A690021920007F0EEFF019D002D34
:101380000CD0201C02F02CFC194B00981B68391C57
:101390005A69DB6905F070F9013DF0E7002C0FD1C7
:1013A000134B1B685D699E69029502F0CAFA051C21
:1013B00002F0D0FA311C031C2A1C029804F06EFDC6
:1013C0000098391C019A04F0D1FE002C06D1084B7C
:1013D000201C1D6802F0D4FDE835286002480399FE
:1013E00002F060FF05B0F0BDE51200001003002020
:1013F00040000020F0B597B004AF7546B861796140
:10140000B5487146FD6002F035FF04F02FFDB34D85
:1014100038612A686846136892689E1C52005643D9
:1014200001335208311C53430831C908C900401A1E
:101430008546013304A95B00A94CCB18BE62A94EB6
:101440003B62FA6133683A6A20689960DA607962CF
:101450003C2200212C3007F07FFF0021BA6A786A15
:1014600007F07AFF2B6868461D68B86004356D0088
:101470002A1C0832D208D200811A8D4604AABA6208
:101480005A6804325200131C0833DB08DB00C91A07
:101490008D4604AB181C0021FB6207F05DFF2A1C7F
:1014A0000021B86A07F058FF2368BD695A69191C02
:1014B0009B690095B86A2C3104300190F86A0430B9
:1014C0000290786A04F0F4FE3D697860236832681F
:1014D0002D7B586992680095BD6A191C0195FD6ABB
:1014E000683102952C3307F059FBBD682368AD467F
:1014F0007D69DA69191C1B6A00952C31386A05F080
:1015000021F87D680543EDB2BD6204F0C1FC0079AD
:10151000012806D133685B691B78002B01D101F0EB
:101520007AFF2568281C291C68312C3004F086FEBF
:101530006D4A23681268E8660C20115E9D6D8D422D
:101540000EDC0E20115EDD6D8D4209DB1020115E78
:101550001D6E8D4204DC1220125E5B6E934222DA15
:1015600000234021CB53CA190123137004F0AAFAB7
:10157000002818D104F00AF9002814D0584B1A6832
:10158000FF239168FE2901DC9368DBB2381C02213D
:1015900041254030EB5504F0EFF9544802F0BEFE0F
:1015A00001F036FEE2E74D4E3020336831221968F3
:1015B0000224C15558683221D0559A6880235B4275
:1015C000234333200025CA55C35534215323BD86F8
:1015D0000132CB557B6A5200391C9A1801203031F8
:1015E00004F044FB32680121137C3820C1553920B6
:1015F0003A21C355CB5580235B4223433B22D3552D
:101600003C206D23391CBD873831C3553A6A01200F
:1016100004F02CFB336840211A684120CA555968F0
:101620004222C15598684321D0555A1DD27F45208A
:10163000CA551B694422D355C35D7F229343802141
:10164000494223430B43C2191370FB69786A013383
:101650005B00C318391C012040312A1C00932B1C4D
:1016600004F0CAFAFFF7DCFCFFF706FDA84226D11A
:101670001B4C2368586902F0FFFB2368D86E02F008
:10168000D7FA02F0BBF8BD6A002D0DD12368796A44
:101690001A1C2C321B68B86904F07CFC236878693A
:1016A0001A68396A04F0D2FC022001F0F7FE386AA9
:1016B00005F042FA20680024703006F09BFC094BCC
:1016C00000221B6804489A60DA60F96802F0EAFDBB
:1016D000201CBD4613B0F0BD951300001003002080
:1016E0004000002044000020EC0A002010270000E9
:1016F000F0B595B002AF7446061C79624A4871464F
:101700003A627C6002F0B6FD04F0C2FBF86005F0BE
:1017100051F96C4692B03C6002AC92B0FC6102ACF4
:101720008AB0BC6102AC90B07C6102AC8AB002AD00
:10173000B86088B000214022F8693C6107F00CFED7
:1017400000214022B86907F007FE002120227869B5
:1017500007F002FE00214022386907F0FDFD02ACCF
:10176000281C0021202207F0F7FD201C0021202248
:1017700007F0F2FDFA69BB6992B03A637A697B635C
:101780003D643B6902ADBA6300214022281CFB6323
:101790007C6407F0E1FD254C381C22682C30516A2E
:1017A000936A683200922A1C06F046FC23687A6A23
:1017B000381C596A2C309B6A00922A1C05F092FF53
:1017C000381C2C30311C7A6A3B6A06F0CFF923684A
:1017D000301C596A9A6A06F0DFFA796A301C06F002
:1017E000B1FB301C05F030FB3C68301CA546796A23
:1017F0003A6A05F0CFF9BB680B4CE2331B78002B3B
:101800000AD1FA681379002B06D004F03FF90128B9
:1018100002D0012001F0FFFD201C796802F042FD9A
:10182000BD4613B0F0BDC046911600004000002038
:1018300038B5074C7146201C754602F01BFD07F0B9
:10184000B9FB01F023FC291C201C02F02BFD38BD44
:10185000D117000038B50B4C7146201C754602F0BC
:1018600009FD07F063FC07F0ADFB01F00FFC002061
:1018700002F08AFA01F0ACFD291C201C02F012FDD6
:1018800038BDC046F5170000F0B51C4CB5B0734626
:10189000714600900AAF201C1425019305AE02F09A
:1018A000E9FC2A1C381C002107F056FD2A1C301CBC
:1018B00016AD002107F050FD281C0021282207F05A
:1018C0004BFD02A800210A2207F046FD2AAB02AA1E
:1018D00000990FA8109320AB1193159212971396AD
:1018E000149505F0A5F905F0D7F90FA805F04CFB04
:1018F000201C019902F0D6FC35B0F0BD291800007B
:10190000F7B5754601950F4D0E1C071C7146281C36
:1019100000921C1C02F0AEFC311C381CFFF76AFD63
:10192000061E03D0201CFFF7AFFF04E00098211C27
:10193000089AFFF7DDFE281C019902F0B3FC301C69
:10194000FEBDC046A1180000F7B5304E7146301CF0
:10195000754602F08FFC05F02DF82D4CE23023681F
:1019600001781A79002902D151B2481C04D100270C
:10197000DF60BA420DD118E0D8681A69904202DAE5
:10198000D8680130D86001290FD0DB6893420CDBA6
:10199000012700223B1C69460E33101C8A800092EE
:1019A0000B7104F063F923681F7123681A79002A08
:1019B00003D1184A1268127804E0012A03D1154AAB
:1019C000126852781A60186802F084FC2368071CB9
:1019D000E833186802F0A2FC3F1A002F0BDD2368E1
:1019E000186802F077FC2368071CE833186802F0D7
:1019F00095FC381A00E0012001F00DFD01F042FDD8
:101A0000301C291C02F04EFCF7BDC046E91800004E
:101A100040000020EC0A0020F0B5734691B0041C91
:101A20000E1CAF487146059302F024FC04F030FA16
:101A3000049004F0BFFF2278AA4B002A08D1B230EC
:101A40000278511E8A41D2B20292002A06D001E0E9
:101A5000012002901A680021B83205E01A68B832F5
:101A60001168FE2901DC013111601B6800211A1C7C
:101A7000B43211700299002904D09B490968097D8C
:101A800000295FD0181CB3300178C9B2002908D0F2
:101A900003785BB2022B00D0012313700023037084
:101AA00084E11D1CB0352C78002C09D00124147061
:101AB0001A1CB132BC33017029701170196076E1C3
:101AC000029800283ED1191CBC310C68002C09DD9D
:101AD000013C012C01D00C6034E0029B0B6003231D
:101AE000137064E11A1CE432126811887F4A914233
:101AF00028D01A1CC83211887D4A126852888A423E
:101B000020D8794C2068427C181CB830006890427C
:101B100018DB0EAA1180CA331B8806A95380029BCA
:101B200002988B8001230B7002234B708B70CB705B
:101B300015230B7104F09AF86A4B22681B68927C9B
:101B4000BC331A60684C2768F87C002800D02DE16F
:101B50000299644D002900D08AE02C68231CE333ED
:101B60001B78002B5CD03B1C2C331B78002B57D0F0
:101B7000231C0E91D8331B680393231CC83303988E
:101B80001A8843009A533B1C2D33197802984B0056
:101B9000F618031C994206D05A00B21A023A12886B
:101BA00001338018F6E707F015FB0E90FA8B231C23
:101BB000DC33904202DA1A68013200E000221A6037
:101BC0003B1C221C2E33DC321B7812689A4219DD32
:101BD0007C2308A900265B420124CB70301C16230D
:101BE0000EAA8E800C700B714C708C7004F03EF855
:101BF0002B68301C1A1CD832DC3316601E6004F0CF
:101C000077F8D4E03B1C2D331A780399231C013A52
:101C1000D833914202DA0A1C013200E000221A6035
:101C2000C4340137FB7F22689A4219DB00240AA9D9
:101C30001223201C221C8C800A940B7104F016F8CD
:101C40002A682948131CC0331968006801311960DB
:101C50000230C07F814203DB1C60B4320223137068
:101C60002A680023111CB231C4320B70136049E0A2
:101C70002B681A1CBC32106026321278002A41D020
:101C8000191CC83109880EAA1180CA331B880CA9F7
:101C9000538001230B7002234B708B70CB70192380
:101CA00088800B7103F0E2FF2B682268191CC83191
:101CB0000C88D08B163984421CD2181CCA30048878
:101CC000508D844216D2097800291BD1C4330132C9
:101CD0001968D27F914215DA0131196012E0C046CD
:101CE000B919000040000020E80A0020FFFF0000B2
:101CF000EC0A002001220A70191C0022C431C033F2
:101D00000A601A602D4D2B681A1CE2321278002AE4
:101D10004CD104980279002A46D01A1CB0321478AB
:101D2000002C43D1264ED86A3768798BBA8BFB8A50
:101D30003F8B009704F054F836682B68718CB28C96
:101D4000071CD86AF38C368D009604F049F82B688E
:101D50001A1CC8321188CA33B94202DA1A88824280
:101D600014DB08AA11801B880EA9538002230020CF
:101D700001254B708B70CB70172388800D700B7111
:101D800003F074FF0D4B1B68B1331D700B4B1B68C8
:101D90001A1CB1321278002A08D00299002905D005
:101DA000B03301221A7002E0B1331A7001240548E1
:101DB000059902F077FA201C11B0F0BD4000002018
:101DC000E80A0020B9190000F7B575460195424DA3
:101DD0007146041C281C02F04DFA404E33681A1C50
:101DE000B1321278002A24D01A1CE2321278002A6A
:101DF0001FD11A1CCC32117800291AD1B0331B78AC
:101E0000002B16D10123137001F046F9071C01F0D5
:101E100037F9334A031C1268453303CA3A1C5B3254
:101E200004F056F901F0A8FE022001F0B1FEFFF720
:101E30006BF833681A1CCC321278002A45D01A1C71
:101E40000020B0321070274A00901768011C3A6ACF
:101E5000013A0BD3E5685600755B002DF8D02EB221
:101E60000131B042F4DA301C0092F1E71A1CE23280
:101E70001278002A0ED101290CDD012222703A6A63
:101E8000013A09D300998A42FAD0E568510000204E
:101E90004853F5E7002903D01A1C0021D43208E08A
:101EA0001A1C181CD432D03011680068814201DC41
:101EB000013111601A1CD4321168043A126891423F
:101EC00005DDB03301221A7001E0D4331A600248F4
:101ED000019902F0E7F9F7BD691D000040000020FC
:101EE0004400002010030020F0B5ABB002AF7546EF
:101EF0007861F961A0487146BD603A61FB6002F00B
:101F0000B9F900220023391C101CBB842031A62300
:101F10002424E3553A6203F0A9FEFFF715FD974C20
:101F2000002521683E1C081CC830CA31FFF746F95D
:101F3000BD85934D01232822D3552A68391C137976
:101F40002922D3552A22D35504222B23DA555B2389
:101F50002C22D355236802209A69283103F086FE8B
:101F60000023BB8630220123D3552A68391C137CF9
:101F70003122D3553222D35504223323DA556C2330
:101F80003422D355236802201A6A303103F06EFEE2
:101F9000236884361A1CC8321288CA3332801B88E0
:101FA000382273800023BB870123D35502233922B3
:101FB000D3553A22D3553B22D355391C3C23012219
:101FC000DA550C203831321C03F050FE2B68391CD6
:101FD0005A6840311D684A709A68581D1B698A709A
:101FE0000D70C07F0B7104234B71236801325B6954
:101FF00092009A18C870009200220220131C03F06D
:10200000FBFD7869F969FFF7F5F97861002803D0DD
:102010003869FFF739FC8AE06D468CB002AC8CB0B1
:10202000BD6102AD3D608AB0381C3D1C5C357C60F2
:10203000796902AC14227030FC6107F08DF93C1C08
:10204000281C7969142207F087F95034796928220D
:10205000F86907F081F979690A22201C07F07CF9F8
:102060003B687A68B360474B72601B6835617022C9
:10207000FD69D219F2607561B461301C1E61396965
:10208000FA68FFF735FBB822301CD159FFF7C4FCC2
:102090003D4B1B681B7D002B02D1301CFFF794FECB
:1020A0003C1C8434201C04F06FFF25786C46AB0088
:1020B0000733DB08DB00E41AA54602AC3C612E1CAA
:1020C00012249022D259135F002B0ADD9822D35993
:1020D000013E3A69B000610010185918042207F057
:1020E000F9F8023CA31CECD1254B391C1B68483184
:1020F0005A681C684A709A680C708A700533DB7FD6
:102100000132CB707E235B424B711C4B52001B682B
:1021100000249B6A0C719A1800923B6903202A1CC8
:1021200003F06AFD174B1B681C61BC69A54601F0F2
:1021300003FC01F021FD01F0DBF901F023FB01209C
:1021400001F04EFD0D4BB4201B68185600F0F0FB5B
:10215000041E00D17C690D4B1B681A680C4B9A4217
:1021600002D001F07DFFFEE70348B96802F09AF85B
:10217000201CBD4629B0F0BD891E00004000002093
:102180001003002044000020E80A0020100B00206B
:10219000CDCDCDCDF0B59DB002AF74467146CE48E1
:1021A0007C6002F067F800F06BFF061C00F080FF17
:1021B000386100F071FFC94B6D461C68B860E36878
:1021C00000211A1C0E32D208D200AD1A2269AD4687
:1021D0000E32D208D2006846801A02AD8546FD61F3
:1021E00002AD7D6272799A18131C0E33DB08DB0096
:1021F000C01A53000E33DB08DB008546C01A02AD5F
:102200008546C01ABD6102AD854602A87861B869ED
:1022100007F0A2F8E1687279281C521801215200D7
:10222000494207F099F8E3687279AD49D218520033
:10223000786907F091F8E2683969F8693D6607F056
:1022400049F839692269BA31FF31786A402400259A
:1022500007F040F8FC603D62796AF86902F04EFFD1
:10226000032001F0BDFC9D4D00202B6838861A68C4
:1022700058682C212D24CA55E0559A6804242F2330
:10228000DC55984C51233020C35523682E21CA5564
:102290005B6901329200391C9A1802202C3103F03C
:1022A000E5FC01233422D3552B6836201B7C3525D1
:1022B000EB55C35500215A2338253987042237218D
:1022C000EB552368CA55391CDA690220343103F012
:1022D000CDFCB479013C631C2CD07579013D6A1C9E
:1022E000F8D0737978696343EB185B001A5A7E4B18
:1022F0009A42F3D0B96960223960F9657866D219DB
:10230000694609CA09C1211C3B68F8692A1CFEF705
:1023100073FD002803D03B6A01339BB23B627379A3
:10232000BA6963433869EB18D15CC25C8A18F969F1
:10233000CA54D3E7F479013C601C2FD0B17973798A
:102340007D694B43E3185B005A5B674B9A42F2D0BE
:10235000BD6960203D60FD65C0197D6984467D666C
:102360006846624628CA28C0221C3B68786AFEF785
:1023700043FD002803D03B6A01339BB23B62737973
:10238000B279BD695A432B193D699A5C2919BA3152
:10239000FF310B787D6AD3182B55CCE74F4B3C6A45
:1023A0001B68DA681B69D3189C4206DAFB68013B9C
:1023B000DBB2FB60002B00D04EE700244025FC631D
:1023C000EC53B3793C20C35573793D213E223F2520
:1023D000D355CB55EB5D7F200125834380212B43D3
:1023E00049420B433F22D3554020D223391CC355C9
:1023F0003C310820FA6903F039FC391C44317C6413
:102400008C800D70F3797F224B708B70CB78082015
:1024100093431D4380235B422B43CB707A6AD323C3
:102420000B7103F023FCB379013B0FD37279013AAE
:10243000FAD37179BD685943FC698918E8186118A5
:1024400064300C78007820180870F0E7F379013BCD
:1024500008D3BC687D6AE2187C321178EA5C8A187D
:10246000EA54F4E7F869796A02F048FE391C4C3105
:102470000024FC648C80B3797F200B707379012574
:102480004B708B70CB78802283432B435242134393
:10249000CB70FA691D2308200B7103F0E7FB391C90
:1024A00054317C658C800D70F3797F244B708B7078
:1024B000CB788026A3431D4376421E237A6A2E439F
:1024C00008200B71CE7003F0D1FB0348796801F04E
:1024D000E9FEBD461BB0F0BD352100001003002011
:1024E000FFFF000040000020FEFF000038B50B4C4D
:1024F0007146201C754601F0BDFE00F0CDFD583040
:102500000378002B02D1FFF745FE01E001F054FEF5
:10251000291C201C01F0C6FE38BDC0468D240000D9
:10252000F0B5A5B000AF724671467861E1487A60B7
:1025300001F0A0FEE04C23689B683B625B00013326
:102540003B6501F06FF92368FF229B68F865D31A99
:10255000984200DDFB65F86D3B6A0024C31AFB61FD
:1025600001F066F93A6D694655002B1C0833DB080B
:10257000DB00C81A85466A466423DC5360200123C9
:102580007965FA6461216222C355CB55D3557C230A
:102590005B426320C3556421B123CB553A1C391CDF
:1025A000201C60315C3203F061FB3A6D944206DA24
:1025B000F869F96C63002218CA520134F5E7002467
:1025C0006C23D1B2DC530126682069226A23C655E8
:1025D000D155D955B96402236B20391CC3556831D4
:1025E000201CFA6C03F042FB2B1C796D08338D46DE
:1025F000DB08DB006A46D21A9546D21A6946954630
:10260000F9637A6301F088FD3861301C00F0A8FF9F
:10261000211C2A1C786B06F09FFE211CF86B2A1CDB
:1026200006F09AFE386D69468000031C0A33DB0809
:10263000DB00C91A8D46C91A3B69B8619B00684620
:1026400038638D46F962BB60FC640021BA69386B5F
:1026500006F082FEF86AFF21BA6906F07DFE0020CE
:102660007865954B786D1B685B6898424BDAF96921
:102670000026C9B2081CB96301F0E5F801F0B2F810
:1026800000F064FFFC6A3D6B386D0136F217C30F32
:1026900086425341DBB2BB62002B06D1B96B88196D
:1026A000C0B201F0D0F801F09DF86B46FB60BB684A
:1026B0006A460A33DB08DB00D01A85466A467A642C
:1026C00001F030FD00231A1C39698A4205DA786C62
:1026D0009100415801325B18F6E72A68934200D90D
:1026E0002B602068834200D22360F968BA6A8D4665
:1026F00004340435002A02D100F028FFC4E77B6DC2
:1027000001337B65ADE700216C4D79650C1C3A6D9A
:10271000944217DA3A6BF96AA300D058CB58C01A22
:10272000854204DDFA69051CA2187A623C647B6D5F
:10273000834200DA786500F0FDFEF96B6300C85251
:102740000134E4E7786D00F0F5FE5B4B1B685B88B5
:10275000984206DA7B69012B03D0F86D396A7862FA
:102760003964574D00262C683222231DDE6704335E
:10277000DA67396C803364221A60022291409A60D1
:10278000FA6A01208A58D8605E60101C3A60B9630A
:1027900000F0D0FE9834BB6B396B206058582C6821
:1027A00000F0C8FE2B6801211A1CAA32A03449424D
:1027B000206011807A69AE331E80012A2BD17A6B9A
:1027C000331C396D8B4209DAF86B5900415A108875
:1027D000884200D2118001330232F2E73A6C786B02
:1027E00053001A5AF96C131C8A4200D20B1C9BB27C
:1027F0007021FB640123CB557422BB6C0020D053A5
:1028000072217122D355CB5573220223391CD35523
:1028100070317A6B10E0786D00F08CFE391C80B25C
:1028200078310222F864B86C0123CA70FA6B4870E0
:1028300088708E800B70301C03F018FA386C882377
:10284000D8537A6AFB6B8A214400CA531C19FA6C6C
:1028500023888E21CA538C20391C8031C353042312
:102860004B708B70002502233A1CCB708832B22348
:102870000126281C8D800E700B7103F0F7F9238858
:102880000F4C2268111CE43109680988994224D24E
:1028900006F04CFC051C06F0A1FB03787865002BC4
:1028A00010D0301C03F024FA23687E6DE433023626
:1028B0001E6023E0C1240000EC0A0020FFFFFF7F20
:1028C00040000020002D19D1164B1B68DB7C002B2B
:1028D00014D1301C03F000FA10E0E3321278002A21
:1028E0000CD0114E306842889A4207D9281C03F058
:1028F000FFF923683268E43302321A6079690029EB
:102900000AD17A6AD0B200F09EFF0848796801F0D7
:10291000C9FCBD4625B0F0BD03F0A2F8072800D1E0
:1029200093E6EEE7E80A0020EC0A0020C12400004C
:10293000F0B56C4C724689B07146071C201C03929E
:1029400001F098FC06F0F2FB061C03F0E5F8664A7D
:10295000051C1368141C191CE031097800291BD1CF
:102960001A1CE1321278824216D0002806D1E233D6
:102970001E78731E9E41F6B23A2301E039230226E7
:10298000002269468A82101C0B7504A9049203F088
:102990006DF92368E1331D7003F06AF8019003F0CC
:1029A0009FF8032F03D0019A002A04D108E0019B6D
:1029B0000125002B3CD0002003F062F8012537E010
:1029C0002368019DE0331B880293002B30D1012F37
:1029D00002D0022F04D00EE0381C03F07DF90AE08B
:1029E000029803F079F92368E3331B78002B02D0B7
:1029F000029803F07DF903F069F92368071CE233BC
:102A00001B78834213D0002802D01123012601E055
:102A10001223061C002506A9281C2A1C8D80069559
:102A20000B7103F023F92368E2331F7000E00025E7
:102A300006F07CFBB04234D006F078FB06F0C2FA18
:102A4000071C301C06F0BEFA0190301C06F068FB33
:102A500006F034FB254B1B68187D00280ED0244B54
:102A60003A1C1B685B3203CB019B5B3303F030FBEA
:102A7000002001F0B5F8FEF747FA05E023680125CC
:102A8000CC33187001F080F9002003F031F923688D
:102A900000211A1CE3321170164AE4331268023224
:102AA0001A6006F043FB06F099FA0378002B08D071
:102AB00003F018F92368E3331A78824201D01870C2
:102AC000012503F045F8041C03F074FF0379A342C9
:102AD00000D004710348039901F0E4FB281C09B0FD
:102AE000F0BDC046D128000040000020E80A0020C8
:102AF00044000020EC0A002038B5054C75467146AC
:102B0000201C01F0B7FB291C201C01F0CBFB38BDB9
:102B1000992A000038B5054C75467146201C01F015
:102B2000A9FB291C201C01F0BDFB38BDB52A000003
:102B3000F0B58BB000AF744671465448BC6001F0EC
:102B400099FB534C6D46236819685B680A1C5A430D
:102B5000D3185B000833DB08DB00ED1A4D4B520045
:102B60001B68AA1849004908DD611A62AD46BD61BB
:102B7000796100F085FA20687E69436872005D1E05
:102B80005543BE6951427519F9613D610021013B10
:102B90000BD33C6902680E19013A03D35400002597
:102BA0003553F9E7FE698919F1E728243C600020D4
:102BB00001F016F8364B1C68374B65681968FD61E3
:102BC0002B1C013B22D37A6920685A43451EAA1860
:102BD000BD699E005200FE60AA18461E3E61F0D3F9
:102BE000FD688E697659A5687E60684318184E693D
:102BF0000130800085597E680020B54200DDA81BA9
:102C00001588023A401950803869E6E73D68013D71
:102C10003D60002DCBD1FD69013DFD6111D37B6984
:102C2000F869256843436E1EF618B96976008E1957
:102C3000013DF0D33088282106F07EFA023E7080F4
:102C4000F6E7FFF767FF124E20203368212459680A
:102C50002225C1551A781B692420C355252102233A
:102C6000381CE255CB550024B96923262030EA559B
:102C7000F45502F0A1FD074B04481B68B968DC61FC
:102C80001C6201F00FFBBD460BB0F0BDD12A000065
:102C900010030020440000204000002038B5054CFF
:102CA00075467146201C01F0E5FA291C201C01F034
:102CB000F9FA38BD3D2C0000F0B58BB000AF74467A
:102CC00071463E48FC6001F0D5FA00F0D9F93C4C61
:102CD0006D46236844CB724393195B000833DB08CD
:102CE000DB00ED1AAD46281CFD61364D69462B68A8
:102CF0005200D86150088A181A62B861002000F0AA
:102D00006FFF314B7600186822687608760084469B
:102D10001168F8693E612E1C4B1E7B6114D3536809
:102D2000013B0DD395685C004D437C605D196446A2
:102D300064690135BD60AD002D597C680553EFE72E
:102D40003D6979694019E7E7BD6913696C00FD6960
:102D50001D4A2D191068AC469A00043A013B05D370
:102D6000C4695900A55864466552F6E7FFF796FF17
:102D7000134D20202B68212419681A792225C1556A
:102D8000E255EA555A1DD27F1B6923202421C255E2
:102D9000CB55381C7E235B422522F9692030D35560
:102DA00002F00AFD33680022DA611A620348F9680A
:102DB00001F078FABD460BB0F0BDC046592C0000BA
:102DC00010030020440000204000002038B5054CCE
:102DD00075467146201C01F04DFA291C201C01F09B
:102DE00061FA38BD6D2D0000F0B591B000AF7446AA
:102DF00071469048BC6001F03DFA00F041F9FDF7E2
:102E0000DDFF8D4BF8621C686946656820683D628D
:102E100068434219D31D5200DB080832DB00D20898
:102E2000C91AD2008D46891A786268468D46386381
:102E30006846C01A8546814B6D461B68F961BD61C5
:102E4000796A3D6BE2685D62281C6D189D62002105
:102E500006F082FA2269281C002106F07DFAE26859
:102E60000021684606F078FA786A226968440021F1
:102E700006F072FA3C6A7D6A63005B083B616B0096
:102E80005B08FB60FB6A35331B787B637D6B6A4CA8
:102E9000002D00D1A9E0002000F0A2FE684A2068C1
:102EA000116843688C46013B50D30268511EFAD327
:102EB0008468654662439A186D69013292005259DE
:102EC000FD69BA623A694A439A185200545FBA6A75
:102ED000FF25A41AFF2C02DCE543ED172540FA6A12
:102EE0007D6037321278BD697A61EE183A6A7D6981
:102EF0004A43AC420DDDB45C0134E4B2B454FE6A22
:102F000064B236363678B44217DB3D6BEC187D6818
:102F100012E0FC6AB65636342478A6420DDA3D6BD0
:102F2000EC18A65C7D68B54200DA351CA554BC6976
:102F30000025E2183C6A4C4315553A69BC6A4A437D
:102F4000FD699A18520054530A1CAFE73C4A0369C2
:102F5000FD6816685A1E5219FC695200A218013BFE
:102F60003FD3F56999004959B962BC6A0021505EA6
:102F7000001BFF2802DDFF257D6103E0C443E41749
:102F800004407C61F96ABC69373109787D6A8C46F6
:102F9000611960450EDDC85C0130C0B2C854F96AE1
:102FA00040B236310978884217DB3C6B61197D6984
:102FB000CD5412E0C8568446F86A3630007884450D
:102FC0000BDA3C6B7D6A6019C45CA4467C6964457D
:102FD00000DA6446C4540020C854BD6A023A5580E1
:102FE000BDE77C6B013C7C6350E7FFF7EFFE236895
:102FF000382059683924C1551A783A251B69EA5591
:10300000E2553C257C6BEB553B207F23C4555B424E
:103010003D20C355381C396B383002F0CDFB074BCF
:1030200004481B68B9685C629C6201F03BF9BD46CC
:1030300011B0F0BD892D00001003002044000020D5
:1030400040000020014B18607047C046340100204A
:10305000014B18687047C04634010020014B586886
:103060007047C04634010020014B98687047C04645
:1030700034010020014B18607047C046F80A002058
:10308000014B18687047C046F80A0020014B1860D1
:103090007047C046F40A0020014B18687047C046CC
:1030A000F40A0020014B18607047C046F00A002067
:1030B000014B18687047C046F00A0020014B1868A1
:1030C0007047C0464001002010B50D4B00201B7812
:1030D000AA2B12D10B4B1C780B4B64B218780B4BFC
:1030E00040B219780A4B20181A780A4B49B21B785B
:1030F00040188018C01A43425841C0B210BDC046A3
:103100005000020051000200520002005300020071
:1031100054000200550002008023DB0200221880C8
:1031200059809A80C046024B188880B27047C046CA
:103130000600040013B5094A042413780021DBB209
:103140001C4301910198F421FF31884205DC137082
:10315000C046147001990131F3E713BD0D00005012
:1031600013B500220192A022D205D06BC021C90064
:103170000143D16301AB187803218843012108433F
:103180000C24A043042420433024A04310242043D3
:103190003F24204040242043187098780F24A043F7
:1031A000072420439870D8780143D970019B93611C
:1031B00013BDA023DB059869C001C00F7047012231
:1031C000A023DB051040020602499869084010431D
:1031D00098617047FFFFFFFE82B00022019201302C
:1031E0001F2201AB1040C9B21870481C02311040B8
:1031F0000A4092005870DA70019AA023DB05DA6168
:10320000196A024A0A401A6202B07047FFCFFFFFF4
:103210000002064B000A0138002258609A6005221D
:103220001A60C0461A68D103FCD5704710E000E070
:10323000F0B5534F85B03B681A1C543215780232F2
:10324000596D127857331E780F23140799431209CA
:103250002D0701922D0F0B1C80222B43520013438C
:10326000484A0395484D1340484A2B40484913406B
:10327000240F0B400199220413430A0545493607E0
:10328000360F0B40009613433206434E02943340F0
:103290001343424AA024E4051340E360FFF74AFFCA
:1032A0003B68E26855331B781540DB069B0FDB0259
:1032B0001D43E560E26880239B001343E360E268FE
:1032C00080239B011343E360029C039DFFF7FCFEF8
:1032D000002813D0324F882039781E34C9B205F047
:1032E00079FF39784443C9B2882005F073FF0F3560
:1032F00045431E3C00230F3D9C4203DB231E0F2B46
:1033000000DD0F230F22954200DD151CA024E405EB
:103310001F491A40E36812040B401343E360EB4378
:10332000E268DB171D400F239A431D401543E560FB
:10333000E368F022934380221343E360E368154A75
:1033400018481340E360E3683340E360FFF760FF31
:10335000E26880235B051343E3600099E2680B0693
:1033600016401E43E6601048FFF752FF019B0949D3
:103370001A05E3680B401343E36005B0F0BDC04697
:10338000F40A0020FFF9FFFFFFE7FFFFFFDFFFFF69
:10339000FFFFF0FFFFFF0FFFFFFFFFF0FFFFFFEF5B
:1033A00054000200FF0F0000FF6F0000064A074BA9
:1033B000126801209432126819789040021C0A4366
:1033C000D2B21A707047C046400100202900005058
:1033D0000549064B09681A7894310968012088402C
:1033E00082431A707047C0464001002029000050F7
:1033F000044B1878044B1B6894331B681841012355
:10340000184070472900005040010020A0230122ED
:10341000DB055A707047044B82B0019001AA1880F6
:1034200092789A7002B070472400005007B500F0FF
:1034300051FF064B019001AA188092789A70044BB4
:1034400000221A70034B0122DA7707BD24000050D6
:10345000000000200800005007B500F05FFF064B99
:10346000019001AA188092789A70044B00221A7079
:10347000034B0122DA7707BD240000500000002032
:1034800008000050034B00221A70034B0122DA7728
:103490007047C046000000200800005072B6084B7C
:1034A0001B5C002B03D1C04662B630BFF6E762B6A4
:1034B000A023DB059968034A0A409A607047C0461A
:1034C00000000020FFFFF9FF72B6074B1B5C002BCA
:1034D00002D1C04662B6F7E762B6A023DB05996861
:1034E000024A0A409A60704700000020FFFFF9FF7F
:1034F000A023DB055A680121120E58689143034A44
:10350000090602400A435A607047C046FFFFFFFEAB
:1035100008B5074B1B681A1C5C3212785D331B78A8
:10352000520001325043994005F054FE08BDC04698
:10353000F40A002008B5044B1B685F331978490072
:103540000131FFF7E5FF08BDF40A002008B5A0230C
:103550000120DB055870FFF7A1FFFFF7C9FF08BD89
:10356000F7B5A026041CF605042804D1524B1B68AD
:10357000DF6E1B6F21E0514B1B689F6CDB6C73612E
:10358000FDF72EFCE3300378002B17D005F0CEFDBD
:1035900005F024FD01797F221140890401917169B0
:1035A0000B1C47490B400199194371614179444B08
:1035B0000A40716992040B4013437361A023DB0539
:1035C0001F611E691F231E40FFF77EFD00280AD0E1
:1035D0003C4B882019780436C9B205F0FBFD464300
:1035E0000023043E03D4331E1F2B00DD1F23A02223
:1035F000D20510691F210B40884303431361022C3D
:1036000016D007DC002C13D0012C2DD12B4B1D68BC
:103610005E3529E0042C07D023DB052C24D1264B72
:1036200000241D6877351FE0234B1D6874351BE0AF
:10363000FDF7D6FB031CCC331B78002B03D01E4BAD
:103640001D68453510E0E3300378002B05D005F008
:103650006DFD05F0C3FC851D06E0184B1D685B354C
:1036600002E0164B1D686135A023DB0559692878F7
:103670003F22104091430143596168781F215D69E1
:1036800008401149C0022940014359610F496400B3
:1036900009680C19211C533108785968104091436E
:1036A000014359605434217858680A401102084A8D
:1036B00002400A435A60F7BDF80A0020F40A0020CD
:1036C000FFFF03FE54000200FF07FFFF4001002040
:1036D000FFC0FFFF274BF0B51A68274B85B01B686A
:1036E0005E331B785B069B0E0193517E00238D0099
:1036F0005519581E5B18002B25D053181B189B7E9C
:103700008024D3185E78A023DB055F68E4033C4384
:103710005C60019CB606240400945F68B60EBC464B
:10372000164F64462740009C27435F60C0462436FE
:103730007600F65A84002C1966675E68104C344097
:103740005C60031CD5E76F460293BB8101233B728B
:10375000537E7F217B72BB72FB7A74328B430421D0
:103760000B43FB720F20B02302A93B7302F07EFAD9
:1037700005B0F0BD40010020F40A0020FFFFC0FFAB
:10378000FFFFBFFFF0B585B0FFF7A4FF144B002586
:103790001E68747E631C9B005B420093A300F318B9
:1037A0000193009B043D9D4207D0019A01215719C6
:1037B000786FFFF7ADFE7867F3E76A4600239381E1
:1037C000012313720423D372B023547294721373BF
:1037D000321C74320F2002A902F048FA05B0F0BD85
:1037E00040010020044B00225A70A023DB055A70D0
:1037F00001221A707047C04600000020A023DB059C
:103800009968064A0A40802189020A439A60044A5C
:103810000021917001229A707047C046FFFFF9FFA6
:1038200000000020014B1B68D86E7047400100204B
:10383000014B1B68D866704740010020A023DB05C0
:103840009868C0B2704730B5A023DB059B68DBB237
:1038500083420ED001DA013300E0013BA022D20501
:103860009568FF211C1C8D430C40291C214391604D
:10387000EEE730BDA023DB059968802252020A439F
:103880009A609968094A0A409A609A681201120976
:103890009A60D968064A0A40DA60D968054A0A403F
:1038A000DA60D968044A0A40DA607047FFFFFFF027
:1038B000FFFEFFFFFFDFFFFFFFFFFFEF1B4B10B51A
:1038C0001A680121131C52331878A023DB059C6869
:1038D0000840174900042140014399605332107891
:1038E0009C68144900070009214001439960117840
:1038F0009A6809091201090712090A439A60D968EE
:10390000802252000A43DA60D968802292010A4379
:10391000DA60D968802252050A43FA20DA60800012
:1039200000F0FCFCFFF774FC10BDC046F40A002058
:10393000FFFFFEFFFFFFFFF008B50020FFF7AEFD21
:1039400008BD034B1B685C3318784000013070479A
:10395000F40A0020024B1B685D3318787047C0469C
:10396000F40A0020004870470010005000487047DB
:10397000002000500048704700400050064B1B6874
:103980005879064B02301B6842331B785843044B6E
:103990008000C0187047C046F80A0020400100208F
:1039A00004400050F7B5194B051C1C68A3795E1E36
:1039B00010D36279013A0BD36179501C023159431B
:1039C00041181348890009180868E8400860F1E7C1
:1039D000331CECE7FFF7D2FFA37A002201339C46A9
:1039E0006346013B9C460FD3617A9600019186198C
:1039F00000230199994205D09F00F1590133E94014
:103A0000F151F6E75218EBE7F7BDC046F80A00207F
:103A100000400050064B1B685879064B02301B686B
:103A20004E331B785843044B8000C0187047C04683
:103A3000F80A00204001002004400050074B1B689A
:103A4000DA795879064B02301B68013246331B780D
:103A50005843044B10188000C0187047F80A002023
:103A6000400100200040005070B53F4B1D682A788F
:103A700053B2042B18D13D4B19680B1C76331E78BA
:103A800002235D1E6FD34A79013A0BD34879541C47
:103A9000023058432018364C800000190468F44066
:103AA0000460F1E72B1CECE7002A45D0022B21D162
:103AB000FDF796F9CC3003782C4C002B02D023680C
:103AC000473302E02B4B1B685D331878FFF76AFF22
:103AD0002568EC79002C2FD0FFF7B0FF061C013CC5
:103AE0002AD3697A201C05F0CBFB89008A59A300F0
:103AF000F250F4E7032B03D11E4B1B68633318E02D
:103B0000012B11D1FFF786FF184B061C1B685C794F
:103B1000013C11D32B1922331B789B009859FFF7D6
:103B200009FDA300F050F3E7052B05D10F4B1B68EF
:103B300079331878FFF736FF0E4B1B685A331B7822
:103B4000002B10D0094B1A685379013B0BD35079E5
:103B5000947902306043591C0918054889000918F6
:103B600000200860F1E770BD40010020F80A002045
:103B700000400050F40A002008B5A0230120DB0516
:103B80005870FFF78BFCFFF7B3FCFFF76DFF08BD24
:103B900070B5041C104E114D11D10120FFF7E0FC4F
:103BA000336801221A70A023DB056C705C701A70F8
:103BB000FFF7E2FFFFF79CFCFFF7E4FD0224201C67
:103BC000FFF7CEFC336800221C70A023DB056A706F
:103BD0005A7001221A7070BD4001002000000020C0
:103BE00008B5FFF7D5FFFFF7C7FF08BD08B5A0234D
:103BF000DB05011C58683F22114090430843586080
:103C000059685868114001310A401102064A0240C1
:103C10000A4306495A6000224A705A7001221A70FB
:103C2000FFF7AAFF08BDC046FFC0FFFF000000204D
:103C300010B5A023DB051C6A0005064A000D01042F
:103C400022400A431A621A6A120B120310431862C6
:103C500010BDC046FFFF00F073B5164BA0221B68D5
:103C6000D2059168196D503391601C78FFF72CFADA
:103C7000114D002810D0114B114A1B7812782E6874
:103C800052B25BB20092201C1021D12202F0A8F89F
:103C90002B6830671B6FE418002C01DA002402E067
:103CA000FF2C00DDFF242B68E0B2DC66FFF7CBFDC4
:103CB00073BDC046F40A00204001002053000200FA
:103CC0005200020008B5FFF7C7FFFFF7B1FAFFF790
:103CD00047FA234BC022920098582249014099503C
:103CE0009958FF20814340200143995098581E491C
:103CF000014080200004014399509858802100021F
:103D0000000A090601439950012102221A60082085
:103D10001960042119601860144B00205860144B7E
:103D2000186901431961134B1B68197A124B1B6800
:103D30009433002900D1032210491A6000230B702C
:103D40000F49A0220B700F49D2050B709363D36B00
:103D50003F218B43D36362B600F02CFF08BDC04601
:103D600000E100E0FF00FFFFFFFF00FFFCE100E0DB
:103D700000ED00E0F80A002040010020290000507A
:103D8000280000502A00005008B5002801D0012862
:103D900001D100F00FFFFFF75FFFFFF749FAFFF7D0
:103DA000DFF908BDF0B5214B0D211B680324DA7A39
:103DB00000230C3AD2B291425B41E41AA023DB0506
:103DC00058693F22596810408022D2030A43A3B0A9
:103DD0005A60411EA023C9B2DB0502AAFF2910D0F8
:103DE0005F683F26124D0E4036043D4035435D600E
:103DF000C046251C24356D005D5B4B00D552013952
:103E0000E8E75C680B4921405960694600238B80D4
:103E100001230B70022348708870CB700320B323FA
:103E20000B7101F023FF23B0F0BDC046F80A00205B
:103E3000FFFFC0FFFFFFBFFF10B5A020C005446912
:103E40004906E401E409214341617F210A404469B4
:103E50009104074A22400A430649426100224A70FF
:103E6000427001220270002B01D0FFF785FE10BDC9
:103E7000FFFF03FE00000020F7B5041C02F088FDE0
:103E8000124B1A6800235068411C0191019D16686D
:103E90009D420CDB976801367E4399008C469E1943
:103EA00000216546B600615101333151EEE701232F
:103EB0009E420ADB956800215D43AF002D18013555
:103EC000AD00395101332951F2E7F7BD100300204D
:103ED000044B054900221A6059609A6005221A6055
:103EE0007047C04610E000E0FFFFFF0010B5A023C0
:103EF000DB059C6899680B4BC9B21B68E4031B6F18
:103F0000E40F591AFF31E62359430134064BA04010
:103F1000C918041C054805F05DF9C1B2201C05F064
:103F200059F910BD400100205C5D000040420F00C7
:103F3000014B00221A60704710E000E030B50E4DD2
:103F40000E48AB6885B0C01A0193FFF7CFFF02A9F6
:103F5000012300240B704B708B7004230190CB70F5
:103F6000201C6F2301AA8C800B7101F07FFE019849
:103F70002C6005B030BDC04610E000E0FFFFFF0040
:103F800010B5041CFFF7A4FF201CFFF701FEA023BF
:103F9000DB0501205870FFF797FAFFF7A9FAFFF742
:103FA00063FDFFF7CBFF10BD014B1878C0B270471F
:103FB000470000508023DB0500BA09BAD8601961B8
:103FC000704737B5051C0424291C221C684605F0DF
:103FD00081F92919221C01A805F07CF90099802398
:103FE0000ABADB05DA6001990ABA1A6137BD40BA2C
:103FF00080B2704700BA70470023114A11499A18DD
:104000008A4204D21049C95804331160F5E70F4BB6
:104010000F4A191D043B934203D200221A600B1C65
:10402000F6E70C4B0C4A1360EFF308820433191DBA
:10403000043B9A4203D9094818600B1CF7E7704704
:104040004000002024030020BC940000280300202E
:10405000E80A0020340B0020100B0020CDCDCDCD80
:10406000F0B5294D89B029482C6800F057F9FFF7C1
:10407000CFF80026264FBC4222D280373B1B202798
:10408000832B00DC9F1002A9FAB2012300204A70A2
:104090008A70BF10221C0B70CB70888001F0E6FD87
:1040A000231C3A1C013A08D3002E04D11949186880
:1040B000884200D01E1C0433F4E7BF00E419D9E79E
:1040C0002B6804A9F31A0025019304230124CB7063
:1040D000281CA72301AA8D800C704C708C700B716A
:1040E000843701F0C3FD06A90420C870A823BE1BB5
:1040F000281C01AA8D8001960C704C708C700B717D
:1041000001F0B4FD09B0F0BD100B0020801A0600CC
:10411000801B0020CDCDCDCD014B1B68587E704754
:104120004001002070B5051CFFF774FC094B1C68AA
:10413000637E9A00AD180022511ED218002A08D0C2
:10414000E2185218927E920016588A00AE500A1C4D
:10415000F2E770BD4001002030B50A4B1B685A7E63
:1041600094001C195300C01800230133D11A0131E7
:1041700006D09D00651B59006D6F49424552F4E71A
:1041800030BDC04640010020A02382B080B2DB05D4
:10419000D88502B07047A023DB05D88D82B002B06D
:1041A00070470722A023DB05104042011869E02177
:1041B0008843104318617047F0B585B000AFFEF733
:1041C00077FF264B69461D68061CEA68131C0E33F0
:1041D000DB08DB00C91A2B69F9600E33DB08DB0052
:1041E0008D46C91A8D46F868311C05F073F8BA235C
:1041F000FF33F1182A69684605F06CF8184B194D21
:104200001A682E6893796C46BE60013B13D35179CE
:104210000139FAD35079FE68584340183018BE6807
:10422000F61864367E600678B4467E683678B44404
:1042300066460670ECE72968D379013B06D3CA18B5
:104240007C32E05C12788218E254F6E7F868211CB0
:1042500000F054FFBD4605B0F0BDC046100300207D
:10426000F80A0020F40A0020A023DB0518690006E4
:10427000400F704770B5051CFEF7F6FE0468061C7B
:10428000013C08D37268E300D3181A68AA42F7D138
:104290005B689847F4E7024B013D1D6070BDC04666
:1042A000FC0A002070B5051CFEF7DEFE8468061CC3
:1042B000013C08D3F268E300D3181A68AA42F7D188
:1042C0005B689847F4E7024B013D1D6070BDC04636
:1042D000FC0A002038B5A023DB0599689D680C4BCB
:1042E000041C1B680B481B6FED03C91AC943E62366
:1042F000C9B25943084BED0FC91804F06BFF054BC9
:1043000001355843211C284104F064FF38BDC046E4
:104310004001002040420F005C5D000038B5A02342
:10432000DB0599689C680A4B051C1B6809481B6FD4
:10433000E403C91AC943E623C9B25943064BE40F43
:10434000C91804F047FF68430134204138BDC04616
:104350004001002040420F005C5D000008B50028CD
:1043600007D0481006380123132900DC0023C018A9
:1043700006E00B2900DD0E39081C032104F02AFF9A
:1043800008BDF0B5C04BA9B01B6800250293DB7ACD
:10439000071C0C3B281CDBB20D229A426841BB4B28
:1043A00003261B68361A03963E68019347331E7036
:1043B000019BC4B278684A3304940DAC291C187070
:1043C0006C22201C04F0C8FFB14B0B951A680C95A9
:1043D000231C62CA62C323CA23C343CA43C3012145
:1043E00024234B43221CE31861CA61C361CA61C321
:1043F00061CA61C3039D0131A942F1DB0026039626
:10440000341C029D6B799C424CDA029D04982B1956
:10441000DD7A0BAE291CFFF7A1FF365C2422311C8C
:104420005143B446661C06960B180DAEF618059659
:10443000059B069E1E711F2D08DC0DAE7118012311
:10444000CA68AB401D1C1543CD6011E00BAE335C58
:104450000DA95A43203D01238A18AB401D1C137E31
:104460009906890E0D433F210D408B431D43157660
:10447000019D3F23061C2A191E4005966546567865
:10448000A901059D9E4335431D40634629430133E1
:10449000039E5170DBB20BAA13549E4200DA0393C1
:1044A0000134AEE7019B039E493300241E70029441
:1044B000754B029C1B6898798446844200DBD8E0E7
:1044C000029D5B191A1DD67F714A126804925A32F6
:1044D0001278059205980022904205D06146013974
:1044E0008D4201DA0533DA7F0123301C191C203894
:1044F0001C1CB1408440201C06913F210840111C27
:1045000020391D1C8B40DBB20993039B2421013B06
:104510004B430790039C28A89540C31808955C3B23
:104520000194019D002D41D0019D2421013D69434D
:104530000DA8411801957C68CD781F200440854363
:1045400025430020CD70186018314C783F208443FB
:104550004C701F2E04DC1968069C2143196004E08E
:104560004C78079D84432C434C70059800281BD041
:104570006146029C01398C4216DA1F2A04DC196854
:10458000089D294319600FE0019C2421614328AD57
:10459000691854394878099C8506AD0E25433F2497
:1045A0002540A04328434870243BBAE7049E029C60
:1045B000331934788033A4065D78A40EFEF784FDA9
:1045C000002813D0334E882031780135C9B204F069
:1045D00001FE31784543C9B2882004F0FBFD023466
:1045E0004443013D023C019A6E1C03D02A1E1F2A3F
:1045F00000DD1F223F203F2C02DCE043C01720409B
:104600000590019C039DAC422CDA019C24256C434F
:104610000DA91F26101C0B19304004905878B04388
:10462000061C0498064305985E703F2630400490AF
:10463000605CB043061C0498064366543968372909
:104640001EDC4D4314496D18291C51CB51C170CB50
:1046500070C131CB31C13B68019E013301363B60F3
:104660000196CEE7029E7B680136013302967B609D
:104670001EE7064B3A681B68012048331A7000E0B9
:10468000002029B0F0BDC046F80A002040010020FB
:10469000F40A0020540002000080005030B585B0BC
:1046A000FEF706FD064B01A81B68021C603332CBE7
:1046B00032C2FFF766FEFFF77FFD05B030BDC04692
:1046C00040010020F0B5604B95B01B6800270493B3
:1046D000DB7A051C0C3BDBB20D22381C9A42784178
:1046E000C3B20793594B29681B680BAC01934B333A
:1046F0001970019B6A684E331A70019B391C4D3347
:104700001F702422201C04F027FE514B09971B68C0
:104710000A970293029A231C43CA43C343CA43C362
:1047200043CA43C3019E237E77769B06E6689B0EB1
:1047300005960693049E73799F4234DA049E079887
:10474000F319DB7A191C0393FFF708FE09AB1B5C16
:10475000002B0AD1019E717E4A1C72767118FAB242
:104760000BAE8A76013231180A71019EF2190BAE36
:1047700031180979039E22320139117001221F2E4E
:1047800004DCB240059E1643059607E00399069E99
:1047900020398A4032433F210A400692013309AA58
:1047A00013540137C6E70BAB059E1A7E0E963F21C8
:1047B000069E02988A43324306781A76B606B60EEB
:1047C000FEF782FC00280AD0224B88201978023696
:1047D000C9B204F0FFFC46430023023E03D4331E5B
:1047E0003F2B00DD3F2362781F2120788A436270CF
:1047F0003F2290431340034323706868E3780840E6
:104800008B43617E034391436176296824224A43A6
:10481000E37000231293139323610F4BD218131CE0
:1048200043CC43C345CC45C346CC46C32B686A68DA
:10483000013301322B606A60044A012012684C3255
:10484000137015B0F0BDC046F80A002040010020EA
:10485000F40A00205400020000800050F0B5D04B54
:10486000A5B01B68002601933B331B78041C0C3B4E
:10487000301CDBB20D229A427041CA4B03271B68E1
:104880003F1A0397276802933F331F70029BC5B2FC
:1048900060684233059509AD311C18706C22281CE4
:1048A00004F05AFDC04B07961B68089624332A1C57
:1048B000C2CBC2C243CB43C283CB83C201212423D8
:1048C0004B432A1CEB18C1CAC1C3C1CAC1C3C1CA68
:1048D000C1C3039E0131B142F1DB019F0025049762
:1048E0000395019D049F6B7A7E1B9E4243DA049BD5
:1048F00005983B331D78291CFFF730FD07AB2422B8
:104900001B5C1F2D09DC5A4309AFBA180123D1687B
:10491000AB401D1C0D43D5600FE0534309AAD318CB
:10492000203D0122AA40151C1A7E9106890E0D43D6
:104930003F210D408A432A431A76029F07AABD19D8
:104940003835AE783F23115C9E43B446071C8E0178
:104950001F400096664637431F40009B01311F43AE
:10496000AF70039DC9B211548D4200DA0391049EC9
:1049700001360496B5E7039E029BF6B24133002749
:1049800004961E700197864B019E1B689A7A964288
:1049900000DBAEE0019D24AF5A19403210780122AD
:1049A000011C2039161C8A403F210A400592039AB7
:1049B0002421013A514386407918039A02965C39C2
:1049C000013A1FD32425554309AE676875191F2680
:1049D00037400097EF78B7433E1C009F3743EF7096
:1049E0003F2618351F2804DC029F0F606F78B743FD
:1049F00005E000270F606F78B743059E37436F705F
:104A00002439DDE7674A11680022587A824210DAB9
:104A10008818383085782426A806AD097543A7681C
:104A2000800E281809AD0137281807710132A760D8
:104A3000EBE75D4B1B689A1D0533D67FDD7FF606DD
:104A4000AD06F60EAD0EFEF73FFB002813D0574F14
:104A5000882039780136C9B204F0BCFB3978464366
:104A6000C9B2882004F0B6FB02354543013E023D41
:104A70000021771C03D0311E1F2900DD1F213F2D8F
:104A800002DD3F20029003E0EB43DB171D4002955F
:104A90000022039FBA4228DA2425554309A81F267D
:104AA0000F1C4319374005975F780132B7433E1C0E
:104AB000059F37435F70029F3F26374005972F5C65
:104AC000B7433E1C059F37432F5425682420454398
:104AD000374E7619301CE0CBE0C0E0CBE0C0E0CB35
:104AE000E0C0236801332360D3E7019D01350195C0
:104AF00049E72C4A27681568049E2A1C4032177023
:104B00002068D07061680532517016700022597AA1
:104B10008A4210DAA9183831897824208E0689094A
:104B20004843B60EA168801909AF013138180171E8
:104B30000132A160EBE7002610AF0296029E0398B7
:104B4000864226DA3B1C00210C3B1960029B24267E
:104B5000734309A8C018427E031C01903F20824382
:104B60005A76381C082204F0F7FB2168104A71437A
:104B70005218131C019A243743CA43C343CA43C380
:104B800043CA43C32368029E013301362360029661
:104B9000D4E72368443501202B7025B0F0BDC04612
:104BA000F80A002040010020F40A0020540002000E
:104BB00000800050F0B5674B00241F680D22FB7A7F
:104BC000211C0C3BDBB28BB09A4261410326CBB275
:104BD0000C22761A07A8211C019304F0BDFB059452
:104BE00006947A793D1C02920299EB1B8B4213DAF0
:104BF000E97A0198FFF7B2FB072801D90020A6E067
:104C000005AA135C0135B342F8DA0133DBB2135461
:104C10009C42E9DA1C1CE7E701220792B8790021DF
:104C200081420ADA131C9D1AA54203DA372BE5DC10
:104C30000133F8E701311A1CF2E70792FB79002BE8
:104C400011D1002307A80793FFF73CFD07A8FFF742
:104C500098FB404B404D1B68DE79002E3BD007A8E7
:104C6000FFF7FCFD4DE03B1C3B331B7800250C3B64
:104C7000DBB20D22291C9A426941CAB20292032278
:104C8000521A0192059506957B7A3E1C0393039A6E
:104C9000F31B934214DA331C3B3319780298FFF765
:104CA0005DFB0728AAD805AA135C019901368B423F
:104CB000A4DA0133DBB213549D42E8DA1D1CE6E7A7
:104CC000EB43DB171D40BB7A5D43079B6D00ED187E
:104CD000372DB6DD92E72868311C04223F3004F0FE
:104CE0003BFB2868311C0422433004F035FB2B6861
:104CF0000799CAB2191C3F3144330A704A700A71CD
:104D00001A702D6864002B1C4B331A78073BDA733A
:104D1000291C1B7854310B704A70083909782A1CF9
:104D2000563211700F3A1678291C5731281C0E7014
:104D300059305374022204F0CDFA2B1C5B33341922
:104D40001E705C702E66113B1B7801206B660BB0E9
:104D5000F0BDC046F80A0020400100200D4B10B500
:104D60001C680D4B01681B681A1C433211704168A6
:104D7000D170191C453100220A70617A8A4204DA26
:104D80008168013201318160F7E702684433012014
:104D90001A7010BDF80A002040010020F0B5B94B90
:104DA000B94A1B6812681C6EABB006940192D27AA5
:104DB00000250C3A2E1CD2B20D2191426E41F7B261
:104DC0001A1C04974F320327147052330FACBF1BC9
:104DD0000126291C1E706C22201C04F0BDFA019BC8
:104DE0000D950E954833221C23CB23C223CB23C21F
:104DF00023CB23C224237343221CE31823CA23C3D7
:104E000023CA23C3013623CA23C3BE42F2DB019E59
:104E1000002776793C1C03960297039EB4423ADA47
:104E2000019D04982B19DD7A291CFFF797FA0DAB29
:104E30001E5C2422311C5143B446661C05960F1893
:104E40000FAEF719059E3E711F2D08DC0FAF7918C4
:104E50000123CA68AB401D1C1543CD6010E01B5CEC
:104E6000203D5A430FAB9A180123AB401D1C137E03
:104E70009906890E0D433F210D408B431D43157646
:104E800063460133029DDBB20DAA13549D4200DA42
:104E900002930134C1E7069F012404970194029C08
:104EA0002422013C62432AADAA18029B08945C3A72
:104EB000013B13D32420584300250FAE1560301852
:104EC000467E3F24A64346765560857EC178A5433D
:104ED000402421438576C170243AE9E76A4B019C5E
:104EE0001F68013CB879BC4607900994231C099EB1
:104EF000079F9A1BBA4256DA019D0122511B614459
:104F0000281CC9180138C0B2233109780B905810F9
:104F100010400A90081C2038161C8240D2B2089F0C
:104F2000059224227A432AA88E408218029F039673
:104F3000583A013F35D3242078430FAC2018C67867
:104F4000019D1F242540A6432E430B9DC6700A9E3B
:104F50006CB2B44212D01F2905DC101F0468039DF7
:104F60002C4304601BE0447E059DA606B60E2E432E
:104F70003F252E40AC433443447610E01F2904DC27
:104F80001068039E3043106009E0847E059DA606EC
:104F9000B60E2E433F252E40AC4334438476243A4C
:104FA000C7E70133A3E7394B1B68DB1980335E7811
:104FB000634648331D78AD06AD0EFEF785F8002830
:104FC00013D0334C882021780136C9B204F002F99D
:104FD00021784643C9B2882004F0FCF802354543E5
:104FE000013E023D0024701C03D0341E1F2C00DD46
:104FF0001F243F2D02DD3F21039103E0EB43DB172C
:105000001D400395049D24236B43224E00219B19D0
:10501000029DA94221DA24254D430FA81F26271CF3
:1050200042193740059757780131B7433E1C059F19
:1050300037435770039F3F26374005972F5CB74390
:105040003E1C059F37432F54181CE0CAE0C0E0CA3D
:10505000E0C02433E0CAE0C0DAE7EB43049E019FDE
:10506000DB172B40F618013704960197032F00D069
:1050700015E7044A069E1268F118CB1850321370D7
:105080002BB0F0BD40010020F80A0020F40A0020F7
:105090005400020000800050F8B5164D061C2B6825
:1050A00000243F331F782B68E1191A1C4032127814
:1050B0000134914209DAE319242058430E4B311C84
:1050C000C018082204F048F9EDE747331F780024A0
:1050D0002B68E21948331B7801349A4209DAE31944
:1050E00024205843044B311CC018082204F034F922
:1050F000EEE7F8BD40010020F87F0050F0B5364BD8
:1051000085B01B6802901A1C03913F321578334A10
:1051100000201168041C8A7A94422ADA021C4F7A11
:10512000161ABE421EDA9E193836B678B7090096AE
:10513000EF1924267E432A4FB4463E1C009F664446
:105140000196BE06039FB60EB446BE5C3F2E00DD40
:105150003F26F6B20096019E0132371C009E67443E
:105160003E77DCE7181C4130007801342D18101C04
:10517000D1E71A1C4732147800208A79904228DA45
:1051800000224D790195AA421DDA9E187678B7095A
:10519000E719039724273D1C039FB6067D43AC46C1
:1051A0000F4DB60E2F1C019D674445430397029F88
:1051B000BF187D5D3F2D00DD3F25039FEDB2BE1979
:1051C00035770132DDE71A1C493212780130A41814
:1051D000D3E705B0F0BDC04640010020F80A00202A
:1051E0000080005024235843054BC0180F231A4059
:1051F00013068169034A0A401A4382617047C04618
:1052000000800050FFFFFFF038B5051C141CFDF7AF
:105210005BFF002808D00A4B882019780234C9B2F5
:1052200003F0D8FF4443023C24206843054BC018D8
:1052300002683F231C409A431443046038BDC046B3
:10524000540002000080005010B5041CFDF73CFF24
:10525000002808D0084B882019780434C9B203F01C
:10526000B9FF4443043CA023DB0519691F22144005
:1052700091430C431C6110BD5400020030B50F4B2C
:105280001B689979884203DA1B180433D87F14E02D
:105290005A798D18411AA84202DA5B18D87A0CE0C4
:1052A0009C7A8A1A2D19A84203DA9B184033187881
:1052B00003E0141B1B193833D87830BDF80A0020DE
:1052C000F0B5D34DA024E405A3682B6897B05979B5
:1052D0009A7900AF8A18597A9B7A5218D3181A1CF7
:1052E0005A433B62D31DDB08DB006846C01A854683
:1052F0006B46FF213B6104F02FF8FF20FFF70EF80B
:10530000C44B69461B1A386A7B60C000031C0E330D
:10531000DB08DB00F860C91A386A8D466B468000EE
:10532000FB61031C0A33DB08DB00C91A00220023DF
:105330003A637B63B860B961E268B74B8D4613404E
:10534000E3602B685C79B24B013C1B68621C14D093
:105350001B19381CD97A5030202203F09DFF3D6D77
:1053600058207A6DAB00C019C3180121283B914029
:105370000A1C19680A431A60E5E79C79A44B013CB2
:105380001B68621C15D01B190433381CD97F5030A0
:10539000202203F081FF3D6D58207A6DAB00C019CB
:1053A000C3180121283B91400A1C19680A431A605E
:1053B000E4E75C7A964B013C1B68621C15D01B1914
:1053C0003833381CD9785030202203F065FF3D6D0A
:1053D00058207A6DAB00C019C3180121283B9140B9
:1053E0000A1C19680A431A60E4E79C7A013C621CB3
:1053F00017D0874B381C1B6850301B194033197865
:10540000202203F049FF3D6D58207A6DAB00C01992
:10541000C3180121283B91400A1C19680A431A60ED
:10542000E4E73D697D610025FD62FD6A386A8542D9
:1054300000DBDBE00021FA68F86903F08DFFA024AF
:105440000021BA68B86903F087FFE40500232363ED
:10545000636B3F26B34363633D6BA563786BC0B258
:10546000B86230407862E36BB3430343E363642084
:10547000FEF754FFFDF7CCFEF86AFFF7FFFEC1B25E
:10548000381C4830202203F007FF396B7A6BFB6C25
:10549000B963FA63BA6C0121994058200B1CC019FA
:1054A00091004118081C203802689A430260B86CC9
:1054B000131C002808D028390A685340626B334017
:1054C000B2431343636301E06B402363A024E4050C
:1054D000A563E36B796A3F26B3430B43E3630A207A
:1054E000FEF71CFFFDF794FEE26B80235B00134385
:1054F000E363BA6B5540A563FB6BBA6A5A40E36B32
:105500003240B3431343E363FEF7E2FCFD6BBE6B33
:10551000FB69AC460124414A7D689168A94214DBCD
:105520003F4A65461068526830402A405D6895429F
:1055300003D3F0D11D688542EDD2BD69DA60A200C7
:105540009860A95001340833E5E7FEF7F1FCA02389
:10555000DB05D96B334A0A40DA63012C3ED0651E65
:10556000F869ED004519013C002C37D02B1C083B95
:105570001A6829685B6891436A683E6A9A43A30087
:1055800039647A64013EBB62FA6A964224D0301CC8
:10559000FFF774FE011C381C5030202203F07CFE03
:1055A0007B6D0122386D9A405821131CC919820065
:1055B0008A18183A12681A420CD0BB6ABA691720C6
:1055C000D25840425043184BC018FEF78FFC7969FF
:1055D00000118855013ED7E7083DC4E7FD6A386AE7
:1055E0000135FD627D692D187D611EE7C3B2381C4F
:1055F00050300370437083700023C37003713969A6
:105600000123437100F0D8F8BD4617B0F0BDC04685
:10561000F80A0020FFFFFF00FFFF0FFF10E000E08F
:1056200040000050FFFEFFFFE9FFFF16014B18602E
:105630007047C046040B0020014B18687047C046F5
:10564000040B0020014B18607047C046000B00207F
:10565000014B18687047C046000B0020014B1868CA
:105660007047C04644010020F7B52F4F734671467E
:10567000381C0193FEF7FEFDFBF7A0FB009001F044
:1056800087F9061CFDF7FCFC284D1022041C00992C
:10569000286803F01FFE32882B68381C1A74120A1F
:1056A0005A74B2889A74120ADA74214A126805325E
:1056B000D27F002A03D0A2791A75627902E062795A
:1056C0001A75A2795A75E2799A751A4A6B68128826
:1056D0001A70120A5A70184A52889A70120ADA70AE
:1056E000164A52881A71120A5A71154AD2889A714A
:1056F000120ADA71134AAB68920A1A70124A920AB5
:10570000D2B25A709A70114A920AD2B2DA701A71F1
:105710000F4A920AD2B25A719A710E4A920ADA71FB
:105720000199FEF7BFFDF7BD0956000048010020B2
:1057300010030020FE030000FC970000FCB30000F3
:10574000F8BF000000000000000400000098000006
:1057500000B4000000C00000F7B50A4C7146061CFA
:10576000201C7546FEF786FD074A694681CA81C13D
:105770006B46B600F658201C291CFEF793FD301C22
:10578000FEBDC046F9560000A493000070B5084C59
:105790007146201C7646FEF76DFD064B201CDB692A
:1057A000311C5D78EDB2FEF77DFD281C70BDC04652
:1057B0002D57000048010020F8B5144D041C0F1CA3
:1057C000281C71467646FEF755FD114BFF215A6A9B
:1057D000117010499C620F60A0782778596B47437D
:1057E00020793F1860794006400E78430860986938
:1057F000A0210170D969281C1378FF2B02D10B78E6
:10580000022BF9D0311CFEF74DFDF8BD59570000B1
:10581000480100200804002038B50D4C7146201CBA
:105820007546FEF727FD0B4AD1694B780A49DBB272
:105830000B72012B05D0022B05D1936901225A70FE
:1058400001E0FDF7B3FD291C201CFEF72BFD38BD40
:10585000B9570000480100200804002038B50D4C5D
:105860007146201C7546FEF705FD0B4BDB68002BCF
:105870000BD00A4ADBB2106C7F211940483201700C
:10588000937001335370FFF7C7FF291C201CFEF7EC
:1058900009FD38BDFD570000080400204801002024
:1058A00070B50F4C7146201C7546FEF7E3FC0D4B9E
:1058B000261C1B7A0C4C012B05D0022B05D1A269AA
:1058C0000023537001E0FDF783FD236C7F211A78DC
:1058D000301C8A431A70291CFEF7E4FC70BDC046D8
:1058E000415800000804002048010020F7B51E4E72
:1058F0007346301C71460193FEF7BCFC1B4D00241F
:105900001B4E337A012B07D0002B18D0022B17D156
:10591000184B9B695C7813E0FDF76AFD041C002DB1
:105920000BD1FDF755FD2E23FF33013B002B01D09A
:10593000C046FAE7FDF73AFD0C4D013D00E01C1CA6
:105940000C4FFA695378327A9A4206D0FFF7A8FFD3
:10595000FB69074A5B78137201E0002CD0D1024842
:105960000199FEF79FFCF7BD8D580000FF2C010048
:105970000804002048010020F7B5164D7346071CA7
:105980000E1C281C71460193FEF774FCFFF7AEFF56
:10599000114C8022236C52421978606C0A431A70B1
:1059A000391C321C03F096FC236CF6B218787F2267
:1059B0009043311C1140021C0A431A704834A670EF
:1059C000FFF72AFFFFF792FF281C0199FEF76AFCF8
:1059D000F7BDC0461959000048010020F8B5FBF793
:1059E000EDF900F0D5FFFDF74BFB194C051C666B7C
:1059F00003F0D6FA7060FFF737FE164B1B68188865
:105A0000E36B020A5A711871FFF7A6FEE26BC6B289
:105A100096712B68EF790136FF1801374743381C20
:105A200000F0EFF93A1C0021051C206403F094FCFF
:105A3000231C4833013500225E7065649A7003F0C0
:105A4000A9FA054B5860054B1A78E36C1A70F8BD3B
:105A500048010020040B00200804002046000050EC
:105A6000024BDB691878C0B27047C046480100207D
:105A7000024BDB699878C0B27047C04648010020ED
:105A8000014BDB699870704748010020024BDB69CD
:105A9000D878C0B27047C04648010020014BDB698E
:105AA000D870704748010020014BDB695868704787
:105AB00048010020024BDB695A6858607047C046B5
:105AC00048010020024BDB69187AC0B27047C0461B
:105AD00048010020014BDB69187270474801002023
