:100000004D424E014D34485056010400010000009D
:100010006000000000C000000000000000000000C0
:100020000000370100000000000000000004000094
:1000300001005601010026000004000000980000A5
:100040000200210127002B00009C0000001400008A
:10005000030021012C002F0000B000000010000060
:100060000038002035020000000000000000000001
:100070000000000000000000000000000000000080
:100080000000000000000000000000000000000070
:10009000000000000000000000000000550000000B
:1000A0005700000051010000790000008D000000A1
:1000B00000000000FEE708B5044B01221A70044B53
:1000C0000022DA77034B1B68984708BD0000002028
:1000D0000800005034000020034B01225A70A02376
:1000E0000022DB051A70704700000020034B01223C
:1000F0009A70A0230022DB059A7070470000002050
:100100008D23013B002B01D0C046FAE7044B10229F
:100110001B78DBB21807C00F134018437047C04666
:100120002B0000500F4BF7B518261E700E4BA02762
:100130001E70FFF7E5FFFF050B4B01AC00252C37C8
:1001400060701D703E70FFF7DBFF064B20703D7046
:100150001D7023786278181C504040001340034300
:10016000D8B2FEBD2A0000502D00005000230360CD
:1001700030B50B601312012B13D10423013B10D3B4
:10018000084DD4B25D5D641BF8D4074A9D00126827
:10019000AA58002A05D012190260044AD35C1C1B1D
:1001A0000C6030BDE0030000DC030000E40300004D
:1001B00070B58022D2051379DBB2002B19D12B4CFC
:1001C0006360A3602A4B1289261C251C1B6892B20F
:1001D00010361435E260301C291C002B06D09847DD
:1001E0002169002937D1E268301C291CFFF7BEFFC6
:1001F00031E0012B0CD11D4B186900282BD09968D8
:100200005C69A14227DA4C1C9C60137A435422E0BB
:10021000022B1BD1154C2369002B12D06068616939
:1002200088420EDA1B5C1BBAD360124B1B68002B92
:1002300003D0E268101880B29847636801336360A6
:1002400009E080230022DB05DA6004E0032B02D101
:10025000064B00229A60C0468023DB0501221A70FB
:10026000C04602221A7000221A7070BD00000020E1
:100270003C0000203800002080230222DB05FF32F2
:100280001A600421024AFF31118000221A7070475F
:1002900006000040F0B5A023DB059B68534A1F21F0
:1002A0008DB0DBB21160D12B0BD0D02B01D8013334
:1002B000DBB2A022D2059168FF20814319439160EF
:1002C000F1E74B4B4B4A191D043B934203D20022EA
:1002D0001A600B1CF6E7FFF7CFFF474A8023DB02CB
:1002E0001A80464A0027093A92B25A809F80C04637
:1002F000434ADE88434D10685268434C0A922A886C
:1003000009ABB6B21A8123625E810990FFF70AFF3A
:10031000A023DB05DA7C03AB1A7034214D225A701E
:1003200099705A7148214522D9709A71502138220A
:100330001971D8716362FF3205AB0597A3611A800A
:1003400007AB01220797E3615A70304B0697DA89B1
:100350002F4B08975F882F4B211C1B8828310B706F
:10036000211C1B0A29310B702B4901235B420B70A6
:100370002A482B4903700B702A48211C2E312F3438
:1003800003700B7023702B889E4229D1264B9A4212
:1003900026D0BA4224D1254EF7899F4220D0F68933
:1003A000B446234E7788BC451AD1224FF88998422B
:1003B00016D0FF89EB889F4212D1174B17481A704D
:1003C000120A73880270164A9BB2164813701B0AF1
:1003D0000370EB889BB20B701B0A237000F048F887
:1003E000154B02221A6062B6FEE7C0462800005094
:1003F00004000020400000200004000000C00000B5
:10040000F0BF0000F8BF0000000000200004000062
:10041000FC9B0000FE0300002A0000202B000020AF
:100420002C0000202D000020FFFF0000009C000099
:10043000FCAF000000B0000000E100E01800002068
:100440002030407008080C08FFFFFFFFFFFFFFFF90
:10045000FFFFFFFFFFFFFFFFFFFFFFFFFFFF370172
:100460004D344850434F5432000000000000560104
:10047000F0B5D5B002AF03F058FE05F0F7FAF86218
:1004800008F0BAFE08F0EEFE09F0F2FB00F060FEA4
:10049000D54AD64B1A60D64AD64B1A60D64AD74BA5
:1004A0001A6005F0E3FA7863052800D101E316D855
:1004B000022800D1BEE207D8002826D0012800D1AA
:1004C000ABE27C6BFC62ECE77D6B032D00D1E2E2DA
:1004D000042DF6D105F050FB02F010FBE4E27E6B38
:1004E000092E00D102E307D8072E00D1EAE2082E38
:1004F000E7D105F041FBEFE27C6B0A2C00D111E360
:100500000B2CDED105F038FBE4E305F0C5FA041E40
:100510001AD00128D5D1BA4B02221B68391C1E6A99
:100520001D69BE617E6B1A621E6168313F23301CFB
:10053000321C8E80BE667D610B7105F09DFB7E6274
:100540007E6BFC63BE63AFE00124012C02D0022C61
:100550000AD092E0002001F0E5FF03F0F1F9C0B20B
:1005600005F0D8FB01F0C4FFA54B6E461B683E6347
:1005700058681C681B694443E3189B000A33DB0876
:10058000DB00F11A7E1DFF368D46301C002114223F
:1005900008F0BAFF962040003B1C8C21B4333A1877
:1005A00049005A607A189A60391C283ADE601A614C
:1005B000A831143A934E4A60143A8A60326802AD08
:1005C0005361914BA4001B682C19BC63546091616A
:1005D00015602D331A786C465200131C0833DB0863
:1005E000DB00E41AA54602AC0021201CFC6308F0E5
:1005F0008BFF05F041FC2A1C4178BB6B002000F00A
:1006000093FEFC6A002C01D005F0B6FA7F4B002265
:100610001B689A6005F078FB041C03F091F9A04276
:1006200004D0201C03F091F902241DE0FC6B3A1C5D
:1006300000943B1CB96BB432A833281C01F054FC65
:10064000724B734A1B68041C9968914202D09A68E5
:1006500001329A60002807D105F01EFA002803D164
:1006600005F004FA0028D5D03268002313605360E7
:10067000536193613D6BFB62AD4605F00DFA0028B6
:1006800000D01EE705F0F2F9002800D15DE718E779
:10069000022C0ED005F000FA012800D0B6E105F0DA
:1006A000E5F9002800D0B1E1FC6B012CF0D101F09C
:1006B0001FFF534D6E462B683E611C6858681B69CE
:1006C0004443E3189B000A33DB08DB00F11A8D4634
:1006D00002AE3E6302F07EFD8C2040003A1C3B18C7
:1006E00060325A60043A9A60043ADA60391C043A7B
:1006F0001A61F031043A4A60043A8A602A686D4609
:1007000090695269A400424392000A32D208D20092
:10071000AD1AAD4602ADFD61AAB07D1D02A8FF3540
:100720002860AAB0842002AA4000C251354A3D6B1D
:1007300012682C190026546053619161BE651560E2
:10074000BC6205F099FB041C04F016F861780520E2
:100750003A6BBB6A00F0E8FD04F056FB2B4BF869DE
:100760001B68596900F0EEFBFC6AB44201D005F049
:1007700003FA0020391C7031A223021C8E803E67D0
:100780000B7105F079FA214B1B689E6000266C46C0
:10079000FC6005F0B9FA96210024A82549003B1C0D
:1007A000EC5148337D18391C1C80AB61DC31154B92
:1007B00069601439A9601B6820393A1CB432E960B9
:1007C0004439146054606A6129611D61F8627C6675
:1007D00003F0B6F8FA6A90421CD0101C022403F011
:1007E000B4F8FC63F3E0C046D95C00003C00002094
:1007F000555D000038000020C510000034000020C6
:10080000CC03002044000020940D00204000002074
:10081000FFFFFF7F002E75D1BD4B68461B68B86097
:100820009A6951005A6901324A43131C0833DB08A4
:10083000DB00C51AAD4602AD281C311C3D6208F034
:1008400063FEB86BB34D082808D104F0DDFA2B68BD
:10085000F869596900F076FBBE6350E0042003F0AC
:1008600055FA2B68386A5969FA6905F047FF051E81
:10087000012D11D103F080FF052003F047FA391C48
:100880007831A323301C321C8E80BE670B712E1C66
:1008900005F0F2F9BC6332E09F4CF8692368396ACD
:1008A00039331A7806F002F823687D6A39331B78E9
:1008B0005B009D420ADD03F05FFF052001213A6BDA
:1008C000BB6A00F031FD04F09FFA7E627D6A236806
:1008D000013538337D62187803F037F803F04CF8AF
:1008E000236800243933187802F012FE002002F049
:1008F00047FEF86A03F029F803F062F8FC63BD686C
:10090000AD465BE0844B8C261B6876003A33187842
:10091000804B1B68186002F0FBFD052003F0CEF948
:100920003B1CF0330093386BBB19B96A2A1C00F0EA
:10093000D9FF0126F863002840D1781DFF30B96B3C
:1009400007F08CFDB863032804D0072800D0C7E166
:10095000182505E0781DFF3008F0C2F8051E28D0E4
:1009600005F0A8F801266B1E321C9A401040D840B2
:1009700000D1B5E102214420C155381C4522443044
:100980000024D55504F0FEFF03F08CF9301C02F072
:10099000B4FD201C05F088F8391C88310E23201C7A
:1009A000221C8C800C600B7105F066F903F0E4FEEC
:1009B00004E003F077F903F041F80126554B574A5C
:1009C0001B689968914202D09A6801329A60544C2F
:1009D000002223681A61FD68AD46FD6B954208D17F
:1009E00005F05AF8012804D105F040F8002800D19C
:1009F000CDE603F0C1FE226800231360536013614B
:100A0000536193613E69FB62B54643E6404BBC6966
:100A10001B687D691C621D6153E505F0ADF805F0AA
:100A200025F80128FBD008F0C3FB00F091FB04F08F
:100A300021FE46E500F0EEFE394B1B68586900F0D8
:100A400015FF04F059FF05F097F805F0AFF80328FB
:100A500012D006D801280CD0022815D102F0B0F926
:100A600012E005280ED00AD306280DD102F022FD8F
:100A70000AE002F05FF807E002F042FA04E004F056
:100A800023FC01E002F004FD04F0F0FF0228DCD0BA
:100A900000F0D2FE15E505F06FF801F029FD04F035
:100AA000E5FF0328FBD00CE504F0E0FF0428FBD0B1
:100AB00007E505F061F803F06DFB04F0D7FF0528AA
:100AC000FBD0FEE405F058F8012001F02BFD04F006
:100AD000CDFF0728FBD0F4E4002003F017F903F062
:100AE000F9F904F0C3FF0828F6D0EAE405F044F869
:100AF000002002F0D8FB002003F008F903F0EAF927
:100B000004F0B4FF0928F6D0012002F0CCFBD8E4B1
:100B1000CC03002040000020940D0020FFFFFF7F49
:100B2000440000206C4600207C6208F0D1FB08F0F5
:100B300099FB002003F0C0F9754C684623685E6895
:100B40001D681B697543EB180733DB08DB00C01A0F
:100B50008546FD6302ADBD6302F01EFB051C02F07D
:100B600033FB061C02F024FB2468F862311CE268A7
:100B7000B86B08F087FCF96BB86BF0229200401854
:100B8000B1182269386308F07DFCAB79013B0FD3C3
:100B90006A79013AFAD36979BE6B59438918711899
:100BA000FE6AF018A4300678087830180870F0E76C
:100BB000EB79013B0AD3BD6BFE6BAA19FD6AE918FC
:100BC000C8310878D15C4118D154F2E762682369D2
:100BD0006E46D3189B000A33DB08DB00F61AB546D5
:100BE00002ACFC6304F0C8FF494C391C2368903107
:100BF0001D681A790D704A708A705A1DD27F1B6960
:100C0000BE6BCA700B71002201234B710420131CB0
:100C1000009604F0F7FF396BB86B04F075FA00200A
:100C200003F074F823683B4958680E68B8620022E4
:100C3000B86A824206DAB06994000059FD6B01324D
:100C40002851F5E7FC6B8200A4181D690E68A446C4
:100C50000022AA4206DA346A910064586046445081
:100C60000132F6E71A68391C98310A70BC6A9A6832
:100C70004C708A700533DB7F0132CB70254B9200BC
:100C80001B6804245B690D719A184C710092002254
:100C9000131C022004F0B6FF391CA03101230B7095
:100CA0001B4BFD6B1B6805201A794A708A705A1D10
:100CB000D27F1B69CA7000220B714C71131C009506
:100CC00004F0A0FF04F0D2FE0A288DD07E6AB5465B
:100CD000FFF7F7FB04F0CAFE0B28FBD0FFF7F1FB90
:100CE000BC6B082C00D064E602F0DCFF012002F0AF
:100CF00004FC0024391C8031A223201C221C8C807F
:100D00000C600B71261C04F0B7FF04F07DF855E66B
:100D1000CC03002040000020F8B5184D7146281C77
:100D2000764603F047FB164C276802F09DFE78627A
:100D3000276802F09DFEB862276802F09DFE786188
:100D4000276802F09DFEF861276802F0EBFEB861AB
:100D5000276802F0FDFE0B4B0B491B6809683862DF
:100D60001878097C2268414302331161E432281C5F
:100D7000311C136003F036FBF8BDC046B90C00000F
:100D800040000020E00E0020940D0020014B186070
:100D90007047C046940D0020014B18687047C0464C
:100DA000940D0020014B18607047C046E00E0020F3
:100DB000014B18687047C046E00E0020014B1868D0
:100DC0007047C04640000020014B58687047C0463D
:100DD0004000002082B0F0B589B0109C151C0F9324
:100DE0000693029407900E1C119C02F0D5F94779E6
:100DF0003A4B04978279964206D11B680021DA6942
:100E0000AB00D05A03910BE01A68354B5269196850
:100E1000731C896803964B43EB1801339B00D05A2F
:100E20000499714349194A00A4182388069E019326
:100E3000019F7318874203D8C61B029FBE521CE055
:100E4000029EB61805960027F65F013610D01F786F
:100E50007EB2B446013601DA013703E06646002E61
:100E600006DD013F1F7002235B42238001202FE03B
:100E7000069F79180F78002F01D120800CE07FB2F7
:100E80007C1C05D1019E059F301A3880002002E0AD
:100E9000012F01D1FF2008701978039C049E079F41
:100EA00048B274437D19002805DC029EB25E01320F
:100EB00008D0002906D12A5700203E2A08DC01313B
:100EC000197005E02A57002A01DD01391970002048
:100ED00009B0F0BC08BC02B01847C0464000002072
:100EE000CC03002070B5154C7146201C754603F0EC
:100EF00061FA134B00221B68191C88310A601E1C02
:100F000001219C364942181C3160B2600830083E0D
:100F1000F18232607283C26790300160826008386B
:100F20000183191CAC31026004330A8020390A6045
:100F3000201C291CDA6703F055FA70BD850E0000ED
:100F400040000020F0B5754685B00395294D01900D
:100F50000F1C281C714603F02DFA274B00211B683B
:100F60000198DA69920008F0CFFA04F085FF029048
:100F70004478214D002C21D0042002F0C7FE2868BF
:100F80004269561E009617D383690099019E594302
:100F9000C918890071180439013B0BD38668564380
:100FA0009E190136B600F5590E68AC46B444654644
:100FB0000D60F0E7009AE4E7013CDAE72F687D690D
:100FC000013D11D3BC69019A261C6E433619B60047
:100FD0009619043E013CF3D3029B3068597808F01F
:100FE00083F900043060F4E70248039903F0FAF94A
:100FF00005B0F0BDE50E0000CC03002038B5114C63
:101000007146201C754603F0D5F90F4B201C1B6858
:10101000DA6A002A02DD596BCA420BD40B4A116806
:101020000B4A2C3112680C783432117800228C4231
:10103000524100E001227433291C1A7003F0D2F9E6
:1010400038BDC0469D0F0000400000204400002035
:10105000940D0020F0B52F4F72468BB07146381CAE
:10106000019203F0A7F92C4D2B681A1CCC32117891
:10107000583A002904D1191CB0310978002901D04F
:10108000002111701478002C27D0996F002407914B
:101090005A6B03A90892DB6A07AA099303234B70D2
:1010A0008B707C235B42CB7001261023201C8C802C
:1010B0000E700B7104F0E0FD2B689A6FD96F8A42B5
:1010C00002DC92199A671EE09C67144B144A1B6855
:1010D00014702C331C70341C15E05A6B05A9079250
:1010E000DB6A0920089301230B7002234B708B707D
:1010F0007C235B42CB7007AA64238C800B7104F0C5
:10110000BBFD2B689C67381C019903F06BF9201C10
:101110000BB0F0BDF50F000040000020440000209F
:10112000DC0E002038B5094C7146201C754603F0D2
:1011300041F904F0B1FC002802D1022002F0BEFD0A
:10114000291C201C03F04EF938BDC046C510000014
:1011500037B5114C7146201C754603F02BF905F08C
:101160001FFC02F047FE021E07D16946A9238880B2
:1011700000900B7104F080FDFEE7084B1B6803CB69
:1011800002F09EF805F024FCFFF7C6FD291C201C88
:1011900003F028F937BDC046F1100000CC03002051
:1011A000F0B587B000AF7546786039615C4871462C
:1011B000FD6003F0FFF803F049F883000A33DB0811
:1011C000DB006E46F61AB546041C684603F046F886
:1011D00063000833DB08DB00F61A301C6D46B546A9
:1011E000BE6003F057F84F4B1B68191C8831086824
:1011F000632807DD0120002240420A604861CA617D
:10120000191DCA671A1C88321068191C0130083170
:101210001060CA6F632A09DD00220120CA674042BC
:1012200090318A6008601A1D0121D1671A1C0832AA
:10123000D16F0131D167191C94310E68012E07DD81
:101240000120002240420A60C8824A8308390A60AD
:101250001A1C9432116801311160191C9031086810
:10126000012809DD002201200A608A8340421A1CFD
:1012700008838C32012111601A1C903211680131EF
:1012800011600022101C013C08D3A1006958BE68FF
:1012900040186100715A521892B2F4E7191CAA3131
:1012A0000024A4261D19B446AC447D6165462D6812
:1012B000854201D2664630607E699C36356885423B
:1012C00000D930608E88964200D28A800E8896427D
:1012D00000D90A80043C261C02390836E1D11A1DC7
:1012E000D26F7D6892009A18111CA031983209685B
:1012F00012683E698A1A2A801A1C8C3212680848C1
:1013000052009B181A1CAC32A83312881B88F9684B
:10131000D31A338003F066F8BD4607B0F0BDC0466F
:101320004111000040000020F0B5284E85B0754600
:101330000191041C7146301C1F1C0395009203F0A0
:1013400039F8234D00212B680098DA68920008F0E4
:10135000DBF82B68381C1A690021920008F0D4F8D9
:10136000019D002D0CD0201C02F0D0FC194B0098E0
:101370001B68391C5A69DB6905F086F9013DF0E705
:10138000002C0FD1134B1B685D699E69029502F01A
:101390005AFB051C02F060FB311C031C2A1C02983E
:1013A00004F082FD0098391C019A04F0E5FE002C3F
:1013B00006D1084B201C1D6802F07CFEE835286031
:1013C0000248039903F00EF805B0F0BDC912000001
:1013D000CC03002040000020F0B597B004AF754664
:1013E000B8617961B5487146FD6002F0E3FF04F031
:1013F00043FDB34D38612A686846136892689E1CA5
:101400005200564301335208311C53430831C90876
:10141000C900401A8546013304A95B00A94CCB18CA
:10142000BE62A94E3B62FA6133683A6A20689960ED
:10143000DA6079623C2200212C3008F065F8002146
:10144000BA6A786A08F060F82B6868461D68B86068
:1014500004356D002A1C0832D208D200811A8D464C
:1014600004AABA625A6804325200131C0833DB081B
:10147000DB00C91A8D4604AB181C0021FB6208F082
:1014800043F82A1C0021B86A08F03EF82368BD69B9
:101490005A69191C9B690095B86A2C310430019077
:1014A000F86A04300290786A04F008FF3D697860B9
:1014B000236832682D7B586992680095BD6A191CB3
:1014C0000195FD6A683102952C3307F07FFBBD68FA
:1014D0002368AD467D69DA69191C1B6A00952C31B9
:1014E000386A05F035F87D680543EDB2BD6204F059
:1014F000D5FC0079012806D133685B691B78002B85
:1015000001D101F0FAFF2568281C291C68312C3014
:1015100004F09AFE6D4A23681268E8660C20115E9A
:101520009D6D8D420EDC0E20115EDD6D8D4209DB5E
:101530001020115E1D6E8D4204DC1220125E5B6E67
:10154000934222DA00234021CB53CA19012313709E
:1015500004F0BEFA002818D104F01EF9002814D0B7
:10156000584B1A68FF239168FE2901DC9368DBB2AF
:10157000381C022141254030EB5504F003FA544851
:1015800002F06CFF01F0BAFEE2E74D4E3020336806
:10159000312219680224C15558683221D0559A6801
:1015A00080235B42234333200025CA55C355342191
:1015B0005323BD860132CB557B6A5200391C9A18E1
:1015C0000120303104F058FB32680121137C3820AF
:1015D000C15539203A21C355CB5580235B42234363
:1015E0003B22D3553C206D23391CBD873831C35570
:1015F0003A6A012004F040FB336840211A68412018
:10160000CA5559684222C15598684321D0555A1D80
:10161000D27F4520CA551B694422D355C35D7F2222
:1016200093438021494223430B43C2191370FB6942
:10163000786A01335B00C318391C012040312A1C31
:1016400000932B1C04F0DEFAFFF7D8FCFFF702FD35
:10165000A84226D11B4C2368586902F0A5FC2368D8
:10166000D86E02F07BFB02F047F9BD6A002D0DD168
:101670002368796A1A1C2C321B68B86904F090FC44
:10168000236878691A68396A04F0E6FC022001F0E0
:1016900077FF386A05F058FA20680024703006F0A9
:1016A000C1FC094B00221B6804489A60DA60F968A3
:1016B00002F098FE201CBD4613B0F0BD7913000067
:1016C000CC0300204000002044000020E00E002059
:1016D00010270000F0B595B002AF7446061C796281
:1016E0004A4871463A627C6002F064FE04F0D6FB20
:1016F000F86005F067F96C4692B03C6002AC92B0BD
:10170000FC6102AC8AB0BC6102AC90B07C6102ACFE
:101710008AB002ADB86088B000214022F8693C610F
:1017200007F0F2FE00214022B86907F0EDFE00212B
:101730002022786907F0E8FE00214022386907F08E
:10174000E3FE02AC281C0021202207F0DDFE201C55
:101750000021202207F0D8FEFA69BB6992B03A63F3
:101760007A697B633D643B6902ADBA630021402224
:10177000281CFB637C6407F0C7FE254C381C2268DC
:101780002C30516A936A683200922A1C06F06CFC75
:1017900023687A6A381C596A2C309B6A00922A1C8A
:1017A00006F010F8381C2C30311C7A6A3B6A06F0BF
:1017B0004DFA2368301C596A9A6A06F05DFB796A13
:1017C000301C05F0E1FB301C05F046FB3C68301C8A
:1017D000A546796A3A6A05F0E5F9BB680B4CE23335
:1017E0001B78002B0AD1FA681379002B06D004F07D
:1017F00053F9012802D0012001F07FFE201C7968F6
:1018000002F0F0FDBD4613B0F0BDC04675160000F5
:101810004000002038B5074C7146201C754602F088
:10182000C9FD07F095FC01F0BDFC291C201C02F04D
:10183000D9FD38BDB517000038B50B4C7146201CDA
:10184000754602F0B7FD07F049FD07F089FC01F08D
:10185000A9FC002002F030FB01F02CFE291C201C0A
:1018600002F0C0FD38BDC046D9170000F0B51C4CD1
:10187000B5B07346714600900AAF201C1425019341
:1018800005AE02F097FD2A1C381C002107F03CFE33
:101890002A1C301C16AD002107F036FE281C002142
:1018A000282207F031FE02A800210A2207F02CFEB0
:1018B0002AAB02AA00990FA8109320AB119315929E
:1018C00012971396149505F0BBF905F0EDF90FA8E2
:1018D00005F08EFB201C019902F084FD35B0F0BDAF
:1018E0000D180000F7B5754601950F4D0E1C071C2D
:1018F0007146281C00921C1C02F05CFD311C381C37
:10190000FFF76AFD061E03D0201CFFF7AFFF04E0BF
:101910000098211C089AFFF7DDFE281C019902F0AF
:1019200061FD301CFEBDC04685180000F7B5364F7E
:101930007146381C764602F03DFD05F043F8334D04
:10194000E2302B68007819794AB2002801D1501C86
:1019500004D10024DC60EC331C7016E0DC682C48F9
:10196000844202DCDC680134DC60012A05D0DC68DA
:101970001869A4460124844500DA0C1CD96824485F
:10198000814202DDEC330121197063B293420BD026
:101990000022231C69460E33101C8A8000920B71B2
:1019A00004F06AF92B681C712B681A79002A03D19C
:1019B000184A1268127804E0012A03D1154A126805
:1019C00052781A60186802F025FD2B68041CE83371
:1019D000186802F043FD241A002C0BDD2B681868F0
:1019E00002F018FD2B68041CE833186802F036FD7D
:1019F000201A00E0012001F080FD01F0B5FD381C47
:101A0000311C02F0EFFCF7BDCD18000040000020B3
:101A10002F750000E00E0020F0B5734691B0041C55
:101A20000E1CAF487146059302F0C4FC04F036FA70
:101A3000049004F0C7FF2278AA4B002A08D1B230E4
:101A40000278511E8A41D2B20292002A06D001E0E9
:101A5000012002901A680021B83205E01A68B832F5
:101A60001168FE2901DC013111601B6800211A1C7C
:101A7000B43211700299002904D09B490968097D8C
:101A800000295FD0181CB3300178C9B2002908D0F2
:101A900003785BB2022B00D0012313700023037084
:101AA00084E11D1CB0352C78002C09D00124147061
:101AB0001A1CB132BC33017029701170196076E1C3
:101AC000029800283ED1191CBC310C68002C09DD9D
:101AD000013C012C01D00C6034E0029B0B6003231D
:101AE000137064E11A1CE432126811887F4A914233
:101AF00028D01A1CC83211887D4A126852888A423E
:101B000020D8794C2068427C181CB830006890427C
:101B100018DB0EAA1180CA331B8806A95380029BCA
:101B200002988B8001230B7002234B708B70CB705B
:101B300015230B7104F0A0F86A4B22681B68927C95
:101B4000BC331A60684C2768F87C002800D02DE16F
:101B50000299644D002900D08AE02C68231CE333ED
:101B60001B78002B5CD03B1C2C331B78002B57D0F0
:101B7000231C0E91D8331B680393231CC83303988E
:101B80001A8843009A533B1C2D33197802984B0056
:101B9000F618031C994206D05A00B21A023A12886B
:101BA00001338018F6E707F0EDFB0E90FA8B231C4B
:101BB000DC33904202DA1A68013200E000221A6037
:101BC0003B1C221C2E33DC321B7812689A4219DD32
:101BD0007C2308A900265B420124CB70301C16230D
:101BE0000EAA8E800C700B714C708C7004F044F84F
:101BF0002B68301C1A1CD832DC3316601E6004F0CF
:101C00007DF8D4E03B1C2D331A780399231C013A4C
:101C1000D833914202DA0A1C013200E000221A6035
:101C2000C4340137FB7F22689A4219DB00240AA9D9
:101C30001223201C221C8C800A940B7104F01CF8C7
:101C40002A682948131CC0331968006801311960DB
:101C50000230C07F814203DB1C60B4320223137068
:101C60002A680023111CB231C4320B70136049E0A2
:101C70002B681A1CBC32106026321278002A41D020
:101C8000191CC83109880EAA1180CA331B880CA9F7
:101C9000538001230B7002234B708B70CB70192380
:101CA00088800B7103F0E8FF2B682268191CC8318B
:101CB0000C88D08B163984421CD2181CCA30048878
:101CC000508D844216D2097800291BD1C4330132C9
:101CD0001968D27F914215DA0131196012E0C046CD
:101CE000B919000040000020940D0020FFFF000003
:101CF000E00E002001220A70191C0022C431C033FA
:101D00000A601A602D4D2B681A1CE2321278002AE4
:101D10004CD104980279002A46D01A1CB0321478AB
:101D2000002C43D1264ED86A3768798BBA8BFB8A50
:101D30003F8B009704F05AF836682B68718CB28C90
:101D4000071CD86AF38C368D009604F04FF82B6888
:101D50001A1CC8321188CA33B94202DA1A88824280
:101D600014DB08AA11801B880EA9538002230020CF
:101D700001254B708B70CB70172388800D700B7111
:101D800003F07AFF0D4B1B68B1331D700B4B1B68C2
:101D90001A1CB1321278002A08D00299002905D005
:101DA000B03301221A7002E0B1331A7001240548E1
:101DB000059902F017FB201C11B0F0BD4000002077
:101DC000940D0020B9190000F7B575460195424DF4
:101DD0007146041C281C02F0EDFA404E33681A1CB0
:101DE000B1321278002A24D01A1CE2321278002A6A
:101DF0001FD11A1CCC32117800291AD1B0331B78AC
:101E0000002B16D10123137001F0D2F9071C01F049
:101E1000C3F9334A031C12685D3303CA3A1C9B3270
:101E200004F05CF901F03EFF022001F047FFFFF7EC
:101E300059F833681A1CCC321278002A45D01A1C83
:101E40000020B0321070274A00901768011C3A6ACF
:101E5000013A0BD3E5685600755B002DF8D02EB221
:101E60000131B042F4DA301C0092F1E71A1CE23280
:101E70001278002A0ED101290CDD012222703A6A63
:101E8000013A09D300998A42FAD0E568510000204E
:101E90004853F5E7002903D01A1C0021D43208E08A
:101EA0001A1C181CD432D03011680068814201DC41
:101EB000013111601A1CD4321168043A126891423F
:101EC00005DDB03301221A7001E0D4331A600248F4
:101ED000019902F087FAF7BD691D0000400000205B
:101EE00044000020CC030020F0B5ABB002AF754633
:101EF0007861F961A0487146BD603A61FB6002F00B
:101F000059FA00220023391C101CBB842031A6235F
:101F10002424E3553A6203F0AFFEFFF707FD974C28
:101F2000002521683E1C081CC830CA31FFF738F96B
:101F3000BD85934D01232822D3552A68391C137976
:101F40002922D3552A22D35504222B23DA555B2389
:101F50002C22D355236802209A69283103F08CFE85
:101F60000023BB8630220123D3552A68391C137CF9
:101F70003122D3553222D35504223323DA556C2330
:101F80003422D355236802201A6A303103F074FEDC
:101F9000236884361A1CC8321288CA3332801B88E0
:101FA000382273800023BB870123D35502233922B3
:101FB000D3553A22D3553B22D355391C3C23012219
:101FC000DA550C203831321C03F056FE2B68391CD0
:101FD0005A6840311D684A709A68581D1B698A709A
:101FE0000D70C07F0B7104234B71236801325B6954
:101FF00092009A18C870009200220220131C03F06D
:1020000001FE7869F969FFF7E7F97861002803D0E4
:102010003869FFF72BFC8AE06D468CB002AC8CB0BF
:10202000BD6102AD3D608AB0381C3D1C5C357C60F2
:10203000796902AC14227030FC6107F065FA3C1C2F
:10204000281C7969142207F05FFA50347969282234
:10205000F86907F059FA79690A22201C07F054FA46
:102060003B687A68B360474B72601B6835617022C9
:10207000FD69D219F2607561B461301C1E61396965
:10208000FA68FFF727FBB822301CD159FFF7C4FCD0
:102090003D4B1B681B7D002B02D1301CFFF794FECB
:1020A0003C1C8434201C04F0A3FF25786C46AB0054
:1020B0000733DB08DB00E41AA54602AC3C612E1CAA
:1020C00012249022D259135F002B0ADD9822D35993
:1020D000013E3A69B000610010185918042207F057
:1020E000D1F9023CA31CECD1254B391C1B684831AB
:1020F0005A681C684A709A680C708A700533DB7FD6
:102100000132CB707E235B424B711C4B52001B682B
:1021100000249B6A0C719A1800923B6903202A1CC8
:1021200003F070FD174B1B681C61BC69A54601F0EC
:1021300085FC01F0B7FD01F04DFA012001F0E6FD4C
:1021400001F09CFB0D4BB4201B68185600F0F2FB0D
:10215000041E00D17C690D4B1B681A680C4B9A4217
:1021600002D002F017F8FEE70348B96802F03AF926
:10217000201CBD4629B0F0BD891E00004000002093
:10218000CC03002044000020940D0020040F002008
:10219000CDCDCDCDF0B59DB002AF74467146CF48E0
:1021A0007C6002F007F900F0F7FF061C01F00CF864
:1021B000386100F0FDFFCA4B6D461C68B860E368EB
:1021C00000211A1C0E32D208D200AD1A2269AD4687
:1021D0000E32D208D2006846801A02AD8546FD61F3
:1021E00002AD7D6272799A18131C0E33DB08DB0096
:1021F000C01A53000E33DB08DB008546C01A02AD5F
:102200008546C01ABD6102AD854602A87861B869ED
:1022100007F07AF9E1687279281C521801215200FE
:10222000494207F071F9E3687279AE49D218520059
:10223000786907F069F9E2683969F8693D6607F07D
:1022400021F93D69F020800029182269786A40242C
:10225000002507F017F9FC603D62796AF86902F021
:1022600053FF032001F052FD9D4D00202B6838865E
:102270001A6858682C212D24CA55E0559A68042400
:102280002F23DC55984C51233020C35523682E2131
:10229000CA555B6901329200391C9A1802202C3110
:1022A00003F0EAFC01233422D3552B6836201B7C33
:1022B0003525EB55C35500215A233825398704228B
:1022C0003721EB552368CA55391CDA6902203431AD
:1022D00003F0D2FCB479013C631C2CD07579013D2C
:1022E0006A1CF8D0737978696343EB185B001A5A5B
:1022F0007E4B9A42F3D0B96960223960F9657866FD
:10230000D219694609CA09C1211C3B68F8692A1C0F
:10231000FEF760FD002803D03B6A01339BB23B62AD
:102320007379BA6963433869EB18D15CC25C8A1867
:10233000F969CA54D3E7F479013C601C30D0B17913
:1023400073797D694B43E3185B005A5B674B9A4294
:10235000F2D0BD6960203D60FD65C0197D6984468D
:102360007D666846624628CA28C0221C3B68786A97
:10237000FEF730FD002803D03B6A01339BB23B627D
:102380007379B279BD695A432B193D69F020291937
:10239000800009189A5C0B787D6AD3182B55CBE71F
:1023A0004F4B3C6A1B68DA681B69D3189C4206DAFB
:1023B000FB68013BDBB2FB60002B00D04DE7002443
:1023C0004025FC63EC53B3793C20C35573793D2120
:1023D0003E223F25D355CB55EB5D7F20012583431E
:1023E00080212B4349420B433F22D3554020D22327
:1023F000391CC3553C310820FA6903F03DFC391CF7
:1024000044317C648C800D70F3797F224B708B702B
:10241000CB78082093431D4380235B422B43CB7032
:102420007A6AD3230B7103F027FCB379013B0FD3F6
:102430007279013AFAD37179BD685943FC698918F8
:10244000E8186118A4300C78007820180870F0E7BC
:10245000F379013B08D3BC687D6AE218C832117871
:10246000EA5C8A18EA54F4E7F869796A02F04CFEEB
:10247000391C4C310024FC648C80B3797F200B70B4
:10248000737901254B708B70CB78802283432B436B
:1024900052421343CB70FA691D2308200B7103F0DD
:1024A000EBFB391C54317C658C800D70F3797F24F3
:1024B0004B708B70CB788026A3431D4376421E233E
:1024C0007A6A2E4308200B71CE7003F0D5FB0348C7
:1024D000796801F087FFBD461BB0F0BD35210000D3
:1024E000CC030020FFFF000040000020FEFF0000A2
:1024F00038B50B4C7146201C754601F05BFF00F0AF
:1025000057FE98300378002B02D1FFF743FE01E01D
:1025100001F0F2FE291C201C01F064FF38BDC0460A
:1025200091240000F0B5A5B000AF72467146786105
:10253000E1487A6001F03EFFE04C23689B683B6213
:102540005B0001333B6501F0EBF92368FF229B68D8
:10255000F865D31A984200DDFB65F86D3B6A0024EC
:10256000C31AFB6101F0E4F93A6D694655002B1C72
:102570000833DB08DB00C81A85466A466423DC534F
:10258000602001237965FA6461216222C355CB552D
:10259000D3557C235B426320C3556421B123CB55C3
:1025A0003A1C391C201C60315C3203F065FB3A6D2B
:1025B000944206DAF869F96C63002218CA520134B1
:1025C000F5E700246C23D1B2DC5301266820692290
:1025D0006A23C655D155D955B96402236B20391CDD
:1025E000C3556831201CFA6C03F046FB2B1C796D37
:1025F00008338D46DB08DB006A46D21A9546D21AAC
:1026000069469546F9637A6301F020FE3861301C13
:1026100001F018F8211C2A1C786B06F075FF211CAC
:10262000F86B2A1C06F070FF386D69468000031CA9
:102630000A33DB08DB00C91A8D46C91A3B69B86149
:102640009B00684638638D46F962BB60FC640021DC
:10265000BA69386B06F058FFF86AFF21BA6906F0CC
:1026600053FF00207865954B786D1B685B68984236
:102670004BDAF9690026C9B2081CB96301F065F9A3
:1026800001F02EF900F0D4FFFC6A3D6B386D013685
:10269000F217C30F86425341DBB2BB62002B06D157
:1026A000B96B8819C0B201F050F901F019F96B4605
:1026B000FB60BB686A460A33DB08DB00D01A85463C
:1026C0006A467A6401F0CAFD00231A1C39698A42FD
:1026D00005DA786C9100415801325B18F6E72A68F8
:1026E000934200D92B602068834200D22360F968AE
:1026F000BA6A8D4604340435002A02D100F098FFEE
:10270000C4E77B6D01337B65ADE700216C4D7965D6
:102710000C1C3A6D944217DA3A6BF96AA300D05850
:10272000CB58C01A854204DDFA69051CA2187A62EA
:102730003C647B6D834200DA786500F06DFFF96BD5
:102740006300C8520134E4E7786D00F065FF5B4B2D
:102750001B685B88984206DA7B69012B03D0F86D11
:10276000396A78623964574D00262C683222231D5D
:10277000DE670433DA67396C803364221A60022220
:1027800091409A60FA6A01208A58D8605E60101CF5
:102790003A60B96300F040FF9834BB6B396B20603E
:1027A00058582C6800F038FF2B6801211A1CAA32F7
:1027B000A0344942206011807A69AE331E80012A1C
:1027C0002BD17A6B331C396D8B4209DAF86B5900C7
:1027D000415A1088884200D2118001330232F2E758
:1027E0003A6C786B53001A5AF96C131C8A4200D267
:1027F0000B1C9BB27021FB640123CB557422BB6C74
:102800000020D05372217122D355CB55732202235D
:10281000391CD35570317A6B10E0786D00F0FCFEF6
:10282000391C80B278310222F864B86C0123CA7076
:10283000FA6B487088708E800B70301C03F01CFAA5
:10284000386C8823D8537A6AFB6B8A214400CA53B8
:102850001C19FA6C23888E21CA538C20391C8031B4
:10286000C35304234B708B70002502233A1CCB709A
:102870008832B2230126281C8D800E700B7103F064
:10288000FBF923880F4C2268111CE4310968098880
:10289000994224D206F022FD051C06F06DFC037857
:1028A0007865002B10D0301C03F028FA23687E6D69
:1028B000E43302361E6023E0C5240000E00E002051
:1028C000FFFFFF7F40000020002D19D1164B1B6831
:1028D000DB7C002B14D1301C03F004FA10E0E3324F
:1028E0001278002A0CD0114E306842889A4207D9DB
:1028F000281C03F003FA23683268E43302321A60BA
:10290000796900290AD17A6AD0B201F01EF8084824
:10291000796801F067FDBD4625B0F0BD03F0A6F86B
:10292000072800D193E6EEE7940D0020E00E00208A
:10293000C5240000F0B56C4C724689B07146071C86
:10294000201C039201F036FD06F0C8FC061C03F0C3
:10295000E9F8664A051C1368141C191CE031097853
:1029600000291BD11A1CE1321278824216D00028AD
:1029700006D1E2331E78731E9E41F6B23A2301E07F
:1029800039230226002269468A82101C0B7504A98D
:10299000049203F071F92368E1331D7003F06EF8BF
:1029A000019003F0A3F8032F03D0019A002A04D169
:1029B00008E0019B0125002B3CD0002003F066F8C5
:1029C000012537E02368019DE0331B880293002B2B
:1029D00030D1012F02D0022F04D00EE0381C03F0BA
:1029E00081F90AE0029803F07DF92368E3331B784C
:1029F000002B02D0029803F081F903F06DF92368EF
:102A0000071CE2331B78834213D0002802D0112325
:102A1000012601E01223061C002506A9281C2A1CF9
:102A20008D8006950B7103F027F92368E2331F7040
:102A300000E0002506F052FCB04234D006F04EFC17
:102A400006F08EFB071C301C06F08AFB0190301C40
:102A500006F03EFC06F006FC254B1B68187D00289E
:102A60000ED0244B3A1C1B689B3203CB019B9B333B
:102A700003F034FB002001F049F9FEF733FA05E0DA
:102A800023680125CC33187001F016FA002003F0FA
:102A900035F9236800211A1CE3321170164AE43319
:102AA000126802321A6006F019FC06F065FB037822
:102AB000002B08D003F01CF92368E3331A78824214
:102AC00001D01870012503F049F8041C03F07AFFC7
:102AD0000379A34200D004710348039901F082FCFA
:102AE000281C09B0F0BDC046D528000040000020D9
:102AF000940D002044000020E00E002038B5054C65
:102B000075467146201C01F055FC291C201C01F063
:102B100069FC38BD9D2A000038B5054C75467146E4
:102B2000201C01F047FC291C201C01F05BFC38BD77
:102B3000B92A0000F0B599B000AF744671469548C7
:102B40007C6001F037FC944C6D46236819685B6823
:102B50000A1C5A43D3185B000833DB08DB00ED1A6C
:102B60008E4B52001B6856084900AA184908DD61BF
:102B70001A62AD467D653964BE6300F00DFB2168C5
:102B8000F8638C683D6CFC62827A437A7C6D5343B7
:102B9000DBB27B644B686A005D1E55435642651983
:102BA000BE62FD640020013B0ED3FD6C0A6845192E
:102BB0003D65013A05D35400251C3C6D0026665343
:102BC000F7E7BC6A0019EEE77C6CBD6B013C7E6DDB
:102BD000641964003419FC616C00221C023AFB6920
:102BE0003C62B218934203D000211980023BF9E7FE
:102BF000FD6A7E6CAB005B423B617B6CBC6B01335E
:102C00005B007D6C5B4276007B61BE6163197E6D0B
:102C10005B00F3181E247B623C63002001F076F811
:102C20005D4B5F4A1D683C6C6E68BD631568321C65
:102C3000013A520062433E657E6D3C6DB218BA6443
:102C4000FC64FC6C013CFC6430D3BE6BF96A3368F5
:102C5000FA6C5943FC6C01325218A40092005B00DC
:102C6000BC607A63FB600024FE68B44219D0AE6990
:102C7000B868696933587E6B00208A599A4200DD32
:102C8000D01AB96C0E5B07214942861906F07AFB0F
:102C9000BA6C3618165338697E6B023436187E6368
:102CA000E2E7BC6CBE6AA419BC64CAE73C4B0024D2
:102CB0001D687E69023CB44219D0E969FA6BB869B3
:102CC000F964517A0619786C06F052FBFB6C7600B9
:102CD000F258C9B22E6A89008B597E6AD31ADA4338
:102CE000D2171340325B9B10D3183353E1E73C6B90
:102CF000013C3C63002C90D13D6A7E6D023DFC6935
:102D00007519AC4207D00021605E1E2106F03AFB27
:102D1000023C6080F5E73C6D013C3C6513D33E6DA1
:102D20003B6CBD6B73432C687E6D651EED186D00AA
:102D30007519013CEFD30021685E1E2106F022FBCD
:102D4000023D6880F5E7FFF7E7FE134D58262B6834
:102D5000592118681A791B69F0555C26F3557E23B2
:102D60005B425D20C3555A24381CCA55E255796D23
:102D700000245B255830EC5502F024FD074B054834
:102D80001B687968DC611C6201F02CFBBD4619B040
:102D9000F0BDC046D52A0000CC030020440000202E
:102DA0004000002038B5054C75467146201C01F0E6
:102DB00001FB291C201C01F015FB38BD452D00002E
:102DC000F0B58DB000AF744671464248FC6001F02A
:102DD000F1FA00F0E1F9404C6D46236844CB7243B0
:102DE00093195B000833DB08DB00ED1AAD46281CA5
:102DF0007D623A4D69462B685200D86150088A18A6
:102E00001A623862002000F081FF76002168344A9F
:102E1000760876000B6810687242BA615A1E5643F3
:102E20008446786A86197E6100205C1EFC6118D396
:102E30007C694A6804193C61013A0ED355007D60F3
:102E40008D683C695D4355196E1CB5006646766910
:102E5000AD592E1C7D686653EEE7BA69FB69801890
:102E6000E3E73D6A7E6A1E4A0B696C0036191068FA
:102E7000B4469A00043A013B05D3C4695900A558E9
:102E800066467552F6E7FFF78DFF134C2825236839
:102E900029201E681A791B69EE552C25C255EB5561
:102EA0002A21381C7E23CA5500242B225B42796AD2
:102EB0002D262830D455F35502F084FC074D0548E3
:102EC0002B68F968DC611C6201F08CFABD460DB01C
:102ED000F0BDC046612D0000CC030020440000205E
:102EE0004000002038B5054C75467146201C01F0A5
:102EF00061FA291C201C01F075FA38BD852E0000EE
:102F0000F0B591B000AF744671469048BC6001F0D6
:102F100051FA00F041F9FDF73FFF8D4BF8621C6854
:102F20006946656820683D6268434219D31D5200B6
:102F3000DB080832DB00D208C91AD2008D46891A94
:102F4000786268468D4638636846C01A8546814B6C
:102F50006D461B68F961BD61796A3D6BE2685D622F
:102F6000281C6D189D62002106F0CEFA2269281CEB
:102F7000002106F0C9FAE2680021684606F0C4FAAA
:102F8000786A22696844002106F0BEFA3C6A7D6ACC
:102F900063005B083B616B005B08FB60FB6A3533D9
:102FA0001B787B637D6B6A4C002D00D1A9E000206B
:102FB00000F0ACFE684A2068116843688C46013B0B
:102FC00050D30268511EFAD38468654662439A184A
:102FD0006D69013292005259FD69BA623A694A43F9
:102FE0009A185200545FBA6AFF25A41AFF2C02DC1B
:102FF000E543ED172540FA6A7D6037321278BD69E6
:103000007A61EE183A6A7D694A43AC420DDDB45CE0
:103010000134E4B2B454FE6A64B236363678B4424F
:1030200017DB3D6BEC187D6812E0FC6AB65636344F
:103030002478A6420DDA3D6BEC18A65C7D68B5429B
:1030400000DA351CA554BC690025E2183C6A4C43E3
:1030500015553A69BC6A4A43FD699A18520054539F
:103060000A1CAFE73C4A0369FD6816685A1E5219EC
:10307000FC695200A218013B3FD3F56999004959F8
:10308000B962BC6A0021505E001BFF2802DDFF25EB
:103090007D6103E0C443E41704407C61F96ABC69C4
:1030A000373109787D6A8C46611960450EDDC85C50
:1030B0000130C0B2C854F96A40B23631097888424A
:1030C00017DB3C6B61197D69CD5412E0C85684460C
:1030D000F86A3630007884450BDA3C6B7D6A6019FB
:1030E000C45CA4467C69644500DA6446C45400208C
:1030F000C854BD6A023A5580BDE77C6B013C7C63D5
:1031000050E7FFF7EFFE23683A251A79196839244A
:103110001B69EA55E25538207C6B3C25C155EB55BF
:103120003B207F23C4555B423D20C355381C396B7F
:10313000383002F047FB074B04481B68B9685C62F3
:103140009C6201F04FF9BD4611B0F0BDA12E000008
:10315000CC0300204400002040000020014B1860F8
:103160007047C04638010020014B18687047C046C0
:1031700038010020014B58687047C04638010020D4
:10318000014B98687047C04638010020014B186019
:103190007047C046EC0E0020014B18687047C046CF
:1031A000EC0E0020014B18607047C046E80E00206E
:1031B000014B18687047C046E80E0020014B1860AC
:1031C0007047C046E40E0020014B18687047C046A7
:1031D000E40E0020014B18687047C046FC01002037
:1031E00010B50D4B00201B78AA2B12D10B4B1C786D
:1031F0000B4B64B218780B4B40B219780A4B20186D
:103200001A780A4B49B21B7840188018C01A4342FA
:103210005841C0B210BDC04650000200510002002B
:103220005200020053000200540002005500020048
:103230008023DB020022188059809A80C046024B0E
:10324000188880B27047C0460600040013B5094ACA
:10325000042413780021DBB21C4301910198F4216E
:10326000FF31884205DC1370C046147001990131AA
:10327000F3E713BD0D00005082B00022019201ABB4
:1032800055221A70392252429A700122DA70019A3C
:10329000A023DB059A6102B07047A023DB05986983
:1032A000C001C00F70470122A023DB0510400206B9
:1032B000024998690840104398617047FFFFFFFE7C
:1032C00082B00022019201220A40891801303F2277
:1032D00001AB1040C9B21870481C0231024089008D
:1032E000D9705A70019AA023DB05DA61196A024A83
:1032F0000A401A6202B07047FFCFFFFF0002064B80
:10330000000A0138002258609A6005221A60C046FF
:103310001A68D103FCD5704710E000E0F0B5514FBA
:1033200085B03B6894339A7819681D78DE780F234E
:103330001407994312092D0701922D0F0B1C8022AF
:103340002B4352001343484A0395484D1340484AC3
:103350002B4048491340240F0B400199220413438A
:103360000A0545493607360F0B40009613433206CF
:10337000424E029433401343414AA024E4051340D3
:10338000E360FFF763FF3B68E26895331B78154005
:10339000DB069B0FDB021D43E560E26880239B0098
:1033A0001343E360E26880239B011343E360029CC4
:1033B000039DFFF715FF002813D0324F882039787E
:1033C0001E34C9B205F0DEFF39784443C9B2882003
:1033D00005F0D8FF0F3545431E3C00230F3D9C42AE
:1033E00003DB231E0F2B00DD0F230F22954200DD90
:1033F000151CA024E4051F491A40E36812040B4081
:103400001343E360EB43E268DB171D400F239A434D
:103410001D401543E560E368F02293438022134387
:10342000E360E368144A18481340E360E3683340FC
:10343000E360FFF763FFE26880235B051343E3600B
:103440000099E2680B0616401E43E6600F48FFF73E
:1034500055FF019B08491A05E3680B401343E360DD
:1034600005B0F0BDE80E0020FFF9FFFFFFE7FFFF0A
:10347000FFDFFFFFFFFFF0FFFFFF0FFFFFFFFFF08A
:10348000FFFFFFEF54000200FF0F0000FF6F00007E
:10349000064A074B12680120E832126819789040FA
:1034A000021C0A43D2B21A707047C046FC010020C9
:1034B000290000500549064B09681A78E831096867
:1034C0000120884082431A707047C046FC010020EA
:1034D00029000050044B1878044B1B68E8331B6824
:1034E000184101231840704729000050FC010020BA
:1034F000A0230122DB055A707047044B82B0019073
:1035000001AA188092789A7002B070472400005087
:1035100007B500F07FFF064B019001AA1880927852
:103520009A70044B00221A70034B0122DA7707BD10
:1035300024000050000000200800005007B500F0F3
:103540008DFF064B019001AA188092789A70044B67
:1035500000221A70034B0122DA7707BD24000050C5
:103560000000002008000050034B00221A70034B9B
:103570000122DA777047C0460000002008000050A2
:1035800072B6084B1B5C002B03D1C04662B630BF3D
:10359000F6E762B6A023DB059968034A0A409A6001
:1035A0007047C04600000020FFFFF9FF72B6074BCE
:1035B0001B5C002B02D1C04662B6F7E762B6A023BF
:1035C000DB059968024A0A409A60704700000020B3
:1035D000FFFFF9FFA023DB055A680121120E58688E
:1035E0009143034A090602400A435A607047C046A5
:1035F000FFFFFFFE08B5074B1B681A1C9C321278B0
:103600009D331B78520001325043994005F0BAFEB9
:1036100008BDC046E80E002008B5044B1B689F3368
:10362000197849000131FFF7E5FF08BDE80E0020D9
:1036300008B5A0230120DB055870FFF7A1FFFFF7B5
:10364000C9FF08BDF7B5A026041CF605042807D15C
:10365000554B1B681A1CA432A83317681B6824E05A
:10366000524B1B681A1C8C331B68883217687361B5
:10367000FDF7A4FBE3300378002B17D005F02EFEF6
:1036800005F07AFD01797F22114089040191716969
:103690000B1C47490B400199194371614179444B17
:1036A0000A40716992040B4013437361A023DB0548
:1036B0001F611E691F231E40FFF792FD00280AD0DC
:1036C0003C4B882019780436C9B205F05BFE4643AE
:1036D0000023043E03D4331E1F2B00DD1F23A02232
:1036E000D205108A1F210B40884303431382022C0A
:1036F00016D007DC002C13D0012C2DD12B4B1D68CC
:103700009E3529E0042C07D023DB052C24D1264B41
:1037100000241D68AF351FE0234B1D68AC351BE04E
:10372000FDF74CFB031CCC331B78002B03D01E4B46
:103730001D685D3510E0E3300378002B05D005F0FF
:10374000CDFD05F019FD851D06E0184B1D689B3564
:1037500002E0164B1D68A135A023DB0559692878C6
:103760003F22104091430143596168781F215D69F0
:1037700008401149C0022940014359610F496400C2
:1037800009680C19211C7731087859681040914359
:10379000014359607834217858680A401102084A78
:1037A00002400A435A60F7BDEC0E0020E80E0020EC
:1037B000FFFF03FE54000200FF07FFFFFC01002093
:1037C000FFC0FFFF294BF0B51A68294B85B01B6875
:1037D0009E331B785B069B0E0193931DD97F0023BC
:1037E0008D005519581E5B18002B27D053181B1835
:1037F00026331B788024D3185E78A023DB055F680E
:10380000E4033C435C60019CB606240400945F68BA
:10381000B60EBC46174F64462740009C27435F60A6
:10382000C046243676008400F65A2C199834266057
:103830005E68114C34405C60031CD3E76F46029312
:10384000BB8101233B72931DDB7F7F217B72BB72A7
:10385000FB7A98328B4304210B43FB720F20B02379
:1038600002A93B7302F008FA05B0F0BDFC0100208C
:10387000E80E0020FFFFC0FFFFFFBFFFF0B585B0DF
:10388000FFF7A0FF154B00251E68B31DDC7F631CEE
:103890009B005B420093A300F3180193009B043D3F
:1038A0009D4208D0019A0121571998373868FFF7CF
:1038B000A1FE3860F2E76A46002393810123137268
:1038C0000423D372B023547294721373321C98324F
:1038D0000F2002A902F0D0F905B0F0BDFC010020D4
:1038E000044B00225A70A023DB055A7001221A7083
:1038F0007047C04600000020A023DB059968064AF7
:103900000A40802189020A439A60044A002191708A
:1039100001229A707047C046FFFFF9FF00000020A7
:10392000024B1B68903318687047C046FC010020AA
:10393000024B1B68903318607047C046FC010020A2
:10394000A023DB059868C0B2704730B5A023DB0523
:103950009B68DBB283420ED001DA013300E0013B09
:10396000A022D2059568FF211C1C8D430C40291C08
:1039700021439160EEE730BDA023DB0599688022EA
:1039800052020A439A609968094A0A409A609A6802
:10399000120112099A60D968064A0A40DA60D968A9
:1039A000054A0A40DA60D968044A0A40DA6070477A
:1039B000FFFFFFF0FFFEFFFFFFDFFFFFFFFFFFEF57
:1039C0001B4B10B51A680121131C92331878A023E1
:1039D000DB059C68084017490004214001439960B9
:1039E000933210789C681449000700092140014374
:1039F000996011789A6809091201090712090A43A6
:103A00009A60D968802252000A43DA60D96880221D
:103A100092010A43DA60D968802252050A43FA20EB
:103A2000DA60800000F01AFDFFF768FC10BDC046A8
:103A3000E80E0020FFFFFEFFFFFFFFF008B50020AB
:103A4000FFF79EFD08BD034B1B689C3318784000B0
:103A500001307047E80E0020024B1B689D33187838
:103A60007047C046E80E0020004870470010005024
:103A70000048704700200050004870470040005048
:103A8000074B01201B685B799A1C0340D318054A39
:103A90001268663210785843034B8000C018704794
:103AA000EC0E0020FC01002004400050F7B51B4B39
:103AB000051C1C68A3795F1E15D36279013A10D3E7
:103AC0006079561C811C0191012108400199081858
:103AD000584331181248890009180868E8400860FE
:103AE000ECE73B1CE7E7FFF7CBFFA37A00220133AB
:103AF0009C466346013B9C460FD3617A9600019138
:103B0000861900230199994205D09F00F15901338C
:103B1000E940F151F6E75218EBE7F7BDEC0E002053
:103B200000400050074B01201B685B799A1C034042
:103B3000D318054A1268723210785843034B80003C
:103B4000C0187047EC0E0020FC010020044000501B
:103B5000094B01211A685379D0799A1C0B40D3186C
:103B6000064A013012686A3212785343C018044B77
:103B70008000C0187047C046EC0E0020FC010020F9
:103B800000400050F7B5434B1D682A7853B2042B10
:103B90001DD1414B19680B1CAE331F7802235E1EEA
:103BA00077D34A79013A10D34C79551CA01C019067
:103BB00001200440019804195C432819374C800007
:103BC00000190468FC400460ECE7331CE7E7002AB6
:103BD00045D0022B21D1FDF7F1F8CC3003782E4CE3
:103BE000002B02D023685F3302E02D4B1B689D330E
:103BF0001878FFF75BFF2568EC79002C2FD0FFF7D2
:103C0000A7FF061C013C2AD3697A201C05F010FC92
:103C100089008A59A300F250F4E7032B03D1204B0B
:103C20001B68A33318E0012B11D1FFF77BFF1A4B60
:103C3000061C1B685C79013C11D32B193A331B78A5
:103C40009B009859FFF7E8FCA300F050F3E7052B21
:103C500005D1114B1B68B1331878FFF727FF104BC4
:103C60001B689A331B78002B13D00B4B1A685379BF
:103C7000013B0ED3517901258C1C294061189479A0
:103C8000581C61434018054980004018002101601C
:103C9000EEE7F7BDFC010020EC0E002000400050D4
:103CA000E80E002008B5A0230120DB055870FFF7BF
:103CB00067FCFFF78FFCFFF765FF08BD70B5041CBC
:103CC000104E114D11D10120FFF7BCFC33680122C9
:103CD0001A70A023DB056C705C701A70FFF7E2FFAE
:103CE000FFF778FCFFF7CAFD0224201CFFF7AAFCAF
:103CF000336800221C70A023DB056A705A70012211
:103D00001A7070BDFC0100200000002008B5FFF70C
:103D1000D5FFFFF7C7FF08BD08B5A023DB05011CD1
:103D200058683F22114090430843586059685868CA
:103D3000114001310A401102064A02400A43064975
:103D40005A6000224A705A7001221A70FFF7AAFFC7
:103D500008BDC046FFC0FFFF0000002010B5A02333
:103D6000DB051C6A0005064A000D010422400A43D7
:103D70001A621A6A120B12031043186210BDC04671
:103D8000FFFF00F073B5174BA0221B68D2059033DC
:103D90009168196891601C78FFF722FA124D00288B
:103DA00012D0124B124A1B7812782E6852B25BB2B4
:103DB0000092201C1021D12202F018F82B689436B2
:103DC000306094331B68E418002C01DA002402E010
:103DD000FF2C00DDFF242B68E0B290331C60FFF75E
:103DE000B4FD73BDE80E0020FC010020530002006A
:103DF0005200020008B5FFF7C5FFFFF78FFAFFF783
:103E00003BFA234BC0229200985822490140995016
:103E10009958FF20814340200143995098581E49EA
:103E200001408020000401439950985880210002ED
:103E3000000A090601439950012102221A60082054
:103E40001960042119601860144B00205860144B4D
:103E5000186901431961134B1B68197A124B1B68CF
:103E6000E833002900D1032210491A6000230B70A7
:103E70000F49A0220B700F49D2050B709363D36BCF
:103E80009B0E9B06D36362B600F0C2FE08BDC0461F
:103E900000E100E0FF00FFFFFFFF00FFFCE100E0AA
:103EA00000ED00E0EC0E0020FC0100202900005095
:103EB000280000502A00005008B5002801D0012831
:103EC00001D100F0A5FEFFF75DFFFFF727FAFFF72E
:103ED000D3F908BDF0B5214B13211B680224DA7A0F
:103EE0000023133AD2B291425B41E41AA023DB05CE
:103EF00058693F22596810408022D2030A43A3B078
:103F00005A60411EA023C9B2DB0502AAFF2910D0C6
:103F10005F683F26124D0E4036043D4035435D60DC
:103F2000C046251C24356D005D5B4B00D552013920
:103F3000E8E75C680B4921405960694600238B80A3
:103F400001230B70022348708870CB700320B323C9
:103F50000B7101F091FE23B0F0BDC046EC0E0020C5
:103F6000FFFFC0FFFFFFBFFF10B5A020C0054469E1
:103F70004906E401E409214341617F210A40446983
:103F80009104074A22400A430649426100224A70CE
:103F9000427001220270002B01D0FFF783FE10BD9A
:103FA000FFFF03FE00000020F7B5041C02F0F8FC40
:103FB000124B1A6800235068411C0191019D16683C
:103FC0009D420CDB976801367E4399008C469E1912
:103FD00000216546B600615101333151EEE70123FE
:103FE0009E420ADB956800215D43AF002D18013524
:103FF000AD00395101332951F2E7F7BDCC03002060
:10400000044B054900221A6059609A6005221A6023
:104010007047C04610E000E0FFFFFF0010B5A0238E
:10402000DB059C6899680C4BC9B21B68E4039433A8
:104030001B68E40F591AFF31E62359430134074B3B
:10404000A040C918041C064805F09CF9C1B2201C08
:1040500005F098F910BDC046FC0100205C5D000031
:1040600040420F00014B00221A60704710E000E050
:1040700030B50E4D0E48AB6885B0C01A0193FFF7FE
:10408000CDFF02A9012300240B704B708B70042319
:104090000190CB70201C6F2301AA8C800B7101F062
:1040A000EBFD01982C6005B030BDC04610E000E08B
:1040B000FFFFFF0010B5041CFFF7A2FF201CFFF755
:1040C000FDFDA023DB0501205870FFF76FFAFFF715
:1040D00081FAFFF757FDFFF7CBFF10BDA023DB05EB
:1040E000D87CC0B270478023DB0500BA09BAD8601B
:1040F0001961704737B5051C0424291C221C684629
:1041000005F0C0F92919221C01A805F0BBF9009996
:1041100080230ABADB05DA6001990ABA1A6137BD51
:1041200040BA80B2704700BA70470023114A124962
:104130009A188A4204D21149C95804331160F5E72C
:104140000F4B104A191D043B934203D200221A6000
:104150000B1CF6E70C4B0D4A1360EFF30882043397
:10416000191D043B9A4203D9094818600B1CF7E754
:104170007047C04640000020E00300206C9600001D
:10418000E4030020940D0020280F0020040F0020DD
:10419000CDCDCDCDF0B5294D89B029482C6800F0A2
:1041A0005DF9FFF7ABF80026264FBC4222D28037DC
:1041B0003B1B2027832B00DC9F1002A9FAB20123AE
:1041C00000204A708A70BF10221C0B70CB70888050
:1041D00001F052FD231C3A1C013A08D3002E04D1F1
:1041E00019491868884200D01E1C0433F4E7BF0048
:1041F000E419D9E72B6804A9F31A002501930423D5
:104200000124CB70281CA72301AA8D800C704C7050
:104210008C700B71843701F02FFD06A90420C87043
:10422000A823BE1B281C01AA8D8001960C704C701F
:104230008C700B7101F020FD09B0F0BD040F00205F
:10424000801A060080370020CDCDCDCD024B1B68F3
:104250000633D87F7047C046FC01002070B5051CAE
:10426000FFF760FC0A4B1C68A31DDB7F9A00AD18AA
:104270000022511ED218002A09D0E2185218263204
:104280001278920016588A00AE500A1CF1E770BDF1
:10429000FC01002030B50B4B1B689A1DD27F9400A7
:1042A0001C195300C01800230133D11A013107D063
:1042B0009D00651B983559002D6849424552F3E72A
:1042C00030BDC046FC010020A02382B080B2DB05D7
:1042D000D88502B07047A023DB05D88D82B002B02C
:1042E00070470722A023DB0510404201188AE02115
:1042F0008843104318827047F0B585B000AFFEF7D1
:1043000063FF264B69461D68061CEA68131C0E33C2
:10431000DB08DB00C91A2B69F9600E33DB08DB0010
:104320008D46C91A8D46F868311C05F0ABF8F023AC
:104330009B00F1182A69684605F0A4F8184B194D3E
:104340001A682E6893796C46BE60013B13D351798D
:104350000139FAD35079FE68584340183018BE68C6
:10436000F618A4367E600678B4467E683678B44483
:1043700066460670ECE72968D379013B06D3CA1874
:10438000C832E05C12788218E254F6E7F868211C23
:1043900000F0BAFEBD4605B0F0BDC046CC0300201B
:1043A000EC0E0020E80E0020A023DB0518690006B3
:1043B000400F704770B5051CFEF7E2FE0468061C4E
:1043C000013C08D37268E300D3181A68AA42F7D1F7
:1043D0005B689847F4E7024B013D1D6070BDC04625
:1043E000F00E002070B5051CFEF7CAFE8468061C9E
:1043F000013C08D3F268E300D3181A68AA42F7D147
:104400005B689847F4E7024B013D1D6070BDC046F4
:10441000F00E002038B5A023DB0599689D680C4B91
:10442000041C1B680B4894331B68ED03C91AC9436D
:10443000E623C9B25943084BED0FC91804F0A2FF97
:10444000044B01355843211C284104F09BFF38BD23
:10445000FC01002040420F005C5D000038B5A02345
:10446000DB0599689C680A4B051C1B680948943356
:104470001B68E403C91AC943E623C9B25943064B72
:10448000E40FC91804F07EFF68430134204138BDB1
:10449000FC01002040420F005C5D0000002801D0BC
:1044A000133907E0122902DD262902DD12394910ED
:1044B00000E000E0081C7047F0B5AA4B00261D681C
:1044C000041CEB7A1322133BDBB2301C9A4270417E
:1044D000B1B0C7B2059702273F1A311C142209A8B0
:1044E00005F012F8A04B20681B68882201936B33FB
:1044F0001870019B61686E3319700EA8311C05F0AD
:1045000003F8311C142209A804F0FEFF974B0EA8F3
:104510001968442204F0B6FF022F04D11FA80EA987
:10452000442204F0AFFF00272E1C0497771B03974B
:104530006B7901369F423EDAB77A0598391CFFF74E
:10454000ADFF09A9095C0EAB0291029A44215143C7
:1045500009185918721B0A717911069109A90A5C88
:1045600011214A43069952181F210F40063201219A
:104570009200B9400F1CD1580F43D7500399019FA7
:104580003F237A185178071C99438C4602991F40A3
:1045900089010691614603970F431F40069B1F4305
:1045A000029B5770013309AFDBB23B54049F9F421B
:1045B000BCDA0493BAE7019B049D6D3300261D709D
:1045C0000296684B029E19688F79BE4200DBBEE0FE
:1045D000029D49190B1C2833DA79644B1E68331C81
:1045E0009A331B78B446039303980023984204D06F
:1045F000781E854201DA2931CB790120011C9140D6
:104600000591111C2039051C8D40A9011D1C203D60
:10461000061CA840049D9E408909069607900195B6
:10462000019D002D38D0019E4425013E7543019621
:1046300066680EA82E544519281C002620302E62CC
:104640004668B60EB606009646601F2A02DC05983C
:10465000286204E08D01009EAD092E434660039D53
:10466000002DDDD0029E781E8642D9DA019E4425B7
:1046700075430EA845191F2B04DC2E6A069830439B
:104680002862CDE7686A079E0643B601800EB60928
:10469000800630436862C3E7029E6046331C45785B
:1046A0006344C833AD065F79AD0EFEF799FD00286F
:1046B00013D02F4E882031780137C9B204F062FE42
:1046C00031784743C9B2882004F05CFE0235454387
:1046D000013F023D019E791C03D03E1E1F2E00DDCE
:1046E0001F263F2D01DD3F2526E0EB43DB171D4054
:1046F00022E00199442251430EAB59188F781F23B1
:104700009F43301C18403B1C03434F788B703F2362
:10471000281C9F4318403B1C034320684B703B28D8
:104720001CDC5043134FC01904F0ACFE2368019FFA
:104730000133013723600197019F04988742D8DB3A
:10474000029D6368013501330295636039E7064BCA
:1047500022681B6801206C331A7000E0002031B021
:10476000F0BDC046EC0E0020FC010020E80E002049
:10477000540002000080005030B585B0FEF724FDE3
:10478000064B01A81B68021C843332CB32C2FFF7F0
:1047900093FEFFF7B1FD05B030BDC046FC0100201F
:1047A000F0B5564B9FB01B6800270493DB7A1322A9
:1047B000133BDBB2391C9A427941CBB2051C391C40
:1047C000142208A8079304F09FFE4D4B2A681E6828
:1047D0000DAC331C6F331A706968023359701F7047
:1047E000391C4422201C04F08FFE391C142208A816
:1047F00004F08AFE434B201C1B684422191C0693BC
:1048000004F040FEB31DDF77049A53799F4233DAF8
:10481000049A0798D319DB7A191C0593FFF73EFE1B
:1048200008AB1B5C9C46002B0BD1B31DDA7F511CDF
:10483000B218D9770732FBB20DA9D37701330A1822
:1048400013710DAB19180979F2193A320139117047
:10485000059901374A110632920003921F220A403D
:1048600001219140039AD2581143039AD1506346D3
:10487000013308A90B54C7E7069B5E78B606B60E4F
:10488000FEF7AEFC00280AD01F4B882019780236AC
:10489000C9B204F077FD46430023023E03D4331E21
:1048A0003F2B00DD3F23A2781F218A436178A2704D
:1048B0003F2291431340626A0B4369686370930E11
:1048C00021709B06002119A814222162636204F062
:1048D0001BFE2868442250430C4B211CC01804F0D6
:1048E000D1FD6A682B6801326A60054A013312689B
:1048F000012070322B6013701FB0F0BDEC0E002051
:10490000FC010020E80E002054000200008000504E
:10491000F0B5BA4BB1B01B680024039353331B7836
:10492000071C133BDBB21322201C9A426041C5B224
:10493000059502252D1A211C142209A804F0E4FD76
:10494000AF4B3E681B68211C049363331E70049BAD
:1049500078686633187088220EA804F0D5FD211CF3
:10496000142209A804F0D0FDA64B0EA81968442211
:10497000443104F087FD022D04D11FA80EA9442262
:1049800004F080FD0025039C0695039E039DA61B55
:1049900007966B7A01349E4237DA231C52331D7816
:1049A0000598291CFFF77AFD09AA115C6E118C4647
:1049B0000296112166467143029E0EAB89191F268D
:1049C0003540063101268900AE40351CCE583543AE
:1049D000CD50079E049D3F23A919051C1D40583149
:1049E00066460295B6018D790196029E9D432E433F
:1049F0001E40019B069D1E4363460133DBB28E7150
:104A000013549D42C1DA0693BFE7069E049BF6B29B
:104A1000653307961E700024784B04941B68049D30
:104A20009A7A954200DB9BE0049D069C5A19583205
:104A300011780122081C2038161C82408E409001FB
:104A4000B44680090394039C002C1BD0039D442290
:104A5000013D6A437E680EAC1655A2180395141CDE
:104A60001F2905DC566A65461562B20E920607E0FC
:104A700000251562666A8201B50E9209AD062A43C9
:104A80006262E0E75E4A1168221C587A824210DABC
:104A90008818583084794425A006A4096C43BE6860
:104AA000800E20180EAD0136281806710132BE6046
:104AB000EBE7544B1B681A1C4632453316781C78BA
:104AC000F606A406F60EA40EFEF78AFB002813D005
:104AD0004D4D882029780136C9B204F053FC29785D
:104AE0004643C9B2882004F04DFC02344443013EE1
:104AF000023C0025701C03D0351E1F2D00DD1F2534
:104B00003F2C01DD3F2402E0E343DB171C40039E02
:104B10000698864221DA0399442251430EAB591874
:104B20008E781F239E43281C1840331C03434E7865
:104B30008B703F239E43201C1840331C034338686E
:104B4000324E50434B70801904F09CFC3B68039E2E
:104B5000013301363B600396D9E7049C01345BE7DF
:104B6000274A3E681468079D221C64321670386814
:104B7000D07079680532517015700022597A8A42D6
:104B800010DAA1185831897944208D0689094843E3
:104B9000AD0EB96840190EAE013130180171013205
:104BA000B960EBE71AAD03950025069EB5421EDA03
:104BB00044236B430EA8C618706A0021820E920629
:104BC000316272620398142204F09EFC386844211A
:104BD00048430E4A311C8018442204F053FC3B68C1
:104BE000039E013344363B6001350396DDE73B68A5
:104BF00068340120237031B0F0BDC046EC0E0020B7
:104C0000FC010020E80E002054000200008000504B
:104C1000F0B56B4B00241F681322FB7A211C133B59
:104C2000DBB28DB09A4261410226CBB20C22761AD9
:104C300004A8211C019304F067FC142207A8211C7E
:104C400004F062FC7A793D1C02920299EB1B8B42C4
:104C500013DAE97A0198FFF721FC132801D9002023
:104C6000ACE007AA135C0135B342F8DA0133DBB2DA
:104C700013549C42E9DA1C1CE7E701220492B8793C
:104C8000002181420ADA131C9D1AA54203DA3B2B4C
:104C9000E5DC0133F8E701311A1CF2E70492FB79F5
:104CA000002B11D1002304A80493FFF779FD04A879
:104CB000FFF702FC424B434D1B68DE79002E3ED0CD
:104CC00004A8FFF725FE50E03B1C53331B7800255A
:104CD000133BDBB21322291C9A426941CAB20292E9
:104CE0000222521A019207A8291C142204F00CFC7B
:104CF0007B7A3E1C0393039AF31B934214DA331C12
:104D0000533319780298FFF7C9FB1328A7D807AACD
:104D1000135C019901368B42A1DA0133DBB21354E3
:104D20009D42E8DA1D1CE6E7EB43DB171D40BB7A2A
:104D30005D43049B6D00ED183B2DB3DD8FE72868C4
:104D4000311C0422633004F0DFFB2868311C04228C
:104D5000673004F0D9FB2B680499CAB2191C63317F
:104D600068330A704A700A711A702D6864002B1C2F
:104D70006F331A78073BDA73291C1B7878310B7074
:104D80004A70083909782A1C7A3211700F3A16785D
:104D9000291C7B31281C0E707D305374022204F0D4
:104DA00071FB2F1C2B1C7F33083734195C701E706D
:104DB0006E35FE672A7801339A6001200DB0F0BD90
:104DC000EC0E0020FC0100200D4B10B51C680D4BB3
:104DD00001681B681A1C673211704168D170191C78
:104DE000693100220A70617A8A4204DA81680132EC
:104DF00001318160F7E70268683301201A7010BD45
:104E0000EC0E0020FC010020A14BF0B51B68B3B0F4
:104E10001A1C0832D26F002406929E4A132115688C
:104E2000201CEA7A069F133AD2B2914260411A1CC2
:104E3000C6B27332177076330296012202261A70B8
:104E4000361A211C882210A804F05EFB211C1422B3
:104E50000BA804F059FB291C603110A8442204F06F
:104E600011FB022E04D121A810A9442204F00AFB50
:104E70006E790027059603973C1C059FBC422ADAF1
:104E80002B19DE7A0298311CFFF708FB0BAB195C7B
:104E900010AA8C46674644217943091851180134F9
:104EA0000C711F5C7111049111214F4304997F18FB
:104EB000B91D1F273E4001278900B7403E1C8F586F
:104EC0003E438E5062460132039ED2B21A5496423D
:104ED000D3DA0392D1E7069D00240595039F02973C
:104EE000029F002F16D0029E4422013E724310AF53
:104EF000BA180296D66A0021556A11629162B10E03
:104F00008906D378A80ED162202180060B43506217
:104F1000D370E5E75F4B221C1868817984460791BE
:104F2000079D131BAB4248DA65462B1B9B182F339A
:104F3000187801231F1C874051100497071C194043
:104F4000203FE6B20991BB40039908961F1C002937
:104F500031D0013944234B4310AE651C9D55089D4B
:104F6000F318099E6DB20195B54210D01F2804DCDC
:104F70001E6A049D35431D62E9E75D6A2E1C3E43AF
:104F8000B601AD0EB609AD0635435D62DFE71F28F9
:104F900004DC9E6A049D35439D62D8E71D1CDB6AD4
:104FA0003B439B019B090193EB6A9E0E019BB60656
:104FB0003343EB62CBE70132B2E7374B1B685B1937
:104FC000C8335F79634661331D78AD06AD0EFEF7D9
:104FD00007F9002813D0314E882031780137C9B243
:104FE00004F0D0F931784743C9B2882004F0CAF9F7
:104FF00002354543013F023D0026781C03D03E1E8A
:105000001F2E00DD1F263F2D01DD3F2502E0EB4373
:10501000DB171D40059944274F43214ABF18029AC8
:10502000039B9A4220DA02994422514310AB59184B
:10503000301C1F231840049088789843031C049860
:1050400003438B70281C3F231840049048789843F2
:10505000031C049803434B70381C04F013FA0299A4
:10506000443701310291DAE7DB43039D059EDB17EC
:105070002B40F61801340596022C00D02EE7044A86
:10508000069D1268E918CB187432137033B0F0BD66
:10509000FC010020EC0E0020E80E0020540002006D
:1050A00000800050F8B5164D061C2B6800246333B1
:1050B0001F782B68E1191A1C64321278013491426E
:1050C00009DAE319442058430E4B311CC01814224E
:1050D00004F01AFAEDE76B331F7800242B68E2190D
:1050E0006C331B7801349A4209DAE319442058439F
:1050F000044B311CC018142204F006FAEEE7F8BD88
:10510000FC010020EC7F0050F0B5374B85B01B68E8
:1051100002901A1C039163321578344A00201168FA
:10512000041C8A7A94422BDA021C4F7A161ABE4269
:105130001FDA9E195836B679B7090096EF1944263A
:105140007E432B4FB4463E1C009F66440196BE062C
:10515000039FB60EB446BE5C3F2E00DD3F26F6B27E
:105160000096019E0132371C6744009E30373E7026
:10517000DBE7181C6530007801342D18101CD0E7CF
:105180001A1C6B32147800208A79904229DA0022A6
:105190004D790195AA421EDA9E187678B709E7196B
:1051A000039744273D1C039FB6067D43AC46104D34
:1051B000B60E2F1C019D674445430397029FBF18FD
:1051C0007D5D3F2D00DD3F25039FEDB2BE193036DA
:1051D00035700132DCE71A1C6D3212780130A418E8
:1051E000D2E705B0F0BDC046FC010020EC0E002067
:1051F0000080005044235843044B111CC018C2784F
:105200000F2319409A430A43C27070470080005030
:1052100038B5051C141CFDF7E3FF002808D00A4B25
:10522000882019780234C9B204F0ACF84443023C37
:1052300044206843054A3F23801802781C409A4363
:105240001443047038BDC046540002000180005071
:1052500010B5041CFDF7C4FF002808D0084B8820B7
:1052600019780434C9B204F08DF84443043CA023F7
:10527000DB05198A1F22144091430C431C8210BD88
:105280005400020030B50F4B1B689979884203DA4D
:105290001B182833D87914E05A798D18411AA8427E
:1052A00002DA5B18D87A0CE09C7A8A1A2D19A84287
:1052B00003DA9B185833187803E0141B1B1950337A
:1052C000D87830BDEC0E0020F0B5D44DA024E40514
:1052D000A3682B6897B059799A7900AF8A18597AE0
:1052E0009B7A5218D3181A1C5A437B62D31DDB08D1
:1052F000DB006846C01A85466B46FF217B6104F0DF
:1053000003F9FF20FFF7AAF8C54B69461B1A786A14
:10531000BB60C000031C0E33DB08DB003861C91A18
:10532000786A8D466B4680003B62031C0A33DB08BB
:10533000DB00C91A002200233A637B63F860F9613D
:10534000E268B84B8D461340E3602B685C79B34B41
:10535000013C1B68621C14D01B19381CD97A5030D0
:10536000202204F071F83D6D58207A6DAB00C01911
:10537000C3180121283B91400A1C19680A431A608E
:10538000E5E79C79A54B013C1B68621C15D01B19F5
:105390002833381CD9795030202204F055F83D6D5F
:1053A00058207A6DAB00C019C3180121283B9140E9
:1053B0000A1C19680A431A60E4E75C7A974B013CBF
:1053C0001B68621C15D01B195033381CD97850301B
:1053D000202204F039F83D6D58207A6DAB00C019D9
:1053E000C3180121283B91400A1C19680A431A601E
:1053F000E4E79C7A013C621C17D0884B381C1B6880
:1054000050301B1958331978202204F01DF83D6DD7
:1054100058207A6DAB00C019C3180121283B914078
:105420000A1C19680A431A60E4E77D69BD6100251A
:10543000FD62FD6A786A854200DBDEE000213A69A0
:10544000386A04F061F8A0240021FA68F86904F0D1
:105450005BF8E40500232363636B9B0E9B06636389
:105460003D6BA563786BB862E36B86019B0EB60952
:105470009B063343E3636420FEF7F0FFFDF73EFF36
:10548000F86AFFF7FFFEC1B2381C4830202203F053
:10549000DBFF396B7A6BFB6CB963FA63BA6C012181
:1054A000994058200B1CC01991004118081C203845
:1054B00002689A430260B86C131C00280AD028398D
:1054C0000A6853409A01636B92099B0E9B06134333
:1054D000636301E06B402363A024E405A563E36BF1
:1054E0000A209B0E9B061E43E663FEF7B7FFFDF7FF
:1054F00005FFE26B8023DB041343E363B96BBA6AF5
:105500004D40A563FB6B5A40E36B92019B0E9209E1
:105510009B061343E363FEF773FDFD6BBE6B3B6AB3
:10552000AC460124404ABD689168A94214DB3F4A59
:1055300065461068526830402A405D68954203D342
:10554000F0D11D688542EDD2FD69DA60A200986055
:10555000A95001340833E5E7FEF784FDA023DB05FD
:10556000D96B334A0A40DA63012C3ED0651E386A93
:10557000ED004519013C002C37D02B1C083B1A6864
:1055800029685B6891436A687E6A9A43A30039641C
:105590007A64013EBB62FA6A964224D0301CFFF75F
:1055A00071FE011C381C5030202203F04DFF7B6D32
:1055B0000122386D9A405821131CC91982008A189B
:1055C000183A12681A420CD0BB6AFA691720D258EE
:1055D00040425043174BC018FEF720FDB969001137
:1055E0008855013ED7E7083DC4E7FD6A786A013572
:1055F000FD62BD692D18BD611BE7C3B2381C503078
:105600000370437083700023C370037179690123B1
:10561000437100F0D7F8BD4617B0F0BDEC0E002086
:10562000FFFFFF00FFFF0FFF10E000E04000005011
:10563000FFFFFFFBE9FFFF16014B18607047C046F4
:10564000F80E0020014B18687047C046F80E002085
:10565000014B18607047C046F40E0020014B1868DB
:105660007047C046F40E0020014B18687047C046D2
:1056700000020020F7B52F4F73467146381C019386
:10568000FEF798FEFBF788FB009001F089F9061CF5
:10569000FDF782FD284D1022041C0099286803F0B4
:1056A000F1FE32882B68381C1A74120A5A74B288B8
:1056B0009A74120ADA74214A12680532D27F002ADB
:1056C00003D0A2791A75627902E062791A75A2791B
:1056D0005A75E2799A751A4A6B6812881A70120A1A
:1056E0005A70184A52889A70120ADA70164A52880A
:1056F0001A71120A5A71154AD2889A71120ADA710D
:10570000134AAB68920A1A70124A920AD2B25A70BD
:105710009A70114A920AD2B2DA701A710F4A920A3A
:10572000D2B25A719A710E4A920ADA710199FEF751
:1057300059FEF7BD1556000004020020CC030020DE
:10574000FE030000FC9B0000FCAF0000F8BF00005F
:105750000000000000040000009C000000B00000F9
:1057600000C00000F7B50A4C7146061C201C7546A7
:10577000FEF720FE074A694681CA81C16B46B60022
:10578000F658201C291CFEF72DFE301CFEBDC0461D
:10579000055700005495000070B5084C7146201C58
:1057A0007646FEF707FE064B201CDB69311C5D7850
:1057B000EDB2FEF717FE281C70BDC0463957000039
:1057C00004020020F8B5144D041C0F1C281C71465F
:1057D0007646FEF7EFFD114BFF215A6A1170104912
:1057E0009C620F60A0782778596B474320793F1857
:1057F00060794006400E784308609869A0210170E6
:10580000D969281C1378FF2B02D10B78022BF9D011
:10581000311CFEF7E7FDF8BD6557000004020020CB
:105820001C05002038B50D4C7146201C7546FEF74E
:10583000C1FD0B4AD1694B780A49DBB20B72012BCF
:1058400005D0022B05D1936901225A7001E0FDF7C2
:105850001FFE291C201CFEF7C5FD38BDC5570000E2
:10586000040200201C05002038B50D4C7146201C98
:105870007546FEF79FFD0B4BDB68002B0BD00A4AE9
:10588000DBB2106C7F2119404832017093700133F4
:105890005370FFF7C7FF291C201CFEF7A3FD38BD7E
:1058A000095800001C0500200402002070B50F4CB0
:1058B0007146201C7546FEF77DFD0D4B261C1B7A9C
:1058C0000C4C012B05D0022B05D1A269002353708B
:1058D00001E0FDF7EFFD236C7F211A78301C8A432D
:1058E0001A70291CFEF77EFD70BDC0464D580000A1
:1058F0001C05002004020020F7B51E4E7346301C24
:1059000071460193FEF756FD1B4D00241B4E337A62
:10591000012B07D0002B18D0022B17D1184B9B69F5
:105920005C7813E0FDF7D6FD041C002D0BD1FDF7CC
:10593000C1FD2E23FF33013B002B01D0C046FAE707
:10594000FDF7A6FD0C4D013D00E01C1C0C4FFA6953
:105950005378327A9A4206D0FFF7A8FFFB69074ACC
:105960005B78137201E0002CD0D102480199FEF758
:1059700039FDF7BD99580000FF2C01001C050020DF
:1059800004020020F7B5164D7346071C0E1C281C98
:1059900071460193FEF70EFDFFF7AEFF114C80221A
:1059A000236C52421978606C0A431A70391C321CFD
:1059B00003F068FD236CF6B218787F229043311C07
:1059C0001140021C0A431A704834A670FFF72AFFE0
:1059D000FFF792FF281C0199FEF704FDF7BDC046B2
:1059E0002559000004020020F8B5FBF7D5F900F0B6
:1059F000D7FFFDF7D1FB1A4C051C666B03F09EFB2D
:105A00007060FFF737FE174B1B681888E36B020ABC
:105A10005A711871FFF7A6FEE26BC6B296712B6839
:105A2000EF790136FF1801374743381C00F0EFF9D2
:105A30003A1C0021051C206403F066FD231C48333A
:105A4000013500225E7065649A7003F071FB064BAD
:105A50005860A023DB059A7CE36C1A70F8BDC04641
:105A600004020020F80E00201C050020024BDB6918
:105A70001878C0B27047C04604020020024BDB69B0
:105A80009878C0B27047C04604020020014BDB6921
:105A90009870704704020020024BDB69D878C0B2CE
:105AA0007047C04604020020014BDB69D870704784
:105AB00004020020014BDB69586870470402002093
:105AC000024BDB695A6858607047C04604020020E8
:105AD000024BDB69187AC0B27047C046040200204E
