:10000000009700000001000026F80000000000003A
:1000100000000000000000000000000000000000E0
:1000200078FFE4B8200118F6D8F99000007F007E30
:1000300007E4F0A3DFFCDEFA75810702237F90035B
:10004000FCEFF0E0FF2402120AFFE0601AEF120B4F
:10005000F91208BA120951400E9003FCE024021272
:100060000AFFE4F07F01227F002200022022EFD36A
:100070009403500D120A53F583E5822D1208EEE425
:10008000F02200022511EFD39403500D120A60F5FF
:1000900083E5822D1208EEE4F02200022AD275F0E8
:1000A00002121920E0FCA3E0FD75F088EFA42444BF
:1000B000F582E5F03400F583EE75F002021920FFB9
:1000C000EE3401FEEB75F002A42426F582E5F0344F
:1000D00000F5832275F004121920E0F8A3E0F9A3DB
:1000E000E0FAA3E0FB9002E2E0FCA3E0FDA3E0FE67
:1000F000A3E022900409E0FF900408E0FE75F08878
:10010000A424A7F582E5F03400F583E5822FF5827B
:10011000E43583F5832290040AE0FEA3E0FF900417
:1001200008E0FD75F088A4247AF582E5F03400F546
:100130008322EF24C0FFEE34F9FE7C007D0A121802
:100140003F7D1E121851EF2440FFEE3406FEEB7582
:10015000F002A42420F582E5F03400F58322E0FCCF
:10016000A3E0FDEF75F088A42456F582E5F0340095
:1001700022901C84C39BFBEE9AFAED99F9EC98F857
:10018000E493FE740193FFE4FCFDC30218D275F002
:1001900002EBA4241AF582E5F03400F583E0FCA319
:1001A000E0FDEB75F002A42414F582E5F03400F5CF
:1001B0008322C39DFFEE9CFEE075F088A42468F5C1
:1001C00082E5F03400F58322F583E493FC74019317
:1001D000FD75F002EFA422900408E0FF75F088A4FA
:1001E0002432F582E5F03400F5832275F088A424EA
:1001F0008CF582E5F03400F583EC75F002021920ED
:10020000900408E0FF75F088A42444F582E5F034FA
:1002100000F58322E04401F0E4900013F09002D254
:100220002275F002EBA4241AF582E5F03400F58380
:1002300022F0A3F0A3F0A3F0A3F0A3F0A32224D014
:10024000F582E5F03401F583ECF0A3EDF0EF25E065
:1002500022900408E0FD75F088A4248CF582E5F076
:100260003400F58322E0FF25E024FCF582E434032A
:10027000F58322EF75F009A424E6F582E434022226
:10028000EF75F009A4244BF582E4340222900409AE
:10029000E0FF900408E075F088A4249EF582E5F064
:1002A000340022E4F075F088EEA424B0F582E5F085
:1002B00034002290040CE0FDEF9D7480F86E9822CB
:1002C000900408E0FFA3E0FD229003FBE024DCF5AE
:1002D00082E43401F58322EDF0CBEFCBEBD3940332
:1002E0002275F088EEA424B9F582E5F0340022747A
:1002F000E22EF582E43401F5832275F002EF121943
:1003000020E0FCA3E0FD75F08822E0FEA3E0FFD32F
:100310002274EF2BF582E43401F5832274022BF56D
:1003200082E43400F5832274092BF582E43402F56B
:10033000832274D32BF582E43402F58322E0440651
:10034000F09000137401F022C39BFBEE9AFAED9932
:10035000F9EC98F822902EC97420F07480902EC386
:10036000F0A37409F022EB25E024B4F582E4341DF7
:10037000F58322E0249EF582E43400F583E06401F5
:1003800022242CF582E5F03400F583ECF0A3EDF0A7
:100390000F22E4F0A3F075F08822FFEE34FEFE7C1D
:1003A000007D0A12183F7D32121851EF22E0FCA3A3
:1003B000E0FDEC541F22EE8FF01218A675F088EDC8
:1003C00022E0FEA3E0C39D22F583E0FCA3E0FD75DF
:1003D000F00222E49001E6F0900245F02224CAF5F2
:1003E00082E5F034012224D6F582E5F0340122754D
:1003F000F024A42401F582E43403F5832275F0246B
:10040000A42466F582E43402F5832225E025E02465
:10041000F2F582E43401F5832225E025E02405F598
:1004200082E43400F5832225E025E02438F582E4D7
:100430003402F5832225E025E024D6F582E4340257
:10044000F58322900408E0FFA3E0FD22A424A7F591
:1004500082E5F03400F583E58222E0FEA3E02DFF83
:10046000EE3CFE9003FAE022F074E32EF582E434D1
:1004700001F583E4F022E0FF9003FCE0FEEFC8EE1C
:10048000C80822902EC5E4F0902ECDF0A3F022F5FE
:1004900082E43402F5832275F002EF021920900302
:1004A0007BE054F0F022E024DFF582E43401F583B0
:1004B00022902EC6F0902EC57401F02275F0041221
:1004C00019200218E3C3EF94F6EE6480947F22ECC7
:1004D000F0A3EDF0900408E022902EC97420F022E1
:1004E0009003FBE004F0229003FBE0FF75F002A410
:1004F00022F09001E7F0900246F022900408EFF01D
:10050000A3EDF090040C7403F0ED70037402F0900E
:100510000408E0FF120944F583C083C082900409F7
:10052000E0FED082D08312087E120BA1FFEE9CFE6B
:1005300090040AF0A3EFF0122AC6C3120A934003F4
:10054000020DD81208F6C083C082900409E0FCD0E6
:1005500082D083120899120B96120906EC120899A0
:10056000120AEA940AEE6480948040241208FEC0C5
:1005700083C082900409E0FCD082D083120899E401
:10058000F0A3F0ED1209441209D7E475F001802BB5
:10059000120CA55029900408E0FF120903C083C083
:1005A00082900409E0FED082D083120899E4F0A37F
:1005B000F012094312089674FFF5F01218A6120AF9
:1005C000A012084E120AA012282F120AA01225BD4E
:1005D000EF7003020F04900409E0FF900408E0FEAE
:1005E000120A761208E9E4F0EF6003020F04120A1F
:1005F000C1F583E4F0020F04900409E0703EA3E02B
:10060000FEA3E0FF122AC690040CE02402FDE433AE
:10061000FCD3EF9DEC6480F8EE6480984009120AE8
:100620006D1208E97401F0120F3DD3120A93402CA9
:10063000900408E075F088120AC5801B120F3D90E7
:10064000040CE0FDD3120A984012120A6DF583E5FE
:10065000822FF582E43583F5837401F01208F6C029
:1006600083C082900409E0FCD082D08312089912E2
:100670000B961209061209D9120AEA9464EE6480F4
:10068000948040231208FEC083C082900409E0FCDD
:10069000D082D083120899120B72ED120947120909
:1006A000D7E475F0018031C3EF949CEE6480947FB1
:1006B0005029900408E0FF120903C083C08290040F
:1006C00009E0FED082D083120899E4F0A3F0120969
:1006D0004312089674FFF5F01218A6C390040AE0BE
:1006E000648094805032120AA01227F6120AA012D7
:1006F0002661EF60299004081209E3C083C082904C
:100700000409E0FED082D08312089912093E120833
:1007100096ECF0A3EDF08006120AA012084E120A21
:10072000A0120866900408E0FF120944F583C08314
:10073000C082900409E0FED082D08312087EE0FEE1
:10074000A3E0900408120992C083C082900409E0DB
:10075000D082D083120899EEF0A3EFF02290040A21
:10076000E0FEA3E0FF122AC622900408EFF0A3EDFA
:10077000F090040C7404F0ED603F90009EE0640182
:1007800070028008900409120B53702D1209B7C033
:1007900083C082900409E0FED082D08312087E12CA
:1007A0000CAF120A36C083C082900409E0D082D018
:1007B00083120899E4F0A3F0229004081209E3C020
:1007C00083C082900409E0FED082D083120899127F
:1007D0000AE1EFA42432F582E5F034001208961203
:1007E0000BA1FFEE9CFE90040AF0A3EFF0122AC6C4
:1007F00090040CE0FDC3120A9840030210AB1208EB
:10080000D3E06401703775F088EE12099CEF12098D
:10081000DAE0FEA3E0C3941EEE64809480400302FD
:1008200010F11209B7C083C082900409E0FED082A3
:10083000D08312087EECF0A3EDF00210F190040AD0
:10084000E0FEA3E0FF120A31C083C082900409E0F9
:10085000FCD082D083120899EE8FF01218A6ED1208
:1008600009CB120AEA9402EE648094804029120AAD
:1008700031C083C082900409E0FCD082D08312088A
:1008800099120B72EDA42444F582E5F034001209AC
:10089000D7E475F001802EC3EF94FEEE6480947F60
:1008A000506F900408E0FF120A36C083C0829004A3
:1008B00009E0FED082D083120899E4F0A3F0120878
:1008C0008974FFF5F01218A60210F11209B7C0835F
:1008D000C082900409E0FED082D08312087E120C00
:1008E000AFFF120999C083C082900409E0FED08254
:1008F000D083120899E0FCA3E0C3941EEC648094BA
:1009000080400E75F088EF120C2C2E1208EE740148
:10091000F01208D3E064017028120A851208E9E099
:1009200004120A841208E9E0D394054014900409E3
:10093000E0FF75F088EE1208E0120A831208E9E47D
:10094000F022E49003FBF09003FBE0FDC394095018
:1009500023E0FF75F0021209BFE0FAA3E0FB75F097
:1009600002EF1209E8EAF0A3EBF0E4FF120CDB124D
:100970000CC080D3E49003FAF0900012E0FF9003E3
:10098000FAE0C39F40030212E4120A45E4F0A3F028
:10099000EF25E02402F582E43404F583E4F0A3F0CB
:1009A000EF70030212DBE49003FBF09003FBE0FD29
:1009B000C3940950189003FAE0FF120F499003FA0C
:1009C000E0FFA3E0FD1212EA120CC080DEE4900307
:1009D000FBF09003FBE0FFC394094003021285740F
:1009E0009E2F120B5660109003FAE075F088120AE1
:1009F000C5F583E0B401199003FA120998C083C0C9
:100A0000829003FBE0D082D083120899E4F0A3F037
:100A10009003FBE0FF700302127F9003FAE0FE12E6
:100A20000999120C77E0FCA3E0C39403EC64809472
:100A300080501A75F088EE12099CC083C082900322
:100A4000FBE0D082D083120899E4F0A3F090041167
:100A5000E09003FA6026E0FF120999C083C08290FB
:100A600003FBE0FED082D08312089912093E1208DF
:100A700096120C3A120A47EE8FF08020E0FF12091E
:100A800099C083C0829003FBE0D082D08312089982
:100A9000E0FCA3E0FDEF120A47EC8DF01218A6125D
:100AA0000CC00211B2900411E09003FA6013120A14
:100AB00045E0FCA3E0FDEF120983ECF0A3EDF0802C
:100AC0003AE0FF75F088A42458F582E5F03400F58B
:100AD00083E0FCA3E01209B0120A06ECF0A3EDF0EB
:100AE0009003FA120A45E0FCA3E01209B0120A06CC
:100AF000120C3A120983EEF0A3EFF09003FAE0042F
:100B0000F0021159E49001E8F022900408EFF0A3FC
:100B1000EDF090040C7403F0ED70037404F0900099
:100B20009EE0640170028008900409120B53703833
:100B30001209E0C083C082900409E0FED082D08315
:100B400012089912093E120896ECF0A3EDF09004F9
:100B500008120998C083C082900409E0D082D08333
:100B6000120899E4F0A3F022900408E0FF1209446F
:100B7000F583C083C082900409E0FED082D0831246
:100B8000087E120BA1FFEE9C90040AF0A3EFF090F8
:100B90000408120C86E06007E490040AF0A3F090C9
:100BA000040AE0FEA3E0FF122AC690040CE0FDC395
:100BB000120A98400302142790040AE0FEA3E0FF03
:100BC000900408120901C083C082900409E0FCD09F
:100BD00082D083120899120B961209061209D912B3
:100BE0000AEA940AEE648094804026900408120970
:100BF00001C083C082900409E0FCD082D083120837
:100C000099120B72ED1209471209D7E475F00180B1
:100C10002B120CA55029900408E0FF120903C08391
:100C2000C082900409E0FED082D083120899E4F0DB
:100C3000A3F012094312089674FFF5F01218A612D9
:100C40000C2312084E8038C390040AE0648094801C
:100C5000502D120C231227F6120C23122661EF607E
:100C60001E1209E0C083C082900409E0FED082D049
:100C70008312089912093E120896ECF0A3EDF09049
:100C80000408E0FF120944F583C083C08290040980
:100C9000E0FED082D08312087EE0FEA3E09004083C
:100CA000120992C083C082900409E0D082D08312DE
:100CB0000899EEF0A3EFF0229001EEE024FE601E12
:100CC0001470030215301470030215EE2403600340
:100CD0000216319001EE7402F0E4900244F09001AB
:100CE000EE7403F0900247E064017061F0120C7E34
:100CF000900013E0FF70099002D2E07003021631F9
:100D0000EF60129002D2E0600C1209F8F090037BC1
:100D1000E044058034900013E060129002D2E0704D
:100D20000C1209F9F090037BE04401801C90001341
:100D3000E060030216319002D2E070030216311215
:100D400009F8F090037BE04404F0C28A22022116E5
:100D50001216329001E8E070030215CF900244E0D1
:100D600004F0E49003F9F0900012E0FF9003F9E042
:100D7000C39F507BE4FF9003F9E0FE1209BC120A06
:100D8000DAEE120947F583120C77ECF0A3EDF09040
:100D900003F9E0FE1209BC120ADAEE1209E8120C9D
:100DA00077120B6BEFB409CE9003F9E0FF1208A5A0
:100DB000E4F0A3F0EF12092F7404F0A3E4F0EFB411
:100DC0000110E490037EF0A3F09003827404F0E439
:100DD000A3F0EFB40210E4900380F0A3F09003843A
:100DE0007404F0E4A3F09003F9E004F002154790D6
:100DF0000244E0C394034059900011747EF0E490E3
:100E000001E9F0900244F09001EE7404F022121611
:100E1000329001E8E0603A121122E49003F9F09078
:100E20000012E0FE9003F9E0FFC39E5016122781E6
:100E30001225689003F9E0FF121AE69003F9E00426
:100E4000F080DC1228CC121EFF1219589001EEEF30
:100E5000F022E49003FBF09003FBE0FFC394094011
:100E6000030217BEEF902EC87014E0545FF0A37415
:100E70006AF0902EC3744AF0A37401F08009E04434
:100E8000F0F07420120B3D9003FBE0901C739390E4
:100E90002ECAF0E49003FAF0900012E0FF9003FAFB
:100EA000E0FEC39F40030217B574482E120C6FE09A
:100EB000FF9003FCF0E4F5E2EFC39408503B741597
:100EC000120C91C083C082120C568002C333D8FC2E
:100ED000D082D083F0902ECD7401F0C083C082E028
:100EE000FFC8EEC8088002C333D8FCD082D083F09C
:100EF000902EC074C1F002173B9003FCE024F8F080
:100F00007416120C91C083C082120C568002C33337
:100F1000D8FCD082D083F0902ECE7401F0C083C074
:100F200082E0FFC8EEC8088002C333D8FCD082D06C
:100F300083F0EEB40303120CB9EEB40403120CB93F
:100F4000EEB40503120CB9EEB40603120B35EEB481
:100F50000703120B35902EC074C2F0E4FF9000001E
:100F6000742EF0A3E4F09003FAE02448120C6FE032
:100F70009003FCF0E5E220E2050FEFB4C8DF53E296
:100F8000FB120C639003FCE0FD75F002A4FFAEF0D1
:100F9000900001E02FF0900000E03EF0ED901CA4E6
:100FA00093FF900000E475F0021218BC85F082F502
:100FB00083120AE1EF1209BFC083C0829003FBE0F5
:100FC000D082D083120899ECF0A3EDF09003FAE000
:100FD00004F00216789003FBE004F002163790014B
:100FE000E87401F022BB010689828A83E022500264
:100FF000E722BBFE02E32289828A83E49322BB01BB
:101000000CE58229F582E5833AF583E0225006E972
:101010002582F8E622BBFE06E92582F8E222E58277
:1010200029F582E5833AF583E49322BB01068982A0
:101030008A83F0225002F722BBFE01F322F8BB01A3
:101040000DE58229F582E5833AF583E8F022500622
:10105000E92582C8F622BBFE05E92582C8F222EF07
:101060008DF0A4A8F0CF8CF0A428CE8DF0A42EFE95
:1010700022BC000BBE0029EF8DF084FFADF022E40E
:10108000CCF875F008EF2FFFEE33FEEC33FCEE9D4D
:10109000EC984005FCEE9DFE0FD5F0E9E4CEFD2274
:1010A000EDF8F5F0EE8420D21CFEADF075F008EFFF
:1010B0002FFFED33FD4007985006D5F0F222C3987C
:1010C000FD0FD5F0EA22C5F0F8A3E028F0C5F0F84E
:1010D000E582158270021583E038F022A3F8E0C59E
:1010E000F025F0F0E582158270021583E0C838F033
:1010F000E822EB9FF5F0EA9E42F0E99D42F0E89C81
:1011000045F022ECF0A3EDF0A3EEF0A3EFF022A85F
:10111000828583F0D083D082121906121906121923
:1011200006121906E473E493A3C583C5F0C583C80A
:10113000C582C8F0A3C583C5F0C583C8C582C822CF
:10114000A42582F582E5F03583F58322EF4E601207
:10115000EF60010EEDBB010B89828A83F0A3DFFCF7
:10116000DEFA2289F05007F709DFFCA9F022BBFE66
:10117000FCF309DFFCA9F0229001EEE0B4021D901F
:1011800002477401F0900387E0B4200890036D7467
:1011900001F08005E490036DF07F0222E4FE9000F0
:1011A00012E0FFEEC39F4003021AE3120ACFE0648D
:1011B000016003021ADF74DC2E120AAFE0FC600348
:1011C000021A2E120C7EEE6401703A900246E0FD87
:1011D0006401701B900245E090037BB40109E04478
:1011E000091209F70480151209F4120CD18016EDCA
:1011F00090037BB4020BE044051209F7120C4880FF
:10120000041209F4F0EE64026003021AD890024658
:10121000E0FD6401701C900245E090037BB4010680
:10122000120B1DE48021E044041209F7120CD102D4
:101230001AD8ED90037BB40205E044058003E04436
:1012400004F0E4900013F09002D2F0021AD8EC649B
:10125000016003021AD8120C7EEE6401704C9002F9
:1012600045E0FFB4020B90037BE0440A120B2080A0
:1012700013EF640170269001E7E090037BB4010C4A
:10128000120B1DE49002D2120C48801EE0440212A0
:101290000B20E49002D2F0120BB4800E90037BE09E
:1012A0004402120B20E49002D2F0EE6402704990E6
:1012B0000245E0B4021390037BE0440AF09002D2AE
:1012C0007401F0900013F0802F9001E6E06401704B
:1012D0001C900246E090037BB40105E044098013B2
:1012E000E044081209F704F0120BB3800B90037B63
:1012F000E044081209F704F0120ACFE4F0C28A0EA3
:1013000002197E7F0422CBEFCB120A01E0FEA3E09C
:10131000FF120982E0FCA3E0FDC39FEC9E50030294
:101320001B94E42DFFEC3404FE120A01E0FCA3E060
:10133000FDC3EF9DFFEE9C12092DEEF0A3EFF0121E
:101340000A01E0FEA3E0FF120982E0FCA3E0C39FD4
:10135000FFEC9E1208A3EEF0A3EFF0120B46E4930D
:10136000FE740193FF1208A4E0FCA3E0FDD39FEC00
:101370009E4024120B46E493FE740193FFC3ED9F3D
:10138000FFEC9EC313FEEF13FF120B467401932F65
:10139000FFE4933EFE80131208A4E0FEA3E0FF7C6E
:1013A000007D6312183F0D1218511208A4EEF0A32D
:1013B000EFF0803C120982E0FEA3E0FF120A01E098
:1013C000FCA3E0C39FEC9EC3940475F002EB5012A3
:1013D0001208A8E4F0A3F012092E7404F0A3E4F0BC
:1013E000800E1208A8E4F0A3F012092EE4F0A3F096
:1013F000EB6401704C1208A4120AEA94CCEE94013A
:101400004010EF2434120B7A24CC12089FEEF0A384
:10141000EFF01208A4120B8D90037EF0EDA3F012F2
:10142000092E120AEA9440EE94064008120912EEC0
:10143000F0A3EFF012092E120B8D900382F0EDA3B2
:10144000F0EB6402704C1208A4120AEA94D6EE94EF
:10145000014010EF242A120B7A24D612089FEEF0D6
:10146000A3EFF01208A4120B8D900380F0EDA3F00F
:1014700012092E120AEA9440EE940640081209124C
:10148000EEF0A3EFF012092E120B8D900384F0ED15
:10149000A3F0223F3F3F3F3F3F3F3F3F00320032FC
:1014A000177002580004001E0032000A000F00648A
:1014B000000A000A00000000000000000000000018
:1014C000000101010D0E0F030405060708090A0BB0
:1014D0000C000102003200320032003200320032D1
:1014E000003200320032003200320032003200326C
:1014F000003200320037003700370037003700373E
:101500000037003700370037003700370037003723
:10151000003700370028002800280028002800286D
:10152000002800280028002800280028002800287B
:1015300000280028002D002D002D002D002D002D4D
:10154000002D002D002D002D002D002D002D002D33
:10155000002D002D006E006E006E006E006E006E9D
:10156000006E006E006E006E006E006E006E006E0B
:10157000006E006E007300730073007300730073DD
:1015800000730073007300730073007300730073C3
:10159000007300730064006400640064006400640D
:1015A000006400640064006400640064006400641B
:1015B00000640064002D002D002D002D002D002D55
:1015C000002D002D002D002D002D002D002D002DB3
:1015D000002D002D00FA00FA00FA00FA00FA00FAD5
:1015E00000FA00FA00FA00FA00FA00FA00FA00FA2B
:1015F00000FA00FA758A50538AEF9004127411F0C1
:101600009004107422F09004147433F075994F759F
:101610009AA0E4FDFCC29600000020970DD296002F
:101620000000309705E4900412F00DBD00010CEDB0
:10163000640A4C70E0E4FCFDC29600000020950DA9
:10164000D296000000309505E4900412F00DBD0024
:10165000010CED640A4C70E07590FF75991F759A46
:10166000E0000000000000000000E4900417F0FC1F
:10167000FD209507900417E04420F0209607900481
:1016800017E04440F0209707900417E04480F00DE5
:10169000BD00010CED640A4C70D7900417E024C023
:1016A000602024E0602C24E0602024E0602C24E012
:1016B000603024E0603424C070369004107425F04B
:1016C000802E9004107426F080269004107427F069
:1016D000801E9004107429F080169004107430F06D
:1016E000800E9004107428F080069004107431F07D
:1016F000E4F58BF5AD75AEF075AF19F5AC7589FFF6
:1017000075913E75990775960275931CF59BF59535
:10171000F592F59A75800CD28A90041104F022900B
:1017200003FA747EF0E4A3F0900012E0FE9003FB55
:10173000E0FFC39E400302201312081EEF60031255
:101740000BB3120AA9E07079120CC7120BBD120B71
:10175000A8EF1208A8120BA1EE9C40409003FBE0FA
:101760009003FAF0120AAD7401F09001E6E004F083
:10177000900245F09003FBE0FF24E2120AD27401CC
:10178000F0122A7E9003FBE0FF122A8D9003FBE00B
:10179000FF1229B39003FBE0FF1229ED9003FBE059
:1017A000FF122868EF60089003FB120C86E4F090AB
:1017B00003FBE0FF1228FAEF6070E49001E70220DB
:1017C00005120CC7120BC6120BA8EF1208A8120BB9
:1017D000A1EE9C401A9003FBE09003FAF012289AC5
:1017E000EF60479001EE7402F0120AA9E4F0229033
:1017F00003FBE0FF120AADE4F0122AAB9003FBE01A
:10180000FF1229969003FBE0FF122A9C9003FBE055
:10181000FF1229D09003FBE024E2120AD27401F0F7
:101820009001E7E004F0900246F09003FBE004F042
:10183000021F089003FAE0FF9001EBE06F6002EFF7
:10184000F022C0E0C083C082C0D0E8C0E0E9C0E0C0
:10185000EAC0E0EBC0E0EFC0E0D2AFE5DB30E4157A
:10186000E5DB30E1028022900373E5DFF09003F4C2
:10187000E4F00220FBE5DB30E5059003708038E5FD
:10188000DB30E126E5DB30E0119003F61229291266
:1018900029321217DEF5DF0220FB9003F5E0640821
:1018A0007079208A76D28A0220FB9003F4E0700DD2
:1018B000A3E5DFF09003F47401F00220FB9003F540
:1018C000E09023C493FFB4FF0E900373E5DFF09024
:1018D00003F5E004F0803EEF640F9003F6702B12E6
:1018E00029299003F5E0FF122946540F12180B9096
:1018F00003F61229299003F5E0FF04F0122946FFB0
:10190000E5DF54F04F12180B800B122929122932EF
:10191000E5DF12181D900372E004F075DBFFD0E0E4
:10192000FFD0E0FBD0E0FAD0E0F9D0E0F8D0D0D0A2
:1019300082D083D0E0327E017FD97D007B017A00A6
:10194000791412192C1226FC90036DE09003877015
:10195000057410F080037420F0122293E4FE9000CE
:1019600012E0FFEEC39F40030221CEE4FC75F08835
:10197000EE1209061209D9120B72EE120A79F583DA
:10198000E5822C1208EEE4F0EE1209CB120B72EE97
:10199000120C2C2C1208EE120A83F583E5822C120D
:1019A00008EEE4F0CFEECFCDECCD12084E12086673
:1019B0000CEC640970B7120AC1F583E4F0CFEECFE6
:1019C000122A7E122A9C122A8D122AAB74DC2E1245
:1019D0000AAFE4F0120ACFE4F09001E5747EF0E47F
:1019E000A3F0A3F0900245F0A3F00E02213E900177
:1019F000EB747EF0900011F0E49001EAF022E490A4
:101A000003FBF0FF9003FAF0EF14601E146035142E
:101A1000604C14605B240470749003FC7401F0A3A8
:101A2000742FF0A37458F002226712292690000147
:101A30001217DEFED3941F400312293F1217C56E02
:101A4000704B80431229269000021217DEFED394B9
:101A500006400312293F1217C56E703180291229E2
:101A6000269000031217DEFE1217C56E701F801736
:101A70001229269000041217DEFE648B60031229DF
:101A80003F1217C56E70069003FAE004F00FEF6482
:101A90000560030221E89003FAE0B40504A3740191
:101AA000F09003FBE0FD6007900388E0547FF0CFE7
:101AB000EDCF22900387E0FE6410704EFF9000127D
:101AC000E0FDEFC39D400302233AEF25E02454F5E7
:101AD00082E4341D1209A8120A1E2434F582E4346B
:101AE0001D1209A8120BBD120A262474F582E434D3
:101AF0001D1209A8120BC6120A262494F582E4349A
:101B00001D1209A8120B6102229DEE64207054FF81
:101B1000900012E0FEEFC39E5040EF25E024D4F584
:101B200082E4341C1209A8120A1E24B4F582E4349B
:101B30001C1209A8120BBD120A2624F4F582E43403
:101B40001C1209A8120BC6120A262414F582E434CA
:101B50001D1209A8120B610222F09001CCA3E090A3
:101B60000376F0220227BDE493A3F8E493A3400395
:101B7000F68001F208DFF48029E493A3F8540724E7
:101B80000CC8C333C4540F4420C8834004F45680A7
:101B90000146F6DFE4800B0102040810204080902B
:101BA000273FE47E019360BCA3FF543F30E5095416
:101BB0001FFEE493A360010ECF54C025E060A8404F
:101BC000B8E493A3FAE493A3F8E493A3C8C582C846
:101BD000CAC583CAF0A3C8C582C8CAC583CADFE91B
:101BE000DEE780BE0F00FFFFFFFFFFFFFFFFFFFFED
:101BF000FFFFFFFFFFFFFFFF000000FFFFFFFFFFF2
:101C0000FFFFFFFFFFFFFFFFFFFFFFFFFFFFFFFFE4
:101C1000FFFFFFFFFFFFFFFFFFFFFFFFFFFFFFFFD4
:101C2000FFFFFFFFFF0000000000000000000000B9
:101C300000000000000000000000000000000000A4
:101C40000000000000000000000000000000000094
:101C50000000000000000000000000000000000084
:101C6000000000009003F97408F0A3E4F0A3743FAF
:101C7000F0A374DFF0E4FDFCF9900375E064AA7052
:101C80004F74AAF0758A10538AEF0000009003F990
:101C9000E0FEA3E02DF582EE3CF583E493FF69F9C5
:101CA0000DBD00010CBC37E5BDDFE29003FBE0FE9B
:101CB000A3E0F5828E83E49369700790037504F0C6
:101CC0008005E4900375F0758A50538AEF00000098
:101CD00022902EC0E4F0902ECB74F4F0902F58E0B8
:101CE000540F2450902EC8F0902ECC7448F0902EB3
:101CF000C97428F0A3743FF0902E407481120A1129
:101D0000F0A3F0A304120A117402F0A3F0902EC6FF
:101D10007414F0902EC17490F0A37401F0A3742099
:101D2000F0A37409F043E310122A27900012EFF099
:101D300022C0E0C0F0C083C082C0D0E8C0E0ECC0E8
:101D4000E0EDC0E0EEC0E0EFC0E0D2AF9001EDE02A
:101D500004F0C3940A4017E4F01208C52401FFE41C
:101D60003EFEE43DFDE43CFC9002E21218E3D0E0CC
:101D7000FFD0E0FED0E0FDD0E0FCD0E0F8D0D0D045
:101D800082D083D0F0D0E032900411E0604E900019
:101D900016E0FEA3E0FFC39470EE94175006900483
:101DA000147426F0C3900019E09470900018E09429
:101DB0001750129004147427F0C3EF9470EE941728
:101DC00050037428F0E4900411F0900016F0A3F092
:101DD000A3F0A3F0900414E090037CF02290040E92
:101DE000EDF090040DEFF0A3E0FE120A60F583E53C
:101DF000822E1208EEE0603590040DE0120BDDC07B
:101E000083C08290040EE0D082D0831208B4120BFB
:101E100028901C8A120960401490040EE0FF900480
:101E20000DE0120A611208E9E4F07F01227F00222E
:101E3000900416E0B4101000900415E064017040A6
:101E4000F053AAF7022ABA900416E0642070319089
:101E5000041504F0758EC1758DA043AA08902ECB91
:101E6000E4F0122976122976122976122976902E1C
:101E7000CB74F4F053AAF7758601758A50538AEF34
:101E80002290040EEDF090040DEFF0A3E0FE120A94
:101E900053F583E5822E1208EEE0603290040DE0E7
:101EA000120BCFC083C08290040EE0D082D0831288
:101EB00008B4901C88120954401490040EE0FF905E
:101EC000040DE0120A541208E9E4F07F01227F00B9
:101ED000229001D2A3E09003CCF09001D4A3E09033
:101EE00003CDF09001CCA3E09003CEF09001CEA3FF
:101EF000E09003CFF09001D8A3E09003D0F09001E0
:101F0000DAA3E09003D1F0901DB67401939003D250
:101F1000F0901DB87401939003D3F0227E007F806F
:101F20007D007B017A03797412192CE490037BF015
:101F300090037504F090038674ABF0900388749757
:101F4000F0900412E0900378F0900410E090037990
:101F5000F0900414E090037AF01221DE0226B141E1
:101F600004170041041610410415004102440041C9
:101F700001ED0041024700410013004102D200413F
:101F8000036D004103F4004103F50042036E0000BD
:101F9000410370004103720041037100410373105B
:101FA00000CBEFCBEB6401701712096EE09003C415
:101FB000F0120982A3E09003C5F0ECA3F0EDA3F0CA
:101FC000EB6402701712096EE09003C8F0120982E8
:101FD000A3E09003C9F0ECA3F0EDA3F022122A6D68
:101FE00053A87F121DD412294F43A880122ABA1277
:101FF0002A5B122A0AEF24E0600A2410700AC283C6
:10200000C2828004D283D2821222931224441226E6
:102010001012149880DC90040D120AB7503090040E
:102020000DE0FFEB120A541208E9E07021EB120AEE
:10203000541208E97401F01208C5FFEB120BCFC06F
:1020400083C08290040DE0D082D083120C9C229039
:10205000040D120AB7503090040DE0FFEB120A6134
:102060001208E9E07021EB120A611208E97401F02C
:102070001208C5FFEB120BDDC083C08290040DE097
:10208000D082D083120C9C229003FCEFF0E0FF245E
:10209000EF120AF4E06020EF120BEB1208BA120BF9
:1020A00028901C7E120960400E9003FCE024EF1281
:1020B0000AF4E4F07F01227F00229003FCEFF0E0BD
:1020C000FF24D3120B15E06020EF120C151208BA92
:1020D000120B28901C82120960400E9003FCE02431
:1020E000D3120B15E4F07F01227F0022E4FFFE9063
:1020F0000012E0FDEEC39D501BEF1208A5120BAAC3
:10210000EE1208A8E0FAA3E0D39DEA9C4003CFEECC
:10211000CF0E80DB9001ECEFF0229003FCEFF0E0BB
:10212000FF2409120B0AE0601AEF120C071208BA1A
:10213000120951400E9003FCE02409120B0AE4F04E
:102140007F01227F00229003FCE0FBA3E0FAA3E0E2
:10215000F9229003F5E0FF04F08F8275830022904E
:1021600003FB7401F022E92FF9E43AFA0217C59053
:1021700003F67401F0A37403F0A37474F0E4F5DAC9
:1021800075DA4043DA2075D74075DA5843A90875E7
:10219000B80875F80822E4FFFE900413E0600B0F06
:1021A000BF00010EBE0BF2BFB8EFE4F58A438A848C
:1021B000758703000022120AB95017120AF1E07065
:1021C00011120AF17401F01208C5FFEB120BEB12A9
:1021D00018E322120AB95017120AFCE07011120A11
:1021E000FC7401F01208C5FFEB120BF91218E32280
:1021F000120AB95017120B07E07011120B07740185
:10220000F01208C5FFEB120C071218E322120AB9EC
:102210005017120B12E07011120B127401F0120819
:10222000C5FFEB120C151218E322E4FD900370E0D9
:102230006011900374E0FE54F0FDEE540FF0E49052
:102240000370F0CFEDCF22120C63FFFEEE901C94D2
:1022500093600974482F120C6FEEF00F0EEEB4105D
:10226000EB229002E21218EF000000007E007F0BCC
:102270007D007B017A0179FE02192C75B28E75B64C
:10228000F9E4F5B743B20143AA01022A429040069D
:10229000E493B41802002253A87F000080FCEFD31F
:1022A0009403500874EF2F120AF4E4F022EFD39451
:1022B00003500874022F120AFFE4F022EFD39403B4
:1022C000500874092F120B0AE4F022EFD394035044
:1022D0000874D32F120B15E4F0221224B19001EEF2
:1022E0007401F0022116EE30E707C3E49FFFE49E7D
:1022F000FE22D2AF0032000000000000000000000B
:1023000000000000000000000000000000000000CD
:1023100000000000000000000000000000000000BD
:1023200000000000000000000000000000000000AD
:10233000000000000000000000000000000000009D
:1037F0000000000000000000000000000000009A2F
:1038000000000000000000000000000000000000B8
:1038100000000000000000000000000000000000A8
:00000001FF
