:1000000078FFE4B8200118F6D8F99000007F007E50
:1000100007E4F0A3DFFCDEFA758120022D329003A5
:10002000FDEFF0E0FF2402121332E0601AEF121429
:10003000031210B512114C400E9003FDE024021281
:100040001332E4F07F01227F00220002291FEFD348
:100050009403500D12126CF583E5822D1210E9E421
:10006000F02200022F1E75F002122786E0FCA3E0AA
:10007000FD75F088EFA42444F582E5F03400F583A3
:10008000EE75F0020227869003FCE0FF75F002A4F3
:1000900024CAF582E5F03401F583E0FCA3E0FDEF2E
:1000A00075F002A42426F582E5F03400F58322756C
:1000B000F004122786E0F8A3E0F9A3E0FAA3E0FB3E
:1000C0009002E3E0FCA3E0FDA3E0FEA3E0229004A5
:1000D0000AE0FF900409E0FE75F088A424A7F582E9
:1000E000E5F03400F583E5822FF582E43583F5836E
:1000F0002290040BE0FEA3E0FF900409E0FD75F000
:1001000088A4247AF582E5F03400F58322EF24C038
:10011000FFEE34F9FE7C007D0A1226A57D1E122614
:10012000B7EF2440FFEE3406FEEB75F002A4242066
:10013000F582E5F03400F58322E0FCA3E0FDEF75E5
:10014000F088A42456F582E5F03400229027CFC32E
:100150009BFBEE9AFAED99F9EC98F8E493FE7401A2
:1001600093FFE4FCFDC302273875F002EBA4241AC8
:10017000F582E5F03400F583E0FCA3E0FDEB75F0DB
:1001800002A42414F582E5F03400F58322C39DFF18
:10019000EE9CFEE075F088A42468F582E5F034005A
:1001A000F58322F583E493FC740193FD75F002EF6F
:1001B000A422900409E0FF75F088A42432F582E5BA
:1001C000F03400F5832275F088A4248CF582E5F0E4
:1001D0003400F583EC75F002022786900409E0FFF5
:1001E00075F088A42444F582E5F03400F58322E01C
:1001F0004401F0E4900013F09002D32275F002EB7A
:10020000A4241AF582E5F03400F583229003FCE083
:10021000FF24DCF582E43401F58322F074E22EF54C
:1002200082E43401F58322F0A3F0A3F0A3F0A3F05D
:10023000A3F0A32224D0F582E5F03401F583ECF09D
:10024000A3EDF0EF25E0229003FBE0FF25E024FD85
:10025000F582E43403F58322900409E0FD75F0880B
:10026000A4248CF582E5F03400F58322EF75F009C3
:10027000A424E7F582E4340222EF75F009A4244CAB
:10028000F582E434022290040AE0FF900409E0754C
:10029000F088A4249EF582E5F0340022E4F075F0A5
:1002A00088EEA424B0F582E5F034002290040DE03D
:1002B000FDEF9D7480F86E9822900409E0FFA3E0A2
:1002C000FD229003FCE024DFF582E43401F5832273
:1002D0009003FCE0FF75F002A424D6F582E5F0342B
:1002E0000122EDF0CBEFCBEBD394032275F088EE37
:1002F000A424B9F582E5F0340022E04406F0900031
:10030000137401F02275F002EF122786E0FCA3E0DF
:10031000FD75F08822E0FEA3E0FFD322900375E094
:1003200054F0F02274F02BF582E43401F58322744A
:10033000022BF582E43400F58322740A2BF582E463
:100340003402F5832274D42BF582E43402F583223F
:10035000C39BFBEE9AFAED99F9EC98F822E0FEA324
:10036000E0C39D22EB25E024FFF582E43428F583E9
:1003700022E0249EF582E43400F583E06401222427
:100380002CF582E5F03400F583ECF0A3EDF00F22BC
:10039000E4F0A3F075F08822FFEE34FEFE7C007DD1
:1003A0000A1226A57D321226B7EF22E0FCA3E0FD5B
:1003B000EC541F22EE8FF012270C75F088ED22907E
:1003C0002EC3F0A37407F09003FCE0902EC922E442
:1003D0009001E6F0900246F02275F024A42402F584
:1003E00082E43403F5832275F024A42467F582E4C3
:1003F0003402F5832225E025E024F3F582E434017C
:10040000F5832225E025E02405F582E43400F58318
:100410002225E025E02439F582E43402F583222503
:10042000E025E024D7F582E43402F5832290040924
:10043000E0FFA3E0FD22A424A7F582E5F03400F557
:1004400083E58222E0FEA3E02DFFEE3CFE9003FB5D
:10045000E0229003FCE09003FBF022F074E32EF521
:1004600082E43401F583E4F022E0FF9003FDE0FE36
:10047000EFC8EEC80822900375E0440A22902EC50A
:10048000E4F0902ECDF0A3F022F582E43402F5835F
:100490002275F002EF022786902EC6F0902EC574CA
:1004A00001F022F09001E5747EF0E4A3F02275F0F3
:1004B00004122786022749C3EF94F6EE6480947FE6
:1004C00022ECF0A3EDF0900409E0229003FCE0049C
:1004D000F022F09001E7F0900247F022FFEE3401A5
:1004E000FE75F002EB22900409EFF0A3EDF090040A
:1004F0000D7403F0ED70037402F0900409E0FF1234
:10050000113FF583C083C08290040AE0FED082D000
:100510008312106612135DFFEE9CFE90040BF0A395
:10052000EFF012341AC31212AC40030215E312109A
:10053000F1C083C08290040AE0FCD082D083121004
:10054000811213B4121101EC121081121315940AC6
:10055000EE6480948040241210F9C083C08290041D
:100560000AE0FCD082D083121081E4F0A3F0ED12F7
:10057000113F1211D2E475F001802B1214B75029EB
:10058000900409E0FF1210FEC083C08290040AE0CC
:10059000FED082D083121081E4F0A3F012113E123B
:1005A000107E74FFF5F012270C1212B912104E12C1
:1005B00012B91231951212B9122F75EF700302178A
:1005C0000F90040AE0FF900409E0FE12128F12104F
:1005D000E4E4F0EF600302170F1212ECF583E4F08D
:1005E00002170F90040AE0703EA3E0FEA3E0FF12A2
:1005F000341A90040DE02402FDE433FCD3EF9DECAB
:100600006480F8EE64809840091212861210E47437
:1006100001F0121748D31212AC402C900409E07577
:10062000F0881212F0801B12174890040DE0FDD3E1
:100630001212B14012121286F583E5822FF582E480
:100640003583F5837401F01210F1C083C0829004E9
:100650000AE0FCD082D0831210811213B41211016F
:100660001211D41213159464EE6480948040231206
:1006700010F9C083C08290040AE0FCD082D08312BB
:100680001081121390ED1211421211D2E475F00193
:100690008031C3EF949CEE6480947F5029900409CC
:1006A000E0FF1210FEC083C08290040AE0FED082F8
:1006B000D083121081E4F0A3F012113E12107E7468
:1006C000FFF5F012270CC390040BE0648094805077
:1006D000321212B912315C1212B9122FC8EF60290E
:1006E0009004091211DEC083C08290040AE0FED09B
:1006F00082D08312108112113912107EECF0A3ED1A
:10070000F080061212B912104E1212B91233AC90C8
:100710000409E0FF12113FF583C083C08290040AF0
:10072000E0FED082D083121066E0FEA3E0900409C0
:1007300012118DC083C08290040AE0D082D083124F
:100740001081EEF0A3EFF02290040BE0FEA3E0FF97
:1007500012341A229001EDE0FE703B9001EFE0644C
:1007600002705B90024804F09001DEE0B4010312D5
:1007700012FE9001DDE0B401069002D37401F09006
:100780000388E0B4200890036E7401F08005E490C3
:10079000036EF07F0222EEB401249001EFE0B40278
:1007A0001D9002487401F0900388E0B42008900383
:1007B0006E7401F08005E490036EF07F0222E4FE87
:1007C000900012E0FFEEC39F40030219789001ED04
:1007D000E0FC704A12121CE06401704274DC2E12BC
:1007E0001213E0FF701612131CEEB40204E0440969
:1007F000F0EE64017021121476F0801BEF6401703A
:100800001612131CEEB40204E04401F0EEB401072A
:10081000900375E04402F012121CE4F0C28AEC640A
:1008200001600302197412121CE0640160030219D2
:100830007474DC2E121213E0FC60030218C9121348
:100840001CEE6402703A900247E0FD6401701B9058
:100850000246E0900375B40109E044091211F20464
:1008600080151211EF1214D28016ED900375B402A8
:100870000BE044051211F212145B80041211EFF028
:10088000EE6401600302196D900247E0FF6401709D
:100890001C900246E0900375B401061212FAE4803F
:1008A00021E044041211F21214D202196DEF9003E8
:1008B00075B40205E044058003E04404F0E49000D0
:1008C00013F09002D3F002196DEC64016003021979
:1008D0006D12131CEE64027049900246E0FFB402F0
:1008E000081214761212FD8013EF64017026900135
:1008F000E7E0900375B4010C1212FAE49002D312EF
:10090000145B801EE044021212FDE49002D3F01248
:1009100013D0800E900375E044021212FDE49002A1
:10092000D3F0EE64017046900246E0B40210121457
:1009300076F09002D37401F0900013F0802F9001B4
:10094000E6E06401701C900247E0900375B4010575
:10095000E044098013E044081211F204F01213CFAE
:10096000800B900375E044081211F204F012121C7F
:10097000E4F0C28A0E0217C07F04229003FB747E4B
:10098000F09001EDE06003021A949003FCF09000F7
:1009900012E0FF9003FCE0FEC39F4003021A717453
:1009A000DC2E121213E06003021A4974DF2E1212B9
:1009B000C8E0FF70289003FCE075F002A424D0F595
:1009C00082E5F03401F583E0FCA3E0FD75F002EE72
:1009D0001210A3E0FAA3E0C39DEA9C500FEF64015C
:1009E000705B12108712135DEE9C40519003FCE087
:1009F000FF9003FBF01212C67401F074DC2F121288
:100A0000137401F09001E5E0FFB47E149003FCE064
:100A1000FE9001E5F0A3740112121B7401F0800D29
:100A20009003FCE06F60069001E67402F09003FC16
:100A3000E0FF1233D29003FCE0FF12333E121B9210
:100A400060261212C2E4F0801F1212D01210981207
:100A5000135DEE9C400C121452123200EF6009023A
:100A60001B3E12120C1232B69003FCE004F0021985
:100A70008E9001DEE0701D9001DDE070179001E6C0
:100A8000E0D39400400E9001E5E024E212121F74BE
:100A9000011214A39001EDE064016003021B839036
:100AA00003FCF0900012E0FE9003FCE0FFC39E40C8
:100AB00003021B8312101EEF60031213CF9003FC7E
:100AC000E0121211E0706112108712135DEE9C406B
:100AD0003B1214521212117401F09001E6E004F07E
:100AE000900246F09003FCE0FF24E212121F740112
:100AF000F01233D29003FCE0FF1233E19003FCE0EC
:100B0000FF1233049003FCE0FF12333E121B92608D
:100B1000051212C2E4F09003FCE0FF123261EF60B4
:100B200059E49001E7021B751212D01210981213AB
:100B30005DEE9C4019121452123200EF603C90019D
:100B4000EF7402F09003FCE0121211E4F022121292
:100B50000C1232B69003FCE0FF1233F09003FCE07D
:100B6000FF1233219003FCE024E212121F7401F003
:100B70009001E7E004F0900247F09003FCE004F0FD
:100B8000021AA39003FBE0FF9001EBE06F6002EF1D
:100B9000F0229003FCE0FF1231CEEF22900409EF27
:100BA000F0A3EDF090040D7404F0ED603F90009E12
:100BB000E064017002800890040A121371702D1213
:100BC00011B2C083C08290040AE0FED082D08312AA
:100BD00010661214C112125DC083C08290040AE034
:100BE000D082D083121081E4F0A3F0229004091285
:100BF00011DEC083C08290040AE0FED082D083124E
:100C0000108112130CEFA42432F582E5F0340012A7
:100C1000107E12135DFFEE9CFE90040BF0A3EFF02C
:100C200012341A90040DE0FDC31212B14003021CED
:100C3000FE1210CEE06401703775F088EE12119745
:100C4000EF1211D5E0FEA3E0C3941EEE6480948001
:100C50004003021D441211B2C083C08290040AE016
:100C6000FED082D083121066ECF0A3EDF0021D449A
:100C700090040BE0FEA3E0FF121258C083C08290E4
:100C8000040AE0FCD082D083121081EE8FF012278C
:100C90000CED1211C61213159402EE64809480407C
:100CA00029121258C083C08290040AE0FCD082D07E
:100CB00083121081121390EDA42444F582E5F034E0
:100CC000001211D2E475F001802EC3EF94FEEE64A1
:100CD00080947F506F900409E0FF12125DC083C0C2
:100CE0008290040AE0FED082D083121081E4F0A347
:100CF000F012107174FFF5F012270C021D4412114E
:100D0000B2C083C08290040AE0FED082D083121069
:100D1000661214C1FF121194C083C08290040AE0CD
:100D2000FED082D083121081E0FCA3E0C3941EECBD
:100D300064809480400E75F088EF1214362E1210E5
:100D4000E97401F01210CEE06401702812129E12B4
:100D500010E4E00412129D1210E4E0D39405401454
:100D600090040AE0FF75F088EE1210DB12129C125C
:100D700010E4E4F0229001EFE024FE601E14700302
:100D8000021E3F147003021EFD24036003021F4075
:100D90009001EF7402F0E4900245F09001EF7403CB
:100DA000F0900248E064016003021E3CF09001ED07
:100DB000E0FD7020C28A12131C900013E06009E469
:100DC000F0900375E04409F09002D3E06006E4F08F
:100DD000121476F0ED64016003021F4012131C90A0
:100DE0000013E0FF70099002D3E07003021F40EF90
:100DF00060129002D3E0600C1211F3F0900375E0E2
:100E000044058034900013E060129002D3E0700C2F
:100E10001211F4F0900375E04401801C900013E07F
:100E20006003021F409002D3E07003021F401211C2
:100E3000F3F0900375E04404F0C28A22022AEF1214
:100E400021089001E8E07003021EDE900245E004F4
:100E5000F0E49003FAF0900012E0FF9003FAE0C390
:100E60009F507BE4FF9003FAE0FE1211B7121305C6
:100E7000EE121142F583121491ECF0A3EDF0900301
:100E8000FAE0FE1211B7121305EE1211E3121491DB
:100E9000121389EFB409CE9003FAE0FF1210A0E418
:100EA000F0A3F0EF12112A7404F0A3E4F0EFB402FF
:100EB00010E490037FF0A3F09003837404F0E4A3A4
:100EC000F0EFB40110E4900381F0A3F09003857477
:100ED00004F0E4A3F09003FAE004F0021E5690023E
:100EE00045E0C394034059900011747EF0E49001F2
:100EF000E9F0900245F09001EF7404F0221221080D
:100F00009001E8E0603A121F41E49003FAF090008B
:100F100012E0FE9003FAE0FFC39E50161230E61274
:100F20002EC79003FAE0FF1222C99003FAE004F002
:100F300080DC12323212197B1217549001EFEFF05D
:100F400022E49003FCF09003FCE0FDC394095023DD
:100F5000E0FF75F0021211BAE0FAA3E0FB75F002AF
:100F6000EF1211E3EAF0A3EBF0E4FF1214E612141F
:100F7000CB80D3E49003FBF0900012E0FF9003FBE2
:100F8000E0C39F400302210212124AE4F0A3F0EFF3
:100F900025E02403F582E43404F583E4F0A3F0EFC4
:100FA00070030220F9E49003FCF09003FCE0FDC321
:100FB000940950189003FBE0FF121B9C9003FBE088
:100FC000FFA3E0FD12247D1214CB80DEE49003FC2D
:100FD000F09003FCE0FFC3940940030220A8749E34
:100FE0002F12137460109003FBE075F0881212F05A
:100FF000F583E0B401199003FB121193C083C08202
:101000009003FCE0D082D083121081E4F0A3F09032
:1010100003FCE0FF70030220A29003FBE0FE12112C
:1010200094121491E0FCA3E0C39403EC64809480D8
:10103000501A75F088EE121197C083C0829003FC9D
:10104000E0D082D083121081E4F0A3F0900412E08B
:10105000602A9003FBE0FF121194C083C0829003CA
:10106000FCE0FED082D08312108112113912107E62
:1010700012144412124CEE8FF012270C9003FBE076
:10108000FF121194C083C0829003FCE0D082D08311
:10109000121081E0FCA3E0FDEF12124CEC8DF01277
:1010A000270C1214CB021FD1900412E0601112120F
:1010B00047E0FCA3E0FDEF12117EECF0A3EDF09011
:1010C00003FBE0FF75F088A42458F582E5F03400B6
:1010D000F583E0FCA3E01211AB121201ECF0A3EDDA
:1010E000F0121247E0FCA3E01211AB12120112142D
:1010F0004412117EEEF0A3EFF09003FBE004F00247
:101100001F78E49001E8F022E49003FCF09003FCE7
:10111000E0FFC3940940030222C2EF902EC870146E
:10112000E0545FF0A3746AF0902EC3744AF0A37485
:1011300001F0800EE044F0F0902EC37420F0A37410
:1011400009F09003FCE09027BE93902ECAF0E49043
:1011500003FBF0900012E0FF9003FBE0FEC39F4012
:10116000030222B974492E121489E0FF9003FDF0A6
:10117000E4F5E2EFC39408503B7415121498C08351
:10118000C0821214698002C333D8FCD082D083F0AD
:10119000902ECD7401F0C083C082E0FFC8EEC80875
:1011A0008002C333D8FCD082D083F0902EC074C1AB
:1011B000F002223F9003FDE024F8F0741612149818
:1011C000C083C0821214698002C333D8FCD082D09D
:1011D00083F0902ECE7401F0C083C082E0FFC8EE91
:1011E000C8088002C333D8FCD082D083F0EEB405A7
:1011F00006902EC97420F0EE6406701C7430121331
:10120000BF30E00B7420F0902E4E7402F080097411
:1012100018F0902E4E7404F0EE6407701C74B01237
:1012200013BF30E00B7420F0902E4F7482F08009D1
:101230007418F0902E4F7404F0902EC074C2F0E435
:10124000FF900000742EF0A3E4F09003FBE024492B
:10125000121489E09003FDF0E5E220E2050FEFB4FF
:10126000C8DF53E2FB12147D9003FDE0FD75F00230
:10127000A4FFAEF0900001E02FF0900000E03EF0FF
:10128000ED9027EF93FF900000E475F00212272203
:1012900085F082F58312130CEF1211BAC083C0825D
:1012A0009003FCE0D082D083121081ECF0A3EDF02B
:1012B0009003FBE004F00221539003FCE004F002F1
:1012C000210D9001E87401F022CBEFCB1211FCE06C
:1012D000FEA3E0FF12117DE0FCA3E0FDC39FEC9EA6
:1012E0005003022388E42DFFEC3404FE1211FCE0CD
:1012F000FCA3E0FDC3EF9DFFEE9C121128EEF0A3CE
:10130000EFF01211FCE0FEA3E0FF12117DE0FCA360
:10131000E0C39FFFEC9EFE75F002EB1210A3EEF00F
:10132000A3EFF0121364E493FE740193FF75F002CF
:10133000EB1210A3E0FCA3E0FDD39FEC9E4024122F
:101340001364E493FE740193FFC3ED9FFFEC9EC30F
:1013500013FEEF13FF1213647401932FFFE4933E07
:10136000FE801775F002EB1210A3E0FEA3E0FF7CF5
:10137000007D631226A50D1226B775F002EB121040
:10138000A3EEF0A3EFF0803C12117DE0FEA3E0FF9E
:101390001211FCE0FCA3E0C39FEC9EC3940475F023
:1013A00002EB50121210A3E4F0A3F01211297404FE
:1013B000F0A3E4F0800E1210A3E4F0A3F0121129C0
:1013C000E4F0A3F0EB6402705775F002EB1210A387
:1013D00012131594CCEE94014013EF243412139899
:1013E00024CC1214DC1210A3EEF0A3EFF075F0027F
:1013F000EB1210A31213AB90037FF0EDA3F01211C8
:10140000291213159440EE9406400812110DEEF0C7
:10141000A3EFF01211291213AB900383F0EDA3F0A8
:10142000EB6401705775F002EB1210A312131594C0
:10143000D6EE94014013EF242A12139824D61214E6
:10144000DC1210A3EEF0A3EFF075F002EB1210A384
:101450001213AB900381F0EDA3F0121129121315B2
:101460009440EE9406400812110DEEF0A3EFF01236
:1014700011291213AB900385F0EDA3F0229004091B
:10148000EFF0A3EDF090040D7403F0ED700374041D
:10149000F090009EE064017002800890040A12132C
:1014A0007170381211DBC083C08290040AE0FED054
:1014B00082D08312108112113912107EECF0A3ED4C
:1014C000F0900409121193C083C08290040AE0D006
:1014D00082D083121081E4F0A3F022900409E0FF8F
:1014E00012113FF583C083C08290040AE0FED082CF
:1014F000D08312106612135DFFEE9C90040BF0A3D4
:10150000EFF09004091212C5E06007E490040BF0BC
:10151000A3F090040BE0FEA3E0FF12341A90040D38
:10152000E0FDC31212B140030225BA90040BE0FEA5
:10153000A3E0FF9004091210FCC083C08290040A4B
:10154000E0FCD082D0831210811213B41211011268
:1015500011D4121315940AEE6480948040269004EE
:10156000091210FCC083C08290040AE0FCD082D033
:1015700083121081121390ED1211421211D2E475F0
:10158000F001802B1214B75029900409E0FF1210CB
:10159000FEC083C08290040AE0FED082D083121085
:1015A00081E4F0A3F012113E12107E74FFF5F012E8
:1015B000270C12142D12104E8038C390040BE064D7
:1015C000809480502D12142D12315C12142D122F84
:1015D000C8EF601E1211DBC083C08290040AE0FED7
:1015E000D082D08312108112113912107EECF0A338
:1015F000EDF0900409E0FF12113FF583C083C08233
:1016000090040AE0FED082D083121066E0FEA3E0D0
:1016100090040912118DC083C08290040AE0D08228
:10162000D083121081EEF0A3EFF022BB0106898275
:101630008A83E0225002E722BBFE02E32289828AEB
:1016400083E49322BB010CE58229F582E5833AF518
:1016500083E0225006E92582F8E622BBFE06E92552
:1016600082F8E222E58229F582E5833AF583E49364
:1016700022BB010689828A83F0225002F722BBFE38
:1016800001F322F8BB010DE58229F582E5833AF5E5
:1016900083E8F0225006E92582C8F622BBFE05E960
:1016A0002582C8F222EF8DF0A4A8F0CF8CF0A428F8
:1016B000CE8DF0A42EFE22BC000BBE0029EF8DF0D3
:1016C00084FFADF022E4CCF875F008EF2FFFEE3385
:1016D000FEEC33FCEE9DEC984005FCEE9DFE0FD534
:1016E000F0E9E4CEFD22EDF8F5F0EE8420D21CFE08
:1016F000ADF075F008EF2FFFED33FD400798500671
:10170000D5F0F222C398FD0FD5F0EA22C5F0F8A378
:10171000E028F0C5F0F8E582158270021583E03804
:10172000F022A3F8E0C5F025F0F0E5821582700202
:101730001583E0C838F0E822EB9FF5F0EA9E42F00E
:10174000E99D42F0E89C45F022ECF0A3EDF0A3EE19
:10175000F0A3EFF022A8828583F0D083D0821227F5
:101760006C12276C12276C12276CE473E493A3C5E8
:1017700083C5F0C583C8C582C8F0A3C583C5F0C5BD
:1017800083C8C582C822A42582F582E5F03583F599
:101790008322EF4E6012EF60010EEDBB010B8982D8
:1017A0008A83F0A3DFFCDEFA2289F05007F709DF15
:1017B000FCA9F022BBFEFCF309DFFCA9F0223F3FAD
:1017C0003F3F3F3F3F3F3F0032003217700258001B
:1017D00004001E0032000A000F0064000A000A0024
:1017E0000000000000000000000000000101010DE9
:1017F0000E0F030405060708090A0B0C000102007E
:101800003200320032003200320032003200320048
:101810003200320032003200320032003200320038
:101820003700370037003700370037003700370000
:1018300037003700370037003700370037003700F0
:101840002800280028002800280028002800280058
:101850002800280028002800280028002800280048
:101860002D002D002D002D002D002D002D002D0010
:101870002D002D002D002D002D002D002D002D0000
:101880006E006E006E006E006E006E006E006E00E8
:101890006E006E006E006E006E006E006E006E00D8
:1018A00073007300730073007300730073007300A0
:1018B0007300730073007300730073007300730090
:1018C00064006400640064006400640064006400F8
:1018D00064006400640064006400640064006400E8
:1018E0002D002D002D002D002D002D002D002D0090
:1018F0002D002D002D002D002D002D002D002D0080
:10190000FA00FA00FA00FA00FA00FA00FA00FA0007
:10191000FA00FA00FA00FA00FA00FA00FA00FAC037
:10192000E0C083C082C0D0E8C0E0E9C0E0EAC0E027
:10193000EBC0E0EFC0E0D2AFE5DB30E415E5DB3033
:10194000E1028022900374E5DFF09003F5E4F002F9
:1019500029F8E5DB30E5059003718038E5DB30E1FF
:1019600026E5DB30E0119003F71232901232991223
:101970002644F5DF0229F89003F6E064017079202F
:101980008A76D28A0229F89003F5E0700DA3E5DF8C
:10199000F09003F57401F00229F89003F6E0902D21
:1019A0007793FFB4FF0E900374E5DFF09003F6E049
:1019B00004F0803EEF640F9003F7702B123290908A
:1019C00003F6E0FF1232AD540F1226719003F712A6
:1019D00032909003F6E0FF04F01232ADFFE5DF54E1
:1019E000F04F122671800B123290123299E5DF12FD
:1019F0002683900373E004F075DBFFD0E0FFD0E0B6
:101A0000FBD0E0FAD0E0F9D0E0F8D0D0D082D0839B
:101A1000D0E032900388E0FE64107053FF90001213
:101A2000E0FDEFC39D4003022AC4EF25E0249FF5AB
:101A300082E434281211A3121234247FF582E43494
:101A4000281211A324CAF582E5F0340112123C24B5
:101A5000BFF582E434281211A31212D912123C24C9
:101A6000DFF582E434281211A312137F022A1DEE3F
:101A700064207062FF900012E0FEEFC39E5045EFBD
:101A800025E0241FF582E434281211A31212342415
:101A9000FFF582E434271211A324CAF582E5F0345D
:101AA0000112123C243FF582E434281211A31212D1
:101AB000D912123C245FF582E434281211A31213C8
:101AC0007F022A759001CCA3E0900379F09001CEBB
:101AD000A3E090037AF090038BE0FEB4100790012E
:101AE000ED7401F022EEB42005E49001EDF0227EC9
:101AF000017FD97D007B017A007914122792123080
:101B00006390036EE090038870057410F080037496
:101B100020F0122A13E4FE900012E0FFEEC39F5063
:101B20007BE4FC75F088EE1211011211D4121390AF
:101B3000EE121292F583E5822C1210E9E4F0EE1217
:101B400011C6121390EE1214362C1210E912129CC8
:101B5000F583E5822C1210E9E4F0CFEECFCDECCD89
:101B600012104E1233AC0CEC640970B71212ECF583
:101B700083E4F0CFEECF1233D21233F01233E112FE
:101B800033FF74DC2E121213E412121BE41214A39E
:101B9000A3F0900246F0A3F00E022B179001EB7415
:101BA0007EF0900011F0E49001EAF022E49003FC52
:101BB000F0FF9003FBF0EF14601E14603514604CCE
:101BC00014605B240470749003FD7401F0A3742FFF
:101BD000F0A37458F0022C3512328D9000011226B9
:101BE00044FED3941F40031232A612262B6E704B74
:101BF000804312328D900002122644FED394064098
:101C0000031232A612262B6E7031802912328D906B
:101C10000003122644FE12262B6E701F801712320C
:101C20008D900004122644FE648B60031232A612CB
:101C3000262B6E70069003FBE004F00FEF64056046
:101C400003022BB69003FBE0B40504A37401F090EB
:101C500003FCE0FD6007900389E0547FF0CFEDCFF7
:101C600022758A50538AEF9004137411F090041176
:101C70007422F09004147433F075997F759A80E49F
:101C8000FFFEC29620970AD296309705E49004137F
:101C9000F00FBF00010EEF640A4E70E67590FF75FD
:101CA000993F759AC0E4FEFF2097069004117427AF
:101CB000F020960C9004117426F02097037428F0FD
:101CC0000FBF00010EEF640A4E70DDE4F5AD75AE96
:101CD000F075AF09F5AC7589FF75913F75991FF5E2
:101CE0009675931FF59BF595F592F59A75800CD234
:101CF0008A90041204F0220230AAE493A3F8E49339
:101D0000A34003F68001F208DFF48029E493A3F8EE
:101D10005407240CC8C333C4540F4420C883400460
:101D2000F456800146F6DFE4800B0102040810201F
:101D30004080903122E47E019360BCA3FF543F3089
:101D4000E509541FFEE493A360010ECF54C025E0C3
:101D500060A840B8E493A3FAE493A3F8E493A3C87B
:101D6000C582C8CAC583CAF0A3C8C582C8CAC5830C
:101D7000CADFE9DEE780BE0FFFFF000000000000C1
:101D800000FFFFFFFFFFFFFFFFFF0000000000005C
:101D90000000000000000000000000000000000043
:101DA0000000000000000000000000000000000033
:101DB0000000000000000000000000000000000023
:101DC0000000000000000000000000000000000013
:101DD0000000000000000000000000000000000003
:101DE00000000000000000000000000000000000F3
:101DF000000000000000009003FA7410F0A3E4F06B
:101E0000A3743FF0A374FFF0E4FDFCF9900376E0C7
:101E100064AA705074AAF0758A10538AEF0000000B
:101E20009003FAE0FEA3E02DF582EE3CF583E49307
:101E3000FF69F90DBD00010CBC2FE5BDFFE2900369
:101E4000FCE0FEA3E0F5828E83E4936970089003C2
:101E500076740BF08005E4900376F0758A50538A0F
:101E6000EF00000022902EC0E4F0902ECB74F4F02E
:101E7000902F58E0540F2450902EC8F0902ECC7420
:101E800048F0902EC97428F0A3743FF0902E40744F
:101E900081121227F0A3F0A3041212277402F0A3F8
:101EA0007482F0902EC67414F0902EC17490F0A33A
:101EB0007401F0A37420F0A37409F043E31012330B
:101EC00078900012EFF022900412E0605090001819
:101ED000E0FEA3E0FFC39470EE9417500690041444
:101EE0007426F0C3900017E09470900016E09417E9
:101EF00050129004147427F0C3EF9470EE941750AE
:101F0000037428F0E4900412F0900018F0A3F0900D
:101F10000016F0A3F0900414E090037DF022C0E0DE
:101F2000C0F0C083C082C0D0E8C0E0ECC0E0EDC02B
:101F3000E0EEC0E0EFC0E0D2AF9001EEE004F0C30D
:101F4000940A4017E4F01210C02401FFE43EFEE4BE
:101F50003DFDE43CFC9002E3122749D0E0FFD0E0D5
:101F6000FED0E0FDD0E0FCD0E0F8D0D0D082D0832D
:101F7000D0F0D0E03290040FEDF090040EEFF0A31B
:101F8000E0FE121279F583E5822E1210E9E0603549
:101F900090040EE01213E7C083C08290040FE0D0DB
:101FA00082D0831210AF1213509027D512115B40CC
:101FB0001490040FE0FF90040EE012127A1210E465
:101FC000E4F07F01227F002290040FEDF090040ED8
:101FD000EFF0A3E0FE12126CF583E5822E1210E9F9
:101FE000E0603290040EE01213D9C083C0829004E6
:101FF0000FE0D082D0831210AF9027D312114F4040
:102000001490040FE0FF90040EE012126D1210E421
:10201000E4F07F01227F00229001D4A3E09003CD61
:10202000F09001D2A3E09003CEF09001CEA3E09017
:1020300003CFF09001CCA3E09003D0F09001DAA39D
:10204000E09003D1F09001D8A3E09003D2F0902962
:10205000037401939003D3F09029017401939003CA
:10206000D4F0227E007F807D007B017A0379751297
:1020700027929003757408F0A3740BF0A37406F014
:1020800090038774ABF09003897487F0900413E099
:1020900090037BF0900411E090037CF0900414E036
:1020A00090037DF0122BAC02301875200153A87FED
:1020B000122C6112340E1233C01232DD43A8807527
:1020C0008DE012335BEF24E0600A2410700AC283B3
:1020D000C2828004D283D282122A13122DF7438D3A
:1020E00020121D7580DCCBEFCBEB64027017121150
:1020F00069E09003C5F012117DA3E09003C6F0ECF7
:10210000A3F0EDA3F0EB64017017121169E09003E6
:10211000C9F012117DA3E09003CAF0ECA3F0EDA387
:10212000F022410245004101EE0041024800410019
:1021300013004102D30041036E004101ED00410351
:10214000F5004103F60042036F00004103710041B6
:1021500003730041037200410374100090040E12D7
:1021600012E2503090040EE0FFEB12126D1210E4F8
:10217000E07021EB12126D1210E47401F01210C025
:10218000FFEB1213D9C083C08290040EE0D082D03E
:10219000831214AE2290040E1212E2503090040EFC
:1021A000E0FFEB12127A1210E4E07021EB12127AC7
:1021B0001210E47401F01210C0FFEB1213E7C08399
:1021C000C08290040EE0D082D0831214AE2290031D
:1021D000FDEFF0E0FF24F0121327E06020EF121370
:1021E000F51210B51213509027C912115B400E90D2
:1021F00003FDE024F0121327E4F07F01227F002288
:102200009003FDEFF0E0FF24D4121348E06020EFCC
:1022100012141F1210B51213509027CD12115B40EB
:102220000E9003FDE024D4121348E4F07F01227FD6
:102230000022E4FFFE900012E0FDEEC39D501C1250
:10224000109FE0FCA3E0FDEE1210A0E0FAA3E0D3A3
:102250009DEA9C4003CFEECF0E80DA9001ECEFF0C8
:10226000229003FDEFF0E0FF240A12133DE0601A14
:10227000EF1214111210B512114C400E9003FDE034
:10228000240A12133DE4F07F01227F00229003FD17
:10229000E0FBA3E0FAA3E0F9229003F6E0FF04F0EC
:1022A0008F82758300229003FC7401F022E92FF9DC
:1022B000E43AFA02262BE4F01233FF9003FCE0FF2D
:1022C0001212E45017121324E07011121324740137
:1022D000F01210C0FFEB1213F5122749229003F7FA
:1022E0007401F0A37403F0A37475F0E4F5DA75DA01
:1022F0004043DA2075D74075DA5843A90875B80805
:1023000075F808221212E4501712132FE070111200
:10231000132F7401F01210C0FFEB1214031227499F
:10232000221212E4501712133AE0701112133A7489
:1023300001F01210C0FFEB121411122749221212E1
:10234000E45017121345E070111213457401F01296
:1023500010C0FFEB12141F12274922E4FD900371F5
:10236000E06011900375E0FE54F0FDEE540FF0E4D0
:10237000900371F0CFEDCF2212147DFFFEEE902777
:10238000DF93600974492F121489EEF00F0EEEB43A
:1023900010EB229002E3122755000000007E007F20
:1023A0000B7D007B017A0179FF022792EFD3940322
:1023B000500D121279F583E5822D1210E9E4F02216
:1023C00075B28E75B6F9E4F5B743B20143AA0102BE
:1023D0003393EFD39403500874F02F121327E4F0D3
:1023E00022EFD39403500874022F121332E4F02228
:1023F000EFD394035008740A2F12133DE4F022EF38
:10240000D39403500874D42F121348E4F022122EF0
:10241000659001EF7401F0022AEFEE30E707C3E4A4
:102420009FFFE49EFE22000000000000000000006C
:10243000000000000000000000000000000000009C
:10244000000000000000000000000000000000008C
:10245000000000000000000000000000000000007C
:10246000000000000000000000000000000000006C
:102FF0000000000000000000000000000000006869
:00000001FF
