:1000000078FFE4B8200118F6D8F99000007F007E50
:1000100007E4F0A3DFFCDEFA758120022D129003C5
:10002000FDEFF0E0FF2402121341E0601AEF12141A
:10003000011210B5121138400E9003FDE024021297
:100040001341E4F07F01227F0022000228FFEFD35A
:100050009403500D12125AF583E5822D1210E9E433
:10006000F02200022E2F75F002122766E0FCA3E0BA
:10007000FD75F088EFA42444F582E5F03400F583A3
:10008000EE75F0020227669003FCE0FF75F002A413
:1000900024CAF582E5F03401F583E0FCA3E0FDEF2E
:1000A00075F002A42426F582E5F03400F58322756C
:1000B000F004122766E0F8A3E0F9A3E0FAA3E0FB5E
:1000C0009002E3E0FCA3E0FDA3E0FEA3E0229004A5
:1000D0000AE0FF900409E0FE75F088A424A7F582E9
:1000E000E5F03400F583E5822FF582E43583F5836E
:1000F0002290040BE0FEA3E0FF900409E0FD75F000
:1001000088A4247AF582E5F03400F58322E0FCA38C
:10011000E0FDEF75F088A42456F582E5F034002266
:10012000FDEC541FF0EDA3F0EB75F002A42420F5D4
:1001300082E5F03400F583229027AFC39BFBEE9A53
:10014000FAED99F9EC98F8E493FE740193FFE4FC5E
:10015000FDC302271875F002EBA4241AF582E5F01E
:100160003400F583E0FCA3E0FDEB75F002A4241459
:10017000F582E5F03400F58322C39DFFEE9CFEE09E
:1001800075F088A42468F582E5F03400F58322F543
:1001900083E493FC740193FD75F002EFA4229004B4
:1001A00009E0FF75F088A42432F582E5F03400F50B
:1001B000832275F088A4248CF582E5F03400F58361
:1001C000EC75F002022766900409E0FF75F088A440
:1001D0002444F582E5F03400F58322E04401F0E4A4
:1001E000900013F09002D322F0A3F0A3F0A3F0A3A9
:1001F000F0A3F0A3F0A32275F002EBA4241AF58279
:10020000E5F03400F583229003FCE0FF24DCF58266
:10021000E43401F58322F074E22EF582E43401F532
:10022000832224D0F582E5F03401F583ECF0A3EDD0
:10023000F0EF25E0229003FBE0FF25E024FDF582AE
:10024000E43403F58322900409E0FD75F088A424CA
:100250008CF582E5F03400F58322EF75F009A424D3
:10026000E7F582E4340222EF75F009A4244CF5820C
:10027000E434022290040AE0FF900409E075F0885B
:10028000A4249EF582E5F0340022E4F075F088EEB7
:10029000A424B0F582E5F034002290040DE0FDEFD7
:1002A0009D7480F86E9822900409E0FFA3E0FD227F
:1002B000EF2434FFEE34FEFE7C007D0A1226857D9D
:1002C00032122697EF24CCFFEE3401FE75F002EBDC
:1002D000229003FCE024DFF582E43401F5832290D0
:1002E00003FCE0FF75F002A424D6F582E5F03401AA
:1002F00022EDF0CBEFCBEBD394032275F088EEA484
:1003000024B9F582E5F0340022E04406F0900013B1
:100310007401F02275F002EF122766E0FCA3E0FD05
:1003200075F08822E0FEA3E0FFD322900375E0542D
:10033000F0F02274F02BF582E43401F5832274028C
:100340002BF582E43400F58322740A2BF582E43421
:1003500002F5832274D42BF582E43402F58322C3A0
:100360009BFBEE9AFAED99F9EC98F822E0FEA3E0F7
:10037000C39D22EB25E024DFF582E43428F58322B7
:10038000E0249EF582E43400F583E0640122242C0D
:10039000F582E5F03400F583ECF0A3EDF00F22E4F4
:1003A000F0A3F075F08822EE8FF01226EC75F0883D
:1003B000ED22F0902EC37470F0A3740AF022E49042
:1003C00001E6F0900246F022FE7C007D0A122685AE
:1003D0007D1E122697EF2275F024A42402F582E4F4
:1003E0003403F5832275F024A42467F582E43402F3
:1003F000F5832225E025E024F3F582E43401F5833A
:100400002225E025E02405F582E43400F583222549
:10041000E025E02439F582E43402F5832225E02545
:10042000E024D7F582E43402F58322900409E0FF4A
:10043000A3E0FD22A424A7F582E5F03400F583E5CE
:100440008222E0FEA3E02DFFEE3CFE9003FBE022C3
:100450009003FCE09003FBF022F074E32EF582E4BD
:100460003401F583E4F022E0FF9003FDE0FEEFC8E5
:10047000EEC80822900375E0440A22902EC5E4F0ED
:10048000902ECDF0A3F022F582E43402F58322759C
:10049000F002EF022766902EC6F0902EC57401F090
:1004A00022F09001E5747EF0E4A3F02275F00412CE
:1004B0002766022729902EC97428F022C3EF94F6EC
:1004C000EE6480947F22ECF0A3EDF0900409E0222A
:1004D0009003FCE004F022F09001E7F0900247F076
:1004E00022900409EFF0A3EDF090040D7403F0EDF9
:1004F00070037402F0900409E0FF121113F583C039
:1005000083C08290040AE0FED082D083121066126B
:10051000136CFFEE9CFE90040BF0A3EFF01233DCA3
:10052000C312129A40030215DE1210F1C083C0827A
:1005300090040AE0FCD082D0831210811213A7121B
:100540001101EC121081121324940AEE648094803D
:1005500040241210F9C083C08290040AE0FCD082CB
:10056000D083121081E4F0A3F0ED1211131211BE2A
:10057000E475F001802B1214BC5029900409E0FFAF
:100580001210FEC083C08290040AE0FED082D083A5
:10059000121081E4F0A3F012111212107E74FFF514
:1005A000F01226EC1212A712104E1212A712315797
:1005B0001212A7122F2FEF700302170A90040AE0FD
:1005C000FF900409E0FE12127D1210E4E4F0EF60E7
:1005D0000302170A1212FBF583E4F002170A9004D3
:1005E0000AE0703EA3E0FEA3E0FF1233DC90040DAE
:1005F000E02402FDE433FCD3EF9DEC6480F8EE646C
:10060000809840091212741210E47401F01217431A
:10061000D312129A402C900409E075F0881212FF50
:10062000801B12174390040DE0FDD312129F40125D
:10063000121274F583E5822FF582E43583F5837415
:1006400001F01210F1C083C08290040AE0FCD08255
:10065000D0831210811213A71211011211C01213AC
:10066000249464EE6480948040231210F9C083C007
:100670008290040AE0FCD082D08312108112139F72
:10068000ED1211161211BEE475F0018031C3EF9422
:100690009CEE6480947F5029900409E0FF1210FEC4
:1006A000C083C08290040AE0FED082D08312108101
:1006B000E4F0A3F012111212107E74FFF5F012266E
:1006C000ECC390040BE06480948050321212A712A5
:1006D000311E1212A7122F82EF6029900409121105
:1006E000CAC083C08290040AE0FED082D083121078
:1006F0008112110D12107EECF0A3EDF080061212A3
:10070000A712104E1212A712336E900409E0FF12C6
:100710001113F583C083C08290040AE0FED082D01A
:1007200083121066E0FEA3E0900409121179C083E1
:10073000C08290040AE0D082D083121081EEF0A330
:10074000EFF02290040BE0FEA3E0FF1233DC2290D6
:1007500001EDE0FE703B9001EFE06402705B9002FF
:100760004804F09001DDE0B4010312130D9001DEA6
:10077000E0B401069002D37401F0900388E0B42045
:100780000890036E7401F08005E490036EF07F0220
:1007900022EEB401249001EFE0B4021D90024874EF
:1007A00001F0900388E0B4200890036E7401F0809B
:1007B00005E490036EF07F0222E4FE900012E0FF59
:1007C000EEC39F40030219739001EDE0FC704A12E2
:1007D0001217E06401704274DC2E12120EE0FF70FA
:1007E0001612132BEEB40104E04409F0EE6402701B
:1007F00021121474F0801BEF6401701612132BEE9B
:10080000B40104E04401F0EEB40207900375E04443
:1008100002F0121217E4F0C28AEC640160030219BC
:100820006F121217E06401600302196F74DC2E125C
:10083000120EE0FC60030218C412132BEE64017068
:100840003A900247E0FD6401701B900246E090037D
:1008500075B40109E044091211DE0480151211DBA0
:100860001214D78016ED900375B4020BE044051204
:1008700011DE12145980041211DBF0EE64026003E1
:10088000021968900247E0FF6401701C900246E084
:10089000900375B40106121309E48021E0440412A8
:1008A00011DE1214D7021968EF900375B40205E047
:1008B00044058003E04404F0E4900013F09002D378
:1008C000F0021968EC6401600302196812132BEE40
:1008D00064017049900246E0FFB4020812147412D9
:1008E000130C8013EF640170269001E7E09003750C
:1008F000B4010C121309E49002D3121459801EE0C3
:10090000440212130CE49002D3F01213BF800E9035
:100910000375E0440212130CE49002D3F0EE64027B
:100920007046900246E0B40210121474F09002D3A4
:100930007401F0900013F0802F9001E6E0640170E4
:100940001C900247E0900375B40105E04409801350
:10095000E044081211DE04F01213BE800B90037500
:10096000E044081211DE04F0121217E4F0C28A0EFD
:100970000217BB7F04229003FB747EF09001EDE030
:100980006003021A8D9003FCF0900012E0FF9003C8
:10099000FCE0FEC39F4003021A6C74DC2E12120EA0
:1009A000E06003021A4474DF2E1212D7E0FF7028B1
:1009B0009003FCE075F002A424D0F582E5F0340148
:1009C000F583E0FCA3E0FD75F002EE1210A3E0FA5F
:1009D000A3E0C39DEA9C500FEF6401705B12108787
:1009E00012136CEE9C40519003FCE0FF9003FBF06F
:1009F0001212D57401F074DC2F12120E7401F090F3
:100A000001E5E0FFB47E149003FCE0FE9001E5F008
:100A1000A374011212167401F0800D9003FCE06FB4
:100A200060069001E67402F09003FCE0FF1233943C
:100A30009003FCE0FF123300121B8B60261212D1D0
:100A4000E4F0801F1212DF12109812136CEE9C401B
:100A50000C1214501231C2EF6009021B3712120738
:100A60001232789003FCE004F00219899001DDE075
:100A7000701BA3E070179001E6E0D39400400E9045
:100A800001E5E024E212121A74011214A19001EDA2
:100A9000E064016003021B7C9003FCF0900012E014
:100AA000FE9003FCE0FFC39E4003021B7C12101E5D
:100AB000EF60031213BE9003FCE012120CE07061B1
:100AC00012108712136CEE9C403B12145012120C41
:100AD0007401F09001E6E004F0900246F09003FC0F
:100AE000E0FF24E212121A7401F01233949003FC16
:100AF000E0FF1233A39003FCE0FF1232C69003FC28
:100B0000E0FF123300121B8B60051212D1E4F0904B
:100B100003FCE0FF123223EF6059E49001E7021B6F
:100B20006E1212DF12109812136CEE9C4019121400
:100B3000501231C2EF603C9001EF7402F09003FC60
:100B4000E012120CE4F0221212071232789003FC29
:100B5000E0FF1233B29003FCE0FF1232E39003FC9B
:100B6000E024E212121A7401F09001E7E004F09020
:100B70000247F09003FCE004F0021A9C9003FBE0B3
:100B8000FF9001EBE06F6002EFF0229003FCE0FFCA
:100B9000123190EF22900409EFF0A3EDF090040DD4
:100BA0007404F0ED603F90009EE0640170028008E4
:100BB00090040A121380702D12119EC083C082907F
:100BC000040AE0FED082D0831210661214C61212FC
:100BD0004BC083C08290040AE0D082D0831210817F
:100BE000E4F0A3F0229004091211CAC083C08290DD
:100BF000040AE0FED082D08312108112131BEFA4EE
:100C00002432F582E5F0340012107E12136CFFEEF0
:100C10009CFE90040BF0A3EFF01233DC90040DE087
:100C2000FDC312129F4003021CF71210CEE06401B4
:100C3000703775F088EE121183EF1211C1E0FEA338
:100C4000E0C3941EEE648094804003021D3D1211A7
:100C50009EC083C08290040AE0FED082D08312102E
:100C600066ECF0A3EDF0021D3D90040BE0FEA3E066
:100C7000FF121246C083C08290040AE0FCD082D0EA
:100C800083121081EE8FF01226ECED1211B21213C6
:100C9000249402EE648094804029121246C083C0DE
:100CA0008290040AE0FCD082D08312108112139F3C
:100CB000EDA42444F582E5F034001211BEE475F091
:100CC00001802EC3EF94FEEE6480947F506F9004F9
:100CD00009E0FF12124BC083C08290040AE0FED0EC
:100CE00082D083121081E4F0A3F012107174FFF52A
:100CF000F01226EC021D3D12119EC083C0829004AA
:100D00000AE0FED082D0831210661214C6FF1211C0
:100D100080C083C08290040AE0FED082D08312108B
:100D200081E0FCA3E0C3941EEC64809480400E75C7
:100D3000F088EF1214342E1210E97401F01210CE64
:100D4000E06401702812128C1210E4E00412128B7D
:100D50001210E4E0D39405401490040AE0FF75F00B
:100D600088EE1210DB12128A1210E4E4F0229001D5
:100D7000EFE024FE601E147003021E38147003029C
:100D80001EF624036003021F399001EF7402F0E4A1
:100D9000900245F09001EF7403F0900248E0640186
:100DA0006003021E35F09001EDE0FD7020C28A1252
:100DB000132B900013E06009E4F0900375E0440900
:100DC000F09002D3E06006E4F0121474F0ED6401D8
:100DD0006003021F3912132B900013E0FF7009907B
:100DE00002D3E07003021F39EF60129002D3E0607B
:100DF0000C1211DFF0900375E0440580349000136D
:100E0000E060129002D3E0700C1211E0F0900375D4
:100E1000E04401801C900013E06003021F3990023F
:100E2000D3E07003021F391211DFF0900375E04424
:100E300004F0C28A22022ACF1224769001E8E070E0
:100E400003021ED7900245E004F0E49003FAF0900C
:100E50000012E0FF9003FAE0C39F507BE4FF900391
:100E6000FAE0FE1211A3121314EE121116F58312FA
:100E7000148FECF0A3EDF09003FAE0FE1211A31230
:100E80001314EE1211CF12148F121398EFB409CE6F
:100E90009003FAE0FF1210A0E4F0A3F0EF12112982
:100EA0007404F0A3E4F0EFB40110E490037FF0A326
:100EB000F09003837404F0E4A3F0EFB40210E49024
:100EC0000381F0A3F09003857404F0E4A3F0900391
:100ED000FAE004F0021E4F900245E0C3940340592B
:100EE000900011747EF0E49001E9F0900245F090DA
:100EF00001EF7404F0221224769001E8E0603A12C7
:100F00001F3AE49003FAF0900012E0FE9003FAE03A
:100F1000FFC39E50161230A8122E869003FAE0FFEF
:100F20001221019003FAE004F080DC1231F412196E
:100F30007612174F9001EFEFF022E49003FCF0904F
:100F400003FCE0FDC394095023E0FF75F002121189
:100F5000A6E0FAA3E0FB75F002EF1211CFEAF0A3CE
:100F6000EBF0E4FF1214E11214D080D3E49003FB01
:100F7000F0900012E0FF9003FBE0C39F40030220CB
:100F8000FB121238E4F0A3F0EF25E02403F582E42D
:100F90003404F583E4F0A3F0EF70030220F2E49050
:100FA00003FCF09003FCE0FDC3940950189003FB90
:100FB000E0FF121B959003FBE0FFA3E0FD1222C8A7
:100FC0001214D080DEE49003FCF09003FCE0FFC339
:100FD000940940030220A1749E2F12138360109085
:100FE00003FBE075F0881212FFF583E0B40119905D
:100FF00003FB12117FC083C0829003FCE0D082D03B
:1010000083121081E4F0A3F09003FCE0FF70030270
:10101000209B9003FBE0FE12118012148FE0FCA3D2
:10102000E0C39403EC64809480501A75F088EE124B
:101030001183C083C0829003FCE0D082D083121061
:1010400081E4F0A3F0900412E0602A9003FBE0FF3B
:10105000121180C083C0829003FCE0FED082D08356
:1010600012108112110D12107E12144212123AEE59
:101070008FF01226EC9003FBE0FF121180C083C0BA
:10108000829003FCE0D082D083121081E0FCA3E0C8
:10109000FDEF12123AEC8DF01226EC1214D0021F62
:1010A000CA900412E06011121235E0FCA3E0FDEFDB
:1010B00012116AECF0A3EDF09003FBE0FF75F088ED
:1010C000A42458F582E5F03400F583E0FCA3E01297
:1010D00011971211FCECF0A3EDF0121235E0FCA315
:1010E000E01211971211FC12144212116AEEF0A3D1
:1010F000EFF09003FBE004F0021F71E49001E8F0D0
:1011000022CBEFCB1211F7E0FEA3E0FF121169E052
:10111000FCA3E0FDC39FEC9E50030221C1E42DFF20
:10112000EC3404FE1211F7E0FCA3E0FDC3EF9DFFD9
:10113000EE9CFE121128EEF0A3EFF01211F7E0FE84
:10114000A3E0FF121169E0FCA3E0C39FFFEC9EFE49
:1011500075F002EB1210A3EEF0A3EFF0121373E49C
:1011600093FE740193FF75F002EB1210A3E0FCA351
:10117000E0FDD39FEC9E4024121373E493FE7401B0
:1011800093FFC3ED9FFFEC9EC313FEEF13FF1213FB
:10119000737401932FFFE4933EFE801775F002EB0A
:1011A0001210A3E0FEA3E0FF7C007D631226850DF4
:1011B00012269775F002EB1210A3EEF0A3EFF08069
:1011C00038121169E0FEA3E0FF1211F7E0FCA3E082
:1011D000C39FEC9EC3940475F002EB50101210A351
:1011E000E4F01211267404F0A3E4F0800C1210A3B2
:1011F000E4F0121126E4F0A3F0EB6401706275F0E4
:1012000002EB1210A312132494CCEE9401400B12A3
:1012100012B01210A3EEF0A3EFF075F002EB121073
:10122000A3E0FCA3E090037F121120121324940E7C
:10123000EE94064019EF24F2FFEE34F91213C8249D
:101240000EFFEE3406FE121128EEF0A3EFF012119D
:1012500028E0FCA3E0FDEC541F900383F0EDA3F025
:10126000EB6402706275F002EB1210A31213249467
:10127000CCEE9401400B1212B01210A3EEF0A3EFCB
:10128000F075F002EB1210A3E0FCA3E090038112D2
:10129000112012132494FAEE94054019EF2406FF4E
:1012A000EE34FA1213C824FAFFEE3405FE121128A8
:1012B000EEF0A3EFF0121128E0FCA3E0FDEC541FC8
:1012C000900385F0EDA3F022900409EFF0A3EDF078
:1012D00090040D7403F0ED70037404F090009EE030
:1012E00064017002800890040A1213807038121191
:1012F000C7C083C08290040AE0FED082D08312105F
:101300008112110D12107EECF0A3EDF09004091281
:10131000117FC083C08290040AE0D082D083121073
:1013200081E4F0A3F022900409E0FF121113F58389
:10133000C083C08290040AE0FED082D0831210667F
:1013400012136CFFEE9C90040BF0A3EFF0900409D5
:101350001212D4E06007E490040BF0A3F090040BA9
:10136000E0FEA3E0FF1233DC90040DE0FDC3121297
:101370009F400302240590040BE0FEA3E0FF9004CD
:10138000091210FCC083C08290040AE0FCD082D015
:10139000831210811213A71211011211C01213240B
:1013A000940AEE6480948040269004091210FCC0D8
:1013B00083C08290040AE0FCD082D0831210811294
:1013C000139FED1211161211BEE475F001802B125D
:1013D00014BC5029900409E0FF1210FEC083C082A3
:1013E00090040AE0FED082D083121081E4F0A3F0D2
:1013F00012111212107E74FFF5F01226EC12142B4B
:1014000012104E8038C390040BE064809480502DFD
:1014100012142B12311E12142B122F82EF601E1287
:1014200011C7C083C08290040AE0FED082D083122C
:10143000108112110D12107EECF0A3EDF090040952
:10144000E0FF121113F583C083C08290040AE0FE0E
:10145000D082D083121066E0FEA3E090040912113E
:1014600079C083C08290040AE0D082D083121081B8
:10147000EEF0A3EFF022E49003FCF09003FCE0FF19
:10148000C394094003022604EF902EC87014E05460
:101490005FF0A3746AF0902EC3744AF0A37401F055
:1014A000800AE044F0F0A3742A1213B29003FCE027
:1014B00090279E93902ECAF0E49003FBF0900012C8
:1014C000E0FF9003FBE0FEC39F40030225FB74494D
:1014D0002E121487E0FF9003FDF0E4F5E2EFC394D1
:1014E00008503B7415121496C083C0821214678092
:1014F00002C333D8FCD082D083F0902ECD7401F09B
:10150000C083C082E0FFC8EEC8088002C333D8FCA5
:10151000D082D083F0902EC074C1F0022581900358
:10152000FDE024F8F07416121496C083C0821214E1
:10153000678002C333D8FCD082D083F0902ECE7463
:1015400001F0C083C082E0FFC8EEC8088002C33348
:10155000D8FCD082D083F0EEB405031214B5EEB4FB
:101560000608902EC9742D1213B2EEB4070D121492
:10157000B5902EC37440F0A3740CF0902EC074C2CA
:10158000F0E4FF900000742EF0A3E4F09003FBE081
:101590002449121487E09003FDF0E5E220E2050FF4
:1015A000EFB4C8DF53E2FB12147B9003FDE0FD753E
:1015B000F002A4FFAEF0900001E02FF0900000E0F8
:1015C0003EF0ED9027CF93FF900000E475F00212FB
:1015D000270285F082F58312131BEF1211A6C08338
:1015E000C0829003FCE0D082D083121081ECF0A383
:1015F000EDF09003FBE004F00224BD9003FCE00456
:10160000F002247B9001E87401F022BB010689827C
:101610008A83E0225002E722BBFE02E32289828A0B
:1016200083E49322BB010CE58229F582E5833AF538
:1016300083E0225006E92582F8E622BBFE06E92572
:1016400082F8E222E58229F582E5833AF583E49384
:1016500022BB010689828A83F0225002F722BBFE58
:1016600001F322F8BB010DE58229F582E5833AF505
:1016700083E8F0225006E92582C8F622BBFE05E980
:101680002582C8F222EF8DF0A4A8F0CF8CF0A42818
:10169000CE8DF0A42EFE22BC000BBE0029EF8DF0F3
:1016A00084FFADF022E4CCF875F008EF2FFFEE33A5
:1016B000FEEC33FCEE9DEC984005FCEE9DFE0FD554
:1016C000F0E9E4CEFD22EDF8F5F0EE8420D21CFE28
:1016D000ADF075F008EF2FFFED33FD400798500691
:1016E000D5F0F222C398FD0FD5F0EA22C5F0F8A399
:1016F000E028F0C5F0F8E582158270021583E03825
:10170000F022A3F8E0C5F025F0F0E5821582700222
:101710001583E0C838F0E822EB9FF5F0EA9E42F02E
:10172000E99D42F0E89C45F022ECF0A3EDF0A3EE39
:10173000F0A3EFF022A8828583F0D083D082122715
:101740004C12274C12274C12274CE473E493A3C588
:1017500083C5F0C583C8C582C8F0A3C583C5F0C5DD
:1017600083C8C582C822A42582F582E5F03583F5B9
:101770008322EF4E6012EF60010EEDBB010B8982F8
:101780008A83F0A3DFFCDEFA2289F05007F709DF35
:10179000FCA9F022BBFEFCF309DFFCA9F0223F3FCD
:1017A0003F3F3F3F3F3F3F0032003217700258003B
:1017B00004001E000A000A000F0064000A000A006C
:1017C0000000000000000000000000000101010D09
:1017D0000E0F030405060708090A0B0C000102009E
:1017E0003700370037003700370037003700370041
:1017F0003700370037003700370037003700370031
:1018000041004100410041004100410041004100D0
:1018100041004100410041004100410041004100C0
:101820002D002D002D002D002D002D002D002D0050
:101830002D002D002D002D002D002D002D002D0040
:101840002D002D002D002D002D002D002D002D0030
:101850002D002D002D002D002D002D002D002D0020
:101860005A005A005A005A005A005A005A005A00A8
:101870005A005A005A005A005A005A005A005A0098
:101880006400640064006400640064006400640038
:101890006400640064006400640064006400640028
:1018A00050005000500050005000500050005000B8
:1018B00050005000500050005000500050005000A8
:1018C0002D002D002D002D002D002D002D002D00B0
:1018D0002D002D002D002D002D002D002D002D00A0
:1018E000FA00FA00FA00FA00FA00FA00FA00FA0028
:1018F000FA00FA00FA00FA00FA00FA00FA00FAC058
:10190000E0C083C082C0D0E8C0E0E9C0E0EAC0E047
:10191000EBC0E0EFC0E0D2AFE5DB30E415E5DB3053
:10192000E1028022900374E5DFF09003F5E4F00219
:1019300029D8E5DB30E5059003718038E5DB30E13F
:1019400026E5DB30E0119003F712325212325B12BF
:101950002624F5DF0229D89003F6E064017079208F
:101960008A76D28A0229D89003F5E0700DA3E5DFCC
:10197000F09003F57401F00229D89003F6E0902D61
:101980005793FFB4FF0E900374E5DFF09003F6E089
:1019900004F0803EEF640F9003F7702B12325290E8
:1019A00003F6E0FF12326F540F1226519003F71224
:1019B00032529003F6E0FF04F012326FFFE5DF547D
:1019C000F04F122651800B12325212325BE5DF12B9
:1019D0002663900373E004F075DBFFD0E0FFD0E0F6
:1019E000FBD0E0FAD0E0F9D0E0F8D0D0D082D083BC
:1019F000D0E032900388E0FE64107053FF90001234
:101A0000E0FDEFC39D4003022AA4EF25E0247FF50B
:101A100082E4342812118F121222245FF582E434FA
:101A20002812118F24CAF582E5F0340112122A24FB
:101A30009FF582E4342812118F1212E812122A2420
:101A4000BFF582E4342812118F12138E0229FDEEA5
:101A500064207062FF900012E0FEEFC39E5045EFDD
:101A600025E024FFF582E4342712118F121222247C
:101A7000DFF582E4342712118F24CAF582E5F034B1
:101A80000112122A241FF582E4342812118F121237
:101A9000E812122A243FF582E4342812118F12131F
:101AA0008E022A559001CCA3E0900379F09001CEEC
:101AB000A3E090037AF090038BE0FEB4100790014E
:101AC000ED7401F022EEB42005E49001EDF0227EE9
:101AD000017FD97D007B017A007914122772122DC3
:101AE000D790036EE090038870057410F080037443
:101AF00020F01229F3E4FE900012E0FFEEC39F50A5
:101B00007BE4FC75F088EE1211011211C012139FD4
:101B1000EE121280F583E5822C1210E9E4F0EE1249
:101B200011B212139FEE1214342C1210E912128A01
:101B3000F583E5822C1210E9E4F0CFEECFCDECCDA9
:101B400012104E12336E0CEC640970B71212FBF5D2
:101B500083E4F0CFEECF1233941233B21233A312D8
:101B600033C174DC2E12120EE4121216E41214A108
:101B7000A3F0900246F0A3F00E022AF79001EB7456
:101B80007EF0900011F0E49001EAF022E49003FC72
:101B9000F0FF9003FBF0EF14601E14603514604CEE
:101BA00014605B240470749003FD7401F0A3742F1F
:101BB000F0A37458F0022C1512324F900001122637
:101BC00024FED3941F400312326812260B6E704B12
:101BD000804312324F900002122624FED394064016
:101BE0000312326812260B6E7031802912324F9028
:101BF0000003122624FE12260B6E701F801712326D
:101C00004F900004122624FE648B60031232681287
:101C1000260B6E70069003FBE004F00FEF64056086
:101C200003022B969003FBE0B40504A37401F0902B
:101C300003FCE0FD6007900389E0547FF0CFEDCF17
:101C400022758A50538AEF9004137411F090041196
:101C50007422F09004147433F075997F759A80E4BF
:101C6000FFFEC29620970AD296309705E49004139F
:101C7000F00FBF00010EEF640A4E70E67590FF751D
:101C8000993F759AC0E4FEFF2097069004117427CF
:101C9000F020960C9004117426F02097037428F01D
:101CA0000FBF00010EEF640A4E70DDE4F5AD75AEB6
:101CB000F075AF09F5AC7589FF75913F75991FF502
:101CC0009675931FF59BF595F592F59A75800CD254
:101CD0008A90041204F02202306CE493A3F8E49397
:101CE000A34003F68001F208DFF48029E493A3F80F
:101CF0005407240CC8C333C4540F4420C883400481
:101D0000F456800146F6DFE4800B0102040810203F
:101D100040809030E4E47E019360BCA3FF543F30E8
:101D2000E509541FFEE493A360010ECF54C025E0E3
:101D300060A840B8E493A3FAE493A3F8E493A3C89B
:101D4000C582C8CAC583CAF0A3C8C582C8CAC5832C
:101D5000CADFE9DEE780BE0FFFFF000000000000E1
:101D600000FFFFFFFFFFFFFFFFFF0000000000007C
:101D70000000000000000000000000000000000063
:101D80000000000000000000000000000000000053
:101D90000000000000000000000000000000000043
:101DA0000000000000000000000000000000000033
:101DB0000000000000000000000000000000000023
:101DC0000000000000000000000000000000000013
:101DD000000000000000007E007F807D007B017A13
:101DE0000379751227729003757408F09003777465
:101DF00006F090038774ABF09003897488F0900428
:101E000013E090037BF0900411E090037CF09004C9
:101E100014E090037DF0122B8C900372E060089028
:101E20000376740EF08005E4900376F0023021C052
:101E3000E0C0F0C083C082C0D0E8C0E0ECC0E0EDFC
:101E4000C0E0EEC0E0EFC0E0D2AF9001EEE004F001
:101E5000C3940A4017E4F01210C02401FFE43EFED0
:101E6000E43DFDE43CFC9002E3122729D0E0FFD0E2
:101E7000E0FED0E0FDD0E0FCD0E0F8D0D0D082D0C1
:101E800083D0F0D0E032900412E0604E900016E073
:101E9000FEA3E0FFC39470EE9417500690041474F0
:101EA00026F0C3900019E09470900018E094175049
:101EB000129004147427F0C3EF9470EE941750033B
:101EC0007428F0E4900412F0900016F0A3F0A3F050
:101ED000A3F0900414E090037DF022902EC0E4F073
:101EE000902ECB74F7F0902F58E0540F24F0902EE2
:101EF000C8F0902ECC7448F01214B5A3743FF09043
:101F00002E4074811211E8F0A3041211E814F0902D
:101F10002EC67414F0902EC17490F0A37401F0A337
:101F20001213B643E31012333A900012EFF02290EE
:101F3000040FEDF090040EEFF0A3E0FE121267F52F
:101F400083E5822E1210E9E0603590040EE0121352
:101F5000E5C083C08290040FE0D082D0831210AF1E
:101F600012135F9027B5121147401490040FE0FF41
:101F700090040EE01212681210E4E4F07F01227F58
:101F8000002290040FEDF090040EEFF0A3E0FE129B
:101F9000125AF583E5822E1210E9E0603290040EA9
:101FA000E01213D7C083C08290040FE0D082D083A8
:101FB0001210AF9027B312113B401490040FE0FFB2
:101FC00090040EE012125B1210E4E4F07F01227F15
:101FD00000229003FA7410F0A3E4F0A3743FF0A37E
:101FE00074FFF0E4FDFCF99003FAE0FEA3E02DF5A8
:101FF00082EE3CF583E493FF69F90DBD00010CBC52
:102000002FE5BDFFE29003FCE0FEA3E0F5828E83A6
:10201000E49369700690037204F022E4900372F076
:10202000229001D2A3E09003CDF09001D4A3E090E0
:1020300003CEF09001CCA3E09003CFF09001CEA3AB
:10204000E09003D0F09001D8A3E09003D1F090018C
:10205000DAA3E09003D2F09028E17401939003D3C7
:10206000F09028E37401939003D4F02275200112BC
:102070002FD253A87F122C411233D0123382123246
:102080009F43A880758DE012331DEF24E0600A2481
:1020900010700AC283C2828004D283D2821229F3D2
:1020A000438D20121D6E80DFCBEFCBEB64017017E8
:1020B000121155E09003C5F0121169A3E09003C618
:1020C000F0ECA3F0EDA3F0EB64027017121155E0F1
:1020D0009003C9F0121169A3E09003CAF0ECA3F0D9
:1020E000EDA3F022410245004101EE00410248000B
:1020F000410013004102D30041036E004101ED0095
:102100004103F5004103F60042036F0000410371F3
:1021100000410373004103720041037410009004F6
:102120000E1212F1503090040EE0FFEB12125B120F
:1021300010E4E07021EB12125B1210E47401F01253
:1021400010C0FFEB1213D7C083C08290040EE0D002
:1021500082D0831214AC2290040E1212F1503090EF
:10216000040EE0FFEB1212681210E4E07021EB1293
:1021700012681210E47401F01210C0FFEB1213E5A4
:10218000C083C08290040EE0D082D0831214AC22AF
:102190009003FDEFF0E0FF24F0121336E06020EF33
:1021A0001213F31210B512135F9027A912114740B2
:1021B0000E9003FDE024F0121336E4F07F01227F3D
:1021C00000229003FDEFF0E0FF24D4121357E060EB
:1021D00020EF12141D1210B512135F9027AD1211CB
:1021E00047400E9003FDE024D4121357E4F07F0122
:1021F000227F0022E4FFFE900012E0FDEEC39D501E
:102200001C12109FE0FCA3E0FDEE1210A0E0FAA368
:10221000E0D39DEA9C4003CFEECF0E80DA9001EC34
:10222000EFF0229003FDEFF0E0FF240A12134CE0E0
:10223000601AEF12140F1210B5121138400E9003ED
:10224000FDE0240A12134CE4F07F01227F0022906B
:1022500003FDE0FBA3E0FAA3E0F9229003F6E0FF20
:1022600004F08F82758300229003FC7401F022E950
:102270002FF9E43AFA02260BE4F01233C19003FC82
:10228000E0FF1212F35017121333E07011121333E0
:102290007401F01210C0FFEB1213F31227292290E1
:1022A00003F77401F0A37403F0A37475F0E4F5DA96
:1022B00075DA4043DA2075D74075DA5843A90875B6
:1022C000B80875F808221212F3501712133EE07086
:1022D0001112133E7401F01210C0FFEB1214011220
:1022E0002729221212F35017121349E0701112130A
:1022F000497401F01210C0FFEB12140F12272922AB
:102300001212F35017121354E07011121354740187
:10231000F01210C0FFEB12141D12272922E4FD90C9
:102320000371E06011900375E0FE54F0FDEE540F70
:10233000F0E4900371F0CFEDCF2212147BFFFEEE9C
:102340009027BF93600974492F121487EEF00F0E87
:10235000EEB410EB229002E3122735000000007E5D
:10236000007F0B7D007B017A0179FF022772EFD39A
:102370009403500D121267F583E5822D1210E9E4E3
:10238000F02275B28E75B6F9E4F5B743B20143AAEF
:1023900001023355EFD39403500874F02F12133613
:1023A000E4F022EFD39403500874022F121341E497
:1023B000F022EFD394035008740A2F12134CE4F068
:1023C00022EFD39403500874D42F121357E4F02251
:1023D000122EDB9001EF7401F0022ACFEE30E707F6
:1023E000C3E49FFFE49EFE22000000000000000006
:1023F00000000000000000000000000000000000DD
:1024000000000000000000000000000000000000CC
:1024100000000000000000000000000000000000BC
:1024200000000000000000000000000000000000AC
:102FF000000000000000000000000000000000BA17
:00000001FF
