:1000000078FFE4B8200118F6D8F99000007F007E50
:1000100007E4F0A3DFFCDEFA758120022CF69003E2
:10002000FDEFF0E0FF2402121341E0601AEF12131B
:10003000FF1210B5121138400E9003FDE024021299
:100040001341E4F07F01227F0022000228E3EFD376
:100050009403500D12125AF583E5822D1210E9E433
:10006000F02200022E1675F00212274AE0FCA3E0EF
:10007000FD75F088EFA42444F582E5F03400F583A3
:10008000EE75F00202274A9003FCE0FF75F002A42F
:1000900024CAF582E5F03401F583E0FCA3E0FDEF2E
:1000A00075F002A42426F582E5F03400F58322756C
:1000B000F00412274AE0F8A3E0F9A3E0FAA3E0FB7A
:1000C0009002E3E0FCA3E0FDA3E0FEA3E0229004A5
:1000D0000AE0FF900409E0FE75F088A424A7F582E9
:1000E000E5F03400F583E5822FF582E43583F5836E
:1000F0002290040BE0FEA3E0FF900409E0FD75F000
:1001000088A4247AF582E5F03400F58322E0FCA38C
:10011000E0FDEF75F088A42456F582E5F034002266
:10012000FDEC541FF0EDA3F0EB75F002A42420F5D4
:1001300082E5F03400F58322902793C39BFBEE9A6F
:10014000FAED99F9EC98F8E493FE740193FFE4FC5E
:10015000FDC30226FC75F002EBA4241AF582E5F03B
:100160003400F583E0FCA3E0FDEB75F002A4241459
:10017000F582E5F03400F58322C39DFFEE9CFEE09E
:1001800075F088A42468F582E5F03400F58322F543
:1001900083E493FC740193FD75F002EFA4229004B4
:1001A00009E0FF75F088A42432F582E5F03400F50B
:1001B000832275F088A4248CF582E5F03400F58361
:1001C000EC75F00202274A900409E0FF75F088A45C
:1001D0002444F582E5F03400F58322E04401F0E4A4
:1001E000900013F09002D322F0A3F0A3F0A3F0A3A9
:1001F000F0A3F0A3F0A32275F002EBA4241AF58279
:10020000E5F03400F583229003FCE0FF24DCF58266
:10021000E43401F58322F074E22EF582E43401F532
:10022000832224D0F582E5F03401F583ECF0A3EDD0
:10023000F0EF25E0229003FBE0FF25E024FDF582AE
:10024000E43403F58322900409E0FD75F088A424CA
:100250008CF582E5F03400F58322EF75F009A424D3
:10026000E7F582E4340222EF75F009A4244CF5820C
:10027000E434022290040AE0FF900409E075F0885B
:10028000A4249EF582E5F0340022E4F075F088EEB7
:10029000A424B0F582E5F034002290040DE0FDEFD7
:1002A0009D7480F86E9822900409E0FFA3E0FD227F
:1002B000EF2448FFEE34FEFE7C007D0A1226697DA5
:1002C0003212267BEF24B8FFEE3401FE75F002EB0C
:1002D000229003FCE024DFF582E43401F5832290D0
:1002E00003FCE0FF75F002A424D6F582E5F03401AA
:1002F00022EDF0CBEFCBEBD394032275F088EEA484
:1003000024B9F582E5F0340022E04406F0900013B1
:100310007401F02275F002EF12274AE0FCA3E0FD21
:1003200075F08822E0FEA3E0FFD322900375E0542D
:10033000F0F02274F02BF582E43401F5832274028C
:100340002BF582E43400F58322740A2BF582E43421
:1003500002F5832274D42BF582E43402F58322C3A0
:100360009BFBEE9AFAED99F9EC98F822E0FEA3E0F7
:10037000C39D22EB25E024C3F582E43428F58322D3
:10038000E0249EF582E43400F583E0640122242C0D
:10039000F582E5F03400F583ECF0A3EDF00F22E4F4
:1003A000F0A3F075F08822EE8FF01226D075F08859
:1003B000ED22C3EF94F6EE6480947F22E49001E690
:1003C000F0900246F022FE7C007D0A1226697D1E16
:1003D00012267BEF2275F024A42402F582E4340374
:1003E000F5832275F024A42467F582E43402F583B2
:1003F0002225E025E024F3F582E43401F58322256B
:10040000E025E02405F582E43400F5832225E0258B
:10041000E02439F582E43402F5832225E025E02446
:10042000D7F582E43402F58322900409E0FFA3E0CB
:10043000FD22A424A7F582E5F03400F583E58222AD
:10044000E0FEA3E02DFFEE3CFE9003FBE0229003D4
:10045000FCE09003FBF022F074E32EF582E434011B
:10046000F583E4F022E0FF9003FDE0FEEFC8EEC864
:100470000822900375E0440A22902EC5E4F0902EE5
:10048000CDF0A3F022F582E43402F58322940AEE43
:10049000648094802275F002EF02274A902EC6F005
:1004A000902EC57401F022F09001E5747EF0E4A373
:1004B000F02275F00412274A02270DECF0A3EDF0AC
:1004C000900409E0229003FCE004F022F09001E7A0
:1004D000F0900247F022900409EFF0A3EDF09004B1
:1004E0000D7403F0ED70037402F0900409E0FF1244
:1004F0001113F583C083C08290040AE0FED082D03D
:100500008312106612136CFFEE9CFE90040BF0A396
:10051000EFF01233C6C312129A40030215CF121025
:10052000F1C083C08290040AE0FCD082D083121014
:10053000811213A7121101EC12108112132412144C
:100540008D40241210F9C083C08290040AE0FCD0D0
:1005500082D083121081E4F0A3F0ED121113121176
:10056000BEE475F001802B1213B25029900409E00B
:10057000FF1210FEC083C08290040AE0FED082D039
:1005800083121081E4F0A3F012111212107E74FF96
:10059000F5F01226D01212A712104E1212A7123125
:1005A000411212A7122F19EF70030216FB90040AD2
:1005B000E0FF900409E0FE12127D1210E4E4F0EF77
:1005C00060030216FB1212FBF583E4F00216FB90A7
:1005D000040AE0703EA3E0FEA3E0FF1233C69004DD
:1005E0000DE02402FDE433FCD3EF9DEC6480F8EED3
:1005F00064809840091212741210E47401F012170A
:1006000034D312129A402C900409E075F08812122B
:10061000FF801B12173490040DE0FDD312129F408F
:1006200012121274F583E5822FF582E43583F58387
:100630007401F01210F1C083C08290040AE0FCD073
:1006400082D0831210811213A71211011211C0124D
:1006500013249464EE6480948040231210F9C083C4
:10066000C08290040AE0FCD082D083121081121361
:100670009FED1211161211BEE475F0018031C3EF27
:10068000949CEE6480947F5029900409E0FF12103E
:10069000FEC083C08290040AE0FED082D083121094
:1006A00081E4F0A3F012111212107E74FFF5F01223
:1006B00026D0C390040BE06480948050321212A7BD
:1006C0001231081212A7122F6CEF60299004091240
:1006D00011CAC083C08290040AE0FED082D0831287
:1006E000108112110D12107EECF0A3EDF0800612B5
:1006F00012A712104E1212A7123358900409E0FFED
:10070000121113F583C083C08290040AE0FED082E8
:10071000D083121066E0FEA3E0900409121179C0A4
:1007200083C08290040AE0D082D083121081EEF060
:10073000A3EFF02290040BE0FEA3E0FF1233C622E9
:100740009001EDE0FE703B9001EFE06402705B9081
:10075000024804F09001DDE0B4010312130D900192
:10076000DEE0B401069002D37401F0900388E0B497
:10077000200890036E7401F08005E490036EF07F12
:100780000222EEB401249001EFE0B4021D90024871
:100790007401F0900388E0B4200890036E7401F0B7
:1007A0008005E490036EF07F0222E4FE900012E0E8
:1007B000FFEEC39F40030219649001EDE0FC704A14
:1007C000121217E06401704274DC2E12120EE0FF68
:1007D000701612132BEEB40104E04409F0EE64022B
:1007E0007021121472F0801BEF6401701612132B2B
:1007F000EEB40104E04401F0EEB40207900375E0AA
:100800004402F0121217E4F0C28AEC6401600302A1
:100810001960121217E06401600302196074DC2E83
:1008200012120EE0FC60030218B512132BEE6401E5
:10083000703A900247E0FD6401701B900246E09020
:100840000375B40109E044091211DE048015121188
:10085000DB1214CC8016ED900375B4020BE0440556
:100860001211DE12145780041211DBF0EE640260E4
:1008700003021959900247E0FF6401701C90024680
:10088000E0900375B40106121309E48021E04404EA
:100890001211DE1214CC021959EF900375B402053F
:1008A000E044058003E04404F0E4900013F090027B
:1008B000D3F0021959EC6401600302195912132B89
:1008C000EE64017049900246E0FFB402081214720F
:1008D00012130C8013EF640170269001E7E090037F
:1008E00075B4010C121309E49002D3121457801E40
:1008F000E0440212130CE49002D3F01213BD800EF8
:10090000900375E0440212130CE49002D3F0EE64FD
:10091000027046900246E0B40210121472F0900287
:10092000D37401F0900013F0802F9001E6E0640191
:10093000701C900247E0900375B40105E044098003
:1009400013E044081211DE04F01213BC800B900374
:1009500075E044081211DE04F0121217E4F0C28AA6
:100960000E0217AC7F04229003FB747EF09001ED21
:10097000E06003021A7E9003FCF0900012E0FF900A
:1009800003FCE0FEC39F4003021A5D74DC2E1212CA
:100990000EE06003021A3574DF2E1212D7E0FF70EA
:1009A000289003FCE075F002A424D0F582E5F03431
:1009B00001F583E0FCA3E0FD75F002EE1210A3E068
:1009C000FAA3E0C39DEA9C500FEF6401705B121024
:1009D0008712136CEE9C40519003FCE0FF9003FBE8
:1009E000F01212D57401F074DC2F12120E7401F0A3
:1009F0009001E5E0FFB47E149003FCE0FE9001E579
:100A0000F0A374011212167401F0800D9003FCE043
:100A10006F60069001E67402F09003FCE0FF123371
:100A20007E9003FCE0FF1232EA121B7C6026121259
:100A3000D1E4F0801F1212DF12109812136CEE9C9A
:100A4000400C12144E1231ACEF6009021B28121236
:100A5000071232629003FCE004F002197A9001DD83
:100A6000E0701BA3E070179001E6E0D39400400E05
:100A70009001E5E024E212121A74011214A7900109
:100A8000EDE064016003021B6D9003FCF090001226
:100A9000E0FE9003FCE0FFC39E4003021B6D1210BA
:100AA0001EEF60031213BC9003FCE012120CE07006
:100AB0006112108712136CEE9C403B12144E1212FE
:100AC0000C7401F09001E6E004F0900246F090030F
:100AD000FCE0FF24E212121A7401F012337E90033C
:100AE000FCE0FF12338D9003FCE0FF1232B0900364
:100AF000FCE0FF1232EA121B7C60051212D1E4F016
:100B00009003FCE0FF12320DEF6059E49001E70220
:100B10001B5F1212DF12109812136CEE9C40191218
:100B2000144E1231ACEF603C9001EF7402F0900370
:100B3000FCE012120CE4F02212120712326290034F
:100B4000FCE0FF12339C9003FCE0FF1232CD9003D7
:100B5000FCE024E212121A7401F09001E7E004F0C4
:100B6000900247F09003FCE004F0021A8D9003FB22
:100B7000E0FF9001EBE06F6002EFF0229003FCE0F9
:100B8000FF12317AEF22900409EFF0A3EDF0900408
:100B90000D7407F0ED603F90009EE06401700280EC
:100BA0000890040A121380702D12119EC083C08217
:100BB00090040AE0FED082D0831210661214BB1299
:100BC000124BC083C08290040AE0D082D0831210FE
:100BD00081E4F0A3F0229004091211CAC083C082FC
:100BE00090040AE0FED082D08312108112131BEF12
:100BF000A42432F582E5F0340012107E12136CFF4B
:100C0000EE9CFE90040BF0A3EFF01233C690040D9F
:100C1000E0FDC312129F4003021CDE1210CEE064FE
:100C200001703775F088EE121183EF1211C1E0FEEA
:100C3000A3E0C3941EEE648094804003021D24123E
:100C4000119EC083C08290040AE0FED082D083123D
:100C50001066ECF0A3EDF0021D2490040BE0FEA35F
:100C6000E0FF121246C083C08290040AE0FCD082EA
:100C7000D083121081EE8FF01226D0ED1211B21235
:100C8000132412148D4029121246C083C08290048E
:100C90000AE0FCD082D08312108112139FEDA424AD
:100CA00044F582E5F034001211BEE475F0018028AD
:100CB0001213B2506F900409E0FF12124BC083C0B0
:100CC0008290040AE0FED082D083121081E4F0A367
:100CD000F012107174FFF5F01226D0021D241211CB
:100CE0009EC083C08290040AE0FED082D08312109E
:100CF000661214BBFF121180C083C08290040AE008
:100D0000FED082D083121081E0FCA3E0C3941EECDD
:100D100064809480400E75F088EF1214322E121009
:100D2000E97401F01210CEE06401702812128C12E6
:100D300010E4E00412128B1210E4E0D39405401486
:100D400090040AE0FF75F088EE1210DB12128A128E
:100D500010E4E4F0229001EFE024FE601E14700322
:100D6000021E1F147003021EDD24036003021F20F5
:100D70009001EF7402F0E4900245F09001EF7403EB
:100D8000F0900248E064016003021E1CF09001ED47
:100D9000E0FD7020C28A12132B900013E06009E47A
:100DA000F0900375E04409F09002D3E06006E4F0AF
:100DB000121472F0ED64016003021F2012132B90D5
:100DC0000013E0FF70099002D3E07003021F20EFD0
:100DD00060129002D3E0600C1211DFF0900375E016
:100DE00044058034900013E060129002D3E0700C50
:100DF0001211E0F0900375E04401801C900013E0B4
:100E00006003021F209002D3E07003021F20121122
:100E1000DFF0900375E04404F0C28A22022AB31284
:100E200024599001E8E07003021EBE900245E004E0
:100E3000F0E49003FAF0900012E0FF9003FAE0C3B0
:100E40009F507BE4FF9003FAE0FE1211A3121314EB
:100E5000EE121116F583121495ECF0A3EDF0900349
:100E6000FAE0FE1211A3121314EE1211CF12149510
:100E7000121398EFB409CE9003FAE0FF1210A0E429
:100E8000F0A3F0EF1211297404F0A3E4F0EFB40121
:100E900010E490037FF0A3F09003837404F0E4A3C4
:100EA000F0EFB40210E4900381F0A3F09003857496
:100EB00004F0E4A3F09003FAE004F0021E3690027E
:100EC00045E0C394034059900011747EF0E4900112
:100ED000E9F0900245F09001EF7404F022122459D9
:100EE0009001E8E0603A121F21E49003FAF09000CC
:100EF00012E0FE9003FAE0FFC39E501612309212E9
:100F00002EC49003FAE0FF1220E89003FAE004F008
:100F100080DC1231DE1219671217409001EFEFF0FA
:100F200022E49003FCF09003FCE0FDC394095023FD
:100F3000E0FF75F0021211A6E0FAA3E0FB75F002E3
:100F4000EF1211CFEAF0A3EBF0E4FF1214D6121463
:100F5000C580D3E49003FBF0900012E0FF9003FB08
:100F6000E0C39F40030220E2121238E4F0A3F0EF46
:100F700025E02403F582E43404F583E4F0A3F0EFE4
:100F800070030220D9E49003FCF09003FCE0FDC361
:100F9000940950189003FBE0FF121B869003FBE0BE
:100FA000FFA3E0FD1222AF1214C580DEE49003FC23
:100FB000F09003FCE0FFC394094003022088749E74
:100FC0002F12138360109003FBE075F0881212FF5C
:100FD000F583E0B401199003FB12117FC083C08236
:100FE0009003FCE0D082D083121081E4F0A3F09053
:100FF00003FCE0FF70030220829003FBE0FE12116D
:1010000080121495E0FCA3E0C39403EC6480948008
:10101000501A75F088EE121183C083C0829003FCD1
:10102000E0D082D083121081E4F0A3F0900412E0AB
:10103000602A9003FBE0FF121180C083C0829003FE
:10104000FCE0FED082D08312108112110D12107EAE
:1010500012144012123AEE8FF01226D09003FBE0E9
:10106000FF121180C083C0829003FCE0D082D08345
:10107000121081E0FCA3E0FDEF12123AEC8DF012A9
:1010800026D01214C5021FB1900412E06011121292
:1010900035E0FCA3E0FDEF12116AECF0A3EDF09057
:1010A00003FBE0FF75F088A42458F582E5F03400D6
:1010B000F583E0FCA3E01211971211FCECF0A3ED14
:1010C000F0121235E0FCA3E01211971211FC121479
:1010D0004012116AEEF0A3EFF09003FBE004F0027F
:1010E0001F58E49001E8F022CBEFCB1211F7E0FE9D
:1010F000A3E0FF121169E0FCA3E0FDC39FEC9E504A
:10110000030221A8E42DFFEC3404FE1211F7E0FCE9
:10111000A3E0FDC3EF9DFFEE9CFE121128EEF0A3AD
:10112000EFF01211F7E0FEA3E0FF121169E0FCA35B
:10113000E0C39FFFEC9EFE75F002EB1210A3EEF0F1
:10114000A3EFF0121373E493FE740193FF75F002A2
:10115000EB1210A3E0FCA3E0FDD39FEC9E40241211
:101160001373E493FE740193FFC3ED9FFFEC9EC3E2
:1011700013FEEF13FF1213737401932FFFE4933EDA
:10118000FE801775F002EB1210A3E0FEA3E0FF7CD7
:10119000007D631226690D12267B75F002EB12109A
:1011A000A3EEF0A3EFF08038121169E0FEA3E0FF98
:1011B0001211F7E0FCA3E0C39FEC9EC3940475F00A
:1011C00002EB50101210A3E4F01211267404F0A3E5
:1011D000E4F0800C1210A3E4F0121126E4F0A3F066
:1011E000EB6401706275F002EB1210A312132494E9
:1011F000B8EE9401400B1212B01210A3EEF0A3EF60
:10120000F075F002EB1210A3E0FCA3E090037F1254
:101210001120121324940EEE94064019EF24F2FFCD
:10122000EE34F91213C6240EFFEE3406FE12112816
:10123000EEF0A3EFF0121128E0FCA3E0FDEC541F48
:10124000900383F0EDA3F0EB6402706275F002EBA3
:101250001210A312132494B8EE9401400B1212B092
:101260001210A3EEF0A3EFF075F002EB1210A3E062
:10127000FCA3E090038112112012132494FAEE943F
:10128000054019EF2406FFEE34FA1213C624FAFFC4
:10129000EE3405FE121128EEF0A3EFF0121128E053
:1012A000FCA3E0FDEC541F900385F0EDA3F0229029
:1012B0000409EFF0A3EDF090040D7407F0ED700356
:1012C0007404F090009EE064017002800890040AAB
:1012D00012138070381211C7C083C08290040AE0D4
:1012E000FED082D08312108112110D12107EECF00C
:1012F000A3EDF090040912117FC083C08290040A0C
:10130000E0D082D083121081E4F0A3F0229004098F
:10131000E0FF121113F583C083C08290040AE0FE3F
:10132000D082D08312106612136CFFEE9C90040BD7
:10133000F0A3EFF09004091212D4E06007E49004E7
:101340000BF0A3F090040BE0FEA3E0FF1233C69075
:10135000040DE0FDC312129F40030223E890040B2A
:10136000E0FEA3E0FF9004091210FCC083C082904D
:10137000040AE0FCD082D0831210811213A712114C
:10138000011211C012132412148D40269004091268
:1013900010FCC083C08290040AE0FCD082D083128B
:1013A000108112139FED1211161211BEE475F00197
:1013B000802B1213B25029900409E0FF1210FEC0D6
:1013C00083C08290040AE0FED082D083121081E4B0
:1013D000F0A3F012111212107E74FFF5F01226D055
:1013E00012142912104E8038C390040BE0648094CC
:1013F00080502D121429123108121429122F6CEF6B
:10140000601E1211C7C083C08290040AE0FED08221
:10141000D08312108112110D12107EECF0A3EDF0AA
:10142000900409E0FF121113F583C083C082900479
:101430000AE0FED082D083121066E0FEA3E09004A2
:1014400009121179C083C08290040AE0D082D0834F
:10145000121081EEF0A3EFF022E49003FCF0900371
:10146000FCE0FFC3940940030225E8EF902EC8700A
:1014700014E0545FF0A3746AF0902EC3744AF0A392
:101480007401F08012E044F0F0A3742AF0902EC3AF
:1014900074A0F0A3740AF09003FCE090278293906C
:1014A0002ECAF0E49003FBF0900012E0FF9003FBE3
:1014B000E0FEC39F40030225DF74492E121485E02D
:1014C000FF9003FDF0E4F5E2EFC39408503A741581
:1014D00012149CC083C0821214658002C333D8FCEE
:1014E000D082D083F0902ECD7401F0C083C082E012
:1014F000FFC8EEC8088002C333D8FCD082D083F086
:10150000902EC074C1F0805D9003FDE024F8F0746B
:101510001612149CC083C0821214658002C333D893
:10152000FCD082D083F0902ECE7401F0C083C082B4
:10153000E0FFC8EEC8088002C333D8FCD082D08355
:10154000F0EEB40506902EC97428F0EEB4060690AD
:101550002EC9742BF0EEB40706902EC9742BF090B0
:101560002EC074C2F0E4FF900000742EF0A3E4F0EB
:101570009003FBE02449121485E09003FDF0E5E2BE
:1015800020E2050FEFB4C8DF53E2FB121479900399
:10159000FDE0FD75F002A4FFAEF0900001E02FF039
:1015A000900000E03EF0ED9027B393FF900000E440
:1015B00075F0021226E685F082F58312131BEF12F6
:1015C00011A6C083C0829003FCE0D082D0831210A9
:1015D00081ECF0A3EDF09003FBE004F00224A8906E
:1015E00003FCE004F002245E9001E87401F022BBE9
:1015F000010689828A83E0225002E722BBFE02E3D1
:101600002289828A83E49322BB010CE58229F58238
:10161000E5833AF583E0225006E92582F8E622BB0D
:10162000FE06E92582F8E222E58229F582E5833A81
:10163000F583E49322BB010689828A83F02250025B
:10164000F722BBFE01F322F8BB010DE58229F582EA
:10165000E5833AF583E8F0225006E92582C8F622B0
:10166000BBFE05E92582C8F222EF8DF0A4A8F0CFD9
:101670008CF0A428CE8DF0A42EFE22BC000BBE0060
:1016800029EF8DF084FFADF022E4CCF875F008EF7F
:101690002FFFEE33FEEC33FCEE9DEC984005FCEEA4
:1016A0009DFE0FD5F0E9E4CEFD22EDF8F5F0EE84D5
:1016B00020D21CFEADF075F008EF2FFFED33FD409A
:1016C00007985006D5F0F222C398FD0FD5F0EA2214
:1016D000C5F0F8A3E028F0C5F0F8E58215827002A5
:1016E0001583E038F022A3F8E0C5F025F0F0E5829C
:1016F000158270021583E0C838F0E822EB9FF5F000
:10170000EA9E42F0E99D42F0E89C45F022ECF0A30D
:10171000EDF0A3EEF0A3EFF022A8828583F0D08352
:10172000D082122730122730122730122730E4736C
:10173000E493A3C583C5F0C583C8C582C8F0A3C51B
:1017400083C5F0C583C8C582C822A42582F582E579
:10175000F03583F58322EF4E6012EF60010EEDBB92
:10176000010B89828A83F0A3DFFCDEFA2289F05024
:1017700007F709DFFCA9F022BBFEFCF309DFFCA997
:10178000F0223F3F3F3F3F3F3F3F3F003200321795
:101790007002580004001E000A000A000F006400D6
:1017A0000A000A0000000000000000000000000025
:1017B0000101010D0E0F030405060708090A0B0CB1
:1017C00000010200370037003700370037003700CC
:1017D0003700370037003700370037003700370051
:1017E00037003700460046004600460046004600E7
:1017F00046004600460046004600460046004600B9
:10180000460046001E001E001E001E001E001E0098
:101810001E001E001E001E001E001E001E001E00D8
:101820001E001E002D002D002D002D002D002D006E
:101830002D002D002D002D002D002D002D002D0040
:101840002D002D00640064006400640064006400E6
:101850006400640064006400640064006400640068
:10186000640064006E006E006E006E006E006E001C
:101870006E006E006E006E006E006E006E006E00F8
:101880006E006E004B004B004B004B004B004B00BA
:101890004B004B004B004B004B004B004B004B00F0
:1018A0004B004B002D002D002D002D002D002D0094
:1018B0002D002D002D002D002D002D002D002D00C0
:1018C0002D002D00FA00FA00FA00FA00FA00FA00E2
:1018D000FA00FA00FA00FA00FA00FA00FA00FA0038
:1018E000FA00FAC0E0C083C082C0D0E8C0E0E9C01E
:1018F000E0EAC0E0EBC0E0EFC0E0D2AFE5DB30E40F
:1019000015E5DB30E1028022900374E5DFF09003FF
:10191000F5E4F00229BCE5DB30E505900371803881
:10192000E5DB30E126E5DB30E0119003F712323CD5
:10193000123245122608F5DF0229BC9003F6E06456
:10194000017079208A76D28A0229BC9003F5E07072
:101950000DA3E5DFF09003F57401F00229BC9003BC
:10196000F6E0902D3B93FFB4FF0E900374E5DFF09B
:101970009003F6E004F0803EEF640F9003F7702BC5
:1019800012323C9003F6E0FF123259540F12263502
:101990009003F712323C9003F6E0FF04F012325944
:1019A000FFE5DF54F04F122635800B12323C123225
:1019B00045E5DF122647900373E004F075DBFFD0A6
:1019C000E0FFD0E0FBD0E0FAD0E0F9D0E0F8D0D0F2
:1019D000D082D083D0E032900388E0FE6410705350
:1019E000FF900012E0FDEFC39D4003022A88EF251F
:1019F000E02463F582E4342812118F12122224436A
:101A0000F582E4342812118F24CAF582E5F03401FE
:101A100012122A2483F582E4342812118F1212E85C
:101A200012122A24A3F582E4342812118F12138E85
:101A30000229E1EE64207062FF900012E0FEEFC325
:101A40009E5045EF25E024E3F582E4342712118F00
:101A500012122224C3F582E4342712118F24CAF50E
:101A600082E5F0340112122A2403F582E4342812AC
:101A7000118F1212E812122A2423F582E43428125C
:101A8000118F12138E022A399001CCA3E0900379B2
:101A9000F09001CEA3E090037AF090038BE0FEB4C7
:101AA00010079001ED7401F022EEB42005E49001DE
:101AB000EDF0227E017FD97D007B017A007914123E
:101AC0002756122E6D90036EE090038870057410F7
:101AD000F080037420F01229D7E4FE900012E0FF9A
:101AE000EEC39F507BE4FC75F088EE1211011211D9
:101AF000C012139FEE121280F583E5822C1210E9BA
:101B0000E4F0EE1211B212139FEE1214322C1210E6
:101B1000E912128AF583E5822C1210E9E4F0CFEE87
:101B2000CFCDECCD12104E1233580CEC640970B7C7
:101B30001212FBF583E4F0CFEECF12337E12339C0A
:101B400012338D1233AB74DC2E12120EE412121605
:101B5000E41214A7A3F0900246F0A3F00E022ADBD1
:101B60009001EB747EF0900011F0E49001EAF02215
:101B7000E49003FCF0FF9003FBF0EF14601E146090
:101B80003514604C14605B240470749003FD740180
:101B9000F0A3742FF0A37458F0022BF9123239908D
:101BA0000001122608FED3941F4003123252122560
:101BB000EF6E704B8043123239900002122608FEFD
:101BC000D3940640031232521225EF6E70318029F1
:101BD000123239900003122608FE1225EF6E701F94
:101BE0008017123239900004122608FE648B6003BD
:101BF0001232521225EF6E70069003FBE004F00FD4
:101C0000EF64056003022B7A9003FBE0B40504A3A4
:101C10007401F09003FCE0FD6007900389E0547FBD
:101C2000F0CFEDCF22758A50538AEF9004137411D0
:101C3000F09004117422F09004147433F075997FBD
:101C4000759A80E4FFFEC29620970AD296309705D7
:101C5000E4900413F00FBF00010EEF640A4E70E62B
:101C60007590FF75993F759AC0E4FEFF2097069026
:101C700004117427F020960C9004117426F020971C
:101C8000037428F00FBF00010EEF640A4E70DDE40C
:101C9000F5AD75AEF075AF09F5AC7589FF75913F7F
:101CA00075991FF59675931FF59BF595F592F59A25
:101CB00075800CD28A90041204F022023056E4930C
:101CC000A3F8E493A34003F68001F208DFF480292F
:101CD000E493A3F85407240CC8C333C4540F44201E
:101CE000C8834004F456800146F6DFE4800B01020D
:101CF0000408102040809030CEE47E019360BCA3A5
:101D0000FF543F30E509541FFEE493A360010ECF5A
:101D100054C025E060A840B8E493A3FAE493A3F884
:101D2000E493A3C8C582C8CAC583CAF0A3C8C58244
:101D3000C8CAC583CADFE9DEE780BE0FFFFF000027
:101D40000000000000FFFFFFFFFFFFFFFFFF00009C
:101D50000000000000000000000000000000000083
:101D60000000000000000000000000000000000073
:101D70000000000000000000000000000000000063
:101D80000000000000000000000000000000000053
:101D90000000000000000000000000000000000043
:101DA0000000000000000000000000000000000033
:101DB0000000000000000000000000902EC0E4F0D1
:101DC000902ECB74F7F0902F58E0540F24F0902E03
:101DD000C8F0902ECC7448F0902EC97428F0A374EB
:101DE0003FF0902E4074811211E8F0A3041211E824
:101DF00014F0902EC67414F0902EC17490F0A37459
:101E000001F0A374A0F0A3740AF043E3101233248A
:101E1000900012EFF022C0E0C0F0C083C082C0D0BA
:101E2000E8C0E0ECC0E0EDC0E0EEC0E0EFC0E0D222
:101E3000AF9001EEE004F0C3940A4017E4F01210F2
:101E4000C02401FFE43EFEE43DFDE43CFC9002E3DF
:101E500012270DD0E0FFD0E0FED0E0FDD0E0FCD0B6
:101E6000E0F8D0D0D082D083D0F0D0E0327E007FB6
:101E7000807D007B017A037975122756E490037503
:101E8000F09003777406F090038774ABF0900389A9
:101E90007489F0900413E090037BF0900411E090BB
:101EA000037CF0900414E090037DF0122B709003FB
:101EB00072E06008900376740FF08005E49003767A
:101EC000F002300B900412E0604E900016E0FEA38A
:101ED000E0FFC39470EE941750069004147426F03B
:101EE000C3900019E09470900018E094175012907D
:101EF00004147427F0C3EF9470EE94175003742801
:101F0000F0E4900412F0900016F0A3F0A3F0A3F018
:101F1000900414E090037DF02290040FEDF0900403
:101F20000EEFF0A3E0FE121267F583E5822E121089
:101F3000E9E0603590040EE01213E3C083C08290A4
:101F4000040FE0D082D0831210AF12135F90279954
:101F5000121147401490040FE0FF90040EE012129B
:101F6000681210E4E4F07F01227F002290040FED5C
:101F7000F090040EEFF0A3E0FE12125AF583E58212
:101F80002E1210E9E0603290040EE01213D5C083E7
:101F9000C08290040FE0D082D0831210AF902797B8
:101FA00012113B401490040FE0FF90040EE0121257
:101FB0005B1210E4E4F07F01227F00229003FA74A8
:101FC00010F0A3E4F0A3743FF0A374FFF0E4FDFC71
:101FD000F99003FAE0FEA3E02DF582EE3CF583E4F0
:101FE00093FF69F90DBD00010CBC2FE5BDFFE29028
:101FF00003FCE0FEA3E0F5828E83E4936970069013
:10200000037204F022E4900372F0229001D2A3E064
:102010009003CDF09001D4A3E09003CEF09001CCDA
:10202000A3E09003CFF09001CEA3E09003D0F09016
:1020300001D8A3E09003D1F09001DAA3E09003D29D
:10204000F09028C57401939003D3F09028C77401D1
:10205000939003D4F022752001122FBC53A87F1255
:102060002C251233BA12336C12328943A880758D35
:10207000E0123307EF24E0600A2410700AC283C222
:10208000828004D283D2821229D7438D20121D551B
:1020900080DFCBEFCBEB64017017121155E090039A
:1020A000C5F0121169A3E09003C6F0ECA3F0EDA314
:1020B000F0EB64027017121155E09003C9F0121191
:1020C00069A3E09003CAF0ECA3F0EDA3F022410273
:1020D00045004101EE004102480041001300410269
:1020E000D30041036E004101ED004103F5004103BF
:1020F000F60042036F000041037100410373004189
:10210000037200410374100090040E1212F150305B
:1021100090040EE0FFEB12125B1210E4E07021EB72
:1021200012125B1210E47401F01210C0FFEB1213D4
:10213000D5C083C08290040EE0D082D0831214B246
:102140002290040E1212F1503090040EE0FFEB12B8
:1021500012681210E4E07021EB1212681210E4749D
:1021600001F01210C0FFEB1213E3C083C082900491
:102170000EE0D082D0831214B2229003FDEFF0E083
:10218000FF24F0121336E06020EF1213F11210B5A5
:1021900012135F90278D121147400E9003FDE0242B
:1021A000F0121336E4F07F01227F00229003FDEF4E
:1021B000F0E0FF24D4121357E06020EF12141B123A
:1021C00010B512135F902791121147400E9003FD36
:1021D000E024D4121357E4F07F01227F0022E4FFB1
:1021E000FE900012E0FDEEC39D501C12109FE0FC1B
:1021F000A3E0FDEE1210A0E0FAA3E0D39DEA9C401C
:1022000003CFEECF0E80DA9001ECEFF0229003FDC9
:10221000EFF0E0FF240A12134CE0601AEF12140DE5
:102220001210B5121138400E9003FDE0240A12136B
:102230004CE4F07F01227F00229003FDE0FBA3E04D
:10224000FAA3E0F9229003F6E0FF04F08F82758391
:1022500000229003FC7401F022E92FF9E43AFA021B
:1022600025EFE4F01233AB9003FCE0FF1212F350C1
:1022700017121333E070111213337401F01210C0EF
:10228000FFEB1213F112270D229003F77401F0A354
:102290007403F0A37475F0E4F5DA75DA4043DA20DC
:1022A00075D74075DA5843A90875B80875F808223B
:1022B0001212F3501712133EE0701112133E740104
:1022C000F01210C0FFEB1213FF12270D221212F3AF
:1022D0005017121349E070111213497401F01210D3
:1022E000C0FFEB12140D12270D221212F350171219
:1022F0001354E070111213547401F01210C0FFEB6C
:1023000012141B12270D22E4FD900371E06011905E
:102310000375E0FE54F0FDEE540FF0E4900371F00D
:10232000CFEDCF22121479FFFEEE9027A393600920
:1023300074492F121485EEF00F0EEEB410EB2290BC
:1023400002E3122719000000007E007F0B7D007B56
:10235000017A0179FF022756EFD39403500D121230
:1023600067F583E5822D1210E9E4F02275B28E75CF
:10237000B6F9E4F5B743B20143AA0102333FEFD304
:102380009403500874F02F121336E4F022EFD39424
:1023900003500874022F121341E4F022EFD3940388
:1023A0005008740A2F12134CE4F022EFD394035018
:1023B0000874D42F121357E4F022122DBB9001EFB2
:1023C0007401F0022AB3EE30E707C3E49FFFE49EF6
:1023D000FE220000000000000000000000000000DD
:1023E00000000000000000000000000000000000ED
:1023F00000000000000000000000000000000000DD
:1024000000000000000000000000000000000000CC
:1024100000000000000000000000000000000000BC
:102FF0000000000000000000000000000000008948
:00000001FF
