:10000000009E000200020000AB880000000000001B
:1000100000000000000000000000000000000000E0
:10002000801878FFE4B8200118F6D8F99000007F16
:10003000007E07E4F0A3DFFCDEFA758120022D3696
:100040001212F6502474732B12148AE0701B74730E
:100050002BF582E4340312116A25E025E02476F5BD
:1000600082E43403F5831225F22200022667EFD3DF
:100070009403500D12126DF583E5822D1210D4E415
:10008000F02200022ED175F00212262FE0FCA3E030
:10009000FD75F09AEFA42445F582E5F03400F58370
:1000A000EE75F00202262F25E025E02476F582E4A5
:1000B0003403F583E0F8A3E0F9A3E0FAA3E0FB90B2
:1000C0000382E0FCA3E0FDA3E0FEA3E0C39BFBEE04
:1000D0009AFAED99F9EC98F8229004B0E0FF9004B8
:1000E000AFE0FE75F09AA424A8F582E5F03400F59F
:1000F00083E5822FF582E43583F58322EF2466FFC2
:10010000EE34FEFE7C007D0A12254E7D3212256003
:10011000EF249AFFEE3401FEEB75F002A42427F5DC
:1001200082E5F03400F583229004B1E0FEA3E0FF05
:100130009004AFE0FD75F09AA4247BF582E5F034DD
:1001400000F58322F583E493FC740193FD75F002BE
:10015000EFA422E0FCA3E0FDEF75F09AA42457F58C
:1001600082E5F034002275F002EBA4241BF582E551
:10017000F03400F583E0FCA3E0FD75F002EBA4246D
:1001800015F582E5F03400F58322F5837401F090D3
:100190000382E0FCA3E0FDA3E0FEA3E0FFEB22E08E
:1001A00025E0240AF582E4341CF583E493FE74010F
:1001B00093FFE4FCFDC30225E1C39DFFEE9CFEE03E
:1001C00075F09AA42469F582E5F03400F5832224C1
:1001D00007F582E5F03402F583ECF0A3EDF0EF25AE
:1001E000E0229004AFE0FF75F09AA42433F582E595
:1001F000F03400F5832275F09AA4248DF582E5F0A1
:100200003400F583EC75F00202262F902EC9F074AD
:1002100004902E4DF0902EC3229004AFE0FF75F0B5
:100220009AA42445F582E5F03400F58322E04401E8
:10023000F0E4900014F090037222F0A3F0A3F0A376
:10024000F0A3F0A3F0A32275F002EBA4241BF58227
:10025000E5F03400F583E0FEA3E0229004AFE0FD7A
:1002600075F09AA4248DF582E5F03400F583229090
:100270002EC9F07408902E4DF0902EC322EB75F02D
:1002800002A42421F582E5F03400F58322EF75F015
:1002900009A42488F582E4340322EF75F009A4242C
:1002A000EBF582E43402229004B0E0FF9004AFE06A
:1002B00075F09AA4249FF582E5F0340022E4F075ED
:1002C000F09AEEA424B1F582E5F03400229004AF58
:1002D000E0FFA3E0FD229004A2E02413F582E434C1
:1002E00002F58322242DF582E5F03400F583ECF04D
:1002F000A3EDF00F229004B3E0FDEF9D7480F86E43
:100300009822902EC97431F07402902E4DF0902EE8
:10031000C3748022EDF0CBEFCBEBD394032275F0C6
:100320009AEEA424CCF582E5F034002274192EF55F
:1003300082E43402F5832275F002EF12262FE0FCEE
:10034000A3E0FD75F09A22E0FEA3E0FFD3940AEE4D
:100350006480948022E04406F09000147401F0223E
:10036000E0FF25E024A3F582E43404F58322E024B1
:100370009FF582E43400F583E0640122E4F0A3F009
:1003800075F09A222401F582E5F0340222240DF55D
:1003900082E5F0340222F583E4F07F0122E4900448
:1003A00098F090022A7402F022EE8FF01225B575B3
:1003B000F09AED22E0FEA3E0C39D22C3EF94F6EE97
:1003C0006480947F22F583E0FCA3E0FD75F00222B7
:1003D000900418E054F0F022E490021DF09002E442
:1003E000F022900013E0FEEFC39E2275F024A424B7
:1003F000A3F582E43403F5832275F024A42406F5E2
:1004000082E43403F583229004AFE0FFA3E0FD22F1
:10041000A424A8F582E5F03400F583E58222F07487
:100420001A2EF582E43402F583E4F02275F004021A
:10043000262FE0FF9004A4E0FEEFC8EEC80822E0FB
:10044000FCA3E0FDEC22F582E43402F5832225E0F2
:1004500025E024A5F582E4340222F582E43402F595
:10046000832225E025E0244EF582E4340222F58241
:10047000E43402F5832225E025E0242FF582E434DC
:100480000222F582E43400F5832225E025E02406EB
:10049000F582E4340022F582E43402F5832225E07B
:1004A00025E02499F582E4340222F582E43403F550
:1004B0008322902EC5E4F0902ECDF0A3F022F58299
:1004C000E43402F5832275F002EF02262FE0FEA34A
:1004D000E0FFD3949AEE940122E02416F582E434EE
:1004E00002F58322902EC6F0902EC57401F0229062
:1004F0002EC97428F022ECF0A3EDF09004AFE022B6
:100500009004A2E004F0229004A2E0FF75F002A49F
:1005100022F090021EF09002E5F022900418E044D0
:100520000A22E0FEA3E0FFC3EE940422E49004A2BA
:10053000F09004A2E0FFC39409400302178CEF90EF
:100540002EC87014E0545FF0A3746AF0902EC37448
:100550004AF0A37401F0800BE044F01212EDF0A316
:100560007407F09004A2E0901C0193902ECAF0E46E
:100570009004A1F0900013E0FF9004A1E0FEC39F5F
:10058000400302178374E82E12149EE0FF9004A427
:10059000F0E4F5E2EFC39408503B74151214C4C0A4
:1005A00083C0821214128002C333D8FCD082D0835D
:1005B000F0902ECD7401F0C083C082E0FFC8EEC879
:1005C000088002C333D8FCD082D083F0902EC07450
:1005D000C1F00216FC9004A4E024F8F07416121482
:1005E000C4C083C0821214128002C333D8FCD082EC
:1005F000D083F0902ECE7401F0C083C082E0FFC89B
:10060000EEC8088002C333D8FCD082D083F0EEB4A9
:100610000506902EC97420F0EE6406707B9004A24B
:10062000E0FFB40107902EC974328009EFB4020CC8
:10063000902EC974281211EE74808039EFB403072C
:10064000902EC97430803EEFB4040C1214CF748223
:100650001211F17440803CEFB4050974201211EBC3
:1006600074F0802FEFB40614902EC9742AF0740130
:1006700012125574C0F0A37404F0801CEFB4070C80
:10068000902EC9742012125274808007EFB40808AB
:100690001212E2F0A37403F0EE640770799004A2E2
:1006A000E0FFB40108902EC974200216ECEFB402EA
:1006B00014902EC9742AF0902E4D7401F0902EC320
:1006C00074C00216F1EFB40309743012124F746053
:1006D000803FEFB4040A1214CF74821212EA803100
:1006E000EFB40509742012124F74408024EFB40651
:1006F000051212E2801BEFB4070974321211EB7479
:1007000070800EEFB4080F902EC974281211EE7489
:1007100080F0A37403F0902EC074C2F0E49004A3A0
:10072000F0900001742EF0A3E4F09004A1E024E81E
:1007300012149EE09004A4F0123035E5E220E20CA1
:100740009004A3E004F0E0C394C840D553E2FB1248
:1007500014929004A4E0FD75F002A4FFAEF09000A6
:1007600002E02FF0900001E03EF0ED901C3A93FF84
:10077000900001E475F0021225CB85F082F583121A
:10078000131EEF1211CAC083C0829004A2E0D0826F
:10079000D083121081ECF0A3EDF09004A1E004F0FE
:1007A0000215549004A2E004F002151190021F7487
:1007B00001F0229004AFEFF0A3EDF09004B37403C6
:1007C000F0ED70037402F09004AFE0FF121139F500
:1007D00083C083C0829004B0E0FED082D083121028
:1007E00066121394FFEE9CFE9004B1F0A3EFF0129A
:1007F000353FC31212D54003021889121108C08375
:10080000C0829004B0E0FCD082D083121081121319
:1008100089121118EC1210811213274024121110A2
:10082000C083C0829004B0E0FCD082D083121081DB
:10083000E4F0A3F0ED1211391211E2E475F0018039
:100840002B12139B50299004AFE0FF121115C083A7
:10085000C0829004B0E0FED082D083121081E4F018
:10086000A3F012113812107E74FFF5F01225B512A4
:1008700012AD12104E1212AD1232631212AD122FBF
:10088000E2EF700302199A9004B0E0FF9004AFE029
:10089000FE1212901210CFE4F0EF600302199A12C8
:1008A00012FEF583E4F002199A9004B0E07029A3D7
:1008B000E0FEA3E0FF12353FD31212D54009121219
:1008C000871210CF7401F01219D340239004AFE0C7
:1008D00075F09A12130280121219D3401212128765
:1008E000F583E5822FF582E43583F5837401F012F8
:1008F0001108C083C0829004B0E0FCD082D0831283
:1009000010811213891211181211E4E0FEA3E0FF06
:10091000D39464EE648094804023121110C083C08D
:10092000829004B0E0FCD082D08312108112135C5C
:10093000ED12113C1211E2E475F0018031C3EF9425
:100940009CEE6480947F50299004AFE0FF12111553
:10095000C083C0829004B0E0FED082D083121081A8
:10096000E4F0A3F012113812107E74FFF5F0122596
:10097000B5C39004B1E06480948050321212AD127D
:10098000322C1212AD122F8FEF60299004AF12118A
:10099000FCC083C0829004B0E0FED082D0831210ED
:1009A0008112113312107EECF0A3EDF080061212CA
:1009B000AD12104E1212AD1234AB9004AFE0FF1224
:1009C0001139F583C083C0829004B0E0FED082D09C
:1009D00083121066E0FEA3E09004AF121199C08369
:1009E000C0829004B0E0D082D083121081EEF0A3D8
:1009F000EFF0229004B1E0FEA3E0FF12353F900437
:100A0000B3E0FDD3EF9D7480F86E98227F0512311C
:100A1000BCEF600AE4900410F07F051234E5900208
:100A20002AE024FE601B147003021AC5147003022E
:100A30001B8B24036003021C00121382E49002E368
:100A4000F090022A7403F09002E6E0640160030271
:100A50001AC2F0900226E0FD7020C28A1213B090F4
:100A60000014E06009E4F0900418E04409F09003F9
:100A700072E06006E4F01214FBF0ED640160030222
:100A80001C001213B0900014E0FF7009900372E094
:100A90007003021C00EF6012900372E0600C1212EF
:100AA00011F0900418E044058034900014E06012C6
:100AB000900372E0700C121212F0900418E04401DE
:100AC000801C900014E06003021C00900372E07030
:100AD00003021C00121211F0900418E04404F0C24A
:100AE0008A22022A2D12150C90021FE07003021BAD
:100AF000649002E3E004F0E49004A0F0900013E0BE
:100B0000FF9004A0E0C39F507BE4FF9004A0E0FEB0
:100B10001211C7121317EE12113CF5831214A6EC32
:100B2000F0A3EDF09004A0E0FE1211C7121317EE2F
:100B30001212011214A61212CEEFB409CE9004A024
:100B4000E0FF1210F9E4F0A3F0EF12125E7404F06B
:100B5000A3E4F0EFB40110E4900422F0A3F09004B9
:100B6000267404F0E4A3F0EFB40210E4900424F03F
:100B7000A3F09004287404F0E4A3F09004A0E0042F
:100B8000F0021ADC9002E3E0C394035003021C005D
:100B9000900012747EF0E4900220F09002E3F07F67
:100BA0000E1234F490022A7404F022900498E0B4F7
:100BB000020B7403F07F041234E51233A8900498FA
:100BC000E0B403107F041231BCEF60087F041234DC
:100BD000E512137D12303512150C12303590021FBC
:100BE000E0603D121FB6E49004A0F0900013E0FE18
:100BF0009004A0E0FFC39E5019123180123104907E
:100C000004A0E0FF122BBB1230359004A0E004F0EA
:100C100080D912332A12290D12233290022AEFF0C2
:100C2000223F3F3F3F3F3F3F3F3F00320032177080
:100C3000012C0258006402580004001E000A000A39
:100C4000000F0064000A000C000C0000000000000F
:100C5000000000000000000101010D0E0F0304055B
:100C6000060708090A0B0C000102003200320032AC
:100C700000320032003200320032003200320032E4
:100C800000320032003200320032003700370037C5
:100C9000003700370037003700370037003700379C
:100CA00000370037003700370037002800280028B9
:100CB00000280028002800280028002800280028F4
:100CC00000280028002800280028002D002D002DD5
:100CD000002D002D002D002D002D002D002D002DAC
:100CE000002D002D002D002D002D00500050005033
:100CF0000050005000500050005000500050005074
:100D00000050005000500050005000550055005554
:100D1000005500550055005500550055005500552B
:100D20000055005500550055005500460046004648
:100D30000046004600460046004600460046004683
:100D400000460046004600460046002D002D002DBE
:100D5000002D002D002D002D002D002D002D002D2B
:100D6000002D002D002D002D002D00C800C800C84A
:100D700000C800C800C800C800C800C800C800C833
:100D800000C800C800C800C800C800CD00CD00CD14
:100D900000CD00CD00CD00CD00CD00CD00CD00CDEB
:100DA00000CD00CD00CD00CD00CD00BE00BE00BE08
:100DB00000BE00BE00BE00BE00BE00BE00BE00BE43
:100DC00000BE00BE00BE00BE00BE002D002D002DE6
:100DD000002D002D002D002D002D002D002D002DAB
:100DE000002D002D002D002D002D00FA00FA00FA34
:100DF00000FA00FA00FA00FA00FA00FA00FA00FA23
:100E000000FA00FA00FA00FA00FA9004AFEFF0A33B
:100E1000EDF09004B37407F0ED603F90009FE06444
:100E200001700280089004B012134E702D1211C28E
:100E3000C083C0829004B0E0FED082D083121066DE
:100E40001214D6121240C083C0829004B0E0D08247
:100E5000D083121081E4F0A3F0229004AF1211FCB1
:100E6000C083C0829004B0E0FED082D08312108193
:100E700012131EEFA42433F582E5F0340012107E25
:100E8000121394FFEE9CFE9004B1F0A3EFF0123524
:100E90003F9004B3E0FDC31212DA4003021F3F1279
:100EA00010B9E06401703775F09AEE1211A3EF12D9
:100EB00011E5E0FEA3E0C3941EEE6480948040033D
:100EC000021F851211C2C083C0829004B0E0FED020
:100ED00082D083121066ECF0A3EDF0021F8590041F
:100EE000B1E0FEA3E0FF12123BC083C0829004B0C9
:100EF000E0FCD082D083121081EE8FF01225B5ED88
:100F00001211D6121327402912123BC083C08290BF
:100F100004B0E0FCD082D08312108112135CEDA4E7
:100F20002445F582E5F034001211E2E475F0018009
:100F30002812139B506F9004AFE0FF121240C08341
:100F4000C0829004B0E0FED082D083121081E4F021
:100F5000A3F012107174FFF5F01225B5021F85126F
:100F600011C2C083C0829004B0E0FED082D0831250
:100F700010661214D6FF1211A0C083C0829004B074
:100F8000E0FED082D083121081E0FCA3E0C3941E67
:100F9000EC64809480400E75F09AEF1213F02E12DC
:100FA00010D47401F01210B9E06401702812129F7D
:100FB0001210CFE00412129E1210CFE0D39405401D
:100FC000149004B0E0FF75F09AEE1210C612129D54
:100FD0001210CFE4F022E49004A2F09004A2E0FD0D
:100FE000C394095023E0FF75F0021211CAE0FAA37E
:100FF000E0FB75F002EF121201EAF0A3EBF0E4FF60
:101000001217931214E080D3E49004A1F09000131F
:10101000E0FF9004A1E0C39F400302217B12134034
:10102000E4F0A3F0EF25E024A9F582E43404F5838D
:10103000E4F0A3F0EF7003022172E49004A2F090B8
:1010400004A2E0FDC3940950189004A1E0FF121D12
:10105000EA9004A1E0FFA3E0FD1221811214E080D8
:10106000DEE49004A2F09004A2E0FFC394094003E0
:101070000220F2749F2F12135160189004A1E075A2
:10108000F09A121302F583E0640160079002E7E032
:10109000B401199004A112119FC083C0829004A2D0
:1010A000E0D082D083121081E4F0A3F09004A2E09B
:1010B000FF60599004A1E0FE1211A01214A6E0FCFA
:1010C000A3E0C39403EC64809480501A75F09AEE08
:1010D0001211A3C083C0829004A2E0D082D08312F8
:1010E0001081E4F0A3F09004A1E0FF1211A0C083EE
:1010F000C0829004A2E0D082D083121081E0FCA3D1
:10110000E0FDEF121342EC8DF01225B51214E0024F
:1011100020469004A1E0FF75F09AA42459F582E5D9
:10112000F03400F583E0FCA3E012112C241BF582BF
:10113000E5F03400F583ECF0A3EDF09004A1121378
:1011400040E0FCA3E012112C12122C2DFFEE3CFE0D
:101150009004A1E0FD75F00212115EEEF0A3EFF035
:101160009004BAE0602CEDB4011275F00212115E29
:10117000E0FFA3E09002E1CFF0A3EFF0EDB40212A4
:1011800075F00212115EE0FFA3E0900227CFF0A3FA
:10119000EFF09004A1E004F0021FEDE490021FF0D4
:1011A000229004AFEFF0A3EDF09004B37407F0EDDC
:1011B00070037404F09002E7E06401700280129002
:1011C000009FE06401700280089004B012134E701A
:1011D000381211F9C083C0829004B0E0FED082D0F2
:1011E0008312108112113312107EECF0A3EDF090F7
:1011F00004AF12119FC083C0829004B0E0D082D0AF
:1012000083121081E4F0A3F0229004AFE0FF1211EA
:1012100039F583C083C0829004B0E0FED082D083D1
:10122000121066121394FFEE9C9004B1F0A3EFF03D
:101230009004AF1214B9E06007E49004B1F0A3F099
:101240009004B1E0FEA3E0FF12353F9004B3E0FD4F
:10125000C31212DA40030222C19004B1E0FEA3E0FF
:10126000FF9004AF121113C083C0829004B0E0FC61
:10127000D082D0831210811213891211181211E436
:1012800012132740269004AF121113C083C082901E
:1012900004B0E0FCD082D08312108112135CED12F6
:1012A000113C1211E2E475F001802B12139B5029BE
:1012B0009004AFE0FF121115C083C0829004B0E02B
:1012C000FED082D083121081E4F0A3F01211381204
:1012D000107E74FFF5F01225B51213E712104E8040
:1012E00038C39004B1E064809480502D1213E7124B
:1012F000322C1213E7122F8FEF601E1211F9C083E8
:10130000C0829004B0E0FED082D08312108112110E
:101310003312107EECF0A3EDF09004AFE0FF121159
:1013200039F583C083C0829004B0E0FED082D083C0
:10133000121066E0FEA3E09004AF121199C083C0C2
:10134000829004B0E0D082D083121081EEF0A3EF3F
:10135000F02290022AE0640270309002E604F090DD
:10136000049BE0B4010890040F7401F08005E49040
:10137000040FF0900416E0B401089000007401F02E
:101380008005E4900000F07F0222E4FE900013E06C
:10139000FFEEC39F40030224D112130CE0640160EE
:1013A000030224CD74132E1212BCE0FC600302244D
:1013B0001C1213B0EE6401703A9002E5E0FD640186
:1013C000701B9002E4E0900418B40109E044091293
:1013D000121004801512120D1214F18016ED9004F3
:1013E00018B4020BE044051212101213FE8004120E
:1013F000120DF0EE640260030224C09002E5E0FDED
:101400006401701C9002E4E0900418B40106121309
:1014100035E48021E044041212101214F10224C0B9
:10142000ED900418B40205E044058003E04404F0A4
:10143000E4900014F0900372F00224C0EC640160A8
:10144000030224C01213B0EE640170499002E4E07C
:10145000FFB402081214FB1213388013EF640170FA
:101460002690021EE0900418B4010C121335E4908B
:1014700003721213FE801EE04402121338E490033C
:1014800072F01213B9800E900418E044021213385F
:10149000E4900372F0EE640270469002E4E0B4025D
:1014A000101214FBF09003727401F0900014F0809D
:1014B0002F90021DE06401701C9002E5E09004187A
:1014C000B40105E044098013E0440812121004F04E
:1014D0001213B8800B900418E0440812121004F0A4
:1014E00012130CE4F0900498E07002C28A0E0223FA
:1014F0006C7F0422BB010689828A83E0225002E7C6
:1015000022BBFE02E32289828A83E49322BB010C80
:10151000E58229F582E5833AF583E0225006E92544
:1015200082F8E622BBFE06E92582F8E222E582295E
:10153000F582E5833AF583E49322BB010689828A2A
:1015400083F0225002F722BBFE01F322F8BB010D0B
:10155000E58229F582E5833AF583E8F0225006E931
:101560002582C8F622BBFE05E92582C8F222EF8D4E
:10157000F0A4A8F0CF8CF0A428CE8DF0A42EFE22EB
:10158000BC000BBE0029EF8DF084FFADF022E4CC4F
:10159000F875F008EF2FFFEE33FEEC33FCEE9DEC18
:1015A000984005FCEE9DFE0FD5F0E9E4CEFD22ED5E
:1015B000F8F5F0EE8420D21CFEADF075F008EF2FA8
:1015C000FFED33FD4007985006D5F0F222C398FD99
:1015D0000FD5F0EA22C5F0F8A3E028F0C5F0F8E551
:1015E00082158270021583E038F022A3F8E0C5F07E
:1015F00025F0F0E582158270021583E0C838F0E826
:1016000022EB9FF5F0EA9E42F0E99D42F0E89C450E
:10161000F022ECF0A3EDF0A3EEF0A3EFF022A8820D
:101620008583F0D083D08212261512261512261536
:10163000122615E473E493A3C583C5F0C583C8C51A
:1016400082C8F0A3C583C5F0C583C8C582C822A4DB
:101650002582F582E5F03583F58322EF4E6012EFA7
:1016600060010EEDBB010B89828A83F0A3DFFCDEF3
:10167000FA2289F05007F709DFFCA9F022BBFEFC33
:10168000F309DFFCA9F022C0E0C083C082C0D0E82B
:10169000C0E0E9C0E0EAC0E0EBC0E0EFC0E0D2AFFC
:1016A000E5DB30E415E5DB30E1028022900417E54C
:1016B000DFF0900499E4F00227BAE5DB30E505900D
:1016C0000413803EE5DB30E12CE5DB30E0119004D3
:1016D0009D12335B1233641224EDF5DF0227BA90BA
:1016E000049AE0640160030227BA308A030227BA31
:1016F000D28A0227BA900499E0700DA3E5DFF0903A
:1017000004997401F00227BA90049AE0902D7B931B
:10171000FFB4FF0F900417E5DFF090049AE004F0A7
:101720000227B4EF640F702F90049D12335B900476
:101730009AE0FF123378540F12251A90049D123349
:101740005B90049AE0FF04F0123378FFE5DF54F079
:101750004F12251A0227B490049D12335B12336492
:10176000E5DF12252C90049AE0FF64147044E5DF55
:10177000B42025900410E06004E4F0800B90049CF9
:101780007401F0900498E4F090049B7401F09004CC
:1017900016E4F090023B04F0E5DFB4101590049CD1
:1017A000E4F0900498F0900416F090049BF09002FE
:1017B0003BF0EFB4161EE5DFB4200B900416740165
:1017C000F090049BE4F0E5DFB41009900416E4F017
:1017D00090049BF0900415E004F075DBFFD0E0FF6F
:1017E000D0E0FBD0E0FAD0E0F9D0E0F8D0D0D08261
:1017F000D083D0E03290049CE06006900498E0042E
:10180000F0900498E0B4010BE490049CF0900498EC
:10181000E004F0900498E0B40320D3900225E09413
:1018200064900224E09400500E900387E09464904A
:101830000386E09400400312137D90049BE0640152
:101840007049FF1213C24003022903EF25E0246A06
:10185000F582E4341C1211241211AF244AF582E4FB
:10186000341C1211241213641211B7248AF582E475
:10187000341C12112412136D1211B724AAF582E43C
:10188000341C1211241212C4022823900416E0649E
:10189000017049FF1213C25040EF25E0246AF5821F
:1018A000E4341D1211241211AF244AF582E4341DD0
:1018B0001211241213641211B7248AF582E4341D24
:1018C00012112412136D1211B724AAF582E4341DEB
:1018D0001211241212C4022874022903E4FF121305
:1018E000C25040EF25E024EAF582E4341C121124B2
:1018F0001211AF24CAF582E4341C121124121364AD
:101900001211B7240AF582E4341D12112412136D4A
:101910001211B7242AF582E4341D1211241212C4C4
:101920000228BE900203A3E090041CF0229004A1C0
:10193000747EF0E4A3F0900013E0FE9004A2E0FFB8
:10194000C39E4003022A1E1232CAEF60031213B86C
:101950001212B6E070791214E71213641213A5EF95
:101960001210FC121394EE9C40409004A2E09004EC
:10197000A1F01212BA7401F090021DE004F090027E
:10198000E4F09004A2E0FF241912130F7401F01286
:1019900035039004A2E0FF1235129004A2E0FF127A
:1019A00034169004A2E0FF1210209004A2E0FF126F
:1019B000329AEF60089004A21214B9E4F09004A2E5
:1019C000E0FF1232FAEF606DE490021E022A10125C
:1019D00014E712136D1213A5EF1210FC121394EEFC
:1019E0009C40179004A2E09004A1F012307CEF60BC
:1019F000441213821212B6E4F0229004A2E0FF1205
:101A000012BAE4F01235309004A2E0FF1233F490E1
:101A100004A2E0FF1235219004A2E0FF12343890B6
:101A200004A2E0241912130F7401F090021EE004C6
:101A3000F09002E5F09004A2E004F0022916900470
:101A4000A1E0FF900222E06F6002EFF0227E027FB1
:101A50000F7D007B017A00791512263B1230C2906F
:101A6000040FE090042B70057410F080037420F0D4
:101A7000900000E090042D70057410F08003742035
:101A8000F01227D5E4FE900013E0FFEEC39F400361
:101A9000022AF6E4FC75F09AEE1211181211E41203
:101AA000135CEE121293F583E5822C1210D4E4F04D
:101AB000EE1211D612135CEE1213F02C1210D41287
:101AC000129DF583E5822C1210D4E4F0CFEECFCD39
:101AD000ECCD12104E1234AB0CEC640970B712123C
:101AE000FEF583E4F0CFEECF123503123521123527
:101AF0001212353074132E1212BCE4F012130CE4DF
:101B0000F090021C747EF0E4A3F0A3F09002E4F0E5
:101B1000A3F00E022A66900222747EF0900012F06A
:101B2000E4900221F022E49004A2F0FF9004A1F0DE
:101B3000EF14601E14603514604C14605B24047054
:101B4000749004A37401F0A3742FF0A37458F002EE
:101B50002B8F1233589000011224EDFED3941F40B6
:101B6000031233711224D46E704B80431233589099
:101B700000021224EDFED3940640031233711224A6
:101B8000D46E703180291233589000031224EDFE78
:101B90001224D46E701F8017123358900004122440
:101BA000EDFE648B60031233711224D46E700690C4
:101BB00004A1E004F00FEF64056003022B10900411
:101BC000A1E0B40504A37401F09004A2E0FD600755
:101BD00090042CE0547FF0CFEDCF22CBEFCB12124C
:101BE00027FF12115AE0FCA3E0C39FEC9E4037127E
:101BF0001227FF7C007D0712254E12115AE0FCA32C
:101C0000E02FFFEC3EFE12125DEEF0A3EFF0121299
:101C100027FF12115AE0FCA3E0C39FFFEC9E1210B5
:101C2000F7EEF0A3EFF0EB6401702A1210F8121433
:101C3000AD40081210DCEEF0A3EFF01210F8121411
:101C40001F900422F0EDA3F012125D12141F9004F5
:101C500026F0EDA3F0EB6402702A1210F81214AD16
:101C600040081210DCEEF0A3EFF01210F812141F6F
:101C7000900424F0EDA3F012125D12141F900428BA
:101C8000F0EDA3F022758A50538AEF9004B87411D6
:101C9000F09004B77422F09004B97433F075997F12
:101CA000759A80E4FFFEC29620970AD29630970577
:101CB000E49004B8F00FBF00010EEF640A4E70E626
:101CC0007590FF75993F759AC0E4FEFF20970690C6
:101CD00004B77427F020960C9004B77426F0209770
:101CE000037428F00FBF00010EEF640A4E70DDE4AC
:101CF000F5AD75AEE075AF19F5AC7589FF75913E20
:101D000075991FF59675931CF59BF595F592F59AC7
:101D100075800CD28A9004BA04F022023144E49314
:101D2000A3F8E493A34003F68001F208DFF48029CE
:101D3000E493A3F85407240CC8C333C4540F4420BD
:101D4000C8834004F456800146F6DFE4800B0102AC
:101D5000040810204080902E69E47E019360BCA3AB
:101D6000FF543F30E509541FFEE493A360010ECFFA
:101D700054C025E060A840B8E493A3FAE493A3F824
:101D8000E493A3C8C582C8CAC583CAF0A3C8C582E4
:101D9000C8CAC583CADFE9DEE780BE0F00FF0000C6
:101DA0000000000000FFFFFFFFFFFFFFFFFF00003C
:101DB0000000000000000000000000000000000023
:101DC0000000000000000000000000000000000013
:101DD0000000000000000000000000000000000003
:101DE00000000000000000000000000000000000F3
:101DF00000000000000000000000000000000000E3
:101E000000000000000000000000000000000000D2
:101E100000000000000000000000009004A074100A
:101E2000F0A3E4F0A3743FF0A374FFF0E4FDFCF929
:101E3000900419E064AA705074AAF0758A10538A4D
:101E4000EF0000009004A0E0FEA3E02DF582EE3C40
:101E5000F583E493FF69F90DBD00010CBC2FE5BDCE
:101E6000FFE29004A2E0FEA3E0F5828E83E4936992
:101E700070089004197402F08005E4900419F0755C
:101E80008A50538AEF000000224102E300410229F8
:101E9000004102E600410014004103720041040FBA
:101EA00000410000004102260142022400004203DA
:101EB00086000041023B0041022B004102E7004145
:101EC00004990041049A00420411000041041300E7
:101ED00041041500410414004104171041049C0002
:101EE000410498004104100141049B004104160084
:101EF00000C0E0C0F0C083C082C0D0E8C0E0ECC049
:101F0000E0EDC0E0EEC0E0EFC0E0D2AF900229E02B
:101F100004F0C3940A4021E4F0900382E0FCA3E0C3
:101F2000FDA3E0FEA3E02401FFE43EFEE43DFDE46A
:101F30003CFC9003821225F2D0E0FFD0E0FED0E01E
:101F4000FDD0E0FCD0E0F8D0D0D082D083D0F0D06B
:101F5000E032902EC0E4F0902ECB74F7F0902F5822
:101F6000E0540F24F0902EC8F0902ECC7448F0125C
:101F700014CFA3743FF0902E40748112121AF0A374
:101F8000F0A30412121A7402F0A3F0902EC6741477
:101F9000F0902EC17490F0A37401F0A37480F0A3AC
:101FA0007407F043E310123477900013EFF022909F
:101FB00004B5EDF09004B4EFF0A3E0FE12126DF55D
:101FC00083E5822E1210D4E060359004B4E0121341
:101FD000CBC083C0829004B5E0D082D08312140CB1
:101FE000121094901C1C12118B40149004B5E0FF49
:101FF0009004B4E012126E1210CFE4F07F01227F41
:1020000000229004B5EDF09004B4EFF0A3E0FE12CE
:10201000127AF583E5822E1210D4E060359004B474
:10202000E01213D9C083C0829004B5E0D082D0837F
:1020300012140C121094901C1E12118B4014900458
:10204000B5E0FF9004B4E012127B1210CFE4F07FF1
:1020500001227F002290022BE024FE6011146025F3
:102060002403703730883490022B7402F0222088C9
:102070002A90022B7403F09002E77401F07F0E1295
:1020800034F40233CE7F0E1231F4EF600E7F0E1265
:1020900034F4E490022BF09002E7F0229004A3EFD6
:1020A000F0E0FF247312148AE0603490023BE06495
:1020B00001700EEF121087901C1012118B402080BF
:1020C0000F9004A3E0121087901C1612118B400F82
:1020D0009004A3E02473F582E43403121376227F84
:1020E00000227E007F807D007B017A047918122611
:1020F0003BE4900418F0A37402F0E4A3F090042AE7
:1021000074ABF090042C749EF09004B8E090041E20
:10211000F09004B7E090041FF09004B9E090042020
:10212000F0022B069004BAE060399002E112150229
:10213000500EEF9400EE940340069004B97487F0BB
:10214000900227121502500EEF9400EE9403400601
:102150009004B97487F0E49004BAF09004B9E09068
:10216000041EF02275200153A87F122C65123381C2
:1021700043A8801234BF1234D3758DE012345AEF65
:1021800024E0600A2410700AC283C2828004D283D1
:10219000D2821227D5122DFB438D201219EC80DC40
:1021A000CBEFCBEB64017017121146E0900468F09E
:1021B00012115AA3E0900469F0ECA3F0EDA3F0EB48
:1021C00064027017121146E090046CF012115AA3C9
:1021D000E090046DF0ECA3F0EDA3F0229004A1EFE9
:1021E000F0C3940F502BE0FF248A121426E06021E4
:1021F000EF12142E1210929004A112117F400F9032
:1022000004A1E0248AF582E43402121376227F00CE
:10221000227F00229004A5EFF0C3940F502BE0FF23
:10222000243C12143AE06021EF12144212109290F2
:1022300004A512117F400F9004A5E0243CF582E430
:102240003402121376227F00227F00229004B412FF
:1022500012F4502E9004B4E0FFEB12126E1210CF65
:10226000E0701FEB12126E1210CF12116C1213CB12
:10227000C083C0829004B4E0D082D08312140C12C8
:1022800025F2229004B41212F4502E9004B4E0FF10
:10229000EB12127B1210CFE0701FEB12127B1210A8
:1022A000CF12116C1213D9C083C0829004B4E0D055
:1022B00082D08312140C1225F2229004A3EFF0E0D6
:1022C000FF242C12144EE0601EEF121456121092CE
:1022D000901C0C12118B400F9004A3E0242CF5826B
:1022E000E43402121376227F00229004A3EFF0E080
:1022F000FF2403121462E0601EEF12146A1210929F
:10230000901C1812118B400F9004A3E02403F58257
:10231000E43400121376227F00229004A3EFF0E051
:10232000FF244B121476E0601EEF12147E121092FE
:10233000901C1812118B400F9004A3E0244BF582DF
:10234000E43402121376227F0022E4FFFE90001391
:10235000E0FDEEC39D501BEF1210F91213A7EE1211
:1023600010FCE0FAA3E0D39DEA9C4003CFEECF0E31
:1023700080DB900223EFF0229004A3E0FBA3E0FABD
:10238000A3E0F92290049AE0FF04F08F82758300A5
:10239000229004A27401F022E92FF9E43AFA02240F
:1023A000D490049D7401F0A37404F0A37418F0E4B5
:1023B000F5DA75DA4043DA2075D74075DA5843A963
:1023C0000875B80875F80822CBEFCBEBD3940F5003
:1023D0001C748A2B121426E07013748A2BF582E485
:1023E000340212116A12142EF5831225F222CBEF59
:1023F000CBEBD3940F501C743C2B12143AE07013A7
:10240000743C2BF582E4340212116A121442F583F3
:102410001225F2221212F6501C742C2B12144EE0CC
:102420007013742C2BF582E4340212116A121456C4
:10243000F5831225F2221212F6501C74032B12148B
:1024400062E0701374032BF582E4340012116A12F7
:10245000146AF5831225F2221212F6501C744B2BCB
:10246000121476E07013744B2BF582E434021211CF
:102470006A12147EF5831225F222E4FD900413E023
:102480006011900418E0FE54F0FDEE540FF0E4905B
:102490000413F0CFEDCF22121492FFFEEE901C2A0F
:1024A00093600974E82F12149EEEF00F0EEEB41034
:1024B000EB229003821225FE000000007E007F0FB9
:1024C0007D007B017A02793C02263BEFD3940350D6
:1024D0000D12127AF583E5822D1210D4E4F0227FDA
:1024E000051234E51233A8122F3290022A7401F03B
:1024F000022A2D75B28E75B6F9E4F5B743B20143E1
:10250000AA01023492EFD3940F5008748A2F121448
:1025100026E4F022EFD3940F5008743C2F12143AA3
:10252000E4F022EFD394035008742C2F12144EE4DD
:10253000F022EFD39403500874032F121462E4F0D6
:1025400022EFD394035008744B2F121476E4F02238
:10255000EFD39403500874732F12148AE4F022EE20
:1025600030E707C3E49FFFE49EFE22000000000066
:10257000000000000000000000000000000000005B
:10258000000000000000000000000000000000004B
:10259000000000000000000000000000000000003B
:1025A000000000000000000000000000000000002B
:103010000000000000000000000000000000000BA5
:00000001FF
