:100000000098000000010000C5060000000000008C
:1000100000000000000000000000000000000000E0
:1000200078FFE4B8200118F6D8F99000007F007E30
:1000300007E4F0A3DFFCDEFA75810702288D900546
:1000400012EFF0E0FF2402120C3DE0601AEF120CF8
:10005000FE12091F1209EB400E900512E024021255
:100060000C3DE4F07F01227F00220002244AEFD3FE
:100070009404500D120B4DF583E5822D1208F5E422
:10008000F02200022A26EFD39404500D120B5AF5E9
:1000900083E5822D1208F5E4F02200022FBB75F0F3
:1000A00002121FD1E0FCA3E0FD75F088EFA42455F7
:1000B000F582E5F03400F583EE75F002021FD19071
:1000C0000511E0FF75F002A42463F582E5F0340227
:1000D000F583E0FCA3E0FDEF75F002A42433F58284
:1000E000E5F03400F5832275F088EEA424C1F58292
:1000F000E5F03400F583E5822FF582E43583F5835E
:10010000E004F075F088EEA424C1F582E5F0340037
:10011000F583E5822FF582E43583F583229005246B
:10012000E0FEA3E0FF900522E0FD75F088A4248B9B
:10013000F582E5F03400F5832275F004121FD1E05A
:10014000F8A3E0F9A3E0FAA3E0FB9003CBE0FCA363
:10015000E0FDA3E0FEA3E022900510E0FF75F0882B
:10016000A42469F582E5F03400F583E0FCA3E0FD0A
:1001700075F002EFA42423F582E5F03400F583EC5A
:10018000F0A3EDF0900510E0FF25E02412F582E4E5
:100190003405F583E0FCA3E0FD75F002EFA4242311
:1001A000F582E5F03400F583E0FEA3E02DFFEE3CA0
:1001B000FE900510E075F002A4241BF582E5F034F2
:1001C00000F58322E4F0A3F0EF75F088A42467F52E
:1001D00082E5F0340022ECF0A3EDF0900522E0FF80
:1001E00075F088A42479F582E5F03400F58322EED9
:1001F0008FF0121F57ED75F088A4249DF582E5F06D
:100200003400F583EC75F002021FD19022FAC39BF3
:10021000FBEE9AFAED99F9EC98F8E493FE740193E9
:10022000FFE4FCFDC3021F83900522E0FF75F08808
:10023000A42443F582E5F03400F58322900524E000
:10024000FEA3E0FF900522E0FD75F088A4249DF553
:1002500082E5F03400F58322900522E0FF75F088F6
:10026000A42455F582E5F03400F58322900523E0BF
:10027000FF900522E0FE75F088A424B8F582E5F031
:10028000340022900511E0FF247BF582E43402F56E
:100290008322E490001AF09003B4F0900491E0906F
:1002A00003B5F054F0FFF022FDEC541FF0EDA3F085
:1002B00075F002EBA4242BF582E5F03400F583E021
:1002C000FCA3E0FDEC541F22900526E0FDEF9D7499
:1002D00080F86E9822902EC97420F07480902EC3FE
:1002E000F0A37409F02275F002EF121FD1E0FCA315
:1002F000E0FD75F08822E0FEA3E0C39DFFEE9C9038
:100300000524F0A3EFF0900522E0247FF582E43489
:1003100002F58322E04401F0E490001AF09003B467
:100320002275F002EBA42423F582E5F03400F58376
:10033000E022F074832FF582E43402F5832225E075
:100340002412F582E43405F583E4F0A3F0EF25E010
:10035000241AF582E43405F583E4F0A3F022F58352
:10036000E493FC740193FD75F002EFA422EF75F0A5
:1003700009A424CFF582E4340322EF75F009A42404
:1003800000F582E4340322900523E0FF900522E08B
:1003900075F088A424AFF582E5F0340022E0FEA3D6
:1003A000E0FFD3940AEE6480948022900522E0FF5F
:1003B000A3E0FD22EF2466FFEE34FEFE7C007D0A02
:1003C000121EF07D32121F02EF249AFFEE3401FE5E
:1003D00075F002EB22F0A3F0A3F0A3F0A322E0FE5D
:1003E000A3E0C39DFFEE9CFE22900511E0FF75F097
:1003F00002A42473F582E5F0340222E4F0A3F07540
:10040000F08822EDF0CBEFCBEBD394042275F0888B
:10041000EEA424CAF582E5F0340022F58375F002DB
:10042000EF021FD1EE8FF0121F5775F088ED22E01A
:10043000FCA3E0FDEF25E02412F582E43405F5830A
:10044000EC8DF0021F57E0FEA3E0C39DEE9C2274EA
:10045000942BF582E43402F5832274022BF582E4B6
:100460003400F5832274B42BF582E43402F5832240
:1004700074B62BF582E43403F58322E04406F09051
:10048000001A7401F022C39BFBEE9AFAED99F9EC85
:1004900098F822C3EF94F6EE6480947F22EB25E077
:1004A000242AF582E43424F58322E024AFF582E4A3
:1004B0003400F583E0640122C28A900491E0900345
:1004C000B5F022900524E0FEA3E0FF229003B5E002
:1004D000900491F022F583ECF0A3EDF0EF25E022FB
:1004E000E0FEA3E0FFC3EE940422E4900288F090C3
:1004F00002F8F02275F024A424F3F582E43403F525
:10050000832275F024A42424F582E43403F58322A5
:1005100025E025E02498F582E43402F5832225E0E5
:1005200025E02406F582E43400F5832225E025E069
:1005300024E4F582E43402F5832225E025E024BB9F
:10054000F582E43403F58322900522E0FFA3E0FD69
:1005500022900511E0FDC3940922F074842EF582E7
:10056000E43402F583E4F022FEA3E0FF75F002EB31
:1005700022E0FEA3E0FFD322E0FEA3E0C3941EEE40
:100580006480948022E0FCA3E0C3941EEC64809419
:100590008022E0FF900514E0FEEFC8EEC80822E0DC
:1005A000FCA3E0C39403EC648094802212200990A1
:1005B000050FE004F022902EC5E4F0902ECDF0A3BC
:1005C000F022F582E43402F58322ECF0A3EDF09002
:1005D0000510E004F0227401F0122F67900511E07D
:1005E000FF22FCA3E0FD75F00222EFA42443F58274
:1005F000E5F0340022EDA42455F582E5F034002224
:10060000902EC6F0902EC57401F0229002A87401BD
:10061000F09003B5E022ECF0A3EDF00F2275F004AA
:10062000121FD1021F94900511E004F022F09002F5
:1006300089F09002F9F022EF9400EE9403229005E5
:100640002D7487F022900522EFF0A3EDF09005269F
:100650007407F090052FE07003020F6790052212D7
:100660000A3BC083C082900523E0FED082D0831273
:100670000899120ACD120DCA120896120BBE12105A
:10068000F6120AAD4003020F0D120A4C1208F0E0F8
:100690006401702E75F088EE1209C3EF1209E5129D
:1006A0000D584003020F4A120A08C083C082900509
:1006B00023E0FED082D08312087EECF0A3EDF0029E
:1006C0000F4A120A1CC083C082900523E0FCD0822E
:1006D000D0831208991209CF120B7D4022120A24EE
:1006E000C083C082900523E0FCD082D08312089999
:1006F000120BDB120DD51209E2E475F0018028120D
:100700000C735066900522E0FF120A29C083C08254
:10071000900523E0FED082D083120899E4F0A3F084
:1007200012088974FFF5F0121F57020F4A120A08C7
:10073000C083C082900523E0FED082D08312087E61
:100740001209B6C083C082900523E0FED082D08318
:10075000120899120D65401275F088EF120A59F5CA
:1007600083E5822E1208F57401F0120A4C1208F08B
:10077000E0640160030210F51208C7E0D39405504D
:10078000030210F50210E0900523E060459000AFF1
:10079000E0640170028008900523120C8A70331205
:1007A0000A08C083C082900523E0FED082D0831265
:1007B000087EECF0A3EDF0900522E0120A29C08338
:1007C000C082900523E0D082D083120899E4F0A380
:1007D000F022900522120A3BC083C082900523E0DC
:1007E000FED082D083120899120ACD120DCA1208C7
:1007F00096120BBE1210F6120AAD400302108F12B1
:100800000A4C1208F0E06401702D75F088EE1209B0
:10081000C3120BFD120D5840030210CC120A08C07F
:1008200083C082900523E0FED082D08312087EEC44
:10083000F0A3EDF00210CC120A1CC083C082900518
:1008400023E0FCD082D0831208991209CF120D51F7
:100850009402EE648094804022120A24C083C082F5
:10086000900523E0FCD082D083120899120BDB1292
:100870000DD51209E2E475F001802EC3EF94FEEE6F
:100880006480947F5066900522E0FF120A29C0839D
:10089000C082900523E0FED082D083120899E4F054
:1008A000A3F012088974FFF5F0121F570210CC1242
:1008B0000A08C083C082900523E0FED082D0831254
:1008C000087E1209B6C083C082900523E0FED08264
:1008D000D083120899120D65401275F088EF120A44
:1008E00059F583E5822E1208F57401F0120A4C12B4
:1008F00008F0E06401701E1208C7E0D394054015AB
:10090000900523E0FF75F088EE120A591208F0E412
:100910001208E2E4F022900524F0A3EFF0122FAFCA
:10092000900526E0FDC322900510747EF090052FFF
:10093000E0605A9005117401F0900511E0FFC39436
:10094000024003021373747B2F120A6AE0701B903B
:100950000511E01208A4120C26402990051074011C
:10096000F0A3E0120A6874018014120BC91208B0D7
:10097000120C2640059005108007120A63E4120B42
:10098000127401F0900511E004F0021119E49005D1
:1009900011F0900019E0FF900511E0FEC39F4003A5
:1009A000021373EE64017076747B2E120A6AE07093
:1009B0003012089F120C264015900511E0120A68AB
:1009C0007401120B12120DB6122ED702136A1213F3
:1009D00082700302136A900511120AE9E4F002130F
:1009E0006A120A63E06401600302136A900511E071
:1009F000FE120BCEF583E0120DC2EE1208BBE0FA38
:100A0000A3E0C39DEA9C4007122DA3EF02136A12D4
:100A10000A63E4120B127401122E7702136A900516
:100A200011E0FF12081EEF6003120CCA900511E0DE
:100A3000120A68E0706212089F120C264038900576
:100A400011E0900510F0120A687401F0900288E03D
:100A500004F09002F8F0900511E0FF2483120B16C9
:100A6000120DB6122F76900511E0FF122E9D900503
:100A700011E0FF122ED71213826008900511120A9E
:100A8000E9E4F0900511E0FF122DD5EF7003021399
:100A90006AE4900289021365120BC91208B0120CA5
:100AA00026500302133D900511E0900510F0122D21
:100AB000A3EF700302136AE4FF900511E0FE120A2F
:100AC0003D120AC6EE1209AC120BFB120DF6EFB482
:100AD00009E7900511E0120A68E4F090001AE0FFBF
:100AE00070099003B4E07003021381EF601F90035C
:100AF000B4E06019120A72BF2003D38001C340051D
:100B0000E49003B5F09003B5E04405804890001AE6
:100B1000E0601F9003B4E07019120A73BF2003D382
:100B20008001C34005E49003B5F09003B5E04401B3
:100B3000802390001AE070699003B4E06063120AA9
:100B400072BF2003D38001C34005E49003B5F09049
:100B500003B5E04404F0900491F0C28A22120A63C3
:100B6000E4122E77900511E0FF122F85900511E019
:100B7000FF122EBA900511E02483120B167401F0B7
:100B8000900289E004F09002F9F0900511E004F081
:100B9000021172900510E0FF90028DE06F6002EF8D
:100BA000F022900511E0FF122D71EF22900522EF47
:100BB000F0A3EDF09005267403F0ED70037402F0DD
:100BC000900522E0FF1209A9F583C083C082900539
:100BD00023E0FED082D08312087E120BBE90052443
:100BE000F0A3EFF0122FAFC3120AA8400302147A49
:100BF0001208FDC083C082900523E0FCD082D08320
:100C0000120899120C0412090DEC120899120B7DAE
:100C10004024120905C083C082900523E0FCD082E5
:100C2000D083120899E4F0A3F0ED1209A91209E2A9
:100C3000E475F0018027120C735025900522E0FF27
:100C400012090AC083C082900523E0FED082D083BF
:100C50001208991209A412089674FFF5F0121F5792
:100C6000120B8B12084E120B8B122D02120B8B12D1
:100C70002AD3EF70030215A7900523E0FF90052209
:100C8000E0FE120B701208F0E4F0EF60030215A70B
:100C9000120BEDF583E4F00215A7900523E0703EFA
:100CA000A3E0FEA3E0FF122FAF900526E02402FD93
:100CB000E433FCD3EF9DEC6480F8EE648098400947
:100CC000120B671208F07401F01215E0D3120AA893
:100CD000402C900522E075F088120BF1801B121554
:100CE000E0900526E0FDD3120AAD4012120B67F525
:100CF00083E5822FF582E43583F5837401F01208D1
:100D0000FDC083C082900523E0FCD082D08312080E
:100D100099120C0412090D1209E4120D519464EE9B
:100D2000648094804023120905C083C0829005230B
:100D3000E0FCD082D083120899120BDBED1209ACD3
:100D40001209E2E475F001802DC3EF949CEE6480FB
:100D5000947F5025900522E0FF12090AC083C082CB
:100D6000900523E0FED082D0831208991209A412C4
:100D7000089674FFF5F0121F57C3900524E06480B5
:100D800094805037120B8B122CC9120B8B122B78BC
:100D9000EF602E900522120A3BC083C0829005238B
:100DA000E0FED082D083120899E0FCA3E0FD120996
:100DB000A8120896ECF0A3EDF08006120B8B120837
:100DC0004E120B8B120866900522E0FF1209A9F55E
:100DD00083C083C082900523E0FED082D0831208B6
:100DE0007E120BBE900522E01209C0C083C0829023
:100DF0000523E0D082D083120899EEF0A3EFF02211
:100E0000900524E0FEA3E0FF122FAF22900522EF11
:100E1000F0A3EDF09005267407F0ED70037404F074
:100E200090052FE070030216B8900522E0FF12092A
:100E3000A9F583C083C082900523E0FED082D083D1
:100E400012087E120AD6E06007E4900524F0A3F0B1
:100E5000120CA3121832120AAD40030217F9120C39
:100E6000A3900522120908C083C082900523E0FCEC
:100E7000D082D083120899120C0412090D1209E4D1
:100E8000120B7D4026900522120908C083C0829073
:100E90000523E0FCD082D083120899120BDBED12FF
:100EA00009AC1209E2E475F0018027120C73502599
:100EB000900522E0FF12090AC083C082900523E05A
:100EC000FED082D0831208991209A412089674FFEA
:100ED000F5F0121F570217F99000AFE0640170029D
:100EE0008008900523120C8A703E120A38C083C015
:100EF00082900523E0FED082D083120899E0FCA303
:100F0000E0FD1209A8120896ECF0A3EDF09005227E
:100F1000E01209C0C083C082900523E0D082D08354
:100F2000120899E4F0A3F022900522E0FF1209A92B
:100F3000F583C083C082900523E0FED082D0831267
:100F4000087E120AD6E06007E4900524F0A3F012B0
:100F50000CA3121832120AAD40030217BC120CA3E4
:100F6000900522120908C083C082900523E0FCD0BE
:100F700082D083120899120C0412090D1209E4128E
:100F80000B7D4026900522120908C083C08290057F
:100F900023E0FCD082D083120899120BDBED1209FA
:100FA000AC1209E2E475F0018027120C7350259011
:100FB0000522E0FF12090AC083C082900523E0FEEB
:100FC000D082D0831208991209A412089674FFF5F2
:100FD000F0121F57120D2812084E803DC3900524B1
:100FE000E0648094805032120D28122CC9120D2812
:100FF000122B78EF6023120A38C083C08290052339
:10100000E0FED082D083120899E0FCA3E0FD120933
:10101000A8120896ECF0A3EDF0900522E0FF12096B
:10102000A9F583C083C082900523E0FED082D083DF
:1010300012087E120BBE900522E01209C0C083C0C8
:1010400082900523E0D082D083120899EEF0A3EFBE
:10105000F022122FAF900526E0FDC322E4FE90009F
:1010600019E0FFEEC39F4003021A7E74832E120B19
:1010700016E064016003021A7A747B2E120A6AE099
:10108000FC6003021952EE6402704E120A7BBF200C
:1010900003D38001C34005E49003B5F09002F9E06A
:1010A000FD6401701B9002F8E09003B5B40109E003
:1010B0004409120AF7048015120AF4120E0D801664
:1010C000ED9003B5B4020BE04405120AF7120D3A95
:1010D0008004120AF4F0120CACEE64037051120A90
:1010E0007BBF2003D38001C34005E49003B5F0909B
:1010F00002F9E0FD6401701B9002F8E09003B5B4C2
:101100000106120C5BE48020E04404120AF7120E80
:101110000D8019ED9003B5B40205E044058003E0AD
:101120004404F0E490001AF09003B4F0120CACEE1A
:1011300064016003021A5F120C9A540FFFF0BF089B
:1011400003D38001C340129003B5E0B40203D380FF
:1011500001C34005E49003B5F0900291E0B4010AA8
:10116000120DEB4410F0900491F0E49002F6F002BE
:101170001A5FEC64016003021A5FEE640270601291
:101180000A7BBF2003D38001C34005E49003B5F080
:101190009002F8E0FFB4020B9003B5E0440A120C91
:1011A0005E8013EF64017026900289E09003B5B46D
:1011B000010C120C5BE49003B4120D3A801EE04463
:1011C00002120C5EE49003B4F0120CCB800E90037C
:1011D000B5E04402120C5EE49003B4F0120CACEEE5
:1011E0006403705D120A7BBF2003D38001C34005F6
:1011F000E49003B5F09002F8E0B402139003B5E078
:10120000440AF09003B47401F090001AF0802F901B
:101210000288E06401701C9002F9E09003B5B4010B
:1012200005E044098013E04408120AF704F0120CA8
:10123000CA800B9003B5E04408120AF704F0120CC0
:10124000ACEE64017039120C9A540FFFF0BF080322
:10125000D38001C340129003B5E0B40203D38001F0
:10126000C34005E49003B5F0900291E0B4010A1286
:101270000DEB4420F0900491F09002F67401F074AC
:10128000832E120B16E4F0EEB4010D9002A8E0B428
:101290000108C28AE4F08002C28A0E02183E7F046E
:1012A00022E4900511F0900511E0FFC3940940037A
:1012B000021CB990052FE07003021B3190051074D9
:1012C00001F0900510E0FEC394024003021CB0EE52
:1012D000B4010D902EC57410F0902ECEF0120AB508
:1012E000902EC074C2F0E4900512F0A3F0E5E22065
:1012F000E21A900513E004F07006900512E004F085
:10130000900512E0B407E6A3E0B4D0E1900510E048
:10131000FEB4010A900000742EF0A37418F053E29A
:10132000FB902EC5E4F0902ECEF0900000E0FCA3E0
:10133000E0F5828C83120ACDEE120A10C083C082BF
:10134000900511E0D082D083120899120DAA021ADA
:10135000A2EF902EC87014E0545FF0A3746AF0906E
:101360002EC3744AF0A37401F08009E044F0F074D5
:1013700020120ABD900511E09022E993902ECAF048
:10138000E4900510F0900019E0FF900510E0FEC316
:101390009F4003021CB074FC2E120DA2E0FF9005CA
:1013A00014F0E4F5E2EFC39408503B7415120DE01D
:1013B000C083C082120D728002C333D8FCD082D0A9
:1013C00083F0902ECD7401F0C083C082E0FFC8EEA0
:1013D000C8088002C333D8FCD082D083F0902EC0DE
:1013E00074C1F0021C24900514E024F8F074161265
:1013F0000DE0C083C082120D728002C333D8FCD0CE
:1014000082D083F0902ECE7401F0C083C082E0FFC2
:10141000C8EEC8088002C333D8FCD082D083F0EE77
:10142000B40306902EC97420F0EEB40403120AB57A
:10143000EEB40603120AB5EEB40703120AB5902EF5
:10144000C074C2F0E4900512F0A3F0900000742E76
:10145000F0A3E4F0900510E024FC120DA2E090054A
:1014600014F0E5E220E21A900513E004F070069013
:101470000512E004F0900512E07004A3E064C87067
:10148000CA53E2FB120D96900514E0FD75F002A41C
:10149000FFAEF0900001E02FF0900000E03EF0ED94
:1014A00090231A93FF900000E475F002121F6D85DF
:1014B000F082F583120ACDEF120A10C083C0829029
:1014C0000511E0D082D083120899120DAA021B6583
:1014D000900511E004F0021A8690028A7401F0224D
:1014E00090052FE07003021D569005107401F090D6
:1014F0000510E0FFC394024003021E56EF120B1EBC
:10150000900511F0120D315005121E5C80F6E4902A
:101510000511F0900511E0FFC394095048900510A3
:10152000E0FE1209C0120BFD120D7F501A75F088F3
:10153000EE1209C3C083C082900511E0D082D0832F
:10154000120899E4F0A3F09005101209BEC083C000
:1015500082900511E0D082D083120899120C0F12EC
:101560000E06021CF3120938EEF0A3EFF0900510FE
:10157000E004F0021CCFE4900511F0120D3150236D
:10158000E0FF75F002120A10E0FAA3E0FB75F0022A
:10159000EF120A40EAF0A3EBF0E4FF12138C120EF4
:1015A0000680D8E4900510F0900019E0FF90051037
:1015B000E0C39F4003021E56E0FF120B1EEF7003B4
:1015C000021E4DE4900511F0120D315005121E5C03
:1015D00080F6E4900511F0900511E0FFC3940940F6
:1015E00003021E4574AF2F120C8D6010900510E0A1
:1015F00075F088120BF1F583E0B4011A900510E044
:101600001209C0C083C082900511E0D082D083123D
:101610000899E4F0A3F0900511E0FF6042900510F6
:10162000E0FE1209C0120BFD120D7F501A75F088F2
:10163000EE1209C3C083C082900511E0D082D0832E
:10164000120899E4F0A3F09005101209BEC083C0FF
:1016500082900511E0D082D083120899120C0F12EB
:101660000E06021DB7120938EEF0A3EFF090051038
:10167000E004F0021D88E490028AF022900510E058
:10168000FF120E25900510E0FFA3E0FD1215EC906F
:101690000511E004F022BB010689828A83E0225012
:1016A00002E722BBFE02E32289828A83E49322BB03
:1016B000010CE58229F582E5833AF583E0225006A4
:1016C000E92582F8E622BBFE06E92582F8E222E55A
:1016D0008229F582E5833AF583E49322BB010689EA
:1016E000828A83F0225002F722BBFE01F322F8BB6C
:1016F000010DE58229F582E5833AF583E8F0225071
:1017000006E92582C8F622BBFE05E92582C8F22239
:10171000EF8DF0A4A8F0CF8CF0A428CE8DF0A42EED
:10172000FE22BC000BBE0029EF8DF084FFADF0223D
:10173000E4CCF875F008EF2FFFEE33FEEC33FCEE4F
:101740009DEC984005FCEE9DFE0FD5F0E9E4CEFD42
:1017500022EDF8F5F0EE8420D21CFEADF075F00815
:10176000EF2FFFED33FD4007985006D5F0F222C36E
:1017700098FD0FD5F0EA22C5F0F8A3E028F0C5F0F7
:10178000F8E582158270021583E038F022A3F8E0B4
:10179000C5F025F0F0E582158270021583E0C838A7
:1017A000F0E822EB9FF5F0EA9E42F0E99D42F0E876
:1017B0009C45F022ECF0A3EDF0A3EEF0A3EFF022B5
:1017C000A8828583F0D083D082121FB7121FB71270
:1017D0001FB7121FB7E473E493A3C583C5F0C58395
:1017E000C8C582C8F0A3C583C5F0C583C8C582C873
:1017F00022A42582F582E5F03583F58322EF4E6041
:1018000012EF60010EEDBB010B89828A83F0A3DF2A
:10181000FCDEFA2289F05007F709DFFCA9F022BBB1
:10182000FEFCF309DFFCA9F022CBEFCB120B011277
:101830000D48120998E0FCA3E0C39FEC9E50030200
:1018400020CB75F002EB120998E0120D48A4242B6E
:10185000F582E5F03400F583EEF0A3EFF0120B0112
:10186000120D48120998E0FCA3E0C39FFFEC9EFE16
:1018700075F002EB1208BBEEF0A3EFF0120C7DE462
:1018800093FE740193FF75F002EB1208BBE0FCA31A
:10189000E0FDD39FEC9E4030120C7DE493FE74017A
:1018A00093FFC3ED9FFFEC9EC313FEEF13FF120CDB
:1018B0007D7401932FFFE4933EFE75F002EB120856
:1018C000BBEEF0A3EFF0802375F002EB1208BBE053
:1018D000FEA3E0FF7C007D63121EF00D121F027557
:1018E000F002EB1208BBEEF0A3EFF075F002EB1282
:1018F00008BBE0FEA3E0C39450EE9400500B75F0DB
:1019000002EB1208BBE4F0A3F0EB6402703475F054
:1019100002EB1208BB120D51949AEE9401400B1287
:101920000B941208BBEEF0A3EFF075F002EB120877
:10193000BBE0FCA3E0900494120A88900498F0EDB8
:10194000A3F0EB6403703475F002EB1208BB120DC8
:1019500051949AEE9401400B120B941208BBEEF0D6
:10196000A3EFF075F002EB1208BBE0FCA3E09004DB
:1019700096120A8890049AF0EDA3F0EB6401701BB4
:1019800075F002EB1208BB120A9F9004B4F0EDA3AD
:10199000F0120A909004B8F0EDA3F022900293E0C8
:1019A00024FE601B14602114700302225324036080
:1019B000030222E89002937402F0E49002F7F090A0
:1019C00002937403F002254D121A8190028AE0708E
:1019D000030222319002F7E004F0E490050FF0904A
:1019E0000019E0FF90050FE0C39F5065E4FF9005EC
:1019F0000FE0FE120A0D120AC6EE1209AC120BFB22
:101A0000ECF0A3EDF090050FE0FE120A0D120AC6ED
:101A1000EE120A40120BFD120DF6EFB409D090053C
:101A20000FE0FF1208B8E4F0A3F0EFB40207E4906F
:101A30000494F0A3F0EFB40307E4900496F0A3F04D
:101A4000EFB40107E49004B4F0A3F0120D8F02216B
:101A5000BF9002F7E0C3940350030222E8900016FF
:101A6000747EF0E490028BF09002F7F09002937491
:101A700004F022121A819003BAE0B401189002F621
:101A8000E0B4010C120C98E4F07420F0900491F092
:101A9000E49003BAF09002FBE060189002F6E0B424
:101AA000010C120C98E4F07410F0900491F0E490A2
:101AB00002FBF090028AE0604F121CC090052FE0FC
:101AC000601590050F7401F090050FE0FFC39402BC
:101AD0005028120D8C80F1E490050FF0900019E071
:101AE000FE90050FE0FFC39E5010122B26122C0C07
:101AF00090050FE0FF120D8C80E2122D3B121107B2
:101B000012183C900293EFF0223F3F3F3F3F3F3F90
:101B10003F3F00320032177002580004001E0032AE
:101B2000000A000F0064000A000A00000000000024
:101B3000000000000001010001010B0C0D0E0F055B
:101B4000060708090A0001040203003200320032CD
:101B500000320032003200320032003200320032F5
:101B600000320032003200320032003700370037D6
:101B700000370037003700370037003700370037AD
:101B800000370037003700370037002800280028CA
:101B90000028002800280028002800280028002805
:101BA00000280028002800280028002D002D002DE6
:101BB000002D002D002D002D002D002D002D002DBD
:101BC000002D002D002D002D002D006E006E006EEA
:101BD000006E006E006E006E006E006E006E006E95
:101BE000006E006E006E006E006E00730073007376
:101BF000007300730073007300730073007300734D
:101C00000073007300730073007300640064006469
:101C100000640064006400640064006400640064A4
:101C200000640064006400640064002D002D002D39
:101C3000002D002D002D002D002D002D002D002D3C
:101C4000002D002D002D002D002D00FA00FA00FAC5
:101C500000FA00FA00FA00FA00FA00FA00FA00FAB4
:101C600000FA00FA00FA00FA00FAC0E0C083C0826D
:101C7000C0D0E8C0E0E9C0E0EAC0E0EBC0E0EFC0FF
:101C8000E0D2AFE5DB30E41B90052C7401F0E5DB1E
:101C900030E102802B900489E5DFF090050AE4F042
:101CA000022532E5DB30E50E9004867401F09005E4
:101CB0002CE4F0022532E5DB30E126E5DB30E011F3
:101CC00090050C122E04122E0D121E8FF5DF022528
:101CD0003290050BE064087079208A76D28A02255A
:101CE0003290050AE0700DA3E5DFF090050A74015B
:101CF000F002253290050BE09028D293FFB4FF0E3E
:101D0000900489E5DFF090050BE004F0803EEF647D
:101D10000F90050C702B122E0490050BE0FF122E75
:101D200021540F121EBC90050C122E0490050BE0DE
:101D3000FF04F0122E21FFE5DF54F04F121EBC808D
:101D40000B122E04122E0DE5DF121ECE900488E039
:101D500004F075DBFFD0E0FFD0E0FBD0E0FAD0E08C
:101D6000F9D0E0F8D0D0D082D083D0E0327E027FAC
:101D7000747D007B017A00791B121FDD122C50123A
:101D800026DBE4FE900019E0FFEEC39F400302262D
:101D900007E4FC75F088EE12090D1209E4120BDB62
:101DA000EE120B73F583E5822C1208F5E4F0EE12C7
:101DB00009D6120BDBEE120A59F583E5822C1208C4
:101DC000F5E4F075F088EEA424C1F582E5F0340066
:101DD000F583E5822C1208F5E4F0CFEECFCDECCD03
:101DE00012084E1208660CEC640970A7120BEDF590
:101DF00083E4F0CFEECF122F67122F85122F7612C9
:101E00002F94747B2E120A6AE4F074832E120B1640
:101E1000E4F0900287747EF0E4A3F0A3F09002F85F
:101E2000F0A3F00E02256490028D747EF0900016EF
:101E3000F0E490028CF022758A50538AEF90052BC3
:101E40007411F090052A7422F090052D7433F0750A
:101E5000994F759AA0E4FFFEC29600000020970EED
:101E6000D29600000030970690052B7487F00FBFC4
:101E700000010EEF640A4E70DFE4FEFFC296000020
:101E80000020950ED29600000030950690052B7428
:101E900087F00FBF00010EEF640A4E70DF7590FFF0
:101EA00075991F759AE0000000000000000000E432
:101EB000FEFF30950630960320970690052A74871A
:101EC000F00FBF00010EEF640A4E70E6E4F58BF5EB
:101ED000AD75AED875AF19F5AC7589FF75913E75C6
:101EE000992775960275931CF59BF595F592F59AD1
:101EF00075800CD28A90052E04F022E4FF90001920
:101F0000E0FEEFC39E5057EF25E024CAF582E4348B
:101F100023120B3E246BF582E5F03402120CB5243B
:101F2000AAF582E43423120B3E2463F582E5F034F3
:101F300002120CB524EAF582E43423120B3E120B94
:101F4000D2120CB5240AF582E43424120B3E243B51
:101F5000F582E5F03400F583120DF60226DD9002DD
:101F600065A3E09004BCF0900267A3E090048CF0BD
:101F7000900269A3E090048DF09004A1E0FFB410FA
:101F8000089005307410F0800AEFB42006900530F8
:101F90007420F09004AEE0FFB4100FE4900291F0D2
:101FA0009004AEF09002FB04F022EFB4200EE49017
:101FB00004AEF090029104F09003BAF022E4900590
:101FC00011F0FF900510F0EF14601E1460351460DE
:101FD0004C14605B240470749005127401F0A374B7
:101FE0002FF0A37458F0022826122E01900001123F
:101FF0001E8FFED3941F4003122E1A121E766E708F
:102000004B8043122E01900002121E8FFED39406C5
:102010004003122E1A121E766E70318029122E0184
:10202000900003121E8FFE121E766E701F80171214
:102030002E01900004121E8FFE648B6003122E1A74
:10204000121E766E7006900510E004F00FEF640526
:1020500060030227A7900510E0B40504A37401F003
:10206000900511E0FD600790049EE0547FF0CFEDF5
:10207000CF22022C90E493A3F8E493A34003F680CC
:1020800001F208DFF48029E493A3F85407240CC874
:10209000C333C4540F4420C8834004F4568001461F
:1020A000F6DFE4800B0102040810204080902A7DB6
:1020B000E47E019360BCA3FF543F30E509541FFE4A
:1020C000E493A360010ECF54C025E060A840B8E4BB
:1020D00093A3FAE493A3F8E493A3C8C582C8CAC53E
:1020E00083CAF0A3C8C582C8CAC583CADFE9DEE7D0
:1020F00080BE0F00FFFFFFFFFF000000FFFFFFFF9C
:10210000FFFFFFFFFF0000000000FFFFFFFFFFFFDA
:10211000FFFFFFFFFFFF000000000000FFFFFFFFC9
:10212000FFFFFFFF0000FFFFFFFFFFFFFFFFFFFFBD
:10213000FFFF0000000000000000000000000000A1
:10214000000000000000000000000000000000008F
:10215000000000000000000000000000000000007F
:10216000000000000000000000000000000000006F
:10217000000090050F7408F0A3E4F0A3743FF0A3EF
:1021800074DFF0E4FDFCF990048BE064AA704F74F6
:10219000AAF0758A10538AEF00000090050FE0FE48
:1021A000A3E02DF582EE3CF583E493FF69F90DBDC4
:1021B00000010CBC37E5BDDFE2900511E0FEA3E0B5
:1021C000F5828E83E49369700790048B04F0800598
:1021D000E490048BF0758A50538AEF00000022903F
:1021E0002EC0E4F0902ECB74F4F0902F58E0540FF2
:1021F0002450902EC8F0902ECC7448F0902EC974C4
:1022000028F0A3743FF0902E407481120BB5120B8E
:10221000B504120BB57402F0A37482F0A37402F03B
:10222000A3F0902EC67414F0902EC17490F0A37495
:1022300001F0A37420F0A37409F043E310122F11EE
:10224000900019EFF022C0E0C0F0C083C082C0D07F
:10225000E8C0E0ECC0E0EDC0E0EEC0E0EFC0E0D2EE
:10226000AF900292E004F0C3940A4017E4F0120920
:102270002A2401FFE43EFEE43DFDE43CFC9003CB58
:10228000121F94D0E0FFD0E0FED0E0FDD0E0FCD003
:10229000E0F8D0D0D082D083D0F0D0E03241052C0D
:1022A000004105301041052F004102F70041029224
:1022B00000410291004103BA004102FB004102F6D5
:1022C000004103B5004102FA0041001A004103B485
:1022D000004104830041050A0041050B00420484CB
:1022E0000000410486004104880041048700410445
:1022F000891000900528EDF0900527EFF0A3E0FE8F
:10230000120B5AF583E5822E1208F5E06035900530
:1023100027E0120CE2C083C082900528E0D082D072
:1023200083120919120C669023001209FA401490C6
:102330000528E0FF900527E0120B5B1208F0E4F09F
:102340007F01227F0022CBEFCBEB64027022120BC5
:1023500001120DC2EB120998E09004DAF075F00258
:10236000EB120998A3E09004DBF0ECA3F0EDA3F0EE
:10237000EB64037022120B01120DC2EB120998E0FC
:102380009004DEF075F002EB120998A3E09004DFF0
:10239000F0ECA3F0EDA3F022900528EDF0900527D6
:1023A000EFF0A3E0FE120B4DF583E5822E1208F547
:1023B000E06032900527E0120CD4C083C082900503
:1023C00028E0D082D0831209199022FE1209EE4033
:1023D00014900528E0FF900527E0120B4E1208F03C
:1023E000E4F07F01227F0022900530E0FFB4100E60
:1023F0000090052FE064017032F053AAF722EF64D9
:1024000020702890052F04F0902ECBE4F043AA080A
:10241000122E51122E51122E51122E517586017507
:102420008A50538AEF902ECB74F4F02290052EE060
:10243000603D900017120CC05008120E1740031296
:102440000E1E9002F4120CC05008120E1740031218
:102450000E1E90028F120CC05008120E174003126D
:102460000E1EE490052EF090052DE0900490F022D1
:102470007E007F807D007B017A04798A121FDDE473
:10248000900491F090048B04F090049C74ABF09055
:10249000049E7498F090052BE090048EF090052A2D
:1024A000E090048FF090052DE0900490F002279DBD
:1024B000122F5753A87F122617122E2A43A88012D4
:1024C0002FA3122F45122EF4EF24E0600A2410707F
:1024D0000AC283C2828004D283D2821226DB1229EE
:1024E00052122BC812217C80DC900527120BE3507E
:1024F00030900527E0FFEB120B4E1208F0E0702140
:10250000EB120B4E1208F07401F012092AFFEB12C5
:102510000CD4C083C082900527E0D082D083120DF6
:10252000FD22900527120BE35030900527E0FFEBCA
:10253000120B5B1208F0E07021EB120B5B1208F03B
:102540007401F012092AFFEB120CE2C083C08290E2
:102550000527E0D082D083120DFD22E4FF90052FE5
:10256000E0702DE4FE900019E0FDEEC39D501C12BA
:1025700008B7E0FCA3E0FDEE1208B8E0FAA3E0D350
:102580009DEA9C4003CFEECF0E80DA90028EEFF0F2
:1025900022900512EFF0E0FF2494120C32E060204C
:1025A000EF120CF012091F120C669022F41209FAB5
:1025B000400E900512E02494120C32E4F07F0122C8
:1025C0007F0022900512EFF0E0FF24B6120C53E0DA
:1025D0006020EF120D1A12091F120C669022F812D9
:1025E00009FA400E900512E024B6120C53E4F07F75
:1025F00001227F0022900512EFF0E0FF24B4120CBC
:1026000048E0601AEF120D0C12091F1209EB400E80
:10261000900512E024B4120C48E4F07F01227F0000
:1026200022900512E0FBA3E0FAA3E0F92290050B4B
:10263000E0FF04F08F82758300229005117401F091
:1026400022E92FF9E43AFA021E7690050C7401F0A3
:10265000A37404F0A3748AF0E4F5DA75DA4043DA7F
:102660002075D74075DA5843A90875B80875F80879
:1026700022E4FFFE90052CE0600B0FBF00010EBEB0
:102680000BF2BFB8EF758EC1758DA0E4F586438A55
:1026900084758703000022F0122F94900511E0FF4B
:1026A000120BE55017120C2FE07011120C2F740151
:1026B000F012092AFFEB120CF0121F9422120BE504
:1026C0005017120C3AE07011120C3A7401F0120912
:1026D0002AFFEB120CFE121F9422120BE550171268
:1026E0000C45E07011120C457401F012092AFFEB41
:1026F000120D0C121F9422120BE55017120C50E011
:102700007011120C507401F012092AFFEB120D1A0D
:10271000121F9422E4FD900486E0601190048AE088
:10272000FE54F0FDEE540FF0E4900486F0CFEDCFB0
:1027300022120D96FFFEEE90230A93600974FC2F7F
:10274000120DA2EEF00F0EEEB410EB229003CB129E
:102750001FA0000000007E007F0B7D007B017A023D
:1027600079A9021FDD75B28E75B6F9E4F5B743B2EB
:102770000143AA01022F2C904006E493B4180200F2
:102780002253A87F0080FDEFD39404500874942F47
:10279000120C32E4F022EFD39404500874022F128A
:1027A0000C3DE4F022EFD39404500874B42F120CC3
:1027B00048E4F022EFD39404500874B62F120C535F
:1027C000E4F0221229BF9002937401F002254DEE2D
:1027D00030E707C3E49FFFE49EFE22D2AF00320041
:1027E00000000000000000000000000000000000E9
:1027F00000000000000000000000000000000000D9
:1028000000000000000000000000000000000000C8
:1028100000000000000000000000000000000000B8
:1037F000000000000000000000000000000000C405
:1038000000000000000000000000000000000000B8
:1038100000000000000000000000000000000000A8
:00000001FF
