:10000000009F000000010000D084000000000000FC
:1000100000000000000000000000000000000000E0
:10002000801878FFE4B8200118F6D8F99000007F16
:10003000007E07E4F0A3DFFCDEFA758120022F3E8C
:1000400012131A5024746F2B1214BCE0701B746FBF
:100050002BF582E4340312116E25E025E02472F5BD
:1000600082E43403F5831229B72200022A2CEFD34D
:100070009403500D121291F583E5822D1210FCE4C9
:10008000F022000230D875F0021229F4E0FCA3E05F
:10009000FD75F09AEFA42445F582E5F03400F58370
:1000A000EE75F0020229F425E025E02472F582E4E1
:1000B0003403F583E0F8A3E0F9A3E0FAA3E0FB90B2
:1000C000037EE0FCA3E0FDA3E0FEA3E0C39BFBEE08
:1000D0009AFAED99F9EC98F82290049EE0FF75F0F9
:1000E00002A42401F582E5F03402F583E0FCA3E0EC
:1000F000FDEF75F002A42427F582E5F03400F583C6
:10010000229004ACE0FF9004ABE0FE75F09AA424CA
:10011000A8F582E5F03400F583E5822FF582E43519
:1001200083F583229004ADE0FEA3E0FF9004ABE0F2
:10013000FD75F09AA4247BF582E5F03400F5832266
:10014000EF2424FFEE34FAFE7C007D0A1229137D91
:100150001E122925EF24DCFFEE3405FEEB75F002BC
:10016000A42421F582E5F03400F58322E0FCA3E02D
:10017000FDEF75F09AA42457F582E5F0340022F5DE
:1001800083E493FC740193FD75F002EFA422F583E0
:100190007401F090037EE0FCA3E0FDA3E0FEA3E089
:1001A000FFEB2275F002EBA4241BF582E5F034008E
:1001B000F583E0FCA3E0FD75F002EBA42415F582C5
:1001C000E5F03400F58322C39DFFEE9CFEE075F060
:1001D0009AA42469F582E5F03400F58322E025E055
:1001E0002418F582E4341EF583E493FE740193FF32
:1001F000E4FCFDC30229A62407F582E5F03402F5EC
:1002000083ECF0A3EDF0EF25E0229004ABE0FF7566
:10021000F09AA42433F582E5F03400F5832275F0DA
:100220009AA4248DF582E5F03400F583EC75F00294
:100230000229F49004ABE0FF75F09AA42445F582FE
:10024000E5F03400F58322E04401F0E4900014F07E
:1002500090036E2275F002EBA4241BF582E5F034C6
:1002600000F5832290049EE0FF2413F582E434021B
:10027000F58322F074192EF582E43402F58322F01E
:10028000A3F0A3F0A3F0A3F0A3F0A32290049DE0B9
:10029000FF25E0249FF582E43404F583229004AB2B
:1002A000E0FD75F09AA4248DF582E5F03400F58325
:1002B00022EF75F009A42484F582E4340322EF755B
:1002C000F009A424E7F582E43402229004ACE0FFB4
:1002D0009004ABE075F09AA4249FF582E5F0340019
:1002E00022E4F075F09AEEA424B1F582E5F0340032
:1002F000229004ABE0FFA3E0FD22242DF582E5F07F
:100300003400F583ECF0A3EDF00F2290049EE0FFA3
:1003100075F002A4240DF582E5F034022290049ECB
:10032000E02416F582E43402F583229004AFE0FD68
:10033000EF9D7480F86E9822EDF0CBEFCBEBD39469
:10034000032275F09AEEA424CCF582E5F034002265
:10035000E04406F09000147401F02275F002EF12F0
:1003600029F4E0FCA3E0FD75F09A22E0FEA3E0FF93
:10037000D3940AEE6480948022900414E054F0F048
:1003800022E0FEA3E0C39D22EB25E024D8F582E421
:10039000341FF58322E0249FF582E43400F583E0E6
:1003A000640122E4F0A3F075F09A22F583E4F07F73
:1003B0000122902EC97420F0902EC37480F0A322E5
:1003C000E0FCA3E0FDEC541F22E4900494F09002C2
:1003D000287402F022EE8FF012297A75F09AED223D
:1003E000C3EF94F6EE6480947F22E490021DF090B7
:1003F00002E0F022900013E0FEEFC39E222401F5FC
:1004000082E5F034022275F024A4249FF582E434BE
:1004100003F5832275F024A42402F582E43403F565
:1004200083229004ABE0FFA3E0FD22A424A8F58280
:10043000E5F03400F583E58222E0FEA3E02DFFEE37
:100440003CFE90049DE02290049EE090049DF022EA
:10045000F0741A2EF582E43402F583E4F02275F08C
:10046000040229F4E0FF9004A0E0FEEFC8EEC80803
:1004700022900414E0440A22F582E43402F5832237
:1004800025E025E024A3F582E4340222F582E43459
:1004900002F5832225E025E0244CF582E434022293
:1004A000F582E43402F5832225E025E0242DF5824F
:1004B000E4340222F582E43400F5832225E025E0CD
:1004C0002406F582E4340022F582E43402F5832226
:1004D00025E025E02497F582E4340222F582E43415
:1004E00003F58322902EC5E4F0902ECDF0A3F022E8
:1004F000F582E43402F5832275F002EF0229F4E07C
:10050000FEA3E0FFD394DCEE940522902EC6F0907B
:100510002EC57401F022F090021C747EF0E4A3F06A
:1005200022ECF0A3EDF09004ABE02290049EE004F6
:10053000F022F090021EF09002E1F022EEF0A3EF24
:10054000F0900494E022900226E0FE70529002287F
:10055000E0640260030215BC9002E204F090021411
:10056000E0B40103121334900215E0B401069003C5
:100570006E7401F0900497E0B4010890040B7401CC
:10058000F08005E490040BF0900412E0B4010890B0
:1005900000007401F08005E4900000F07F0222EE7C
:1005A00064017038900228E0640270309002E20426
:1005B000F0900497E0B4010890040B7401F08005FA
:1005C000E490040BF0900412E0B401089000007471
:1005D00001F08005E4900000F07F0222E4FE90002C
:1005E00013E0FFEEC39F4003021782900226E0FC57
:1005F0007050121254E06401704874132E12124BA2
:10060000E0FF7016121359EEB40104E04409F0EE55
:1006100064027021121451F0801BEF6401701612F5
:100620001359EEB40104E04401F0EEB40207900463
:1006300014E04402F0121254E4F0900494E07002CA
:10064000C28AEC6401600302177E121254E0640156
:10065000600302177E74132E12124BE0FC6003023B
:1006600016CD121359EE6401703A9002E1E0FD6478
:1006700001701B9002E0E0900414B40109E0440909
:1006800012122A0480151212271215128016ED90EC
:100690000414B4020BE0440512122A121430800430
:1006A000121227F0EE640260030217719002E1E07B
:1006B000FF6401701C9002E0E0900414B401061283
:1006C0001330E48021E0440412122A12151202179A
:1006D00071EF900414B40205E044058003E0440483
:1006E000F0E4900014F090036EF0021771EC6401D6
:1006F0006003021771121359EE640170499002E011
:10070000E0FFB402081214511213338013EF640196
:10071000702690021EE0900414B4010C121330E411
:1007200090036E121430801EE04402121333E490E2
:10073000036EF01213CB800E900414E044021213E7
:1007400033E490036EF0EE640270469002E0E0B491
:100750000210121451F090036E7401F0900014F026
:10076000802F90021DE06401701C9002E1E0900473
:1007700014B40105E044098013E0440812122A046D
:10078000F01213CA800B900414E0440812122A04D9
:10079000F0121254E4F0900494E07002C28A0E0247
:1007A00015BE7F04229004ABEFF0A3EDF09004AFF0
:1007B0007403F0ED70037402F09004ABE0FF1211CB
:1007C00052F583C083C0829004ACE0FED082D08317
:1007D000121066121361FFEE9CFE9004ADF0A3EFC1
:1007E000F01237B8C312130B400302187B12110426
:1007F000C083C0829004ACE0FCD082D08312108110
:100800001213B5121114EC12108112134B40241262
:10081000110CC083C0829004ACE0FCD082D0831263
:100820001081E4F0A3F0ED12115212120AE475F0F7
:1008300001802B1213C050299004ABE0FF1211115C
:10084000C083C0829004ACE0FED082D083121081BD
:10085000E4F0A3F012115112107E74FFF5F012298A
:100860007A1212D112104E1212D11234D11212D1A8
:10087000123241EF700302198C9004ACE0FF900437
:10088000ABE0FE1212B41210F7E4F0EF60030219AD
:100890008C121322F583E4F002198C9004ACE07002
:1008A00029A3E0FEA3E0FF1237B8D312130B4009CF
:1008B0001212AB1210F77401F01219C54023900404
:1008C000ABE075F09A12132680121219C54012126D
:1008D00012ABF583E5822FF582E43583F58374014D
:1008E000F0121104C083C0829004ACE0FCD082D02E
:1008F000831210811213B512111412120CE0FEA310
:10090000E0FFD39464EE64809480402312110CC005
:1009100083C0829004ACE0FCD082D083121081129C
:100920001383ED12115512120AE475F0018031C3E0
:10093000EF949CEE6480947F50299004ABE0FF120A
:100940001111C083C0829004ACE0FED082D083122B
:100950001081E4F0A3F012115112107E74FFF5F033
:1009600012297AC39004ADE0648094805032121250
:10097000D112349A1212D11231EEEF60299004ABE9
:10098000121216C083C0829004ACE0FED082D083E5
:1009900012108112114C12107EECF0A3EDF08006C3
:1009A0001212D112104E1212D11237249004ABE061
:1009B000FF121152F583C083C0829004ACE0FED0D8
:1009C00082D083121066E0FEA3E09004AB1211A760
:1009D000C083C0829004ACE0D082D083121081EE3C
:1009E000F0A3EFF0229004ADE0FEA3E0FF1237B8D1
:1009F0009004AFE0FDD3EF9D7480F86E98229004D0
:100A00009D747EF0900226E06003021AF590049E29
:100A1000F0900013E0FF90049EE0FEC39F400302AD
:100A20001AD474132E12124BE06003021AAC74161F
:100A30002E121303E0FF702890049EE075F002A4CC
:100A40002407F582E5F03402F583E0FCA3E0FD75B0
:100A5000F002EE1210D5E0FAA3E0C39DEA9C500F1D
:100A6000EF6401705B1210B9121361EE9C4051905B
:100A7000049EE0FF90049DF01213017401F07413C2
:100A80002F12124B7401F090021CE0FFB47E149000
:100A9000049EE0FE90021CF0A37401121253740134
:100AA000F0800D90049EE06F600690021D7402F0CD
:100AB00090049EE0FF12377C90049EE0FF1210200D
:100AC000121BF060261212FDE4F0801F1212EB12CE
:100AD00010CA121361EE9C400C121427123326EF39
:100AE0006009021B9F1212441235C790049EE00455
:100AF000F00219F1900214E0701BA3E0701790024D
:100B00001DE0D39400400E90021CE02419121257ED
:100B100074011214F6900226E064016003021BE1E6
:100B200090049EF0900013E0FE90049EE0FFC39EB0
:100B30004003021BE1123538EF60031213CA900420
:100B40009EE0121249E070611210B9121361EE9C1E
:100B5000403B1214271212497401F090021DE00468
:100B6000F09002E0F090049EE0FF241912125774F6
:100B700001F012377C90049EE0FF12378B90049EA8
:100B8000E0FF12368F90049EE0FF121020121BF03F
:100B900060051212FDE4F090049EE0FF123568EF4C
:100BA0006056E490021E021BD31212EB1210CA12FE
:100BB0001361EE9C4016121427123326EF6039128F
:100BC00013AE90049EE0121249E4F0221212441275
:100BD00035C790049EE0FF12379A90049EE0FF1202
:100BE00036B190049EE024191212577401F090025D
:100BF0001EE004F09002E1F090049EE004F0021B7D
:100C00000490049DE0FF900222E06F6002EFF0226A
:100C100090049EE0FF123508EF227F0512342AEF80
:100C2000600AE490040CF07F0512375E900228E021
:100C300024FE601B147003021CD3147003021D9960
:100C400024036003021E0E1213AEE49002DFF09044
:100C500002287403F09002E2E064016003021CD0F9
:100C6000F0900226E0FD7020C28A12135990001401
:100C7000E06009E4F0900414E04409F090036EE0B1
:100C80006006E4F0121451F0ED64016003021E0EE0
:100C9000121359900014E0FF700990036EE0700386
:100CA000021E0EEF601290036EE0600C12122BF029
:100CB000900414E044058034900014E06012900326
:100CC0006EE0700C12122CF0900414E04401801CB1
:100CD000900014E06003021E0E90036EE0700302A9
:100CE0001E0E12122BF0900414E04404F0C28A226B
:100CF000022CEA1226FE90021FE07003021D729081
:100D000002DFE004F0E490049CF0900013E0FF9018
:100D1000049CE0C39F507BE4FF90049CE0FE121112
:100D2000EF12133BEE121155F5831214D8ECF0A319
:100D3000EDF090049CE0FE1211EF12133BEE121244
:100D40001B1214D81212E4EFB409CE90049CE0FFF9
:100D50001210D2E4F0A3F0EF12113D7404F0A3E4FA
:100D6000F0EFB40110E490041EF0A3F0900422749C
:100D700004F0E4A3F0EFB40210E4900420F0A3F038
:100D80009004247404F0E4A3F090049CE004F002C6
:100D90001CEA9002DFE0C394035003021E0E900091
:100DA00012747EF0E4900220F09002DFF07F0E12C9
:100DB000376D9002287404F022900494E0B4020B82
:100DC0007403F07F0412375E123643900494E0B44B
:100DD00003107F0412342AEF60087F0412375E127A
:100DE00013A91232DF1226FE1232DF90021FE060DA
:100DF0003D121FF8E490049CF0900013E0FE900474
:100E00009CE0FFC39E50191233EE12319990049C5E
:100E1000E0FF1223971232DF90049CE004F080D9A7
:100E20001235981219DE121526900228EFF0223F93
:100E30003F3F3F3F3F3F3F3F003200321770012CA2
:100E40000258006402580004001E000A000A000F45
:100E50000064000A000C000C00000000000000000C
:100E600000000000000101010D0E0F03040506073C
:100E700008090A0B0C000102003200320032003275
:100E800000320032003200320032003200320032D2
:100E900000320032003200320037003700370037AE
:100EA000003700370037003700370037003700378A
:100EB00000370037003700370028002800280028B6
:100EC00000280028002800280028002800280028E2
:100ED0000028002800280028002D002D002D002DBE
:100EE000002D002D002D002D002D002D002D002D9A
:100EF000002D002D002D002D0050005000500050FE
:100F00000050005000500050005000500050005061
:100F1000005000500050005000550055005500553D
:100F20000055005500550055005500550055005519
:100F30000055005500550055004600460046004645
:100F40000046004600460046004600460046004671
:100F50000046004600460046002D002D002D002DC5
:100F6000002D002D002D002D002D002D002D002D19
:100F7000002D002D002D002D00C800C800C800C89D
:100F800000C800C800C800C800C800C800C800C821
:100F900000C800C800C800C800CD00CD00CD00CDFD
:100FA00000CD00CD00CD00CD00CD00CD00CD00CDD9
:100FB00000CD00CD00CD00CD00BE00BE00BE00BE05
:100FC00000BE00BE00BE00BE00BE00BE00BE00BE31
:100FD00000BE00BE00BE00BE002D002D002D002D65
:100FE000002D002D002D002D002D002D002D002D99
:100FF000002D002D002D002D00FA00FA00FA00FA55
:1010000000FA00FA00FA00FA00FA00FA00FA00FA10
:1010100000FA00FA00FA00FAE490049EF090049EB0
:10102000E0FDC394095023E0FF75F0021211F2E0D5
:10103000FAA3E0FB75F002EF12121BEAF0A3EBF04B
:10104000E4FF12178512150B80D3E490049DF090F5
:101050000013E0FF90049DE0C39F40030221C512EE
:10106000126FE4F0A3F0EF25E024A5F582E4340448
:10107000F583E4F0A3F0EF70030221BCE490049E3A
:10108000F090049EE0FDC39409501890049DE0FF89
:101090001221CB90049DE0FFA3E0FD12254D121517
:1010A0000B80DEE490049EF090049EE0FFC3940960
:1010B0004003022167749F2F121378601890049DDB
:1010C000E075F09A121326F583E064016007900240
:1010D000E3E0B4011990049D1211ADC083C0829069
:1010E000049EE0D082D083121081E4F0A3F090043B
:1010F0009EE0FF700302216190049DE0FE1211AE9C
:101100001214D8E0FCA3E0C39403EC6480948050F4
:101110001A75F09AEE1211B1C083C08290049EE05D
:10112000D082D083121081E4F0A3F09004B4E06088
:101130002A90049DE0FF1211AEC083C08290049EED
:10114000E0FED082D08312108112114C12107E1258
:101150001419121271EE8FF012297A90049DE0FF9B
:101160001211AEC083C08290049EE0D082D0831260
:101170001081E0FCA3E0FDEF121271EC8DF012295A
:101180007A12150B0220889004B4E0601212126CDF
:10119000E0FCA3E012116712119CECF0A3EDF090BB
:1011A000049DE0FF75F09AA42459F582E5F034001F
:1011B000F583E0FCA3E0121167121239ECF0A3ED05
:1011C000F012126CE0FCA3E0121167121239121433
:1011D0001975F00212119BEEF0A3EFF090049DE060
:1011E00004F002202FE490021FF0229004ABEFF0F5
:1011F000A3EDF09004AF7407F0ED603F90009FE026
:101200006401700280089004AC121375702D1211E5
:10121000EAC083C0829004ACE0FED082D08312107A
:1012200066121501121282C083C0829004ACE0D015
:1012300082D083121081E4F0A3F0229004AB12124A
:1012400016C083C0829004ACE0FED082D08312101E
:1012500081121342EFA42433F582E5F0340012101A
:101260007E121361FFEE9CFE9004ADF0A3EFF0122E
:1012700037B89004AFE0FDC31213104003022320DF
:101280001210E1E06401703775F09AEE1211B1EFBF
:1012900012120DE0FEA3E0C3941EEE648094804021
:1012A000030223661211EAC083C0829004ACE0FE00
:1012B000D082D083121066ECF0A3EDF0022366908A
:1012C00004ADE0FEA3E0FF12127DC083C082900453
:1012D000ACE0FCD082D083121081EE8FF012297A1C
:1012E000ED1211FE12134B402912127DC083C082F1
:1012F0009004ACE0FCD082D083121081121383EDF5
:10130000A42445F582E5F0340012120AE475F001D8
:1013100080281213C0506F9004ABE0FF121282C0FD
:1013200083C0829004ACE0FED082D083121081E4AE
:10133000F0A3F012107174FFF5F012297A022366FF
:101340001211EAC083C0829004ACE0FED082D08348
:10135000121066121501FF1211AEC083C0829004F4
:10136000ACE0FED082D083121081E0FCA3E0C394F5
:101370001EEC64809480400E75F09AEF12140B2ED0
:101380001210FC7401F01210E1E0640170281212D6
:10139000C31210F7E0041212C21210F7E0D3940542
:1013A00040149004ACE0FF75F09AEE1210EE1212A9
:1013B000C11210F7E4F022CBEFCB121234E0FEA3FF
:1013C000E0FF121197E0FCA3E0FDC39FEC9E5003E9
:1013D0000224AAE42DFFEC3404FE121234E0FCA334
:1013E000E0FDC3EF9DFFEE9C12113BEEF0A3EFF08A
:1013F000121234E0FEA3E0FF121197E0FCA3E0C359
:101400009FFFEC9EFE75F002EB1210D5EEF0A3EFFD
:10141000F0121368E493FE740193FF75F002EB126F
:1014200010D5E0FCA3E0FDD39FEC9E40641213684E
:10143000E493FE740193FFC3ED9FFFEC9EC313FE84
:10144000EF13FF1213687401932FFFE4933EFE75B0
:10145000F002EB1210D512151C640360030224E69F
:10146000EBB4010F1210D2E0FFA3E0900224CFF002
:10147000A3EFF0EB640260030224E675F002EB12C6
:1014800010D5E0FFA3E0900382CFF0A3EFF0022499
:10149000E675F002EB1210D5E0FEA3E0FF7C007DC4
:1014A000631229130D12292575F002EB1210D512C3
:1014B000151CB4030BEBB40107E4900224F0A3F075
:1014C000EB640270419003828039121197E0FEA311
:1014D000E0FF121234E0FCA3E0C39FEC9EC394042F
:1014E00075F002EB50121210D5E4F0A3F012113C8B
:1014F0007404F0A3E4F0800E1210D5E4F0A3F0120F
:10150000113CE4F0A3F0EB6401702E75F002EB12D5
:1015100010D51213A090041EF0EDA3F012113C128E
:1015200014DF4008121120EEF0A3EFF012113C126C
:1015300013A0900422F0EDA3F0EB6402702E75F07E
:1015400002EB1210D51213A0900420F0EDA3F012BC
:10155000113C1214DF4008121120EEF0A3EFF0123C
:10156000113C1213A0900424F0EDA3F0229004ABE0
:10157000EFF0A3EDF09004AF7407F0ED7003740486
:10158000F09002E3E064017002801290009FE0643A
:1015900001700280089004AC121375703812121397
:1015A000C083C0829004ACE0FED082D08312108150
:1015B00012114C12107EECF0A3EDF09004AB12115E
:1015C000ADC083C0829004ACE0D082D08312108181
:1015D000E4F0A3F0229004ABE0FF121152F583C0B7
:1015E00083C0829004ACE0FED082D08312106612D9
:1015F0001361FFEE9C9004ADF0A3EFF09004AB12EA
:101600001300E06007E49004ADF0A3F09004ADE0B7
:10161000FEA3E0FF1237B89004AFE0FDC312131031
:10162000400302268D9004ADE0FEA3E0FF9004ABE2
:1016300012110FC083C0829004ACE0FCD082D08332
:101640001210811213B512111412120C12134B4006
:10165000269004AB12110FC083C0829004ACE0FC52
:10166000D082D083121081121383ED121155121201
:101670000AE475F001802B1213C050299004ABE0EE
:10168000FF121111C083C0829004ACE0FED082D062
:1016900083121081E4F0A3F012115112107E74FF36
:1016A000F5F012297A12140212104E8038C39004F9
:1016B000ADE064809480502D12140212349A1214FA
:1016C000021231EEEF601E121213C083C08290042A
:1016D000ACE0FED082D08312108112114C12107E29
:1016E000ECF0A3EDF09004ABE0FF121152F583C0D3
:1016F00083C0829004ACE0FED082D083121066E0FA
:10170000FEA3E09004AB1211A7C083C0829004AC8A
:10171000E0D082D083121081EEF0A3EFF022E490AB
:10172000049EF090049EE0FFC394094003022892B7
:10173000EF902EC87014E0545FF0A3746AF0902EFE
:10174000C3744AF0A37401F08009E044F0121397C7
:101750007407F090049EE0901E0F93902ECAF0E460
:1017600090049DF0900013E0FF90049DE0FEC39F65
:10177000400302288974E42E1214D0E0FF9004A0E4
:10178000F0E4F5E2EFC39408503B74151214EBC07B
:1017900083C0821214448002C333D8FCD082D08329
:1017A000F0902ECD7401F0C083C082E0FFC8EEC877
:1017B000088002C333D8FCD082D083F0902EC0744E
:1017C000C1F00228029004A0E024F8F0741612146C
:1017D000EBC083C0821214448002C333D8FCD08291
:1017E000D083F0902ECE7401F0C083C082E0FFC899
:1017F000EEC8088002C333D8FCD082D083F0EEB4A8
:101800000506902EC97420F0EEB4060612139274E9
:1018100009F0EEB407061213927409F0902EC0740A
:10182000C2F0E490049FF0900001742EF0A3E4F065
:1018300090049DE024E41214D0E09004A0F0123251
:10184000DFE5E220E20C90049FE004F0E0C394C8DE
:1018500040D553E2FB1214C49004A0E0FD75F002E1
:10186000A4FFAEF0900002E02FF0900001E03EF007
:10187000ED901E4893FF900001E475F0021229904C
:1018800085F082F583121342EF1211F2C083C082F9
:1018900090049EE0D082D083121081ECF0A3EDF092
:1018A00090049DE004F002274490049EE004F002BE
:1018B000270390021F7401F022BB010689828A83EC
:1018C000E0225002E722BBFE02E32289828A83E4FF
:1018D0009322BB010CE58229F582E5833AF583E08A
:1018E000225006E92582F8E622BBFE06E92582F8A9
:1018F000E222E58229F582E5833AF583E49322BB6F
:10190000010689828A83F0225002F722BBFE01F38E
:1019100022F8BB010DE58229F582E5833AF583E8DB
:10192000F0225006E92582C8F622BBFE05E9258291
:10193000C8F222EF8DF0A4A8F0CF8CF0A428CE8DB1
:10194000F0A42EFE22BC000BBE0029EF8DF084FF18
:10195000ADF022E4CCF875F008EF2FFFEE33FEEC8B
:1019600033FCEE9DEC984005FCEE9DFE0FD5F0E9B2
:10197000E4CEFD22EDF8F5F0EE8420D21CFEADF0B1
:1019800075F008EF2FFFED33FD4007985006D5F0B6
:10199000F222C398FD0FD5F0EA22C5F0F8A3E028A3
:1019A000F0C5F0F8E582158270021583E038F02268
:1019B000A3F8E0C5F025F0F0E582158270021583EA
:1019C000E0C838F0E822EB9FF5F0EA9E42F0E99D8E
:1019D00042F0E89C45F022ECF0A3EDF0A3EEF0A37A
:1019E000EFF022A8828583F0D083D0821229DA1208
:1019F00029DA1229DA1229DAE473E493A3C583C53C
:101A0000F0C583C8C582C8F0A3C583C5F0C583C827
:101A1000C582C822A42582F582E5F03583F58322AC
:101A2000EF4E6012EF60010EEDBB010B89828A83DD
:101A3000F0A3DFFCDEFA2289F05007F709DFFCA9EA
:101A4000F022BBFEFCF309DFFCA9F022C0E0C0835A
:101A5000C082C0D0E8C0E0E9C0E0EAC0E0EBC0E08E
:101A6000EFC0E0D2AFE5DB30E415E5DB30E102802A
:101A700022900413E5DFF0900495E4F0022B7FE55B
:101A8000DB30E50590040F803EE5DB30E12CE5DB43
:101A900030E0119004991235F61235FF1228B2F594
:101AA000DF022B7F900496E064016003022B7F30FD
:101AB0008A03022B7FD28A022B7F900495E0700D5F
:101AC000A3E5DFF09004957401F0022B7F9004965B
:101AD000E0902F8393FFB4FF0F900413E5DFF090A5
:101AE0000496E004F0022B79EF640F702F900499B4
:101AF0001235F6900496E0FF123613540F1228DFC9
:101B00009004991235F6900496E0FF04F012361313
:101B1000FFE5DF54F04F1228DF022B799004991271
:101B200035F61235FFE5DF1228F1900496E0FF64E8
:101B3000147044E5DFB4202590040CE06004E4F068
:101B4000800B9004987401F0900494E4F090049752
:101B50007401F0900412E4F090023904F0E5DFB46F
:101B60001015900498E4F0900494F0900412F09012
:101B70000497F0900239F0EFB4161EE5DFB4200BA5
:101B80009004127401F0900497E4F0E5DFB41009BA
:101B9000900412E4F0900497F0900411E004F075C2
:101BA000DBFFD0E0FFD0E0FBD0E0FAD0E0F9D0E0FE
:101BB000F8D0D0D082D083D0E032900498E0600694
:101BC000900494E004F0900494E0B4010BE49004D9
:101BD00098F0900494E004F0900494E0B40320D3CF
:101BE000900225E09464900224E09400500E90034B
:101BF00083E09464900382E0940040031213A99060
:101C00000497E064017049FF1213D44003022CC80A
:101C1000EF25E02478F582E4341E12115F1211D70B
:101C20002458F582E4341E12115F1213DD1211DF05
:101C30002498F582E4341E12115F1212F41211DF9F
:101C400024B8F582E4341E12115F1212DA022BE876
:101C5000900412E064017049FF1213D45040EF2544
:101C6000E02478F582E4341F12115F1211D7245852
:101C7000F582E4341F12115F1213DD1211DF249874
:101C8000F582E4341F12115F1212F41211DF24B82E
:101C9000F582E4341F12115F1212DA022C39022C81
:101CA000C8E4FF1213D45040EF25E024F8F582E495
:101CB000341E12115F1211D724D8F582E4341E129B
:101CC000115F1213DD1211DF2418F582E4341F12A4
:101CD000115F1212F41211DF2438F582E4341F125E
:101CE000115F1212DA022C83900203A3E090041811
:101CF000F090042AE0FEB410079002267401F0224E
:101D0000EEB42005E4900226F0227E027F0F7D00D3
:101D10007B017A007915122A0012336C90040BE0D3
:101D200090042770057410F080037420F090000078
:101D3000E090042970057410F080037420F0122BD9
:101D40009AE4FE900013E0FFEEC39F507BE4FC7525
:101D5000F09AEE12111412120C121383EE1212B733
:101D6000F583E5822C1210FCE4F0EE1211FE121342
:101D700083EE12140B2C1210FC1212C1F583E582B3
:101D80002C1210FCE4F0CFEECFCDECCD12104E12A1
:101D900037240CEC640970B7121322F583E4F0CFFA
:101DA000EECF12377C12379A12378B1237A9741381
:101DB0002E12124BE4121253E41214F6A3F0900206
:101DC000E0F0A3F00E022D23900222747EF090002A
:101DD00012F0E4900221F022E490049EF0FF9004BF
:101DE0009DF0EF14601E14603514604C14605B2489
:101DF00004707490049F7401F0A3742FF0A37458BE
:101E0000F0022E411235F39000011228B2FED39455
:101E10001F400312360C1228996E704B8043123506
:101E2000F39000021228B2FED39406400312360C3F
:101E30001228996E703180291235F3900003122810
:101E4000B2FE1228996E701F80171235F3900004AD
:101E50001228B2FE648B600312360C1228996E7041
:101E60000690049DE004F00FEF64056003022DC2AC
:101E700090049DE0B40504A37401F090049EE0FD7D
:101E80006007900428E0547FF0CFEDCF22758A5090
:101E9000538AEF9004B57411F09004B37422F0905B
:101EA00004B67433F075997F759A80E4FFFEC2968C
:101EB00020970AD296309705E49004B5F00FBF0042
:101EC000010EEF640A4E70E67590FF75993F759AA2
:101ED000C0E4FEFF2097069004B37427F020960C10
:101EE0009004B37426F02097037428F00FBF00010C
:101EF0000EEF640A4E70DDE4F5AD75AEE075AF1916
:101F0000F5AC7589FF75913E75991FF59675931C13
:101F1000F59BF595F592F59A75800CD28A9004B4EC
:101F200004F0220233B2E493A3F8E493A34003F64F
:101F30008001F208DFF48029E493A3F85407240C0D
:101F4000C8C333C4540F4420C8834004F4568001EE
:101F500046F6DFE4800B0102040810204080903038
:101F600070E47E019360BCA3FF543F30E509541F29
:101F7000FEE493A360010ECF54C025E060A840B8F2
:101F8000E493A3FAE493A3F8E493A3C8C582C8CA70
:101F9000C583CAF0A3C8C582C8CAC583CADFE9DE43
:101FA000E780BE0F00FF00000000000000FFFFFF01
:101FB000FFFFFFFFFFFF0000000000000000000027
:101FC0000000000000000000000000000000000011
:101FD0000000000000000000000000000000000001
:101FE00000000000000000000000000000000000F1
:101FF00000000000000000000000000000000000E1
:1020000000000000000000000000000000000000D0
:1020100000000000000000000000000000000000C0
:1020200000000090049C7410F0A3E4F0A3743FF04F
:10203000A374FFF0E4FDFCF9900415E064AA704F6E
:1020400074AAF0758A10538AEF00000090049CE097
:10205000FEA3E02DF582EE3CF583E493FF69F90DD4
:10206000BD00010CBC2FE5BDFFE290049EE0FEA385
:10207000E0F5828E83E49369700790041504F08084
:1020800005E4900415F0758A50538AEF0000002291
:102090004102DF00410227004102E200410014003A
:1020A00041036E0041040B00410000004102260183
:1020B0004202240000420382000041023900410232
:1020C00029004102E30041049500410496004204C6
:1020D0000D000041040F00410411004104100041B3
:1020E000041310410498004104940041040C014180
:1020F0000497004104120000C0E0C0F0C083C08219
:10210000C0D0E8C0E0ECC0E0EDC0E0EEC0E0EFC061
:10211000E0D2AF900227E004F0C3940A4021E4F03B
:1021200090037EE0FCA3E0FDA3E0FEA3E02401FF1A
:10213000E43EFEE43DFDE43CFC90037E1229B7D072
:10214000E0FFD0E0FED0E0FDD0E0FCD0E0F8D0D061
:10215000D082D083D0F0D0E032902EC0E4F0902E28
:10216000CB74F4F0902F58E0540F24F0902EC8F068
:10217000902ECC7448F0902EC97428F0A3743FF0D0
:10218000902E40748112125FF0A3F0A30412125F2C
:102190007402F0A3F0902EC67414F0902EC17490C7
:1021A000F0A37401F0A37480F0A37407F043E3106C
:1021B0001236F0900013EFF0229004B4E0604E90DD
:1021C0000017E0FEA3E0FFC39470EE941750069052
:1021D00004B67426F0C390001AE09488900019E0C9
:1021E000941350129004B67427F0C3EF9470EE94D9
:1021F0001750037428F0E49004B4F0900017F0A393
:10220000F0A3F0A3F09004B6E090041CF022900438
:10221000B1EDF09004B0EFF0A3E0FE121291F5835F
:10222000E5822E1210FCE060359004B0E01213E657
:10223000C083C0829004B1E0D082D08312143E12D9
:102240001094901E2A1211C940149004B1E0FF901E
:1022500004B0E01212921210F7E4F07F01227F0026
:10226000229004B1EDF09004B0EFF0A3E0FE121262
:102270009EF583E5822E1210FCE060359004B0E0FC
:102280001213F4C083C0829004B1E0D082D08312D4
:10229000143E121094901E2C1211C940149004B1D7
:1022A000E0FF9004B0E012129F1210F7E4F07F01FB
:1022B000227F0022900209A3E090046CF090020BB0
:1022C000A3E090046DF0900203A3E090046EF09000
:1022D0000205A3E090046FF090020FA3E090047059
:1022E000F0900211A3E0900471F0901FDA74019352
:1022F000900472F0901FDC740193900473F02290AC
:102300000229E024FE601114602524037037308810
:10231000349002297402F02220882A900229740342
:10232000F09002E37401F07F0E12376D0236697F80
:102330000E123462EF600E7F0E12376DE4900229A8
:10234000F09002E3F02290049FEFF0E0FF246F1280
:1023500014BCE06034900239E06401700EEF12109A
:1023600087901E1E1211C94020800F90049FE0121A
:102370001087901E241211C9400F90049FE0246F13
:10238000F582E4340312138B227F00227E007F80CB
:102390007D007B017A047914122A009004147405DC
:1023A000F0A37401F0E4A3F090042674ABF0900461
:1023B00028749FF09004B5E090041AF09004B3E004
:1023C00090041BF09004B6E090041CF0122DB802AB
:1023D000329475200153A87F122E6D12361C43A82B
:1023E0008012373812374C758DE01236D3EF24E067
:1023F000600A2410700AC283C2828004D283D2820F
:10240000122B9A123003438D20121BFA80DCCBEF83
:10241000CBEB64017017121183E0900464F0121189
:1024200097A3E0900465F0ECA3F0EDA3F0EB640259
:102430007017121183E0900468F0121197A3E090D6
:102440000469F0ECA3F0EDA3F02290049DEFF0C33B
:10245000940F502BE0FF2488121458E06021EF12F3
:10246000146012109290049D1211BD400F90049DB3
:10247000E02488F582E4340212138B227F00227F4D
:1024800000229004A1EFF0C3940F502BE0FF243AF8
:1024900012146CE06021EF1214741210929004A1D7
:1024A0001211BD400F9004A1E0243AF582E43402F9
:1024B00012138B227F00227F00229004B012131887
:1024C000502E9004B0E0FFEB1212921210F7E07061
:1024D0001FEB1212921210F71211701213E6C08342
:1024E000C0829004B0E0D082D08312143E1229B78B
:1024F000229004B0121318502E9004B0E0FFEB129B
:10250000129F1210F7E0701FEB12129F1210F712B9
:1025100011701213F4C083C0829004B0E0D082D056
:102520008312143E1229B72290049FEFF0E0FF249B
:102530002A121480E0601EEF121488121092901E6E
:102540001A1211C9400F90049FE0242AF582E43446
:102550000212138B227F002290049FEFF0E0FF24F1
:1025600003121494E0601EEF12149C121092901E3D
:10257000261211C9400F90049FE02403F582E43431
:102580000012138B227F002290049FEFF0E0FF24C3
:10259000491214A8E0601EEF1214B0121092901E9F
:1025A000261211C9400F90049FE02449F582E434BB
:1025B0000212138B227F0022E4FFFE900013E0FD45
:1025C000EEC39D501C1210D1E0FCA3E0FDEE1210F2
:1025D000D2E0FAA3E0D39DEA9C4003CFEECF0E8079
:1025E000DA900223EFF022E4F01237A990049EE083
:1025F000FF12131A501C742A2B121480E0701374EB
:102600002A2BF582E4340212116E121488F583121B
:1026100029B72290049FE0FBA3E0FAA3E0F92290FF
:102620000496E0FF04F08F827583002290049E746C
:1026300001F022E92FF9E43AFA02289990049974FA
:1026400001F0A37404F0A37414F0E4F5DA75DA4031
:1026500043DA2075D74075DA5843A90875B808756C
:10266000F80822CBEFCBEBD3940F501C74882B12BD
:102670001458E0701374882BF582E4340212116E42
:10268000121460F5831229B722CBEFCBEBD3940F52
:10269000501C743A2B12146CE07013743A2BF582B0
:1026A000E4340212116E121474F5831229B7221247
:1026B000131A501C74032B121494E0701374032B20
:1026C000F582E4340012116E12149CF5831229B7BE
:1026D0002212131A501C74492B1214A8E0701374A0
:1026E000492BF582E4340212116E1214B0F58312F4
:1026F00029B722E4FD90040FE06011900414E0FE7D
:1027000054F0FDEE540FF0E490040FF0CFEDCF2223
:102710001214C4FFFEEE901E3893600974E42F1269
:1027200014D0EEF00F0EEEB410EB2290037E1229BF
:10273000C3000000007E007F0F7D007B017A0279DC
:102740003A022A00EFD39403500D12129EF583E54E
:10275000822D1210FCE4F0227F0512375E12364300
:102760001231399002287401F0022CEA75B28E758C
:10277000B6F9E4F5B743B20143AA0102370BEFD330
:10278000940F500874882F121458E4F022EFD39459
:102790000F5008743A2F12146CE4F022EFD3940314
:1027A0005008742A2F121480E4F022EFD3940350BF
:1027B0000874032F121494E4F022EFD3940350080A
:1027C00074492F1214A8E4F022EFD3940350087434
:1027D0006F2F1214BCE4F022EE30E707C3E49FFF32
:1027E000E49EFE2200000000000000000000000047
:1027F00000000000000000000000000000000000D9
:1028000000000000000000000000000000000000C8
:1028100000000000000000000000000000000000B8
:1028200000000000000000000000000000000000A8
:10301000000000000000000000000000000000119F
:00000001FF
