:100000005446495300010000607B0100F609C434E6
:1000100002060114151019104E4137300206012254
:10002000151019094E413730020601081510191034
:100030004E413730030000000100000000000000C6
:1000400054464353002000007C6B01000000000078
:1000500000C000200121000007210000092100004C
:100060000B2100000D2100000F2100001F210000C6
:100070001F2100001F2100001F210000112100008E
:10008000132100001F210000152100004F4E000029
:10009000314F0000192100001F2100009D030020A6
:1000A00019210000093400003F3400001F21000026
:1000B0001F210000734B00001921000019210000CE
:1000C000B5480000192100001F2100001F21000079
:1000D0000000000000000000000000000000000020
:1000E0000000000000000000000000000000000010
:1000F0000000000000000000000000000000000000
:1001000000000000000000000000000000000000EF
:1001100000000000000000000000000000000000DF
:1001200000000000000000000000000000000000CF
:1001300000000000000000000000000000000000BF
:1001400000000000000000000000000000000000AF
:1001500000F010F8FEE7FEE7FEE7FEE7FEE7FEE749
:10016000FEE7FEE7FEE7FEE701480047FEE7FEE7A1
:100170001F21000000F002F800F040F80CA030C889
:10018000083824182D18A246671EAB4654465D4613
:10019000AC4201D100F032F87E460F3E0FCCB6469D
:1001A0000126334200D0FB1AA246AB463343184720
:1001B000B4600100E4600100103A02D378C878C14D
:1001C000FAD8520701D330C830C101D504680C6099
:1001D000704700000023002400250026103A01D3B8
:1001E00078C1FBD8520700D330C100D50B607047EF
:1001F0001FB5C046C0461FBD10B510BD034885469B
:10020000FFF7F6FF03F0C2F913F0A7F900C00020D2
:1002100003B4FFF7F1FF03BC13F0A6F970B5054670
:100220000C46164602E00FCC0FC5103E102EFAD237
:10023000082E02D303CC03C5083E042E07D301CCFD
:1002400001C5361F03E021782970641C6D1C761EE1
:10025000F9D270BD7047002800D00120FE4909681E
:1002600008627047FC480068006A002800D001203E
:100270007047F94A800012688018FF30FF30023062
:1002800001607047F449800009684018FF30FF3072
:1002900002300068FF210131084070477047EF4984
:1002A00008707047ED4800787047F0B4EA4F3A683C
:1002B000526A3B681C691D460723DB01EE18336850
:1002C0000225002910D0002805D00121012805D0E1
:1002D00011281DD105E02A432C4319E00A430B43A2
:1002E00016E00A432B4313E0002804D0012805D070
:1002F00011280DD109E0AA43AC4309E05B085B007B
:10030000980705D15208520002E0AB439807F9D094
:1003100038684262386804613360F0BC704710B4DA
:10032000CD49024609680020496A002A11D0CA4C0A
:1003300007232468DB01E318012A0FD0112A06D114
:100340008907890F022902D01968890703D410BCD4
:1003500070478907FBD5012010BC70478907890FBA
:100360000229F9D01968C907F5D110BC7047F0B55A
:10037000B94C00212268116201682268116041684D
:1003800022685160816822689160C1682268D160EA
:10039000016922681161416922685161816922689D
:1003A0009161C1692268D161416A22685162816AA2
:1003B0002268D162C16A22681163016B22685163AD
:1003C000416B22689163816B2268D163C16B2268A3
:1003D0001165016C22685165416C22689165816CE0
:1003E0002268D165C16C22681166016D2268516670
:1003F000416D22689166816D2268D166C16D226867
:100400009167016E2268D167426E216880314A602F
:10041000826ECA60C26E4A61026F8A61426FCA61AF
:10042000826F0A62C26F8A62014680310B6822685D
:10043000C032D3614B6813628B68D362CA68256887
:10044000FF3501352A600A696A604A69AA608A69CB
:10045000EA60CA692A610A6A6A618A6AEA6122688C
:100460000323FF32FF32023213605360496B116184
:100470000146C0310B68D3614B6813628B685362CD
:10048000CB6807222668D201B21813600B6953604B
:100490004B6993608B69D360CB6913610B6A5361BD
:1004A0004B6A53628B6A9363CB6AD3630B6B0F22E5
:1004B00026689201B218944613604B6B53608A6BA6
:1004C00001262368B6029B191A62CA6B112623689B
:1004D000B6019B191A62C21DF932136809272668F2
:1004E000FF01F61933605368052726683F02F619A5
:1004F00033609668152327689B01FB185E60D668F9
:100500005E6116699E615669072327681B02FB1806
:100510001E6096695E60D6699E60166ADE60566AE5
:100520001E61966A5E61D66A1E62166B5E62566BCB
:100530009E62966BDE62D26B1A630A468032166840
:100540005E6356689E639668DE63D6681D232768DF
:100550009B01FB181E6016695E6056699E60966975
:10056000DE60D6691E61166A5E61566A9E61966A91
:10057000DE61D66A1E62166B1E63566B5E63966BF7
:100580009E63D26BDA630A46C03216680F2327686F
:10059000DB01FB189E605668DE6096681E61D668B7
:1005A0001E6212691A632E4A126A130A06D1AB69D7
:1005B00012071B091B01120F1343AB61C369274AC2
:1005C0001370002353700068C00701D002205070E0
:1005D000086BC00703D0507801231843507020687F
:1005E00000682368400840001860604600684308BF
:1005F0005B006046036088694005400D5080F0BD97
:10060000164948707047144800680068C007C00F5A
:10061000704711480068406A01210904084070478A
:10062000F8B504460C480068456AA00702D50220C8
:10063000054301E002208543E00773D00120054314
:1006400001F040F8064601F040F801460248006813
:10065000406A01231B0405E0A0740100B4080020D7
:10066000C0FE0300184201D0084601E030460E46A5
:10067000FA4A07211268C90151180028086802D0F7
:100680000122104301E04008400008600868002E85
:1006900002D00222104301E0022290430860F04A97
:1006A00050788446C0075BD0EE4F50883A68526C51
:1006B00001231B041A433B685A643A68926CE74F63
:1006C00096050F233F68B60DE74A9B01FB18E54FDF
:1006D0003F68BF6CBF05BF0DB74202D1521EF6D1B5
:1006E00021E0002A1FD040006246D20703D01A68DA
:1006F000012632431A606246920706D5D74A13682C
:100700001B6801261268334313600122D202904213
:1007100000D9501ECA684005D20AD202400D0243D9
:10072000CA601DE013E0CD4A1E68760876001E60A0
:1007300013681B6812685B085B001360C94A136882
:100740005B6C012636041268B3435364DDE7C3488B
:100750006D0801686D00096800684908490001607A
:10076000BE4A106845621068006927218843210746
:1007700001D50421084361070029B949097808DA3D
:10078000082903D91368491CD96104E001210843F1
:1007900001E01368D961A10701D502210843E107EF
:1007A00001D02021084311680861F8BDAB4A002040
:1007B0001168496A8907890F022945D0F0B4A74911
:1007C0000A68D26A0B68D201D40D1D2292019A18D0
:1007D000126AA34BD2075E880B680721D20FC901AA
:1007E00059180B68DD070B68ED0F02273B40002D01
:1007F00011D09A4D2868C06BC005C00D002A04D0E6
:100800002D68ED6B6D046D0F00E000254F68BF068D
:10081000BF0EA840C019002B10D0904D2B68DB6B89
:10082000DB01DB0D002A03D02A68D26B5200520F85
:1008300049688904890E9340181840181E21704396
:100840004C432018F0BC70477047F0B4834F002031
:100850003968496A89073BD539680D6904210D401B
:1008600039680E6902210E4039680969CC07396878
:10087000E40FC96ACA053968D20D096BCB0539681E
:10088000DB0D896BC905C90D002D03D03868806B5D
:100890000002000E002E14D01D263D68B601AD19D1
:1008A0002D6A3E68ED07F669ED0FB606B60E002D0F
:1008B00003D03D68AD6B6D046D0F0F46AF407743BD
:1008C0003818002C00D040181E2158434A431018F5
:1008D000F0BC704770B561480168C9680068CC0613
:1008E0004069E40EC504ED0CFFF760FF0646FFF714
:1008F000ACFF65431E214D4330187D214019C900CE
:1009000048435A4912F037FB70BDF8B5534E0746BD
:100910003068C068C406E40E00D10124FFF746FF2A
:100920000546FFF792FF2D18002F1BD0394650487F
:1009300012F021FBA8420BD921461E22401B514335
:1009400012F019FB01214903884202D9481E00E038
:10095000002031684969C004490B4903C00C0143B8
:1009600030684161306840691E21C004C00C60439A
:10097000484341193E4812F0FEFAF8BD70B53748B9
:100980000168C9680068CD064069ED0EC404E40C36
:10099000FFF70CFF0646FFF758FF01466C431E2089
:1009A0004443A0194118324812F0E5FA70BD2B49B2
:1009B0000A685269D3040A68DB0C5269C004520BFE
:1009C0005203C00C0243086842611846704723482E
:1009D00000684069C004C00C704710B5002807D0FB
:1009E0001F484188234812F0C6FA401C400810BD39
:1009F0001A480068006BC105C90DF3E7F8B51D4E34
:100A00000546304612F0B7FA401C440821463046ED
:100A100012F0B1FA401C430810481D2206689201EA
:100A20006108B218002D27D00D4E0F27748006687C
:100A3000A51FBF01F6193668F60700D0640001262D
:100A4000F602B44200D9741E090421430068072449
:100A5000E4010019C160D5631846F8BDA074010017
:100A6000B40800209C740100E7030000307500000A
:100A700000389C1C60EA00008E1FB51F090421434A
:100A800004682163006801218902401806629563A9
:100A9000E2E7FD49012804D01128086806D0806BE0
:100AA00001E00868C06BC005C00D7047C06BC00195
:100AB000C00D704730B4F44C0F222568D2010307F3
:100AC000AA18002B1DD0D268CB058A1AEE4D1D2125
:100AD0002D688901921EDB0D6918012813D0112899
:100AE000206820D0806B400A400218432368986336
:100AF000086BD205400A4002D20D1043086330BC97
:100B000070479268E0E72068C06B400A40021843D3
:100B10002368D863486BD205400A4002D20D1043C7
:100B2000486330BC7047C06BD84D1B042840184345
:100B30002368D863486BD2052840D2091043486324
:100B400030BC704710B4D04A116880314B69FF2423
:100B50000134234001280AD0112848690DD01168BA
:100B6000C0B2896BC905C90D002B0ED10CE04869D4
:100B700011680002000EC96BF4E711680002C96B2E
:100B8000000EC901C90DEFE70020081A0004000C8F
:100B900000D1012010BC7047BB4910220028086812
:100BA000406A03D00968104348627047096890435F
:100BB0004862704710B4B4490868406A10229043F4
:100BC0000A685062002002460C6883001B191A65EF
:100BD000401C0828F8D310BC70478207830810B463
:100BE000A948D20E00689B001818036DFF2494409A
:100BF000491CC9B2A34391400B43036510BC704725
:100C0000A14B82081B689200D218126D8007C00E9B
:100C1000C240D0B2491C884201D102207047002056
:100C20007047994800688030006A704796481021E4
:100C30000068FF30FF30023001617047924A12684D
:100C40008032002805D0012805D0112800D1D161BB
:100C5000704751607047916170478B49024609683F
:100C600000208031002A05D0012A05D0112A00D1A8
:100C7000C8697047486870478869704710B4824AED
:100C800001461D2413680020A4011B191B6ADB0701
:100C9000DB0F0BD0012905D01068112908D0806B1B
:100CA000400407E01068C06B4004400F10BC704760
:100CB000C06B400010BC400F704730B4724B1D2217
:100CC0001C689201A218146A01252C4314624A0779
:100CD0000724520F24031103012809D01128186892
:100CE0000ED0806BA04308431968886330BC7047FE
:100CF0001868C06BA04308431968C86330BC7047CC
:100D0000C06B072109078843110708431968C863A6
:100D100030BC70475C4902460B681D2100208901E8
:100D200059180B6ADB07DB0F08D0012A03D0112A00
:100D300005D0486900E0C8694007400F7047C8699E
:100D40004003400F704710B44F4B4A071D241968E9
:100D5000A401520F0919012808D011280DD04869A3
:100D6000C008C0001043486110BC7047C869C00883
:100D7000C0001043C86110BC7047C86907231B043A
:100D8000984312041043C86110BC7047042943D82B
:100D900070B53D4C1D23266800229B01F3181E6A86
:100DA0000546F607F60F0FD0012806D02068112D52
:100DB00007D0806B4004420F06E02068C06B4004FF
:100DC00001E0C06B4000420F1E6A2C460020F6076F
:100DD000F60F0CD0012C03D0112D05D0586900E07E
:100DE000D8694007400F02E0D8694003400F891AD4
:100DF0004418042C03DD091B091D042403E0002C06
:100E000001DA0919002451182846FFF756FF214638
:100E10002846FFF798FF70BD70471B491D230968DE
:100E20009B0101221204C9180028086A01D010434E
:100E300000E090430862704713491D230968024689
:100E40009B010020C918002A06D0012A06D0112AC9
:100E500001D18869000C7047086900E0886980B298
:100E60007047094902460B681D2100208901591865
:100E70000B6ADB07DB0F0ED0012A09D0086A112AA2
:100E80000AD0C00506E00000A0740100FFFF00FECC
:100E9000086A8005C00F70474005C00F70470246C2
:100EA0007B480168FF31FF310231C869C007C00FBC
:100EB000002ACA6902D001231A4301E052085200F5
:100EC000CA61704770B50646022902D3891E4D08D3
:100ED00000E00025022A02D3921E540800E00024FC
:100EE0001421184612F047F802466948012E04D032
:100EF0000068112E05D0674901E000686649401876
:100F000001E06649401801680F231B0499432B0731
:100F10001B0B19430F231B02994323071B0D194376
:100F2000090A0902D2B21143016070BD70B4584D74
:100F300007242E6824023419012803D0112803D075
:100F4000606A05E0606B03E01D24A401301940686D
:100F500004030505240F2D0FC0B2002902D0640040
:100F6000A41C0C60002A02D06900891C1160002BAF
:100F700002D014214843186070BC7047F3B591B09B
:100F8000002401270D467F036E4601E0082C08D29D
:100F9000601C810041180120800311F0ECFF401B10
:100FA00006E0E01F81004118384611F0E4FF401BC5
:100FB000002800DA4042A100641C7050102CE5D3D8
:100FC0000023009A012081007158914201DA0A46FB
:100FD0000346401C1028F6D311982D49012805D04E
:100FE0001128086807D0E521C90002E00868E72158
:100FF000C900411802E0E921C90041180A680B60E4
:10100000082A05D2521C900011180120800303E029
:10101000D21F90001118384611F0ADFF13B0F0BD8B
:1010200010B51B4A0721136809025918012803D07B
:10103000112803D0886A05E0886B03E01D2189012F
:1010400058188068082805D2401C810041180120EA
:10105000800304E0C01F810041180120400311F00B
:101060008AFF10BD0A490A680721C90151184A6A56
:1010700048621046704710B4054A072413682402DA
:101080001B1998601068C030016210BC70470000E6
:10109000A07401002407000034070000440700008A
:1010A00010B5FFF7DFF810BD10B5FFF7DBF801282A
:1010B0000AD10020FFF7CFF803210020FFF7D9F86D
:1010C00003210120FFF7D5F810BD10B5FFF7C2F8D6
:1010D000FFF7C8F801280AD10020FFF7BCF8032168
:1010E0000020FFF7C6F803210120FFF7C2F8012115
:1010F000052001F0D8FA0121052001F0D4FAFF49BA
:101100000020487010BD10B5602001F01DFB60206C
:1011100001F00DFB10BDF94A0146507A002800D0BD
:101120000120002900D0012151727047F34A9169D2
:10113000906108467047F14800210172C171704703
:10114000EE4800210172C1717047F3B50007BBB0D2
:10115000000F3B904000801E002501903B99280124
:1011600008430090FFF7DBF800283ED028467022A5
:1011700050433C9A0021841838224A43A318702215
:1011800000204A4302AE9219460087009E5B401C35
:10119000D6511C28F8D3491C0229EDD30098FFF73B
:1011A0006DFD012686400098FFF746FE0024009062
:1011B000002E1AD901980721401909024843D04945
:1011C00009684718702060433918CE487022081803
:1011D0000099E140C907C90F514302AA891870223A
:1011E000FFF71CF8641CB442ECD36D1C022DB5D380
:1011F0003DB0F0BDF8B50446FFF754F805460020B1
:10120000FFF72BFD8446012200209203002D17D901
:10121000702603467343BA4E002136689F19012396
:101220008B406646334205D08E00BE192388B6181F
:10123000A41C3360491C1C29F1D3401CA842E7D3ED
:1012400070204543AE48702100682818801811F0BE
:1012500090FEF8BD10B5A9494861FFF7E1F910BD4E
:1012600010B5A94801688968A84A114302689160CD
:1012700001680968A64A00681143016000F068FD32
:1012800010BD70B5A04A064610680C4681689F489C
:10129000014310688160106800689D490843116827
:1012A000086000F055FD954D002C34D00020FEF76D
:1012B000D2FF2068002804D0FFF759F80020FEF77D
:1012C000CAFF30466E61FFF7ABF90020FFF727F841
:1012D000002810D06068002801D0FFF78BFFE1687C
:1012E000002908D0864803230068FF225B030132EF
:1012F000C018FEF793FF0120FFF711F8002804D172
:101300001120FFF70CF8002805D0A168002902D0B1
:101310000120FFF71AFF00202872E871A861687A9F
:1013200000206872602001F00FFA602001F0FFF9E0
:1013300070BD10B50020FEF78EFF00F0EEFC724885
:1013400001680968734A89088900036811431960B4
:10135000016889680223994300681143816010BDC8
:1013600010B5602001F0E7F910BD10B5602001F064
:10137000E2F9FEF777FF01280AD10020FEF76BFFA4
:1013800003210020FEF775FF03210120FEF771FF06
:1013900061480168496C012212040068914341646C
:1013A0000020FEF758FF00F0B8FC574801680968B4
:1013B000584A8908890003681143196001688968DF
:1013C0000223994300681143816010BD4B48406976
:1013D00070474A480078002800D00120704770B557
:1013E000FEF740FF00280FD1444D00242C72EC7111
:1013F00003212046FEF73DFF03210120FEF739FFC0
:101400002C700120FEF727FF70BD10B5FEF72AFFF4
:1014100000280DD1394C2072E0710321FEF729FF1D
:1014200003210120FEF725FF01202070FEF713FFA6
:1014300010BD10B50020FEF70EFF10BD10B52F49EE
:101440000020C8710120FEF706FF10BD2B49C861BE
:1014500070472A48C069704770B5284C0025E0697C
:10146000401CE0612078002802D00020FEF7F3FE47
:1014700002212846FEF7FDFEA169002901D0284679
:1014800088472648016820221143016070BD70B56D
:101490001A4C0125E069401CE0612078002802D048
:1014A0000020FEF7D8FE02212846FEF7E2FEA169E1
:1014B000002901D028468847184801682022114396
:1014C000016070BD16487047164870470B48006AA7
:1014D00070470A48406A7047F0B49C460024104E9A
:1014E00087B0631E104F335500253D55641C1D2CDD
:1014F000F8DB002400281DD9155D17E0B80800208E
:10150000B8740100704E0000A8740100020034128B
:1015100003003412000034129C740100E40800201F
:10152000C80A0020E50A0020010B00203555641C84
:101530008442E1D300221446002813D9B556002D69
:101540000DDB012D01DA1D4604E0092D01DA13350A
:1015500000E0093D1C2D02D20127AF403C43521C44
:101560008242EBD30020024601273B4693402342B0
:1015700003D06D46A854401C03E00025ED436B46A4
:101580009D54521C1C2AF0DB0022002818D9551E3D
:10159000B356002B11DB012B01DA2B4604E0092B9B
:1015A00001DA133300E0093B1C2B04D26C46E45CE7
:1015B000F74B9C5401E0F64B9D54521C8242E7D3FA
:1015C0000023F44A002813621A4609D9F04CA556A4
:1015D000954202D0EF48046202E0521C8242F6D3E8
:1015E000ED4CEE4A00200023DB4323540023135428
:1015F000401C1C28F7DB0020002905D963461B5C32
:101600002354401C8842F9D30020034600290AD9FC
:101610002556002D04DB1C2D02D23E46AE4033433E
:10162000401C8842F4D300200146461E6F46012527
:101630008D401D4202D07854401C00E07E54491C6D
:101640001C29F4DB0021002809D96356002B03DB99
:101650001C2B01D2FB5C5354491C8142F5D3002161
:10166000CC4B0028596203D954568C4203D05A629D
:1016700007B0F0BC7047491C8142F5D307B0F0BCFD
:1016800070478721C9004843C549401870475E210B
:101690004843C4494018704710B4BE4C012BA07099
:1016A000E17003D9401C40084000114641432071BD
:1016B0004900A1814000E08110BC7047B54A5071DB
:1016C00091717047B34880797047B248407970474C
:1016D000B54A107051707047B349085C7047F8B54F
:1016E000AC4D0446687A002802D1E87911F0C1FFB8
:1016F000287A00281ED000266869334632463146D3
:10170000870707D5A64E470704D5AB8937465B0840
:101710005B00DB19C70704D0C00601D5A14900E072
:10172000A04AE8696660A360E26021612060002051
:1017300060610120F8BD9749002008727047F8B534
:101740000446FEF7AFFD00900020FFF786FA05463D
:1017500000990020002919D90126B70370230246F9
:101760005A43924B00211B68D31832468A402A42C2
:1017700005D08A009A18D21912882280A41C491C0C
:101780001C29F2D30099401C8842E7D3F8BDF8B574
:10179000FEF788FD00900020FFF75FFA0099002215
:1017A00000291FD90125AE03FF273F0170241346EE
:1017B00063437E4C002124681C192B468B40034256
:1017C00009D08B00E3189B191B881B051B0DBB421E
:1017D00001D90020F8BD491C1C29EED30099521CE8
:1017E0008A42E3D30120F8BDF3B50007000F81B0B2
:1017F0000025019001982E0106433046FEF78FFD2B
:1018000000283BD03046FFF739FA012484403046A7
:10181000FFF712FB844628467021484302990022B4
:101820004018009007212846090248435F4909688B
:10183000401886460026002C08D96046F040C007B4
:10184000C00F904202D0761CA642F6D3A64212D216
:101850003821009851434318702700217E43704679
:1018600080198E008719524EBE194F00368E491CC2
:10187000DE531C29F5D3521C022ADBD36D1C022D2A
:10188000B8D303B0F0BDF1B5000782B0000F0290ED
:101890004000801E0024009002982701074338462C
:1018A000FEF73DFD002830D03846FFF7E7F9012567
:1018B00085403846FFF7D1F90022002D25D900993F
:1018C000072309191B025943384B1B68C9188C465A
:1018D0007023002153436646F61801238B400342D0
:1018E0000DD08B00F718324BFB181B8E1F05FF2302
:1018F0003F0D1B019F4202D9002003B0F0BD491CDF
:101900001C29EAD3521CAA42E2D3641C022CC3D382
:10191000012003B0F0BD70235943244B80001B68A5
:10192000C918081801218903401802607047702205
:1019300051431E4A80001268891808180121890342
:101940004018008880B27047FFB518480D460068FF
:10195000012183B0890340181F4616460C9C019054
:10196000FEF780FC0090002802D00020FEF773FCF8
:101970000020FFF772F98446E8198646A8422BD961
:10198000284670225043019A00218718039B1CE0CF
:10199000010B0020B8080020E50A00201E0B0020E3
:1019A0003C0B0020740F0020C2080020B874010016
:1019B000404E000001229A406046024204D0228834
:1019C0009800A41C3A50491C5B1CB14201D21C2B4C
:1019D000F0D36D1CAE45D3D80098002805D08D49B2
:1019E0000020C8710120FEF736FC07B0F0BDFFB53E
:1019F000074689480E460068012183B089034018D4
:101A00001C460C9D0190FEF72DFC0090002802D092
:101A10000020FEF720FC30198446B04218D9059802
:101A20007E4B3A1830467021484301993C46411894
:101A300007E018571C2803D28000085A2880AD1CE4
:101A4000641CA24201D91C2CF3D3761CB445E9D8FE
:101A50000098002805D06F490020C8710120FEF7CA
:101A6000FAFB07B0F0BDFFB56B480C4600680121DA
:101A700083B0890340181F4616460C9D0190FEF75F
:101A8000F1FB0090002802D00020FEF7E4FB0020CC
:101A9000FFF7E3F8E1198C46A14216D922467027D8
:101AA0007A43019F0021D719039B07E001229A4046
:101AB000024202D09A00BD50491C5B1CB14201D2C7
:101AC0001C2BF3D3641CA445E8D80098002805D04B
:101AD00050490020C8710120FEF7BDFB07B0F0BDE2
:101AE00010B5FFF72FF84B49088210BD70B50446BA
:101AF0000F204849000225460540098AE0B2884285
:101B000000D908466422504311F035FA290A6422AC
:101B10005143081880B2E10401D500B270BD4042C3
:101B200000B270BD002803DA404281B2002002E01A
:101B300081B2012000030F2212020A400243C8B200
:101B40003449098A4843000A1043704710B5002001
:101B5000FFF722F810BD10B5FFF75FF910BD70B5A3
:101B60000020FFF719F82C480122006892032C4945
:101B7000801811F0FEF90020FEF719FF0021084639
:101B8000FFF79BF800210120FFF797F800211120B3
:101B9000FFF793F800210846FFF7D5F80021012050
:101BA000FFF7D1F800211120FFF7CDF80120FEF753
:101BB00014FF04460120FEF76CFF06461120FEF7D5
:101BC00068FF0546A64200D92646A54200D925460B
:101BD00031460120FEF76EFF29461120FEF76AFF0D
:101BE0000020FEF70DFD70BD10B50A4902204861C6
:101BF000FEF716FDFEF7DEFF074801220068E72129
:101C000092030901801811F0B4F90020FEF7CFFE0D
:101C100010BD0000B8080020B8740100E50A0020DB
:101C2000701C0000F0B46049012482B0002802D08A
:101C30000020087000E00C705C4E306800685C4A60
:101C40001043326810600A785A4D5B4B002A0ED060
:101C500019685A48C86019685948886018688068C7
:101C60001821084319688860012000900EE0196867
:101C70005448C860BB2019684004886011E0019591
:101C80000198411E01910028FAD10098411E00914F
:101C90000028F4D1186880680121090308431968F5
:101CA00088600120009006E001950198411E019195
:101CB0000028FAD10098411E00910028F4D118683C
:101CC000C068302108431968C86018688030016B0B
:101CD00021430163009405E0019501994F1E01978E
:101CE0000029FAD100994F1E00970029F4D11968F4
:101CF000CC6707211B680902196100218160002A55
:101D000000D0446130680068042188432E490843AC
:101D10003168086002B0F0BC704727480168C968A4
:101D2000302291430268D1601F490978002905D00B
:101D300001688968254A0068114081601B4908686C
:101D4000006804229043204A0968104308607047E5
:101D5000164801680968164A006811430160124874
:101D600001781548002905D001688968184A11438F
:101D7000026891600168C968302211430268D1602D
:101D800000688030016B0122114301637047000637
:101D90001049000C0843084909680864704706495F
:101DA0000D48096808647047E0080020A874010025
:101DB00004003412E2040000A4740100057601005E
:101DC0002000760105F4010000003412E7EFFFFF68
:101DD0001810000013005FA000005FA010B4474877
:101DE00045490268916103688A1CDA6103684A1CEC
:101DF0005A6303681B6804689B089B000B432360BD
:101E000003685B695B085B000B4301684B61016819
:101E100009691143026811610268394991600068DB
:101E20003849C16038490020086010BC7047364905
:101E30000868002802D000220A60704730BFF7E728
:101E400010B42D4C304B2D49621C1868002803D06B
:101E50000021196010BC704772B6086844630868B6
:101E6000826120BF086884610868426362B6BFF37C
:101E70006F8FBFF34F8FE8E72048016809681E4A5B
:101E80008908890011430268116002681F49916046
:101E9000016809691E4A00681143016130BF70473B
:101EA00072B615491548026851630268C91CD161B0
:101EB0000068891E816162B6704710480168096830
:101EC000144A00681143016070470C4801680968B2
:101ED000094A89088900006811430160704772B699
:101EE00005490648026891610268891CD161006851
:101EF000491E416362B6704700003412A8740100A5
:101F00003C00341228003412E40800200800341287
:101F100001003412030034127047002800D0012061
:101F2000A5490968486070470022002907D908C8F8
:101F30005B1C01D000207047521C8A42F7D301205D
:101F4000704770B400242346002A0FD920C89E0091
:101F50008E59B54201D0641CA4B25B1C9BB2934263
:101F6000F4D3002C02D070BC0020704770BC01205C
:101F70007047F8B5054600F0FEFF00208E4E07467C
:101F80003268212111602F603168096804223368AA
:101F900011431960316809681142FBD1412132684F
:101FA0008901116040232C46002104CC521C07D02B
:101FB00031680F60401CC0B20828E1D30220F8BD90
:101FC000491C9942F1D3306807600120F8BDF8B58B
:101FD000054600F0D0FF0020774E07463268092101
:101FE00011602F6031680968042233681143196059
:101FF000316809681142FBD101239B022C46002164
:1020000004CC521C07D031680F60401CC0B20328BA
:10201000E4D30220F8BD491C9942F1D3306807602F
:102020000120F8BDF3B581B00420009000F0A3FFBB
:10203000614E022031680860029901980F220B4618
:10204000B8CBB8C0103810301031521EF7D23068FB
:102050000068042108433168086030680068400760
:1020600005D500BF00BF306800684007F9D431686B
:1020700000200860029901980F22034678CB0F6870
:102080009F4208D14B68A34205D18B68AB4202D175
:10209000CB68B3420BD00098401E0090401C03D088
:1020A0000198FFF766FFC1E7022003B0F0BD1030D2
:1020B0001031521EE1D2012003B0F0BD70B50D46C3
:1020C000044600F058FFFF22013221462846FEF761
:1020D000A5F8012070BDF0B505460006C5B0144650
:1020E0000E46000E27D0280A000204A90090029193
:1020F000019000F040FFFF2701373A46019902980E
:10210000FEF78CF8E8B23F1AA74200D9274604A987
:1021100008183A46314610F0C4FE0098FFF729FF30
:10212000022842D004A90098FFF77CFF02283FD084
:10213000ED19F619E41BFF2C19D9FF2701373A4690
:10214000314604A810F0ADFE2846FFF712FF022822
:102150002BD004A92846FFF765FF022828D0FF35B9
:10216000FF36FF3C01350136013CFF2CE7D8002C3F
:1021700018D004AF00F0FFFEFF2201322946384696
:10218000FEF74CF82246314604A810F08AFE284695
:10219000FFF7EFFE022808D004A92846FFF742FF08
:1021A000022805D0012045B0F0BD0A2045B0F0BDA1
:1021B0000B2045B0F0BD00008C74010010B52B4918
:1021C0000A6810600968086100F019F810BD10B5C0
:1021D00026490A6810600968486100F010F810BDCF
:1021E000224909684867704720490968886770472D
:1021F0001E480121026811660068016570471C4A8B
:102200001168096BC30702D003239B03994383071B
:1022100005D503231B03994301231B0319434307DC
:1022200003D503239B0299431943030703D50323D3
:102230001B0299431943C30602D5C023994319438E
:10224000830602D5302399431943430602D50C2354
:1022500099431943000603D58908890003200143E7
:102260000448014310680163704700009474010042
:102270009C74010000005FA0E24801688A68E2499E
:1022800003680A439A600268D2680A430168CA6018
:1022900001684969DD4A006811434161704710B423
:1022A000D84801684969DA4B49084900026819436E
:1022B00051610168C9684022914304681943E16093
:1022C00001688968006891431943816010BC7047B8
:1022D00010B5CC4C20688168CB48226801439160DE
:1022E0002168C96801432068C16020684069C74906
:1022F000084321684861C7483F210268D1600068EF
:102300000021816303210A2000F0CDF90A2000F0AA
:10231000EBF920684069BE4A40084000216810433C
:1023200048612068C0684021884323681043D86012
:1023300020688068884321681043886010BDB54AD2
:1023400013681860136859604843116888607047C3
:10235000B04A13681860136859604843C10700D039
:10236000401C116888607047AA490A689063086831
:10237000C068022209681043C860704730B4A54C99
:102380002568286220684162206882622068C362F2
:102390002168012008632068406BC10707D000BF97
:1023A00000BF00BF00BF2068406BC107F7D18007A6
:1023B00030BCC017704797480168C968022200689E
:1023C0009143C160704793480168C9680122006861
:1023D0001143C160704710B48E4B1C6820621868AE
:1023E0004162186882621968012008641868406CAC
:1023F000C10707D000BF00BF00BF00BF1868406C16
:10240000C107F7D14007800F01D00020C04310BCA6
:10241000704780480168C968006849084900C16080
:1024200070477C480168C968042200681143C16094
:102430007047027C017B9206920A1143754A136829
:102440009965136801685962136841689962136855
:102450008168D9621368012119651168496DCB073C
:1024600007D000BF00BF00BF00BF1168496DCB0798
:10247000F7D11368DB6D83821368DB6D1B0CC3829D
:1024800013681B6E038313681B6E1B0C4383136856
:102490005B6E83831268526E5200520CC2838807AF
:1024A000C01770475B480168C968042200689143FF
:1024B000C160704757480168C96808220068114325
:1024C000C160704730B4534C2568AA672268106217
:1024D00020684362206881622168012008672068C3
:1024E000406FC10707D000BF00BF00BF00BF20681A
:1024F000406FC107F7D14007800F01D00020C043D3
:1025000030BC704743480168C9680822006891439D
:10251000C160704710B40378C278194643783D4CC7
:102520001B02194383781B0419431206114310221E
:102530002368D14180339961011D0A7810464A7899
:10254000120210438A78C97812041043090608431E
:10255000D8612068C068202108432168C86010BC89
:1025600070472C4A13681862106841621168012094
:10257000803108614869C20706D000BF00BF00BFB4
:1025800000BF4869C207F8D14007800F01D0002082
:10259000C04370471F480168C96820220068914302
:1025A000C16070471B480168C96810220068114368
:1025B000C160704730B4174D5B1F2C688034A36036
:1025C0002B681862286842622868816201202060B6
:1025D0006068C10706D000BF00BF00BF00BF6068D1
:1025E000C107F8D14007800F01D00020C04330BCA4
:1025F000704708480168C968102200689143C160AB
:1026000070470000A8740100400034120100341229
:1026100000003412AC74010010B51F4902200A6892
:1026200010650868012202660B68102058670B6865
:102630001A4858660B6800209866086880308260E7
:1026400090234360436813434360FF200A680330CC
:10265000106609680866032000F046F80021032090
:1026600000F021F8002010BD10B5032000F046F85E
:102670000948FF21026801311166026800211166D4
:10268000026810219167006802214165002010BD99
:10269000034900200870704798740100061000007C
:1026A000E808002070478207D30EFF229A409B1D46
:1026B000994003071B0F9B089B00002808DA2F484E
:1026C000006818184369114093430B4343617047F6
:1026D0002B4800681B1803200002181803681140DB
:1026E00093430B4303607047C206D20E0121914011
:1026F000234A40091268800011507047C206D20E6A
:10270000012191401E4A40091268800080188030E3
:1027100001607047C206D20E01219140184A40095B
:10272000126880008018FF308130016070471449C2
:10273000096808607047124909688031086070476D
:102740000F480068006870470D490968FF31813102
:1027500008607047094800688068704707490A6840
:1027600092680968886010467047044A1268926847
:1027700010308300D058D150704700008874010099
:102780008474010010B502210C20FFF78CFF10BDEE
:10279000B04801688A68B04903680A439A600268D1
:1027A000D26800680A43C260704710B4A948016843
:1027B0008B6801221203A949934304680B43A36069
:1027C0000368DB68006893430B43C36010BC704729
:1027D000A34982B00868006F800517D57D20C0002E
:1027E0000090421E0092002805D00868006F800506
:1027F00001D51046F5E76420009003E00868006FFB
:1028000001901046421E00920028F7D10868006F20
:10281000800502D40A689348106609689248886661
:1028200002B070478E498D220B6892019A660A6841
:10283000126F0B68DA6600043722000A120680184D
:102840000A68506691220868120680300260BFE76D
:10285000834982B00868006F80051FD57D23DB00A7
:10286000019301980246401E0190002A03D0086897
:10287000006F8005F5D40868806EC0070ED00A6826
:10288000803250680193009001980346401E0190E9
:10289000002B03D05068009B9842F5D08D2009682A
:1028A0008001886602B070476D480068806EC0077E
:1028B000C00F70476A480068406E0002000C704705
:1028C0006748006880304068704710B50C20FFF7FB
:1028D00021FF0C20FFF708FF6149022009684867C3
:1028E00010BD10B55E490320096888670C20FFF70A
:1028F00005FF0C20FFF70EFF10BD5C4A1168106049
:102900000846704710B556480168096F0068C166EF
:1029100056480068002800D08047554801680122C9
:1029200012031143016010BD50484068704710B554
:10293000484801688A68484903680A439A600268FF
:10294000D26800680A43C260454C0320216888674A
:102950000C20FFF7D3FE0C20FFF7DCFE00F07AF925
:10296000444B04211868803081604349C16072B6CD
:102970008D202168800188662068006F2168C86604
:1029800021683E4848662068912109068030016030
:10299000FFF71EFF012019684002086662B610BDED
:1029A00070B572B6FFF754FF32480121026849043E
:1029B000116662B60068FF30FF3002304068254D76
:1029C000002830D02C49294C091AA1602868806958
:1029D0002A680007D269000F1207120F8018001D25
:1029E0008140274881421ED91D48006880304068D8
:1029F000244A161A300410F0BEFAFF21CA314843A7
:102A0000214BE6602061596819609A685A609860A5
:102A100091421AD9814205D9824201D9626002E00D
:102A2000606000E0616000F026F92868806801219C
:102A300009030A4A88432B68104398602868C068D5
:102A4000884329681043C86070BD8142EAD8824239
:102A5000E6D8E3E7A8740100001034120000341235
:102A6000B474010071C0000041230000EC08002094
:102A7000E4080020B0740100FFFF000000FFFF37F2
:102A800030750000010001000009002014480168B1
:102A90008968144A006811438160134801684969D4
:102AA000012252021143026851610168096904223E
:102AB000114302681161016809691022006811431D
:102AC000016170470849096888607047BFF34F8FFC
:102AD000054906480968C860BFF34F8FFEE700004C
:102AE000A874010004003412887401000400FA057F
:102AF000264801688968264A006811438160254894
:102B00000168496901221143026851610168096B3A
:102B1000032212039143204A1143026811630168A2
:102B2000096A03680A091D4912010A431A621C4A0C
:102B30008B1E1268C03253600068016570471548EB
:102B40000068006970210840704712481549026802
:102B500011630268144951630168496C01225204EF
:102B60009143026851640168496C104A114302683C
:102B700051640168496C0122120400689143416468
:102B8000704704480068406870470000A87401005E
:102B9000040034129C74010000205FA003005FA0B9
:102BA000A4740100C08C5FA095995FA0FF03000092
:102BB000022801D300207047A24B820098589950F8
:102BC000704770B5A04C2068006F9E4DC00706D0BE
:102BD00021680120C8662868002800D08047206846
:102BE000006F800706D521680220C8666868002843
:102BF00000D0804770BD10B5944801688A68944938
:102C000003680A439A600268D2680A430168CA608E
:102C10008D4902220B681A650C68012323660C6833
:102C20000323E36609684A65016889688023894A45
:102C3000994304681143A1600168C9680068994319
:102C40001143C1600920FFF74FFD02210920FFF762
:102C50002AFD10BD7D4801688A687D4903680A43E2
:102C60009A600268D26800680A43C260764902200E
:102C700009680865704710B47349022009684865FF
:102C8000724801688B688021724A8B430468134341
:102C9000A3600368DB6800688B431343C36010BC08
:102CA00070476A48006880680006C00F7047664831
:102CB0000168096F890504D50321006809020166CE
:102CC0007047FF21006801310166704770B55E4DA5
:102CD0002868C06F800703D529680320486702E091
:102CE00029680120486700F0DFF858490A689269AE
:102CF00009681207120FC969D0400907090FC840B7
:102D0000052110F038F92C688521890080340009EC
:102D1000216010F072FA504A504B10F071FA10F026
:102D20001FFA60602868006F800504D503202968B9
:102D30000002086670BDFF2029680130086670BD7A
:102D400041480168096FC90504D5032100680902DB
:102D5000016670470121006849020166704770B53D
:102D6000394D2A68D26FD20703D02B6803225A67E5
:102D700002E02B6802225A677D23FF22DB002D32FE
:102D800058434A43401AA021484302260024801891
:102D90000A2110F0F0F82D490A68926909681207B3
:102DA000C969120F0907090F5118C840052110F011
:102DB000E2F82B49884204D9641C4008E4B28842F6
:102DC000FAD83202224310210A43296880318A60EE
:102DD000C8602868006FC00504D503202968000278
:102DE000086670BD012029684002086670BD16485B
:102DF0000168096F890304D503210068090401668D
:102E00007047012100680904016670470E48016897
:102E1000096FC90304D503210068090401667047DE
:102E20000121006849040166704707480068006F87
:102E3000C005C00F704704480068006F8005C00FD0
:102E4000704700000C090020B0740100A874010054
:102E500080003412000034127B14AE47E17A843FC4
:102E6000FFFF0000234900200A689060096808609D
:102E700021494860704710B51E4C216848602168A0
:102E8000002088600221401EFFF70DFC216807200A
:102E9000086010BD1749002009680860704716488F
:102EA0000188491C01807047134880687047F8B555
:102EB000114E0027044637807D21C900B06810F00C
:102EC0005AF80C4D401E2968486028688760022126
:102ED000C81EFFF7E8FB2968072008603088A04279
:102EE000FCD328680760F8BD04494843024988605C
:102EF00070470000807401001409002040420F0058
:102F0000704770B5234C05468D2021688001886686
:102F100021680320C86621681F48486621681F4849
:102F2000086620681E498030016021681D48886657
:102F300021680120486702210020FFF7B4FB002030
:102F4000FFF7D2FB002D05D02068806E164908439C
:102F50002168886670BD10B50E480121026891672E
:102F60008D210068890181660020FFF7C7FB0020E2
:102F7000FFF7D0FB10BD074908480968086670478D
:102F800004480649026811660168096F0068C16655
:102F9000704700009074010007E1E43771C0000041
:102FA00000707291462300004123000070B5FA4C76
:102FB000002501262570B60265703146F7480FF0EE
:102FC000D8FF3146F6480FF0D4FF6560A570382170
:102FD000F4480FF0CEFF3821F3480FF0CAFFE57038
:102FE0005821F2480FF0C5FF5821F1480FF0C1FFFA
:102FF000A56070BDE8488078002800D001207047A7
:10300000E548C078002800D001207047E2484078A9
:10301000002800D001207047DF4880687047F1B574
:10302000DD4E3178002901D0E24800E0E248002975
:10303000047801D0E14800E0E148274605786F4375
:10304000FFF71AF929462046FFF779F9D349D44A00
:103050000846009BFFF792F9FFF721F97A00D04864
:1030600000990FF01EFF01207070F8BDCA4840683B
:103070007047F0B5FFB0C84CFFB091B060780990D0
:10308000A0780890E778FEF70BF80D90FEF7A1F90D
:103090000C90FEF709F80020FDF789FC0B90FEF775
:1030A000B4F90026069603F007F901280FD06C4604
:1030B0002046FEF714FB002872D0204603F077FD6F
:1030C000029800281FD00898002803D01BE0012098
:1030D0000690E2E0029DFFF7CFF8BA4C012120787C
:1030E000FFF72DF9AF492B46AF4A0846FFF746F9DF
:1030F000FFF7D5F8207829464200AB480FF0D1FE03
:10310000A54901208870019800286BD009980028F3
:1031100068D1A148019C007800283AD19E484568B2
:10312000002D20D0A3480178A4480A910178079186
:10313000FFF7A2F807990A98FFF70AF921462A46ED
:103140000846FFF748F9FFF7AAF89F4800780228D9
:1031500002D1284603F009FB9B480078092802D1D8
:10316000204603F002FB99480078012811D9964DBA
:103170002878042802D1204603F0F7FA21460EA849
:1031800010F0E6FE04462878052802D10EA803F0C8
:10319000ECFA814A0A941078002802D0854901E0AF
:1031A00078E0854900280C7801D0844800E0844804
:1031B0002546007807904543FFF75EF820460799BB
:1031C000FFF7BDF87549764A08460A9BFFF7D6F81F
:1031D000FFF765F86A0072480A990FF062FE6E49BF
:1031E00001204870049800284CD0002F4AD1044692
:1031F00069480078002828D167488568002D24D0C8
:1032000073480178734800780818401C40080F90F4
:1032100002200E90FFF730F80E990F98FFF798F8FC
:1032200021462A460846FFF7D6F8FFF738F86A48DD
:103230000078022802D1284603F09CFB66480078FB
:10324000092802D1204603F095FB61482546017804
:10325000604800780C18FFF70FF8601C4008022146
:10326000FFF76DF851492B46514A0846FFF786F89B
:10327000FFF715F8620029464D480FF012FE464947
:103280000120C870FEF757FA761C032E05D2FEF710
:10329000BCF808E700F0B5F905E7FDF705FF0B9866
:1032A000FDF785FB0D98002807D00C98002802D068
:1032B000FEF7ABF801E0FEF792F80698002805D07B
:1032C00035490998487008988870CF7006987FB083
:1032D0007FB011B0F0BD10B50024FEF777F82E498D
:1032E000820709D54A78002A00D10124420703D574
:1032F0008A78002A00D10124C20705D0C00603D570
:10330000C878002800D101240020002C02D00870C9
:10331000FFF7AFFE10BD08B50F2100F00BFA012832
:1033200004D1FFF7D8FF009000F01AFB1A4841784B
:10333000002907D0C178002904D08078002801D066
:10334000012008BD002008BDE5E7704712490020B4
:1033500048708870C870704710B50F480078002812
:1033600001D0144900E014490028097801D013481D
:1033700000E01348007841434A0008490848FCF738
:103380004DFF10BDFFB5044981B009780A980029A6
:1033900024D0084923E0000020090020D40F002099
:1033A000D4130020D41700200C180020441800204B
:1033B0009C180020310900202E090020320900202D
:1033C0002F090020350900209D0900203009002028
:1033D0003309002034090020A20900205D49C71AE2
:1033E0000C781E4625467D436643FEF745FF394669
:1033F0002046FEF7A4FF01997000471856493B4646
:1034000046185649324640180146FEF7B7FFFEF708
:1034100046FF6A00394630460FF043FD504801210F
:103420004170084605B0F0BD4C487047F8B54C4DAA
:10343000044601462878494B4A4E002801D032788C
:1034400001E0444A1278484F002802D047480078EB
:1034500000E038784243520018460FF022FD2878E9
:103460003D4B2146002801D0327801E0394A1278DC
:10347000002802D03D48007800E0387842435200EE
:1034800018460FF00EFDF8BD002800D00120344989
:103490004870704732494860704710B53448354924
:1034A000007842003448FCF7B9FE10BD314870473F
:1034B00070B52F4C05462078294642002D480FF064
:1034C000F0FC2078294642002B480FF0EAFC70BD42
:1034D000002800D0012022498870704710B5274885
:1034E0000178274800780818420026492648FCF74A
:1034F00095FE10BD2348704770B5204D204E044600
:1035000001462A7830781F4B1018420018460FF0F9
:10351000C8FC287832781C4B801842002146184697
:103520000FF0BFFC70BD002800D001200C49C8700E
:1035300070470B498860704710B500220849002881
:103540004A708A70CA7000D001200870FFF791FDA0
:1035500010BD00002E090020D4130020D40F00203D
:1035600020090020310900202F0900203209002005
:1035700035090020D41700200C1800203309002042
:1035800034090020441800209C18002010B504F0D5
:10359000B9FE04F027FF002010BD0000F5480078B8
:1035A000704710B5F3480078022803D0052804D0EE
:1035B000002010BD06F0F5FB10BD03F061FC10BD4E
:1035C000EC490870704710B50446062818D203006D
:1035D0007B441B79DB189F441102060E110A084632
:1035E00000F0D8F90AE0084606F0CFFB06E00846EE
:1035F00003F03AFC02E0084606F09AF9DD48047050
:1036000010BDDD4900200968496EC90503D510B514
:10361000FEF70DFC10BD7047D74900200968496EC0
:10362000C90503D510B5FEF70BFC10BD7047D24994
:1036300000200968496E890503D510B510F066F8B9
:1036400010BD7047CC4900200968496E490503D573
:1036500010B510F08AF810BD7047C64948780028A8
:1036600001D0401E4870704770B5C4480168C03131
:10367000C868C04C820707D0C14A10438860607890
:10368000002801D101206070BE4800688068BA4DF2
:103690008007296807D4BC4800684069C00702D089
:1036A0006078002806D0496E0020C90508D5FEF7CD
:1036B000C7FB05E0496E0020490501D510F055F81B
:1036C000B249084204D02968496E0902090E6170A6
:1036D00070BD10B572B6FFF73EFCFFF7F7F910BDED
:1036E00010B5FF204002FEF744FC72B6FFF733FC32
:1036F000FFF7ECF910BD9F48006970479D48C0680E
:1037000070479C49486170479A4840697047994999
:103710008861704797488069704710B5964802687D
:103720001346118A508AFF33FF3261334132FDF76D
:10373000D3FE10BDF0B58F4E99B00D46306104F048
:1037400041FDF060040031D02078B0706178F170F4
:103750008C46A378411CFE22337111407171E278CE
:10376000B2712179F17161793172894900270F7045
:103770004F70217871726146FDF78EFF317AF079D2
:10378000FDF79CFF08A9204604F038FD608A7769A0
:10379000002801D047433F0B7648012180690790FC
:1037A000608B090300280BD005900AE0724800687E
:1037B000406EC00501D5FEF743FB002019B0F0BDF7
:1037C000059100200691A90700D51120690701D5B0
:1037D0000A210843290701D504210843E90701D03C
:1037E00020210843666A69460640089800900C98B4
:1037F00001901098029000200490099803903046A0
:10380000FDF73FFDB00758D504F013FA05001DD0B1
:1038100004F025FA47433F0B29460020FDF7EEF858
:10382000218A002902D00020FDF744F904F036FA7D
:10383000079908254143080B0121C9024018010AD4
:1038400001221046A840084206D103E0A589002DB8
:10385000E2D1E5E76D1EF4D5A07B2D1F002801D035
:10386000401E02E00020FDF709FA0790E07B0028E7
:1038700001D0401E02E00020FDF74CFA07994919DB
:10388000042903DD6D1A2D1D042103E0002901DA4E
:103890006D1A00214519042D03DD2D1FEF4004256D
:1038A00004E0002D02DA6842874000250020FDF781
:1038B00004FA29460020FDF746FAF00726D0A18A2F
:1038C000002902D00120FDF799F8258B002D07D0A3
:1038D00029460120FDF7EEF829461120FDF7EAF808
:1038E000A57D002D07D0691E0120FDF7E6F9691EB0
:1038F0001120FDF7E2F9E57D002D07D0691E0120BA
:10390000FDF721FA691E1120FDF71DFAE07A002863
:1039100002D00001FCF7F9FF0A9803F0C2FB0B98F4
:10392000002807D0044613483B46C27881782046D9
:1039300003F0C4FB3846069A059903F01CFC0D9869
:10394000FFF7A8FD0E9800F016FFF00605D51198B8
:10395000FFF7EFFD129800F0BBFF012019B0F0BD9A
:1039600010B5FDF702FD03F0A6FB02490020C86078
:10397000012010BD2C090020180A0020A4740100A9
:1039800000005FA0A87401009C74010008000300FF
:1039900036090020F74948707047F648407870476C
:1039A00010B4F548F54A016891420FD1FF224168F1
:1039B000013291420AD80022034611468C001C595C
:1039C000491CA2180829F9D3002A00D0002010BCF5
:1039D000704710B5E848FEF7CCFA10BDE549012064
:1039E00048707047E349002008707047F3B5E1B0B4
:1039F00000203C904A90499072B6FDF7E7FC0546DE
:103A0000FFF74FF9002809D0FFF70FFA4A90FFF7A8
:103A1000EEF9FFF710FA4990FFF7F8F9FDF720FCEF
:103A2000FDF73EFB5390FDF7D4FC5290FDF73CFBB5
:103A3000FEF73AFF5190FEF70BFF93204001FEF78F
:103A400083FE62B6002130AC8A000020491CA050E1
:103A50000629F9D3CA49012009688003AA070F186B
:103A60000126002A05DAE7210901384630960FF0D1
:103A700080FAC34AC3481268E9071518002910D014
:103A80000721490228460FF074FA0120FCF747FC91
:103A9000002800D032961120FCF741FC002800D00D
:103AA0003396309800282CD00020FDF7D6F80090EF
:103AB000B548694600780871B4480078012801D9F2
:103AC000B34800E0B348007848710020FDF7C9F919
:103AD000002801D00020C043039069466298887195
:103AE000A448808808810020FDF72CF869464881A9
:103AF000A348059701680691016801204003081852
:103B000007903198FF2700282AD00020FDF7A5F85C
:103B100008909D4808AA00781071567100200B90FB
:103B2000977194486A46808810850020FDF70AF84E
:103B30006A4650855079702102464A4390490B6885
:103B4000D318012292039A180D926A4612790968D5
:103B5000424350004018012149030E9040180F9035
:103B6000329800282ED00120FDF777F81090FCF74E
:103B700050FD002801D0884800E0884810AA00784D
:103B800010710120FDF77AF83146814010AA517179
:103B90000120FDF751F9C043139010AA75489771A1
:103BA000C08810810120FCF7CDFF10AA5081744815
:103BB0001595E7220168D2008918169100687849A6
:103BC000401817903398002831D01120FDF745F8A0
:103BD0001890FCF71EFD002801D0704800E06E48E8
:103BE00018AA007810711120FDF748F8314681407D
:103BF00018AA51711120FDF71FF9C0431B9018AA94
:103C000097715C4810AAC08810851120FCF79AFFB4
:103C100010AA50855A48634A016889181D91624A62
:103C2000016889181E910068604940181F900120A2
:103C3000FDF791FF0120FDF732F94F900020FDF7CD
:103C400075FA4E900020FDF766FA4D900020FCF7C3
:103C5000AEFE5090FDF7D9FB002042904190389085
:103C600039903C9800287DD102F026FB012879D0BC
:103C70004298802876D85AA8FDF731FD002872D0E6
:103C80005AA802F094FF4198401C41906CD000204B
:103C900041904298401C429000208300012154AA88
:103CA000401CD1500628F8D33898002806D00128A7
:103CB0005FD002287CD0032854D124E30020369022
:103CC00039980422101A8446369830A9800047900B
:103CD000085800286DD03698399A4101684608186E
:103CE00000213F910168449101793D9141793791DB
:103CF0000821415E409141693E918169C0684390CD
:103D00006046002A1ED000287CDB3798002500285A
:103D100077D9604608300122824060463B92C01D40
:103D20000122824046920120439AA840104000D0D0
:103D300001203A9028467026704300223E9E144689
:103D4000861986E03798002500285AD90120439A21
:103D5000A840104000D001203A90002004462A4696
:103D6000702602E004E3FEE2F7E272433E9E9619FB
:103D700040E086E04809002000F301005443524629
:103D8000B8740100704E0000310900203009002095
:103D9000320900202F0900203309002034090020B7
:103DA0003827000070550000B80A0000B82A00004B
:103DB0007DE15FE00122449B82401A4217D08200DD
:103DC0003B920027CF5F409BB25AFB1A3A9F641C7C
:103DD000891C92B2002F00D05B42002B02DD012330
:103DE0001B031A430123DB021A433B9BF250401C86
:103DF0001C2802D23D9A9442DCD337986D1C854230
:103E0000A4D32EE032E00120449B904018421DD004
:103E1000900045900027CF5F409B305AFB1A3A9F95
:103E2000641C891C80B2002F00D05B42C70402D5FD
:103E3000002B02DB03E0002B01DD3B9B9843634634
:103E4000002B01DD469B1843459BF050521C1C2A59
:103E500002D23D988442D6D337986D1C854200D259
:103E600061E76046002801D101203F90479954AA9C
:103E70003F9850503698401C3690062800D223E7D1
:103E800043E20020369039980822101A4C90369858
:103E900030A980004B900858002873D03698399A82
:103EA0004101684608180021439105794179066867
:103EB0003791837908213D93415E449141693E9158
:103EC000C3688169459340893D9B184046904C9852
:103ED0003A90002A1FD000287EDB002084463798C5
:103EE000002868D93A9A012090404090501E012243
:103EF00082404892624601209040459A104000D08E
:103F000001203B9060467023584300223E9B14469C
:103F1000C0183F9079E000208446379800287DD96A
:103F2000624601209040459A104000D001203B900D
:103F300060467023584300223E9B1446C0183F90B1
:103F400031E00120904030422AD090003F9B4090C9
:103F5000185A0027CF5F449B641CFB1A3B9F891CA7
:103F600080B2002F00D05B42C7040CD5002B12DAC0
:103F70000F231B02184001D0FF38013801231B0317
:103F8000184308E08CE0002B05DD0F231B021840CE
:103F900001D0FF38013880231843409F3F9BD85100
:103FA000521C1C2A01D2AC42CBD36046401C844632
:103FB00037988445B4D331E001209040304221D07D
:103FC00090003F9B4790185A0027CF5F449B641C8A
:103FD000FB1A80B2891C00E025E03B9F002F00D037
:103FE0005B42C70402D5002B02DB03E0002B01DD9E
:103FF000409B98433A9B002B01DD489B1843479F09
:104000003F9BD851521C1C2A01D2AC42D4D36046EB
:10401000401C84463798844500D26BE73A980028C4
:1040200001DD439839E0002084463798002832D9D2
:10403000FF213D980131081A40083F903D98084300
:104040003B9061467023594300203E9B0246CC18AA
:1040500019E001218140314212D081003A91615A28
:104060003F9F8BB2D9B279183B9F521C3940469F73
:10407000B94200D939461B0A1B020B433A996350D7
:10408000401C1C2801D2AA42E3D36046401C379949
:1040900084468842D5D3012043904B9954AA50506E
:1040A0003698401C3690062800D2F0E62DE100201C
:1040B0003690800030A94C90085800287DD039985F
:1040C000489036980822410168460818002144911A
:1040D0000168469101793F9141793B918179825EF6
:1040E0004092426947928669C2693E924589C0689A
:1040F0004590FF200130441A48980D40C00715D064
:10410000002037903B9800286FD9379901208840CC
:104110004599084000D001203D90379870214843D0
:10412000002247993A9240184390D0E00020FCF7D3
:10413000B6FE07463F993B9848434000C01C8208A2
:10414000920031463E980EF0ACFE3846FCF7A7FED2
:10415000002037903B98002847D9379901208840A4
:104160004599084000D001203D9037987022504377
:104170000021479A3A9180183E9044E00120469AE7
:10418000884010423CD03A980022401C3A90B25EDF
:104190004098B61C131A3D98002800D05B42880056
:1041A0003E9A4390105A82B21005D7B2000FBC4617
:1041B000D70403D5002B03DB05E09DE0002B02DDD7
:1041C00063461B1B01E063461B19AB4206DD0F284B
:1041D00002DA401C00230AE02B4608E0002B06DA36
:1041E000002803DD401E2B4601E07BE00023012771
:1041F0003F033A40000202431A43439B3E98C25099
:10420000491C1C2903D23F9A3A989042B6D337985A
:104210003B99401C379088429FD363E00120469928
:104220009040084250D03A980021401C3A903E9865
:10423000415E4098091A3E98801C3E903D980028A7
:1042400000D049420023F35E4098B61C181A3D9BEB
:10425000002B00D04042002901DA4B4200E00B461F
:10426000002800DA404298422ED99000439B4B90A0
:10427000185A83B21805DFB2000FBC46DF0402D51E
:10428000002902DB04E0002902DD6146091901E092
:104290006146091BA94206DD0F2802DA401C0021F5
:1042A00009E0294607E0002905DA002802DD401E62
:1042B000294600E0002101273F033B400002034361
:1042C0000B434B9943984350521C1C2A03D23F99ED
:1042D0003A988842A2D337983B99401C379088423D
:1042E00000D212E74898032801D2449801E0012047
:1042F00044904C9954AA50503698401C3690062849
:1043000000D2D6E601E001203C900123002054A910
:1043100082008A58002A04D0401C0628F8D3012BBA
:1043200002D03998401C17E038981F2813D2401C3F
:1043300001460122389010468840619908420AD10E
:104340003898401C3890032805D80146104688400C
:1043500061990842F4D0002039903C98002807D198
:10436000FDF753F880E4FFF757F93C980028F9D09F
:10437000FCF79AFE0020FDF7EEFB4F98FCF78FFD4F
:104380004E98FCF7D3FE4D98FCF7C5FE5098FCF70D
:104390000EFB5398002807D05298002802D0FDF752
:1043A00034F801E0FDF71BF8FEF77BFC002809D08C
:1043B0004A98002801D0FEF77AFC4998002801D0DD
:1043C000FEF7BEFC5198002801D0FEF701FA3C9898
:1043D000002802D0002063B0F0BD012063B0F0BD22
:1043E000F1B5FFB0FFB00020BEB006460290D1E0AC
:1043F000304603F0E7FE00287ED00489FFA8843011
:10440000006F0440FE48044276D00F213046FFF78B
:1044100091F9002870D0FCF7D9FF054602980028D2
:104420006BD128460E210840FCF714FF0321002021
:10443000FCF7ACFC029800285FD1E0071BD0FC2100
:104440000F20FFF7D3FA0290FCF72EFE0298002807
:1044500053D1FFF753F907460420019003A80090B9
:10446000FDF76DF92C20C157009A019803F0E6FE84
:104470000298002841D16007800F2AD00120FFF761
:104480005BF80290FCF710FE029800287FD1A0078D
:104490000ED5FEF7C9FF0746FFF730F92D2105239A
:1044A00041563A46184603F0C9FE029800286ED1DC
:1044B00060070ED5FEF7B8FF0746FFF71FF92E215C
:1044C000062341563A46184603F0B8FE02980028E3
:1044D0005DD1284611210840FCF7BCFE0298002857
:1044E00055D1E00620D5FF210F20FFF77FFA02907B
:1044F000FCF7DAFD029801E04BE048E0002846D1E5
:10450000FFF7FCF807460820FFA910310190009141
:104510000120FDF769F93020C157009A019803F096
:104520008DFE0298002832D16006800F2FD0012026
:10453000FFF702F80290FCF7B7FD0298002826D199
:10454000A00612D5E80603D5FEF7D4FF074600E023
:104550000027FFF7D3F83121092341563A46184680
:1045600003F06CFE0298002811D160060FD5E80612
:1045700002D5FEF7BFFF00E000200446FFF7BEF8BB
:1045800032230A2519562246284603F057FEFFF724
:10459000E7F9761C03F012FEB04203D90298002816
:1045A00000D125E79749002008700298002804D020
:1045B0007FB07FB000203FB0F0BD7FB07FB0012062
:1045C0003FB0F0BDF0B58F48C9B04578FEF7E6FFC3
:1045D00001287AD18C48362102683420515E105E61
:1045E00002F055FFA8075DD56C46FFF7D9F9002703
:1045F00000280CD001461EC96E461EC6836942695A
:104600000169C069069305920491079011E0FF22A9
:10461000202120460EF086FC7C480090FF200130CF
:104620000190202002905020039705970697079746
:104630000490774E3046FDF79CFC0598401C059091
:104640007448FFF7CDFE012826D007980022401CB1
:1046500007901F21022005F0D0F800206C4601468B
:1046600003978B00E258491C10180829F9D34742D8
:10467000FF22511C08A8E7600EF054FC2068A268D5
:10468000616808AB87C310340FCC0CAC0FC4304644
:1046900008A9FDF7C7FC11E0A12004900698401C72
:1046A0000690DAE7E80709D05B48FFF799FE002893
:1046B00004D101221F21022005F09FF8FEF746FEDB
:1046C00001212A46084605F098F801F0F1FD49B0AD
:1046D000F0BD4C49888070474A49C8807047F8B59A
:1046E0000126FFF75DF9002802D00069A12801D05A
:1046F0000020F8BD002403F061FD002835D9404FAB
:10470000204603F05FFD00282AD00589284638425C
:1047100026D00F212046FFF70DF8002820D0E8070B
:104720000CD0FDF734F8002808D1FF2022460130D4
:1047300002431E21022005F060F80026E8060DD590
:104740000120FDF7A0F8002808D10120224600032F
:1047500002431E21022005F050F80026FFF700F961
:10476000641C03F02BFDA042CAD83046F8BD0020DF
:104770007047002070472349002888607ED00A785F
:1047800092077BD4F0B5254AFFB01478244AFFB0D5
:1047900087B012781B49234E0492CE600090FEF73A
:1047A00065FC029020480778204805782048017869
:1047B00005A80391012901D9019000E00196029911
:1047C000002972D0394669434A0005A800990EF0C5
:1047D00068FB3B4605AA00950299019810F052FE2D
:1047E000039801282AD9304601990FF0B1FBB04255
:1047F00024D00A490A4B0A7819784A43520019E032
:104800003303000048090020180A00205443524690
:1048100000F3010077070000220200002E090020AB
:104820002F090020F418002031090020320900204F
:1048300030090020014630460EF033FB6948002362
:104840000499C0681E4600291BD90025455F801CBD
:104850000121012C0FD90022825E801C551B2FB232
:10486000002F00DA7F423DB29D4200DD2B46491CFD
:104870001546A142EFD3761C049900E01CE08E425D
:10488000E3D359480068FF3021308089984202DD27
:1048900054480021C160534902220878104308702F
:1048A0007FB07FB007B0F0BDFFE76F437A0000999B
:1048B00001980EF0F6FA93E770474A48816800299C
:1048C00002D00178890701D400207047C068704782
:1048D00044490028086164D00978C90661D4F0B55C
:1048E00083B0019041494248029105784148002730
:1048F0000478FCF76BFDC00602D5FEF78DFB07467A
:104900002E197200019902980EF0CBFA002F08D0F0
:104910000220029A761C009073083946104610F067
:10492000B1FD029900200A5E891C0123012C0FD9D8
:1049300000268E5F891CB21A12B2002A00DA524297
:1049400012B2824200DD10465B1C3246A342EFD316
:1049500000228A5E891C0123012D0FD900240C5FDF
:10496000891CA21A12B2002A00DA524212B2824202
:1049700000DD10465B1C2246AB42EFD31A490968A2
:10498000FF312131C989814201DC029801E0002018
:10499000029014491022486108781043087003B04F
:1049A000F0BD70470F480169002902D00178C9069F
:1049B00001D400207047406970470B4809490068DE
:1049C000FF30213042798878401CC0B28870824222
:1049D00007D210B50020887001210846FEF7F3FDCC
:1049E00010BD704748090020180A0020F41C002060
:1049F0003309002034090020704700207047580711
:104A000008B5400F012805D16946087002460A2002
:104A100001F031FC002008BD580708B5400F0128FF
:104A200006D100206946087001220A2001F023FC0B
:104A3000002008BD580710B5400F012801D1FEF72E
:104A400048FE002010BD580708B5400F012806D1C8
:104A50000320694608700122002001F00CFC0020B0
:104A600008BD580708B5400F012805D169460870F0
:104A70000246002001F0FFFB002008BD1FB55807CB
:104A800008D16846007AF02807D0012202A9062042
:104A900001F0F1FB002004B010BDFEF79AFFF9E72A
:104AA0001FB5580704D1012202A9104601F0E3FB0B
:104AB000002004B010BDFFB5074681B05807400F75
:104AC0000026FE4D0A9C012802D0022806D002E0F2
:104AD0000520A8702E81002005B0F0BDA87805281B
:104AE00018D12889A0420CD2FEF74BF8AC216A46B7
:104AF0001170010A517090702889115C3970401C46
:104B0000288180B2A04205D12E8102980121017036
:104B10000320A870012005B0F0BDF8B55A07520F68
:104B20000026E74CE54D069F012A02D0022A45D017
:104B300042E0FEF726F80521A9702268AC21117029
:104B40002268010A517021688870DE482268016875
:104B5000897CD17000682268017C1171017E49074F
:104B60000ED5C18A2268090A51712268817D91712E
:104B7000818A2268090AD1712268017D11720DE0D3
:104B8000818A2268090A51712268017D9171C18A66
:104B90002268090AD1712268817D11722268202160
:104BA00051722268022191722168CE7221680E73BF
:104BB0002168007E48732E810020F8BDAA78052A5E
:104BC0000FD12A89BA4204D223689B5C0370521C1D
:104BD0002A8190B2B84204D12E81012008700320AE
:104BE000A8700120F8BD70B45D076D0F0024B44BB0
:104BF000B24E039A012D02D0022D3FD03BE002209D
:104C0000B070FF20348140020168880A85028D421D
:104C100000D0401C8000081AC01C8008AA498000EF
:104C20000F2541186D03A8421DD80E78CD78304667
:104C30004E782D06360230438E78360430432843B2
:104C4000CD780002000A2D062843A04DA8420AD1C3
:104C50000020002A0FD90C181D6824792C54401C00
:104C60009042F8D307E00020002A04D919680C54B8
:104C7000401C9042FAD370BC00207047B578022DDA
:104C80000FD13589954204D21B685B5D03706D1CA2
:104C90003581A8B2904204D13481012008700320EC
:104CA000B07070BC0120704770B45D076D0F0024B8
:104CB000834B824E039A012D02D0022D59D055E02C
:104CC0000220B070FF20348140020168880A85020A
:104CD0008D4200D0401C8000081AC01C81087A4810
:104CE00089000F2508186D03A94237D80678C578C2
:104CF000314646782D0636023143867836043143F4
:104D00002943C5780902090A2D0629436F4DA94296
:104D100024D11A68017C11701A68417C51701A689C
:104D2000817C91701A68C17CD1701968027A0A710D
:104D30001A68417A51711A68817A91711A68C17A38
:104D4000D1711A68017D11721A68417D51721A6819
:104D5000817D91721968C07DC87207E00020002A29
:104D600004D919680C54401C9042FAD370BC00203E
:104D70007047B578022D0FD13589954204D21B6852
:104D80005B5D03706D1C3581A8B2904204D1348103
:104D9000012008700320B07070BC01207047F8B586
:104DA0005A07520F0026464D444F069C012A02D056
:104DB000022A36D033E003F0E1F9002824D08269DA
:104DC000C1692B68C0681A702C68130A63702C685C
:104DD000130CA3702B68120EDA702A6811712B68FD
:104DE0000A0A5A712B680A0C9A712A68090ED17145
:104DF000296808722A68010A51722A68010C9172A6
:104E00002968000EC87207E00020002C04D9296828
:104E10000E54401CA042FAD30220B8703E810020FC
:104E2000F8BDBA78022A0FD13A89A24204D22B687F
:104E30009B5C0370521C3A8190B2A04204D13E8127
:104E4000012008700320B8700120F8BDF0B45B07A2
:104E50005B0F00271A4C194E049A012B02D0022B2B
:104E60005DD059E00220B0700025FF20358140025E
:104E70000168880A83028B4200D0401C8000081A17
:104E8000C01C81080120890040030F2308185B0320
:104E9000994238D8810736D10D4B0168994232D1F9
:104EA000002319468E008659491CF3180746072926
:104EB000F8D3002B01D0002D25D00BE0680900208D
:104EC000BC740100180A0020E81F000034CD12ABAA
:104ED000544649532268017C11702268417C51700C
:104EE0002168827C8A702268C17CD1702268017D31
:104EF00011712268417D51712268817D9171216813
:104F0000F87DC87108E00020002A05D90021236837
:104F10001954401C9042FAD3F0BC00207047B3787B
:104F2000022B0FD13389934204D22468E45C0470CD
:104F30005B1C338198B2904204D137810120087004
:104F40000320B070F0BC01207047F8B55E07760F03
:104F5000FE4D069C012E04D05B0707D0022E41D0E7
:104F60003EE00220A8700020288139E001260024BC
:104F7000D0071ED0FF2040020168880A83028B42BE
:104F800000D0401C8000081AC01C83080F209B0022
:104F90004003834222D80120400300219F08002FB4
:104FA00007D99F0808C8491C1C198F42FAD8002E3F
:104FB00014D090070ED503F0E1F800280ED08268D7
:104FC00000219308002B05D9930804C8491C141923
:104FD0008B42FAD8002E01D0EC6101E00020E8619C
:104FE0000020F8BDAA78022A12D12A890327A242FA
:104FF00006D2BB1ADE00EB69F3400370521C2A8113
:1050000090B2A04204D10020288101200870AF7026
:105010000120F8BD70B45B075B0F0025CB4C039AF1
:10502000012B02D0022B08D004E00520A0702581BE
:105030002020E07070BC00207047A378052B0ED1B3
:105040002389934203D2E67806705B1C238198B2D1
:10505000904204D12581012008700320A07070BC0B
:1050600001207047FFB5864683B05807400F0026E1
:10507000B74CB64D0C9F9446012809D029460989A2
:105080005A074B1C9BB2002A10D0022820D01CE0EB
:1050900001A9684601F09FFA0520A87021680198CF
:1050A00008702168009848702E810EE0B94203D242
:1050B0002268604650542B812889B84205D12E8140
:1050C00020680178407801F07CFA002007B0F0BD3C
:1050D000A87805280FD1B94204D22068415C7046F7
:1050E00001702B812889B84205D12E8104980121B5
:1050F00001700320A870012007B0F0BDF8B55F076C
:105100007F0F0026914C924D0698012F02D05B072D
:1051100006D024E0268128680670286846701EE0C4
:105120002389834203D22F68FA545B1C23819AB2ED
:10513000824214D187A00068268101220A70296862
:10514000C2B2097891420AD1296800044978000E58
:10515000814204D100221146032001F08CF8002086
:10516000F8BD580710B5400F012801D101F0E2FD4C
:10517000002010BDF8B55E07760F744D012E07D0E4
:105180005F07724BDC691B8908D0022E18D015E02E
:105190000020288104F02BFBE8610FE0002B02D0F7
:1051A000012B03D007E01002E86104E02046104321
:1051B000E86104F015FB2889401C28810020F8BD17
:1051C000002B02D0012B03D005E0210A017002E080
:1051D0000470012008705B1C2B810120F8BD70B5A4
:1051E00006465807400F594C0D46012804D0590770
:1051F00004D002280DD00AE0002007E02089002812
:1052000002D110460CF0EFF92089401C20810020CB
:1052100070BD0CF0E5F930700120287070BDFFB54D
:1052200084465807400F8646012811D04A49474E08
:105230000C683789F078E51D21467E1C5B07F9353F
:105240004031B6B2002B09D07246022A34D030E089
:105250003E4800210181FF21C1702AE0002F05D0C6
:105260003A4B012F05D0022F06D020E03748C270FC
:105270001DE01002D8611AE0DF691743BAB2DF619E
:10528000062814D203007B441B79DB189F440205D7
:10529000080A0C0E3148C28109E03048828106E0DC
:1052A000A28604E0AA8102E00A8200E04A8227483E
:1052B0000681002004B0F0BD032F24D2002206286E
:1052C00014D203007B441B79DB189F440205080AB3
:1052D0000C0E2248C28909E02048828906E0A28E8D
:1052E00004E0AA8902E00A8A00E04A8A012F02D07B
:1052F000022F03D007E0110A604603E06046027007
:1053000001980121017011480681012004B0F0BD0F
:1053100000207047F8B55A07520F00260C4D0B4C71
:10532000069F012A02D0022A20D01DE004F078FD59
:1053300029680870FEF732F92968487002F076FC97
:1053400029688870FEF72DF9296809E068090020AE
:10535000BC74010055AC0000180A00206442002013
:10536000C8700520A07026810020F8BDA278052A0B
:105370000FD12289BA4204D22B689B5C0370521C65
:10538000228190B2B84204D1268101200870032006
:10539000A0700120F8BD70B506465807400F0D46B5
:1053A000022801D0002070BD00F07CFF002801D051
:1053B000012400E0002400F078FF002801D0022240
:1053C00000E00022224332700120287070BDF8B541
:1053D0005A07520FF84C0025F84E069F012A02D0BA
:1053E000022A2CD029E0FEF7DBFA00281BD0416905
:1053F000FF2901D2C9B200E0FF2122681170816942
:10540000FF2901D2C9B200E0FF2122685170C169B1
:10541000FF2901D2C9B200E0FF2122689170216802
:10542000007CC87008E0206805702068457020681E
:10543000857021685020C87035810020F8BD328900
:10544000BA4204D223689B5C0370521C328190B232
:10545000B84202D13581012008700120F8BD70B535
:105460005A07520F0026D44BD44D049C012A02D077
:10547000022A08D005E018680EF0A6FA0520A870E8
:105480002E81002070BDAA78052A0FD12A89A24258
:1054900004D21B689B5C0370521C2A8190B2A0420C
:1054A00004D12E81012008700320A870012070BD56
:1054B000F8B55A07520F0027C04C012A02D0022A21
:1054C0000ED00BE00520A07000212781084601F0D6
:1054D00082F84000608101F08AF820610020F8BD68
:1054E000A278052A13D122896589AA4205D2D30759
:1054F0000FD0E3780370521C228190B2A84206D1EB
:105500002781012008700320A07001F07BF80120A2
:10551000F8BD530826695B00F35A1E0A0670E37053
:10552000E9E7F8B55A07520F0027A44C012A02D028
:10553000022A0AD007E00520A0702781D0206081D0
:1055400001F0D4F920610020F8BDA278052A13D11A
:1055500022896589AA4205D2D3070FD0E378037068
:10556000521C228190B2A84206D1278101200870E6
:105570000320A07001F0C4F90120F8BD530826698A
:105580005B00F35A1E0A0670E370E9E77FB5054633
:105590000C46580704D05807400F022808D004E0F2
:1055A000012202A9092000F066FE002004B070BDAF
:1055B00004F036FC28700120207004B070BD70B576
:1055C0005A07520F7D4C012A02D0022A0ED00BE05E
:1055D00002F04BFF00212062002803D0852000014B
:1055E000A08100E0A1812181002070BD2289A389D2
:1055F0009A4204D2256AAD5C0570521C228190B299
:10560000984201D101200870012070BD70B45E077E
:1056100001256B4C002E04D05A07520F022A24D0C9
:1056200020E003210903012A02D0002A0DD019E04D
:10563000206840692268284350612068006B8843D5
:1056400060490843216808630CE02068006B8843C8
:105650005D49084321680863206840692168400863
:105660004000486170BC0020704722685269D20730
:10567000D20F02700D7070BC0120704770B50546E6
:105680000C46580704D05807400F022809D006E0FE
:10569000002A01D0012000E0002001F03BFB0020A7
:1056A00070BD01F03FFB002801D0012200E0002284
:1056B0002A700120207070BD70B55807400F3F4D13
:1056C0001446012802D0580702D018E0002015E047
:1056D0002889002802D0012802D00DE0EA700BE0F2
:1056E000E878FCF76BFDE878384A014613682140FA
:1056F00019631168A04348632889401C2881002051
:1057000070BD70B55A07520F2C4C012A02D0022AE4
:1057100027D024E002F0A9FE002200281CD0014678
:1057200050312162FF234168113399420BD320305D
:10573000017843780D465D43C9188378C0786918AD
:105740001818081806E02030017880780B4643438B
:1057500008181818A08101E02262A281228100208D
:1057600070BD2289A3899A4204D2256AAD5C057076
:10577000521C228190B2984201D101200870012070
:1057800070BD10B55C0704D05A07520F022A05D02D
:1057900002E0104600F045FF002010BD0C4A1278D0
:1057A00002700120087010BD10B55C0712D05A07B6
:1057B000520F022A13D010E0BC74010068090020C7
:1057C0009C74010000205FA000005FA094740100A1
:1057D0009D090020104601F0A2F8002010BDF84AF3
:1057E000127802700120087010BD1FB5580704D14F
:1057F000012202A9082000F03EFD002004B010BDE7
:1058000070B55807400FEF49012802D0580703D060
:1058100027E00020088124E00889EB4C032801D20E
:1058200023681A54401C80B20881032819D1FBF761
:1058300017FD2068817842780802104346BAFBF7CA
:105840002FFC050001D0FBF7F4FD2068007800284C
:1058500000D001203146FBF7D1F8002D01D0FBF735
:10586000EDFD002070BD70B55807400FD5490128E7
:1058700002D0580703D027E00020088124E00889DF
:10588000D14C022801D223681A54401C80B20881EE
:10589000022819D1FBF7E4FCFBF702FC050001D05C
:1058A000FBF7C7FD206800780028206841780DD0FC
:1058B0000120FBF7FFF8206841781120FBF7FAF888
:1058C000002D01D0FBF7BAFD002070BD0020F5E7E8
:1058D0007FB505460C46580704D05807400F0228EC
:1058E00008D004E0012202A90D2000F0C4FC002031
:1058F00004B070BD04F044FA002801D0012200E099
:1059000000222A700120207004B070BD7FB50546CA
:105910000C46580704D05807400F022808D004E06E
:10592000012202A90E2000F0A6FC002004B070BDE8
:1059300004F015FA28700120207004B070BD70B515
:105940005807400F9F4C0499012802D0580703D0F4
:105950001AE00020208117E020899B4B032801D208
:105960001D682A54401C80B2208188420CD11868DE
:1059700081784278080219681043097840BA00B269
:10598000002903D0FEF7A8FE002070BDFEF7A1FE9F
:10599000FAE738B55807400F8A4C0499012802D01D
:1059A000580703D01FE0002020811CE02089864B8F
:1059B000032801D21D682A54401C80B220818842ED
:1059C00011D1186881784278080219681043097863
:1059D00040BA002907D100907C4803787C480278BF
:1059E0000846FCF740F8002038BD70B55A07520F42
:1059F000744D049C012A02D0022A07D004E0002042
:105A00002881FCF791FFE861002070BD2A89A2423D
:105A100005D203239B1ADE00EB69F3400370521C8E
:105A200090B22881A04201D101200870012070BDF0
:105A30007FB505460C46580704D05807400F02288A
:105A40000CD008E06846007AC00704D0012202A901
:105A50000F2000F010FC002004B070BD04F032FAFA
:105A600028700120207004B070BD7FB505460C463B
:105A7000580704D05807400F022808D004E001223C
:105A800002A9052000F0F7FB002004B070BDFDF76F
:105A900085FD02280BD003280DD004280DD0052841
:105AA00007D0FF2028700120207004B070BD0020B6
:105AB000F8E70120F6E70220F4E70320F2E710B54B
:105AC0001046590701D104F07BF9002010BD10B534
:105AD0001046590701D104F07CF9002010BD70B5C3
