:1000000078FFE4B8200118F6D8F99000007F007E50
:1000100007E4F0A3DFFCDEFA7581200228F39003E9
:10002000D6E0FBA3E0FAA3E0F9229003CFE0FF04BF
:10003000F08F82758300229003D57401F022E92F9E
:10004000F9E43AFA021D7800000000022470EFD3B0
:100050009403500D121234F583E5822D1210CEE474
:10006000F02200022A8575F002121ED3E0FCA3E004
:10007000FD75F088EFA42435F582E5F03400F583B2
:10008000EE75F002021ED3EF245CFFEE34FEFE7C20
:10009000007D0A121DF27D32121E04EF24A4FFEE31
:1000A0003401FEEB75F002A42417F582E5F034006C
:1000B000F583229003E3E0FF9003E2E0FE75F08811
:1000C000A42498F582E5F03400F583E5822FF582CB
:1000D000E43583F583229003E4E0FEA3E0FF900380
:1000E000E2E0FD75F088A4246BF582E5F03400F5BC
:1000F0008322E0FCA3E0FDEF75F088A42447F5829D
:10010000E5F0340022EF2424FFEE34FAFE7C007D7B
:100110000A121DF27D1E121E04EF24DCFFEE3405D0
:10012000FEEB75F002A42411F582E5F03400F583AE
:100130002275F004121ED3E0F8A3E0F9A3E0FAA3BD
:10014000E0FB9002BCE0FCA3E0FDA3E0FEA3E02204
:1001500075F002EBA4240BF582E5F03400F583E0A2
:10016000FCA3E0FDEB75F002A42405F582E5F03474
:1001700000F58322C39DFFEE9CFEE075F088A42469
:1001800059F582E5F03400F58322F583E493FC749D
:100190000193FD75F002EFA422C39BFBEE9AFAEDEA
:1001A00099F9EC98F8E493FE740193FFE4FCFDC325
:1001B000021E8575F088A4247DF582E5F03400F5F3
:1001C00083EC75F002021ED39003E2E0FF75F08825
:1001D000A42423F582E5F03400F583229003E2E0C5
:1001E000FF75F088A42435F582E5F03400F583220C
:1001F000F0A3F0A3F0A3F0A3F0A3F0A32224C1F591
:1002000082E5F03401F583ECF0A3EDF0EF25E02278
:1002100075F002EBA4240BF582E5F03400F583229F
:100220009003E2E0FD75F088A4247DF582E5F034CA
:1002300000F58322EF75F009A424C0F582E43402AE
:1002400022EF75F009A42425F582E43402229003FC
:10025000E3E0FF9003E2E075F088A4248FF582E5E7
:10026000F0340022E4F075F088EEA424A1F582E5D4
:10027000F03400229003E6E0FDEF9D7480F86E9864
:10028000229003E2E0FFA3E0FD2275F088EEA424B3
:10029000AAF582E5F0340022E0FEA3E0FFD322F0CD
:1002A00074D32EF582E43401F5832274DF2BF582BA
:1002B000E43401F5832274AD2BF582E43402F58336
:1002C0002274CD2EF582E43401F58322F583E0FC1F
:1002D000A3E0FD75F00222E0FF25E024D6F582E4DC
:1002E0003403F58322EB25E024C7F582E43421F5BD
:1002F0008322E0248FF582E43400F583E064012258
:10030000E024D0F582E43401F58322EF25E024DCFB
:10031000F582E43403F58322241DF582E5F03400F0
:10032000F583ECF0A3EDF00F22E4F0A3F075F08874
:1003300022E0FCA3E0FD75F08822E0FCA3E0FDECE8
:10034000541F22EDF0CBEFCBEBD3940322EE8FF0D2
:10035000121E5975F088ED22E0FEA3E0C39D222411
:10036000BBF582E5F034012224C7F582E5F03401C3
:100370002275F024A424DBF582E43402F58322758F
:10038000F024A42440F582E43402F5832225E025FC
:10039000E024E2F582E43401F5832225E025E0241F
:1003A000B0F582E43402F583229003E2E0FFA3E09B
:1003B000FD22A42498F582E5F03400F583E582223D
:1003C000F09001D6747EF0E4A3F022C39BFBEE9A7A
:1003D000FAED99F9EC98F822902EC3F0A37407F087
:1003E00022E0FF9003D6E0FEEFC8EEC80822F582B7
:1003F000E43402F5832275F002EF021ED390034E1F
:10040000E054F0F022902EC6F0902EC57401F02238
:1004100075F004121ED3021E96C3EF94F6EE6480AC
:10042000947F22ECF0A3EDF09003E2E0229003D55C
:10043000E004F022ECF0A3EDF09003D4E02290036E
:10044000D5E0FF75F002A4229003E2EFF0A3EDF0F7
:100450009003E67403F0ED70037402F09003E2E0A1
:10046000FF1210F8F583C083C0829003E3E0FED052
:1004700082D083121066121358FFEE9CFE9003E4A4
:10048000F0A3EFF0122F10C31212744003021545AF
:100490001210D6C083C0829003E3E0FCD082D083E8
:1004A00012108112134D1210E6EC121081121298E4
:1004B000940AEE6480948040241210DEC083C082CF
:1004C0009003E3E0FCD082D083121081E4F0A3F02B
:1004D000ED1210F81211BFE475F001802B121419FF
:1004E00050299003E2E0FF1210E3C083C082900322
:1004F000E3E0FED082D083121081E4F0A3F012106A
:10050000F712107E74FFF5F0121E591212811210AC
:100510004E121281122D05121281122B2CEF700334
:100520000216719003E3E0FF9003E2E0FE1212571F
:100530001210C9E4F0EF600302167112128AF583FB
:10054000E4F00216719003E3E0703EA3E0FEA3E046
:10055000FF122F109003E6E02402FDE433FCD3EFFA
:100560009DEC6480F8EE648098400912124E1210DF
:10057000C97401F01216AAD3121274402C9003E22F
:10058000E075F08812128E801B1216AA9003E6E026
:10059000FDD3121279401212124EF583E5822FF527
:1005A00082E43583F5837401F01210D6C083C082D3
:1005B0009003E3E0FCD082D08312108112134D121D
:1005C00010E61211C11212989464EE648094804077
:1005D000231210DEC083C0829003E3E0FCD082D0FF
:1005E00083121081121329ED1210FB1211BFE47552
:1005F000F0018031C3EF949CEE6480947F50299089
:1006000003E2E0FF1210E3C083C0829003E3E0FE48
:10061000D082D083121081E4F0A3F01210F71210F0
:100620007E74FFF5F0121E59C39003E4E0648094D9
:10063000805032121281122CCC121281122ADCEF5D
:1006400060299003E21211DFC083C0829003E3E0CF
:10065000FED082D0831210811210F212107EECF0C4
:10066000A3EDF0800612128112104E121281122E8A
:10067000C09003E2E0FF1210F8F583C083C08290BF
:1006800003E3E0FED082D083121066E0FEA3E09088
:1006900003E2121174C083C0829003E3E0D082D0E1
:1006A00083121081EEF0A3EFF0229003E4E0FEA3AA
:1006B000E0FF122F10229003E2EFF0A3EDF0900381
:1006C000E67404F0ED603F90008FE06401700280FA
:1006D000089003E31212F2702D1211C8C083C08279
:1006E0009003E3E0FED082D083121066121423122E
:1006F0001225C083C0829003E3E0D082D083121021
:1007000081E4F0A3F0229003E21211DFC083C082E3
:100710009003E3E0FED082D083121081121331EFF8
:10072000A42423F582E5F0340012107E121358FF42
:10073000EE9CFE9003E4F0A3EFF0122F109003E67E
:10074000E0FDC312127940030218181210B3E064DE
:1007500001703775F088EE12117EEF1211C2E0FEC3
:10076000A3E0C3941EEE64809480400302185E12DE
:1007700011C8C083C0829003E3E0FED082D0831210
:100780001066ECF0A3EDF002185E9003E4E0FEA327
:10079000E0FF121220C083C0829003E3E0FCD0820D
:1007A000D083121081EE8FF0121E59ED1211B31288
:1007B00012989402EE648094804029121220C08323
:1007C000C0829003E3E0FCD082D083121081121328
:1007D00029EDA42435F582E5F034001211BFE4754B
:1007E000F001802EC3EF94FEEE6480947F506F90F2
:1007F00003E2E0FF121225C083C0829003E3E0FE13
:10080000D082D083121081E4F0A3F012107174FF33
:10081000F5F0121E5902185E1211C8C083C08290F2
:1008200003E3E0FED082D083121066121423FF127D
:10083000117BC083C0829003E3E0FED082D083129C
:100840001081E0FCA3E0C3941EEC64809480400E11
:1008500075F088EF1213B22E1210CE7401F0121040
:10086000B3E0640170281212661210C9E00412127B
:10087000651210C9E0D3940540149003E3E0FF75BE
:10088000F088EE1210C01212641210C9E4F0229027
:1008900003E2EFF0A3EDF09003E67403F0ED7003D4
:1008A0007404F090008FE06401700280089003E30C
:1008B0001212F270381211DCC083C0829003E3E0A0
:1008C000FED082D0831210811210F212107EECF052
:1008D000A3EDF09003E212117AC083C0829003E38B
:1008E000E0D082D083121081E4F0A3F0229003E2E2
:1008F000E0FF1210F8F583C083C0829003E3E0FEAE
:10090000D082D083121066121358FFEE9C9003E43D
:10091000F0A3EFF09003E2121300E06007E490030D
:10092000E4F0A3F09003E4E0FEA3E0FF122F1090A8
:1009300003E6E0FDC312127940030219CC9003E4F0
:10094000E0FEA3E0FF9003E21210E1C083C08290BA
:1009500003E3E0FCD082D08312108112134D1210F9
:10096000E61211C1121298940AEE64809480402617
:100970009003E21210E1C083C0829003E3E0FCD058
:1009800082D083121081121329ED1210FB1211BFB5
:10099000E475F001802B12141950299003E2E0FF56
:1009A0001210E3C083C0829003E3E0FED082D083C4
:1009B000121081E4F0A3F01210F712107E74FFF50C
:1009C000F0121E591213A912104E8038C39003E47E
:1009D000E064809480502D1213A9122CCC1213A91C
:1009E000122ADCEF601E1211DCC083C0829003E388
:1009F000E0FED082D0831210811210F212107EEC31
:100A0000F0A3EDF09003E2E0FF1210F8F583C0834D
:100A1000C0829003E3E0FED082D083121066E0FE35
:100A2000A3E09003E2121174C083C0829003E3E05C
:100A3000D082D083121081EEF0A3EFF022E4900375
:100A4000D5F09003D5E0FDC394095023E0FF75F085
:100A5000021211D0E0FAA3E0FB75F002EF1211E4EC
:100A6000EAF0A3EBF0E4FF12144812142D80D3E453
:100A70009003D4F0900003E0FF9003D4E0C39F40C4
:100A800003021BDD1212D7E4F0A3F012130BE4F003
:100A9000A3F0EF7003021BB5E49003D5F09003D5EB
:100AA000E0FDC3940950189003D4E0FF1216B690ED
:100AB00003D4E0FFA3E0FD12188F12142D80DEE4B2
:100AC0009003D5F09003D5E0FFC394094003021BC7
:100AD000B5748F2F1212F560109003D4E075F08872
:100AE00012128EF583E0B401239003D4E0FF1211BB
:100AF0007B121331EF12117EC083C0829003D5E0C8
:100B0000D082D083121081ECF0A3EDF09003D5E0F9
:100B1000FF7003021BAF9003D4E0FE12117B12138F
:100B2000F6E0FCA3E0C39403EC64809480501A7553
:100B3000F088EE12117EC083C0829003D5E0D0828F
:100B4000D083121081E4F0A3F09003D4E0FF1210E0
:100B5000F8F583C083C0829003D5E0FED082D083B5
:100B6000121081E0FCA3E0FD12130BEC8DF0121EBD
:100B7000599003D4E0FF75F088A42459F582E5F07C
:100B8000340012107E1210F2F583C083C0829003ED
:100B9000D5E0D082D083121081E0FEA3E02DFFEEDD
:100BA0003CFE9003D4E01212D9EE8FF0121E5912BF
:100BB000142D021AC49003D41212D7E0FCA3E0FD56
:100BC000EF121165121434FF12130CE0FCA3E012B3
:100BD000119212121512143404F0021A74E49001E6
:100BE000D8F022E49003D5F09003D5E0FFC3940938
:100BF0004003021D71EF902EC87014E0545FF0A303
:100C0000746AF0902EC3744AF0A37401F08009E076
:100C100044F0F074801213D89003D5E090208893AC
:100C2000902ECAF0E49003D4F0900003E0FF90030C
:100C3000D4E0FEC39F4003021D6874222E1213EEFF
:100C4000E0FF9003D6F0E4F5E2EFC39408503B7464
:100C500015121405C083C0821213E18002C333D879
:100C6000FCD082D083F0902ECD7401F0C083C0827E
:100C7000E0FFC8EEC8088002C333D8FCD082D0831E
:100C8000F0902EC074C1F0021CF49003D6E024F85A
:100C9000F07416121405C083C0821213E18002C3DF
:100CA00033D8FCD082D083F0902ECE7401F0C08374
:100CB000C082E0FFC8EEC8088002C333D8FCD082EF
:100CC000D083F0EEB40506902EC97420F0EEB40681
:100CD0000B902EC97421F074601213D8EEB4070E75
:100CE000902EC97420F0902EC3F0A37408F0902EBB
:100CF000C074C2F0E4FF900000742EF0A3E4F09002
:100D000003D4E024221213EEE09003D6F0E5E220B3
:100D1000E2050FEFB4C8DF9003D6E0FD75F002A442
:100D2000FFAEF0900001E02FF0900000E03EF0ED0B
:100D30009020B793FF900000E475F002121E6F85BB
:100D4000F082F583121331EF1211D0C083C082906C
:100D500003D5E0D082D083121081ECF0A3EDF090A7
:100D600003D4E004F0021C299003D5E004F0021B38
:100D7000E89001D87401F022BB010689828A83E0E1
:100D8000225002E722BBFE02E32289828A83E49397
:100D900022BB010CE58229F582E5833AF583E02246
:100DA0005006E92582F8E622BBFE06E92582F8E234
:100DB00022E58229F582E5833AF583E49322BB019B
:100DC0000689828A83F0225002F722BBFE01F322B9
:100DD000F8BB010DE58229F582E5833AF583E8F059
:100DE000225006E92582C8F622BBFE05E92582C805
:100DF000F222EF8DF0A4A8F0CF8CF0A428CE8DF0D5
:100E0000A42EFE22BC000BBE0029EF8DF084FFADA6
:100E1000F022E4CCF875F008EF2FFFEE33FEEC3350
:100E2000FCEE9DEC984005FCEE9DFE0FD5F0E9E44C
:100E3000CEFD22EDF8F5F0EE8420D21CFEADF0756B
:100E4000F008EF2FFFED33FD4007985006D5F0F284
:100E500022C398FD0FD5F0EA22C5F0F8A3E028F0F0
:100E6000C5F0F8E582158270021583E038F022A300
:100E7000F8E0C5F025F0F0E582158270021583E0F8
:100E8000C838F0E822EB9FF5F0EA9E42F0E99D4277
:100E9000F0E89C45F022ECF0A3EDF0A3EEF0A3EF18
:100EA000F022A8828583F0D083D082121EB9121E50
:100EB000B9121EB9121EB9E473E493A3C583C5F039
:100EC000C583C8C582C8F0A3C583C5F0C583C8C59E
:100ED00082C822A42582F582E5F03583F58322EFCE
:100EE0004E6012EF60010EEDBB010B89828A83F028
:100EF000A3DFFCDEFA2289F05007F709DFFCA9F036
:100F000022BBFEFCF309DFFCA9F022CBEFCB1212CF
:100F100010E0FEA3E0FF121164E0FCA3E0FDC39F1C
:100F2000EC9E5003021FB9E42DFFEC3404FE1212B4
:100F300010E0FCA3E0FDC3EF9DFFEE9C121120EE3C
:100F4000F0A3EFF0121210E0FEA3E0FF121164E034
:100F5000FCA3E0C39FFFEC9E1210A2EEF0A3EFF003
:100F60001212E5E493FE740193FF1210A3E0FCA3B8
:100F7000E0FDD39FEC9E40241212E5E493FE740141
:100F800093FFC3ED9FFFEC9EC313FEEF13FF1212FE
:100F9000E57401932FFFE4933EFE80131210A3E04B
:100FA000FEA3E0FF7C007D63121DF20D121E0412F1
:100FB00010A3EEF0A3EFF0803C121164E0FEA3E07A
:100FC000FF121210E0FCA3E0C39FEC9EC3940475D3
:100FD000F002EB50121210A7E4F0A3F012112174EA
:100FE00004F0A3E4F0800E1210A7E4F0A3F01211B5
:100FF00021E4F0A3F0EB640170441210A3121298E4
:1010000094A4EE94014008121087EEF0A3EFF012C2
:1010100010A312133A900358F0EDA3F0121121120D
:10102000129894DCEE94054008121105EEF0A3EF3F
:10103000F012112112133A90035CF0EDA3F0EB646F
:101040000270441210A312129894A4EE9401400866
:10105000121087EEF0A3EFF01210A312133A9003D0
:101060005AF0EDA3F012112112129894DCEE9405BF
:101070004008121105EEF0A3EFF012112112133AFD
:1010800090035EF0EDA3F0223F3F3F3F3F3F3F3FE5
:101090003F0032003217700258001E000A000A009A
:1010A0000F0064000A000A000000000000000000B9
:1010B000000000000101010D0E0F030405060708E2
:1010C000090A0B0C0001020032003200320032002B
:1010D0003200320032003200320032003200320080
:1010E000320032003200320037003700370037005C
:1010F0003700370037003700370037003700370038
:101100003700370037003700280028002800280063
:10111000280028002800280028002800280028008F
:1011200028002800280028002D002D002D002D006B
:101130002D002D002D002D002D002D002D002D0047
:101140002D002D002D002D006E006E006E006E0033
:101150006E006E006E006E006E006E006E006E001F
:101160006E006E006E006E007300730073007300FB
:1011700073007300730073007300730073007300D7
:101180007300730073007300640064006400640003
:10119000640064006400640064006400640064002F
:1011A00064006400640064002D002D002D002D00FB
:1011B0002D002D002D002D002D002D002D002D00C7
:1011C0002D002D002D002D00FA00FA00FA00FA0083
:1011D000FA00FA00FA00FA00FA00FA00FA00FA003F
:1011E000FA00FA00FA00FA9001DEE024FE601B1417
:1011F000604D1470030222E92403600302232C9043
:1012000001DE7402F0E4900220F01226D390022155
:10121000E064017024F0C28A1213FD900004E060C3
:1012200009E4F090034EE04409F09002ACE060095C
:10123000E4F090034EE0440AF09001DE7403F012F3
:101240001BE39001D8E070030222CA900220E00460
:10125000F0E49003D3F0900003E0FF9003D3E0C3E9
:101260009F5067E4FF9003D3E0FE1211CD1213F6F6
:10127000121331EE1210FBF5831213F6121322EF44
:10128000B409E29003D3E0FF1210A4E4F0A3F0EF5E
:101290001211227404F0A3E4F0EFB40110E49003FF
:1012A00058F0A3F090035C7404F0E4A3F0EFB402F0
:1012B00010E490035AF0A3F090035E7404F0E4A3EA
:1012C000F09003D3E004F0022256900220E0C39491
:1012D000034059900002747EF0E49001D9F090022E
:1012E00020F09001DE7404F022121BE39001D8E09C
:1012F000603A121A3DE49003D3F0900003E0FE90B0
:1013000003D3E0FFC39E5016122C57122BC7900335
:10131000D3E0FF121F0B9003D3E004F080DC122D0A
:10132000D812232D12277F9001DEEFF0229003D4F4
:101330001213C4900003E0FF9003D5E0FEC39F406A
:10134000030224401212C1E060030223F774D02E7E
:10135000121303E0FF70219003D5E075F002A4247E
:10136000C1F582E5F034011212CCEE1210A7E0FABA
:10137000A3E0C39DEA9C5019EF6401706512143E0E
:1013800012135F1212CCEF1210A7121358EE9C40EA
:10139000519003D5E0FF9003D4F01213017401F0D3
:1013A00074CD2F1212C47401F09001D6E0FFB47E08
:1013B000149003D5E0FE9001D6F0A3740112129FA1
:1013C0007401F0800D9003D5E06F60069001D77432
:1013D00002F09003D5E0FF122EE69003D5E0FF1255
:1013E0002E6D9003D5E0FF122D74EF604A9003D567
:1013F000121300E4F0804012143E1213681212CC53
:10140000EF1210A7121358EE9C40159003D5E090F0
:1014100003D4F0122DA6EF601E9001DE7402F022BC
:101420009003D5E0FF24CD1212C4E4F0122EF59003
:1014300003D5E0FF122E509003D5E004F0022333D1
:101440009001CEE0701BA3E070179001D7E0D39419
:1014500000400E9001D6E024D31212A3740112139F
:10146000C09003D4E0FF9001DBE06F6002EFF02258
:10147000C0E0C083C082C0D0E8C0E0E9C0E0EAC0FC
:10148000E0EBC0E0EFC0E0D2AFE5DB30E415E5DB38
:1014900030E102802290034DE5DFF09003CEE4F0CE
:1014A000022549E5DB30E50590034A8038E5DB306D
:1014B000E126E5DB30E0119003D012102112102A52
:1014C000121D91F5DF0225499003CFE06401707988
:1014D000208A76D28A0225499003CEE0700DA3E5DA
:1014E000DFF09003CE7401F00225499003CFE09025
:1014F000293893FFB4FF0E90034DE5DFF09003CF42
:10150000E004F0803EEF640F9003D0702B121021A6
:101510009003CFE0FF12103E540F121DBE9003D077
:101520001210219003CFE0FF04F012103EFFE5DF20
:1015300054F04F121DBE800B12102112102AE5DF4D
:10154000121DD090034CE004F075DBFFD0E0FFD01B
:10155000E0FBD0E0FAD0E0F9D0E0F8D0D0D082D0F3
:1015600083D0E032900361E0FE6410704EFF900083
:1015700003E0FDEFC39D400302260BEF25E0246747
:10158000F582E4342112118A1211FD2447F582E418
:10159000342112118A12135F1212052487F582E496
:1015A000342112118A12136812120524A7F582E45D
:1015B000342112118A12131802256EEE6420705D18
:1015C000FF900003E0FEEFC39E5040EF25E024E7CC
:1015D000F582E4342012118A1211FD24C7F582E449
:1015E000342012118A12135F1212052407F582E4C7
:1015F000342112118A1213681212052427F582E48D
:10160000342112118A1213180225C19001BDA3E0E2
:10161000900352F09001BFA3E0900353F022E490B6
:1016200003D5F0FF9003D4F0EF14601E146035145E
:10163000604C14605B240470749003D67401F0A3B2
:10164000742FF0A37458F00226A712101E90000108
:10165000121D91FED3941F4003121037121D786E95
:10166000704B804312101E900002121D91FED39405
:10167000064003121037121D786E70318029121047
:101680001E900003121D91FE121D786E701F8017B0
:1016900012101E900004121D91FE648B6003121044
:1016A00037121D786E70069003D4E004F00FEF64DB
:1016B0000560030226289003D4E0B40504A3740156
:1016C000F09003D5E0FD6007900362E0547FF0CF17
:1016D000EDCF227E017FD87D007B017A0079051253
:1016E0001EDF122C12900347E09003617005741006
:1016F000F080037420F0122564E4FE900003E0FF04
:10170000EEC39F506AE4FC75F088EE1210E61211E9
:10171000C1121329EE12125AF583E5822C1210CE53
:10172000E4F0EE1211B3121329EE1213B22C1210C0
:10173000CE121264F583E5822C1210CEE4F0CFEEC7
:10174000CFCDECCD12104E122EC00CEC640970B748
:1017500012128AF583E4F0CFEECF122EE6122EF5A8
:101760001212C1E412129FE41213C00E0226FB9063
:1017700001DB747EF0900002F0E49001DAF0229038
:1017800001DEE06402703690022104F09001CEE0A8
:10179000B401069000047401F09001CFE0B401069A
:1017A0009002AC7401F0900361E0B420089003470C
:1017B0007401F08005E4900347F07F0222E4FC907E
:1017C0000003E0FEECC39E505674D32C1212A3E02B
:1017D0006401704874CD2C1212C4E0FE701912130B
:1017E000FDECB40104E04409F0EC640270249003C1
:1017F0004EE0440AF0801BEE640170161213FDECFB
:10180000B40104E04401F0ECB4020790034EE0445C
:1018100002F074D32C1212A3E4F0C28A0C80A07FD1
:101820000422758A50538AEF9003EC7411F09003F0
:10183000EA7422F09003ED7433F075997F759A8005
:10184000E4FFFEC29620970AD296309705E49003F3
:10185000ECF00FBF00010EEF640A4E70E67590FFCA
:1018600075993F759AC0E4FEFF2097069003EA74CD
:1018700027F020960C9003EA7426F0209703742832
:10188000F00FBF00010EEF640A4E70DDE4F5AD7598
:10189000AEF075AF09F5AC7589FF75913F75991F6D
:1018A000F59675931FF59BF595F592F59A75800C55
:1018B000D28A9003EB04F022022C93E493A3F8E481
:1018C00093A34003F68001F208DFF48029E493A398
:1018D000F85407240CC8C333C4540F4420C88340B1
:1018E00004F456800146F6DFE4800B010204081080
:1018F000204080902D3EE47E019360BCA3FF543FC6
:1019000030E509541FFEE493A360010ECF54C025B7
:10191000E060A840B8E493A3FAE493A3F8E493A3A7
:10192000C8C582C8CAC583CAF0A3C8C582C8CAC50B
:1019300083CADFE9DEE780BE0F00FF000000000081
:101940000000FFFFFFFFFFFFFFFFFF0000000000A0
:101950000000000000000000000000000000000087
:101960000000000000000000000000000000000077
:101970000000000000000000000000000000000067
:101980000000000000000000000000000000000057
:101990000000000000000000000000000000000047
:1019A0000000000000000000000000000000000037
:1019B00000000000000000009003D37410F0A3E4C6
:1019C000F0A3743FF0A374FFF0E4FDFCF990034F23
:1019D000E064AA704F74AAF0758A10538AEF000071
:1019E000009003D3E0FEA3E02DF582EE3CF583E406
:1019F00093FF69F90DBD00010CBC2FE5BDFFE2901E
:101A000003D5E0FEA3E0F5828E83E493697007902E
:101A1000034F04F08005E490034FF0758A50538A19
:101A2000EF00000022902EC0E4F0902ECB74F4F072
:101A3000902F58E0540F2450902EC8F0902ECC7464
:101A400048F0902EC97428F0A3743FF0902E407493
:101A5000811211F0F0A3F0A3041211F07402F0A3AC
:101A6000F0902EC67414F0902EC17490F0A37401FF
:101A7000F0A37480F0A37407F043E310122E2D90AE
:101A80000003EFF022C0E0C0F0C083C082C0D0E805
:101A9000C0E0ECC0E0EDC0E0EEC0E0EFC0E0D2AFEF
:101AA0009001DDE004F0C3940A4017E4F012114203
:101AB0002401FFE43EFEE43DFDE43CFC9002BC1248
:101AC0001E96D0E0FFD0E0FED0E0FDD0E0FCD0E0FC
:101AD000F8D0D0D082D083D0F0D0E0329003E8EDBF
:101AE000F09003E7EFF0A3E0FE121234F583E582F5
:101AF0002E1210CEE060329003E7E0121371C08323
:101B0000C0829003E8E0D082D08312113190209BF4
:101B100012119940149003E8E0FF9003E7E01212DD
:101B2000351210C9E4F07F01227F00229003E8ED16
:101B3000F09003E7EFF0A3E0FE121241F583E58297
:101B40002E1210CEE060329003E7E012137FC083C4
:101B5000C0829003E8E0D082D08312113190209DA2
:101B600012119940149003E8E0FF9003E7E012128D
:101B7000421210C9E4F07F01227F00229001C3A32A
:101B8000E09003A6F09001C5A3E09003A7F09001B8
:101B9000BDA3E09003A8F09001BFA3E09003A9F0DB
:101BA0009001C9A3E09003AAF09001CBA3E09003B9
:101BB000ABF09021C97401939003ACF09021CB74E9
:101BC00001939003ADF0229003EBE0604490000796
:101BD000E0FEA3E0FFC39470EE941750069003ED6F
:101BE0007426F0C390000AE09488900009E09413F2
:101BF00050129003ED7427F0C3EF9470EE941750D9
:101C0000037428F0E49003EBF09003EDE0900356AA
:101C1000F0227E007F807D007B017A03794E121EC8
:101C2000DF90034E7408F0A37401F0A3F0900360FA
:101C300074ABF0900362748CF09003ECE09003546A
:101C4000F09003EAE0900355F09003EDE090035626
:101C5000F012261E022B7CCBEFCBEB640170171227
:101C60001150E090039EF0121164A3E090039FF0E6
:101C7000ECA3F0EDA3F0EB64027017121150E090AA
:101C800003A2F0121164A3E09003A3F0ECA3F0ED23
:101C9000A3F02275200153A87F122822122F0412CC
:101CA0002ED4122E0643A880122E8AEF24E0600A5A
:101CB0002410700AC283C2828004D283D282122589
:101CC000641229B8438D201221E780DC9003E712CB
:101CD000134350309003E7E0FFEB1212351210C9A6
:101CE000E07021EB1212351210C97401F01211428A
:101CF000FFEB121371C083C0829003E7E0D082D063
:101D000083121410229003E712134350309003E71C
:101D1000E0FFEB1212421210C9E07021EB121242E6
:101D20001210C97401F0121142FFEB12137FC0832D
:101D3000C0829003E7E0D082D083121410224102C7
:101D400020004101DD004102210041000400410268
:101D5000AC00410347004103CE004103CF004203E2
:101D600048000041034A0041034C0041034B00413D
:101D7000034D10009003D6EFF0E0FF24DF1212AE07
:101D8000E06020EF12138D1211371213CB902093C5
:101D90001211A5400E9003D6E024DF1212AEE4F03B
:101DA0007F01227F00229003D6EFF0E0FF24AD12E6
:101DB00012B9E06020EF12139B1211371213CB906F
:101DC00020971211A5400E9003D6E024AD1212B94F
:101DD000E4F07F01227F0022E4FFFE900003E0FD9B
:101DE000EEC39D501BEF1210A41212CEEE1210A7DC
:101DF000E0FAA3E0D39DEA9C4003CFEECF0E80DB58
:101E00009001DCEFF0229003D07401F0A37403F092
:101E1000A3744EF0E4F5DA75DA4043DA2075D74062
:101E200075DA5843A90875B80875F80822902EC5C8
:101E3000E4F0902ECDF0A3F0FFFEEE9020A793608B
:101E40000974222F1213EEEEF00F0EEEB410EB22F7
:101E500012134550171212ABE070111212AB74013D
:101E6000F0121142FFEB12138D121E96221213452F
:101E700050171212B6E070111212B67401F012115E
:101E800042FFEB12139B121E9622E4FD90034AE0E0
:101E9000601190034EE0FE54F0FDEE540FF0E4901C
:101EA000034AF0CFEDCF229002BC121EA200000028
:101EB000007E007F0A7D007B017A0179EE021EDF41
:101EC000EFD39403500D121241F583E5822D1210C9
:101ED000CEE4F02275B28E75B6F9E4F5B743B201DF
:101EE00043AA01022EA7EFD39403500874DF2F12E8
:101EF00012AEE4F022EFD39403500874AD2F121207
:101F0000B9E4F022122A259001DE7401F00226D3F2
:101F1000EE30E707C3E49FFFE49EFE2200000000CE
:101F200000000000000000000000000000000000B1
:101F300000000000000000000000000000000000A1
:101F40000000000000000000000000000000000091
:101F50000000000000000000000000000000000081
:102FF000000000000000000000000000000000D6FB
:00000001FF
