:100000000110020014000000E0310000FF000000B9
:1000100002164B122D5122FFFFFFFF022A1475AA70
:100020003B75BA0C43BA4043B92053B9BFE4F5B3AA
:1000300075B24E75B12075BBFF75A950F5AB75ACA7
:100040000375ADC075AEC022FFFFFF02241500147A
:10005000010A021E030A041E053C060A070A0814C8
:10006000091E0A1E0B0A0C640D0AFF021CF2BB01DA
:100070000689828A83E0225002E722BBFE02E32245
:1000800089828A83E49322EF8DF0A4A8F0CF8CF0CC
:10009000A428CE8DF0A42EFE22BC000BBE0029EFBA
:1000A0008DF084FFADF022E4CCF875F008EF2FFF5F
:1000B000EE33FEEC33FCEE9DEC984005FCEE9DFE2D
:1000C0000FD5F0E9E4CEFD22EDF8F5F0EE8420D274
:1000D0001CFEADF075F008EF2FFFED33FD400798E3
:1000E0005006D5F0F222C398FD0FD5F0EA22C5F0F4
:1000F000F8A3E028F0C5F0F8E582158270021583B8
:10010000E038F022EF2BFFEE3AFEED39FDEC38FC43
:1001100022C3EF9BFFEE9AFEED99FDEC98FC22E8DE
:100120008FF0A4CC8BF0A42CFCE98EF0A42CFC8ADC
:10013000F0EDA42CFCEA8EF0A4CDA8F08BF0A42D59
:10014000CC3825F0FDE98FF0A42CCD35F0FCEB8EFA
:10015000F0A4FEA9F0EB8FF0A4CFC5F02ECD39FEB0
:10016000E43CFCEAA42DCE35F0FDE43CFC2275F025
:1001700008758200EF2FFFEE33FECD33CDCC33CCAC
:10018000C58233C5829BED9AEC99E58298400CF5C7
:1001900082EE9BFEED9AFDEC99FC0FD5F0D6E4CEF5
:1001A000FBE4CDFAE4CCF9A88222B800C1B9005929
:1001B000BA002DEC8BF084CFCECDFCE5F0CBF978F6
:1001C00018EF2FFFEE33FEED33FDEC33FCEB33FB8A
:1001D00010D703994004EB99FB0FD8E5E4F9FA2214
:1001E0007818EF2FFFEE33FEED33FDEC33FCC9330F
:1001F000C910D7059BE99A4007EC9BFCE99AF90FD7
:10020000D8E0E4C9FAE4CCFB2275F010EF2FFFEE42
:1002100033FEED33FDCC33CCC833C810D7079BEC8D
:100220009AE899400AED9BFDEC9AFCE899F80FD505
:10023000F0DAE4CDFBE4CCFAE4C8F922EB9FF5F068
:10024000EA9E42F0E99D42F0E89C45F022E8600F0A
:10025000ECC313FCED13FDEE13FEEF13FFD8F122F8
:10026000E8600FEFC333FFEE33FEED33FDEC33FCFC
:10027000D8F122E6FC08E6FD08E6FE08E6FF22E0EB
:10028000FCA3E0FDA3E0FEA3E0FF22E2FC08E2FD08
:1002900008E2FE08E2FF22E6FB08E6F908E6FA08B3
:1002A000E6CBF822E0F8A3E0F9A3E0FAA3E0FB2212
:1002B000E2FB08E2F908E2FA08E2CBF822ECF608E1
:1002C000EDF608EEF608EFF622ECF0A3EDF0A3EE63
:1002D000F0A3EFF022ECF208EDF208EEF208EFF2F4
:1002E00022D083D082E493F608740193F608740256
:1002F00093F608740393F6740473A8828583F0D090
:1003000083D082120301120301120301120301E4DC
:1003100073E493A3C583C5F0C583C8C582C8F0A3A1
:10032000C583C5F0C583C8C582C822D083D082E406
:1003300093F208740193F208740293F20874039321
:10034000F2740473A42582F582E5F03583F58322E7
:10035000FAE6FB0808E6F925F0F618E6CA3AF622AE
:10036000E493FB740193FA740293F922D083D08250
:10037000F8E4937012740193700DA3A393F87401C1
:1003800093F5828883E4737402936860EFA3A3A358
:1003900080DF8A838982E473E4900107F09001068C
:1003A000F0900106E0FFC394025017EF25E025E02E
:1003B00024A6F812031B00000000900106E004F0E0
:1003C00080DF122F7CE4900106F0900106E0FFC36D
:1003D00094025050EF25E025E024A6F8C000120258
:1003E0007BC004C005C006C007900106E0242AF8BF
:1003F000E675F003A424B2F582E43430F5831203E9
:1004000050120382A804A905AA06AB07D007D0069C
:10041000D005D0041200F4D0001202C5900106E00D
:1004200004F080A6900107E004F0E0C39405409238
:10043000E4900106F0900107E0FFE4FCFDFEC0043B
:10044000C005C006C007900106E025E025E024A60F
:10045000F812027BD003D002D001D00012019A9092
:1004600001081202B9900108120294C0009001061E
:10047000E02464F8E6FFE4FCFDFED00012010F90DA
:1004800001081202B990010812026F780712023DAA
:100490009001081202B9E47F107E27FDFC9001084C
:1004A000120294D312022C406290010812026FEFE4
:1004B00024F0FFEE34D8FEED34FFFDEC34FFFC9069
:1004C0000106E0FB25E025E02432F81202ADEB2521
:1004D000E02400F87427F2087410F2900108120268
:1004E0006FEF24F0FFEE34D8FEED34FFFDEC34FF67
:1004F000FCEB25E025E0243EF81202ADEB25E024DC
:1005000060F87427F2087410F28051900106E0F947
:1005100025E025E02432F81202D10000000090010D
:100520000812026FAB07AA06E925E02400F8EAF2F8
:1005300008EBF2E925E025E0243EF81202D10000A4
:100540000000E925E02460F8EAF208EBF2E925E092
:1005500025E02496F812031B00002710900106E006
:10056000FB25E025E024A6F812031B00000000EBA9
:1005700025E024B8F8E4F208F2900106E0FBC39409
:100580000240030205FBE0FF25E02400F8E2FC083E
:10059000E2FDEF25E02412F8ECF208EDF2E0FF2591
:1005A000E02418F8E4F208F2EF25E025E0241EF834
:1005B00012031B00000000900106E0FF25E024600C
:1005C000F8E2FC08E2FDEF25E02464F8ECF208ED27
:1005D000F2E0FF25E02468F8E4F208F2EF25E024D9
:1005E00060F8E2FE08E2FFE4FCFDEB25E025E024F4
:1005F00096F81202C5EB25E02460F8E2FE08E2FF5F
:10060000EB25E02492F8EEF208EFF2900106E00408
:10061000F0E06402600302042522900108EEF0A3DA
:10062000EFF0E490010BF0A3F0A3F09000E0E0FF06
:10063000A3E090010CCFF0A3EFF0E490010AF0905A
:10064000010AE0FBC39402400302074690011CE04C
:1006500070169000D6E0B4060FD39000E8E0940046
:100660009000E7E09400402090010AE0FF25E0249C
:10067000B8F8E4F208F2EF25E025E024A6F812032A
:100680001B0000000002073DEB25E024B9F9E370F0
:100690000219E3701C90010AE0FF25E02400F8E253
:1006A000FC08E2FDEF25E024B2F8ECF208EDF28060
:1006B0005E90010AE0FD25E024B2F8E2FE08E2FFC8
:1006C000ED25E02400F8E2FC08E2FD123066C3905C
:1006D000010DE09F90010CE09E503490010AE0FF74
:1006E00025E02400F8E2FC08E2FDEF25E024B2F862
:1006F000ECF208EDF2E0FF25E024B8F8E4F208F2AD
:10070000EF25E025E024A6F812031B00000000906E
:10071000010AE0FF25E02400F8E2FC08E2FDEF25F5
:10072000E025E024A6F8C0001202A0AE04AF05E464
:10073000FCFD1200F4D0001202C590010AE025E091
:1007400024B8F808E22401F218E23400F290010A19
:10075000E004F002062FE490010AF090010AE0FFA5
:10076000C394025024EF25E024B9F9900108E0FE7B
:10077000A3E0FFC3E39F19E39E400690010BE00452
:10078000F090010AE004F080D290010BE064026076
:100790000302085074FF9000E2F0A3F0E4A3F0A37A
:1007A000F090010AF090010AE0FFC39402400302B6
:1007B0000850EF25E024B8F8E2FE08E2FF4E70038F
:1007C000020850E4FCFDC004C005C006C007E025D7
:1007D000E025E024A6F812027BD003D002D001D09D
:1007E0000012019A90010EEEF0A3EFF0D39000E317
:1007F000E09F9000E2E09E400F90010EE0FFA3E03A
:100800009000E2CFF0A3EFF09000E4E0FEA3E0FF61
:1008100090010EE0FCA3E0FDD39FEC9E4008900009
:10082000E4ECF0A3EDF090010EE0F8A3E0FF9001FE
:100830000AE0FD25E02412C8F208EFF2ED25E024DD
:10084000B8F8E4F208F2ED25E025E024A6F812035A
:100850001B00000000C22890010AE004F002079586
:1008600022E4900107F0900107E0FFC394024003E7
:10087000020A46EF25E025E02452F8120263EC4D0F
:100880004E4F7003020A26900107E0FF25E025E0A5
:10089000243EF8120287C000EF25E025E02452F83C
:1008A000120263D000D312022C40037F0222900177
:1008B00007E025E025E0243EF8120287C000900101
:1008C00007E025E025E02452F8120263D00012016F
:1008D000019001081202B9E47FFF7EFFFDFC900148
:1008E00008120294C312022C40037F0222900107D7
:1008F000E025E02486F8E2FE08E2FFC39414EE94BB
:10090000005056EF4E701EA312026F900107E0FDDB
:1009100025E0248AF8EEF208EFF2ED25E0248EF8C7
:10092000EEF208EFF2900107E025E025E0249EF8C2
:10093000C00012027B9001081202941200F4D00051
:100940001202C5900107E025E02486F808E22401A0
:10095000F218E23400F20209D4900107E025E02504
:10096000E0249EF8C00012027BC004C005C006C08F
:1009700007900107E0FF25E0248EF8E2FC08E2FD85
:10098000EF25E0248BF8E22DFF18E23CFEAB07FADE
:10099000E4F9F8D007D006D005D004120101D00048
:1009A0001202C5900107E025E025E0249EF812021E
:1009B0007BE47B12FAF812019A900107E025E0240B
:1009C00092F8EEF208EFF2900107E0FB25E025E057
:1009D000249EF812031B00000000EB25E02486F89B
:1009E000E4F208F2900107E0FB25E02492F8E2FE31
:1009F00008E2FF7C007D03120077E4FDEB25E02593
:100A0000E02496F81202A01200F4780212023D903F
:100A10000107E0FB25E025E02496F81202C5EB254E
:100A2000E025E02496F812027BEB25E02460F8EE46
:100A3000F208EFF28017900107E0FFC39402500A1A
:100A4000EF25E02468F8E4F208F27F022290010723
:100A5000E004F00208567F0622900108EEF0A3EFB2
:100A6000F0E490010BF0A3F0A3F09000E0E0FFA30E
:100A7000E090010CCFF0A3EFF0E490010AF09001B8
:100A80000AE0FBC394024003020B71781DE2942834
:100A900018E29400401DE0FF25E024CAF8E4F208C3
:100AA000F2EF25E025E024BEF812031B0000000051
:100AB000020B68EB25E024CBF9E3700219E3701C0C
:100AC00090010AE0FF25E02460F8E2FC08E2FDEF77
:100AD00025E024C6F8ECF208EDF2805E90010AE011
:100AE000FD25E024C6F8E2FE08E2FFED25E02460E3
:100AF000F8E2FC08E2FD123066C390010DE09F9021
:100B0000010CE09E503490010AE0FF25E02460F8DB
:100B1000E2FC08E2FDEF25E024C6F8ECF208EDF275
:100B2000E0FF25E024CAF8E4F208F2EF25E025E032
:100B300024BEF812031B0000000090010AE0FF250C
:100B4000E02460F8E2FC08E2FDEF25E025E024BEA9
:100B5000F8C0001202A0AE04AF05E4FCFD1200F4E0
:100B6000D0001202C590010AE025E024CAF808E28C
:100B70002401F218E23400F290010AE004F0020AC3
:100B80006EE490010AF090010AE0FFC39402502441
:100B9000EF25E024CBF9900108E0FEA3E0FFC3E3DA
:100BA0009F19E39E400690010BE004F090010AE0DB
:100BB00004F080D290010BE064026003020C2D90DF
:100BC000010AF090010AE0FFC394025070EF25E0A3
:100BD00024CBF9E3700219E3606390010AE025E099
:100BE00024CAF8E2FE08E2FFE4FCFDC004C005C030
:100BF00006C007E025E025E024BEF812027BD00302
:100C0000D002D001D00012019AAB07AA0690010AC7
:100C1000E0FF25E02464F8EAF208EBF2EF25E02497
:100C2000CAF8E4F208F2EF25E025E024BEF812034A
:100C30001B0000000090010AE004F0808622900171
:100C40000CE5BAF053BA0F43BA10E4900106F090E5
:100C50000106E0FFC394025017EF25E025E024468B
:100C6000F81202D100000000900106E004F080DFDD
:100C70009001067405F075ABFF122F7CE49001071C
:100C8000F0900107E0FFC394025050EF25E025E00B
:100C90002446F8C000120263C004C005C006C007A5
:100CA000900107E0242AF8E675F003A424B2F58247
:100CB000E43430F583120350120382A804A905AA74
:100CC00006AB07D007D006D005D0041200F4D00040
:100CD0001202AD900107E004F080A6E4F5AB122FFC
:100CE0007CE4900107F0900107E0FFC394025050AC
:100CF000EF25E025E02446F8C000120263C004C0DE
:100D000005C006C007900107E0242AF8E675F00345
:100D1000A424B2F582E43430F58312035012038226
:100D2000A804A905AA06AB07D007D006D005D004B1
:100D3000120101D0001202AD900107E004F080A67C
:100D4000900106E014F0E06003020C66E4900107F5
:100D5000F0900107E0FBC394025047A31202EA009F
:100D600000271090010812026F78071202509001BC
:100D7000081202B990010812026FEB25E025E02469
:100D800046F812028712019A9001081202B99001E6
:100D90000812026F900107E02464F8A607E004F04F
:100DA00080AF90010CE0F5BA22900107EFF0E4A3C8
:100DB000F0900108E0FFC394024003020EF8EF2513
:100DC000E025E02452F8120263EC4D4E4F7003020E
:100DD0000ED8900108E0FF25E025E02432F8120249
:100DE00087C000EF25E025E02452F8120263D0000E
:100DF000D312022C40037F0222900108E025E02557
:100E0000E02432F8120287C000900108E025E025B6
:100E1000E02452F8120263D000120101900109127D
:100E200002B9E47FFF7EFFFDFC900109120294C32A
:100E300012022C40037F0222900107E0704B7F03D7
:100E4000FEFDFC90010912029412010F900108E0CE
:100E500025E025E02406F81202A01200F478021220
:100E6000023D900108E0FB25E025E02406F812028F
:100E7000C5EB25E025E02406F812027BEB25E024F3
:100E800000F8EEF208EFF28076900107E06401705E
:100E900041A3E025E025E02406F812027B90010939
:100EA0001202941200F4780112023D900108E0FB56
:100EB00025E025E02406F81202C5EB25E025E02414
:100EC00006F812027BEB25E02400F8EEF208EFF2C0
:100ED000802D90010912026F900108E025E02400A6
:100EE000F8EEF208EFF28017900108E0FFC39402D9
:100EF000500AEF25E02418F8E4F208F27F0222906D
:100F00000108E004F0020DA17F0622E4FD30242652
:100F1000ED25E02428F582E4342DF583E493FE7476
:100F20000193FFED25E02409F582E43401F583EE19
:100F3000F0A3EFF08024ED25E02418F582E4342DB1
:100F4000F583E493FE740193FFED25E02409F58217
:100F5000E43401F583EEF0A3EFF00DEDB402AEE45E
:100F6000FDED25E02436F8E2FE08E2FFED25E02461
:100F70002BF9D3E39F19E39E4016ED25E0242AF8D0
:100F8000E2FE08E2FFED25E02436F8EEF208EFF28B
:100F9000ED25E02409F582E43401F583E0C313FE76
:100FA000A3E013FFED25E0242BF9D3E39F19E39E83
:100FB0005047ED25E02409F582E43401F583E0FE95
:100FC000A3E0FFED75F008A4246EF8A60608A607B6
:100FD000ED25E02409F582E43401F583A3E025E062
:100FE000FF0582D5820215831582E033F8ED25E0F6
:100FF0002436C8F208EFF2803CED25E02438F58273
:10100000E4342DF583E493FE740193FFED25E02491
:101010002BF9D3E39F19E39E401BED25E02436F91D
:10102000E3C313FE09E313FFED75F008A4246EF883
:10103000A60608A6070DED64026003020F51E4FD49
:10104000ED75F008A4246EF8E6FE08E6FFED25E055
:10105000243CF8EEF208EFF20DEDB402E322E49046
:101060000106F0A3F0A3F0FCA3F020CA0302118C48
:1010700078A0E6700302118CE4900106F09001065E
:10108000E0FE24A0F8E6FD74122EF582E43401F5AA
:1010900083EDF0E4F6900106E004F0E0B40ADE909F
:1010A0000112E0FE54F0FCEE540F900109F0AF0481
:1010B000EF12035C10FE50110E60111570111F80AD
:1010C00010BD9010DAA010F7B00000118C9001094B
:1010D000E0FF70087861E654FDF6800AEFB401067F
:1010E0007861E64402F6751D0222900109E0FF7066
:1010F000087861E654FBF6800AEFB401067861E6F1
:101100004404F6751D0222121C24751D0422786108
:10111000E64401F620010302118C121C242278619E
:10112000E654FEF622E4FF1230F47863A60722901C
:101130000113E07F00FE900107F0A3EFF09001148F
:10114000E0FDEEEDFF900107EEF0A3EFF0D3940A7F
:10115000EE94005047900109E0FFB40F2AE490019B
:1011600006F0900106E0FEC394035030A3E0FCA318
:10117000E0FDEE75F008A4246EF8A60408A605901C
:101180000106E004F080DB900107E0FCA3E0FDEF46
:1011900075F008A4246EF8A60408A605229001069E
:1011A0007407F0FD123080900106E0FF60227401A8
:1011B0007E00A807088005C333CE33CED8F9FFAC34
:1011C000ACECFBE4EF5B7008900106E014F080D714
:1011D000ED601D74017E00A805088005C333CE3381
:1011E000CED8F9FFACAEECFBE4EF5B70031D80E002
:1011F000900106E0FF7401A807088002C333D8FC01
:10120000F5AC7401A805088002C333D8FCFFF5AD26
:101210008FAE53AACF90010FE5BAF053BA0F43BA7D
:10122000109001071202EA00000000122F7CE490E7
:101230000106F0900106E0FFC394035044742A2F86
:10124000F8E675F003A424B2F582E43430F5831295
:10125000035012038290010B1202B990010B12028B
:101260006F900107120294C312022C500C90010BD4
:1012700012026F9001071202B9900106E004F0809B
:10128000B2900107120294C00090010712026F7819
:101290000212023DD0001200F49001071202B99030
:1012A000010712026F781012023D8FB390010712EE
:1012B000026F780812023D8FB290010712026F8F01
:1012C000B143AA3090010FE0F5BA75AC0375ADC01B
:1012D00075AEC022E490010BF0785A120263EC4D17
:1012E0004E4F70030213EC783A120263785A1202DE
:1012F00087C312022C50037F0222783A120287C061
:1013000000785A120263D000120101900107120204
:10131000B9E47FFF7EFFFDFC900107120294C31227
:10132000022C40037F0222786CE2FE08E2FFC394A5
:1013300014EE94005037EF4E701390010712026FB5
:10134000786EEEF208EFF208EEF208EFF27876121D
:10135000027B9001071202941200F478761202C503
:10136000786DE22401F218E23400F28052787612AD
:10137000027BC006C0077870E2FE08E2FF786FE2E9
:101380002FFF18E23EFEAB07FAE4F9F8D007D006CB
:1013900012010178761202C5E47B12FAF8C00078D7
:1013A0007612027BD00012019A7872EEF208EFF208
:1013B000787612031B00000000E4786CF208F2E477
:1013C0007F07FEFDFC780E1202A012010FC004A9D7
:1013D00005AA06AB077872E2FE08E2FFE4FCFDD046
:1013E000001200F4780312023D780E1202C5780E46
:1013F00012027B7804EEF208EFF28009E4781CF226
:1014000008F27F02227F0622E4900106F078AE12F5
:10141000031B00000000122F7C78AE1202A0C00057
:10142000C001C002C003782CE675F003A424B2F515
:1014300082E43430F583120350120382D003D002C9
:10144000D001D0001200F478AE1202C5900106E07F
:1014500004F0E0FFC3940540BDE4FCFDFEC004C001
:1014600005C006C00778AE12027BD003D002D001BF
:10147000D00012019A9001071202B99001071202DE
:1014800094C0007866E6FFE4FCFDFED00012010F78
:101490009001071202B990010712026F7807120239
:1014A0003D9001071202B9E47F107E27FDFC9001F8
:1014B00007120294D312022C402690010712026FE9
:1014C000EF24F0FFEE34D8FEED34FFFDEC34FFFCEA
:1014D000783A1202AD78047427F2087410F280167C
:1014E000783A1202D10000000090010712026F78D2
:1014F00004EEF208EFF278AE12031B00000000E4E5
:1015000078BCF208F27804E2FF08E27816CFF2081D
:10151000EFF2E4781CF208F2782612031B000000B8
:101520000078727427F2087410F2780E12031B0010
:1015300000271022900107EFF0E4A3F0900108E0EB
:10154000FF25E02412F8E2FC08E2FDEF25E024008C
:10155000F8E2FE08E2FFD39DEE9C401BE025E0246C
:1015600012F8E2FC08E2FDC3EF9DFFEE9CFEE4FCF6
:10157000FDA31202B9800A9001091202EA000000DC
:1015800000900107E0704E90010912026F78071277
:1015900002509001091202B99000CEE060030216D9
:1015A0003A7F03FEFDFC90010912029412010F9094
:1015B0000108E025E025E0241EF81202A01200F444
:1015C000780212023D900108E025E025E0241EF893
:1015D0001202C58075900107E064017059900109FD
:1015E00012026F78071202509001091202B990019D
:1015F00008E025E025E0241EF812027B9001091284
:1016000002941200F4780112023D900108E0FB25DB
:10161000E025E0241EF81202C5EB25E025E0241E9B
:10162000F812027B780712023DEB25E02418F8EE51
:10163000F208EFF2801490010912026F900108E0A5
:1016400025E02418F8EEF208EFF2900108E004F02B
:10165000E06402600302152C7F0622439F04E453DA
:10166000C6DFE5C600B5C6F375830075820775FD54
:101670000DE4E5FEF4FF75830075820675FD0DE44B
:10168000E5FEB50704F59E8003759E007810000006
:10169000D8FC53C6E043C60843C6807596077597C5
:1016A0000575830075820475FD0DE5FD04F58F75E4
:1016B000830075820375FD0DE4E5FEF4FF7583007C
:1016C00075820275FD0DE4E5FEB50704F59580030E
:1016D00075958375BE0E5392FE9001007F007E02C9
:1016E000E4F0A3DFFCDEFA78007F00E4F208DFFC20
:1016F00078FFE4F6D8FD7581AE02172A02000002D9
:1017000025C2E493A3F8E493A34003F68001F20812
:10171000DFF48029E493A3F85407240CC8C333C42E
:10172000540F4420C8834004F456800146F6DFE499
:10173000800B0102040810204080902C27E47E01D9
:101740009360BCA3FF543F30E509541FFEE493A30C
:1017500060010ECF54C025E060A840B8E493A3FA1E
:10176000E493A3F8E493A3C8C582C8CAC583CAF0AA
:10177000A3C8C582C8CAC583CADFE9DEE780BE90B8
:101780000107EFF0E490010CF0A3F0FFEF25E02457
:1017900068F8E2FC08E2FD90010CEC8DF01200DE2E
:1017A0000FEFB402E77816E2FE08E2FF7804E2FCED
:1017B00008E2FDD39FEC9E40187816E2FE08E2FF97
:1017C000ED9FFFEC9EFEE4FCFD9001081202B98043
:1017D0000A9001081202EA00000000900107E07080
:1017E00052A312026F78071202509001081202B938
:1017F000E47F03FEFDFC90010812029412010F78B1
:10180000261202A01200F4780212023D782612027B
:10181000C5782612027B780712023D7874EEF20832
:10182000EFF290010DE02F781DF290010CE03E18D0
:10183000F2806D900107E064017049A312026F7895
:10184000071202509001081202B990010812026FAB
:1018500078261202A01200F4780112023D782612B6
:1018600002C5782612027B780712023D7874EEF2E8
:1018700008EFF290010DE02F781DF290010CE03E90
:1018800018F2801C90010812026F7874EEF208EFD3
:10189000F290010DE02F781DF290010CE03E18F25D
:1018A0007F0622E4900109F0C37883E2940318E2F2
:1018B00094005028787A1202A0C000781CE2FE083A
:1018C000E2FFE4FCFDD0001200F4787A1202C57841
:1018D00083E22401F218E23400F280347880E2FFDF
:1018E00008E2787ECFF208EFF2E47B03FAF9F8C061
:1018F00000787A12027BD00012019A7880EEF2080A
:10190000EFF2E408F208F2787A12031B00000000FC
:101910007880E2FE08E2FF787EE2FC08E2FDD39FD9
:10192000EC9E400BED9F7885F2EC9E18F28006E469
:101930007884F208F2781CE2FE08E2FF900107EEDC
:10194000F0A3EFF0E4FCFD7B64FAF9F812010FC09C
:1019500006C007784AE2FE08E2FFFBAA06E4F9F8AF
:10196000D007D00612019A7834EEF208EFF2900117
:1019700007E0FEA3E0FFE4FCFD7B64FAF9F8120146
:101980000FC006C007784AE2FE08E2FFFBAA06E4A1
:10199000F9F8D007D00612019A782EEEF208EFF28D
:1019A00022E4900106F0900106E0FE75F008A42400
:1019B00070FFEE25E0242AF8E2FC08E2FD1230DF99
:1019C000900106E0FE75F008A42472FFEE25E024E5
:1019D00018F8E2FC08E2FD1230DF900106E0FE7527
:1019E000F008A42474FBC003EE25E02400F8E2FE16
:1019F00008E2FFE4FCFDE025E025E02432F81202D5
:101A0000871200F4780412023DAD07AC06D007122D
:101A100030DF900106E004F0E0C3940240887F8E3E
:101A2000902D1CE493FC740193FD1230DF7F9090A5
:101A30002D1C74019324F6FDE49334FFFC1230DF77
:101A40007F927D287C001230DF7F94782EE2FC08A4
:101A5000E2FD1230DF7F96781CE2FC08E2FD1230D6
:101A6000DF7F987804E2FC08E2FD1230DF7F9A788D
:101A700016E2FC08E2FD1230DF7F9CE4FDFC123030
:101A8000DF7861E6F52222122FA29000D3EFF01248
:101A90002EC7EF7003021B5530000F7F04122C6419
:101AA000900106EEF0A3EFF0800D7F02122C6490FF
:101AB0000106EEF0A3EFF0D39000DDE0940090007B
:101AC000DCE09400400A900106E013F0A3E013F07C
:101AD000900106E0FEA3E0FF121F339000D1E0FF6B
:101AE0009000D5E06F605C122AC19000D1E09000B8
:101AF000D5F09000D2E054F060187F07122C64906B
:101B000000E9EEF0A3EFF09000E9E0C313F0A3E0EA
:101B100013F09000D2E0540F60297F0C122C647CEB
:101B2000007D06120077E4FD9000F11202B99000EA
:101B3000F112026FE47B02FAF9F812010F9000F142
:101B40001202B99000D1E06017E4FFFEFDFC9000A6
:101B5000F1120294C312022C700B9000F504F022D3
:101B6000E49000F5F022D39000DDE094009000DCDA
:101B7000E09400400774FFF5F01200DED39000E817
:101B8000E094009000E7E09400400774FFF5F01245
:101B900000DED39000F0E094009000EFE09400406D
:101BA0001374FFF5F01200DE9000EFE07002A3E086
:101BB0007002D205D39000ECE094009000EBE0942A
:101BC00000401474FFF5F01200DE9000EBE07002AC
:101BD000A3E0700312274B9000D8E475F0011200C7
:101BE000DED39000EAE094009000E9E09400400722
:101BF00074FFF5F01200DEE4FFFEFDFC9000F11230
:101C00000294D312022C40159000F112026F74FF5F
:101C1000FBFAF9F81200F49000F11202B9D3900027
:101C2000EEE094009000EDE09400400774FFF5F0C2
:101C30001200DE22785A120263EF24F0FFEE34D84D
:101C4000FEED34FFFDEC34FFFC783A1202AD78046F
:101C50007427F2087410F2E4781CF208F278167413
:101C600027F2087410F2E4786CF208F27876120326
:101C70001B0000000078727427F2087410F2E40868
:101C8000F208F2787A12031B00000000E4787EF27A
:101C900008F208F208F208F208F208F208F29000DE
:101CA000F5F0FBEB25E02460F87427F2087410F2DD
:101CB000EB25E02464F87427F2087410F2EB25E0B9
:101CC0002468F8E4F208F2EB25E02486F8E4F20850
:101CD000F2EB25E02492F87427F2087410F2EB2559
:101CE000E025E02496F812031B00000000EB25E03D
:101CF00025E0249EF812031B000000000BEBB40249
:101D0000A222C0E0C0F0C083C082C0D075D008C29B
:101D1000CF30CD03021DB330CB3A20CC3778AAA602
:101D2000CEE6FFC39480402375F003EF90254D125B
:101D300003341203508B278A2889297827E475F009
:101D40000112034012005EF5CE800978AAE625262E
:101D5000F8E6F5CE30CC2478AAE6C394804010781B
:101D600027E475F00112034012005EF5CE804D7835
:101D7000AA06E62526F8E6F5CE804120CB3E85CEA4
:101D80001C78AAE6FF7024E51CB41009900122E03B
:101D9000F452808027E51CB42008900122E04280A4
:101DA000801A78A0A61C78AA068011EFC3940A5066
:101DB0000878AAE624A0F8A61C78AA06D205200076
:101DC00002D207D0D0D082D083D0F0D0E03274FFDE
:101DD000900108F0A3F0E4A3F0A3F0FF22EFC39476
:101DE000095019EF25E0244EF8E2FC08E2FDEF254A
:101DF000E0244CF8ECF208EDF20F80E17804E2FD0B
:101E000008E2785ECDF208EDF2E4FFEF25E0244D24
:101E1000F9900108E0FCA3E0FDC3E39D19E39C50A9
:101E200012EF25E0244CF8E2FD08E2900108CDF025
:101E3000A3EDF0EF25E0244DF990010AE0FCA3E0CA
:101E4000FDD3E39D19E39C4012EF25E0244CF8E21A
:101E5000FD08E290010ACDF0A3EDF00FEFB40AAB5C
:101E6000900109E0245AFF900108E03400FED3906D
:101E7000010BE09F90010AE09E4010D2297F0812DA
:101E80002C649000EBEEF0A3EFF022C22922E4FFD5
:101E9000FEEE75F008A4246EF8E6FC08E6FDEE25DB
:101EA000E02431F9C3E39D19E39C400D7401A806B9
:101EB000088002C333D8FC4FFF0EEEB402D3807DFE
:101EC000EEC394025077EE75F008A4246EF8E6FC99
:101ED00008E6FDEE25E02431F9C3E39D19E39C40BB
:101EE0001DEE25E02435F9C3E3940A19E39400407C
:101EF0000D7401A806088002C333D8FC4FFFEE75AD
:101F0000F008A4247EF8E6FC08E6FDEE25E0243582
:101F1000F9C3E39D19E39C4021EE25E02431F9C388
:101F2000E3940A19E394004011EE2402FD7401A821
:101F300005088002C333D8FC4FFF0E808390011C3C
:101F4000EFF022900108EEF0A3EFF0E4A3F090018F
:101F500021E070169000D7E0B40A0FD39000EAE0B9
:101F600094009000E9E094004010E478BCF208F29C
:101F700078AE12031B000000002278BDE270021848
:101F8000E2700D7804E2FF08E278B6CFF208EFF2D3
:101F90007804E2FE08E2FF78AE1202A0E4FCFD1233
:101FA00000F478AE1202C578BDE22401F218E234E2
:101FB00000F2900108E0FCA3E0FDE2FE08E2FFC3AE
:101FC0009DEE9C4031E4FCFDC004C005C006C00786
:101FD00078AE12027BD003D002D001D00012019A59
:101FE0007816EEF208EFF2E478BCF208F278AE125E
:101FF000031B0000000022121DBE122648122129D8
:10200000122DF99000D0EFF07F02122C649001069F
:10201000EEF0A3EFF0120A499000D0E0FF122EF785
:10202000EF60757F01122C64900106EEF0A3EFF0D3
:1020300012060A9000CEE0602C7F05122C64D3902B
:1020400000DFE09F9000DEE09E400EE4FF1224A53A
:10205000E49000D4F012274B229000DEE475F001EA
:102060001200DE8007E49000DEF0A3F09000CEE0E6
:10207000FF9000D4E06F60201224A59000CEE09085
:1020800000D4F09000CFE054F0600D7F06122C6475
:102090009000E7EEF0A3EFF022E4900107F090014A
:1020A00007E0F9C394024003022128E925E024183F
:1020B000F8E2FE08E2FFA3EEF0A3EFF0E4FCFD7B04
:1020C00064FAF9F812010FC006C007900107E02575
:1020D000E02446F8E2FE08E2FFFBAA06E4F9F8D0A5
:1020E00007D00612019A900107E025E02430F8EEAF
:1020F000F208EFF2A3E0FEA3E0FFE4FCFD7B64FA4C
:10210000F9F812010FC006C007900107E025E0248E
:1021100046F8E2FE08E2FFFBAA06E4F9F8D007D091
:102120000612019A900107E025E0242AF8EEF20851
:10213000EFF2E004F002208E22E4900108F090011A
:1021400008E0FF25E02412F8E2FC08E2FDEF25E0BC
:102150002401F9C3E39D19E39C5052E025E02400DB
:10216000F8E2FC08E2FDEF25E02413F8C3E29DFF4E
:1021700018E29CFEA3F0A3EFF0E4FCFD7B64FAF907
:10218000F812010FC006C007900108E025E02446C0
:10219000F8E2FE08E2FFFBAA06E4F9F8D007D00651
:1021A00012019A90010BEEF0A3EFF0800BE4900186
:1021B00009F0A3F0A3F0A3F0D390010CE0940A90EF
:1021C000010BE094004002D228900108E004F0E006
:1021D0006402600302212E22E4900106F0785EF68C
:1021E000FF1230F4900106EFF0BFFF06785F760231
:1021F0008004785F76FF78607614E408F67863767A
:10220000FFFFEF25E02418F582E4342DF583E493F5
:10221000FC740193FDEF75F008A4246EF8A6040881
:10222000A605EF75F008A42470F8E4F608F6EF753B
:10223000F008A42472F8E4F608F6EF75F008A42478
:1022400074F8E4F608F60FEFB402B7E4788EF608F7
:10225000F608F608F608F608F608F608F608F6088E
:10226000F608F608F608F608F608F675265E22E483
:10227000FB9001077403F0E4F51BF51AF519F51846
:102280003000083001057403F0802030010A7B0221
:102290009001077403F0801330000AE4FB900107FB
:1022A0007402F08006E4FB900107F0900106EBF069
:1022B000900107E0FF900106E0FBC39F5043746468
:1022C0002BF8E6FFE4FCFDFEEB25E025E02446F8D4
:1022D00012028712010F8F1B8E1A8D198C18780726
:1022E00012023D8F1B8E1A8D198C18900106E02565
:1022F000E025E02452F81202AD900106E004F080DF
:10230000AF229001067406F030003F7F01120D9954
:10231000900106EFF0BF0203E0FF227F01121524B7
:10232000900106EFF0BF0203E0FF2212208912089D
:1023300051900106EFF0BF0203E0FF221228F29055
:102340000106EFF0BF0203E0FF223001421212C487
:10235000900106EFF0BF0203E0FF227F0112176F2A
:10236000900106EFF0BF0203E0FF22121893801FD6
:10237000122826900106EFF0BF0203E0FF22122B85
:10238000A2900106EFF0BF0203E0FF221227BA90ED
:102390000106E0FF227DFF02240F7876E6FE08E6C4
:1023A000FFC37833E29F18E29E40107886E6FE086D
:1023B000E6FF7837E29F18E29E5064781CE2FE0840
:1023C000E2FF7819E22FFF18E23E900109F0A3EF37
:1023D000F0781EE2FE08E2FF781BE22FFF18E23ED3
:1023E000A3F0A3EFF0E025E0FF90010BE033FE90B7
:1023F0000109E0FAA3E0FBC39FEA9E5004ED54FA02
:10240000FDEB25E0FFEA33FEC390010CE09F900155
:102410000BE09E500AED54F5FD8004ED54F0FD9064
:10242000011DEDF022C0E0C0F0C083C082C0D075B5
:10243000D010E4FF900111F0300008300105740362
:10244000F0802130010A7F029001117403F08014A2
:1024500030000A7F009001117402F080077F009025
:102460000111E4F053B9FD900110EFF0900111E07B
:10247000FF900110E0FEC39F502E742A2EF8E675DF
:10248000F003A424B2F582E43430F5831203501231
:102490000382900110E025E025E02446F81202AD09
:1024A000900110E004F080C4C204D0D0D082D08368
:1024B000D0F0D0E032900108EFF09000E6E0600349
:1024C000022533F9FFFE7401A806088002C333D841
:1024D000FCFD900108E05DFC9000D4E05D6C6007BD
:1024E0009000E6E04401F09000D4E05DB50513EE05
:1024F0002404FC7401A804088002C333D8FC49F901
:10250000800D7401A806088002C333D8FC49F990F5
:102510000108E05DB5050F7401A806088002C33309
:10252000D8FC4FFF8011EE2404FD7401A80508803B
:1025300002C333D8FC4FFF0EEE64027089E95F904E
:1025400000CFF022300003C2062230072830010BF2
:102550009000DAE4F0A37428F080099000DAE4F047
:10256000A374C8F07F0B122C649000EDEEF0A3EF83
:10257000F0C20780229000EDE07002A3E0701830F6
:1025800001159000DAE07004A3E064046009900093
:10259000DAE4F0A37404F09000DCE07002A3E070D1
:1025A000199000EDE07002A3E0700F30050C900070
:1025B000CEE054037004C2068002D2062006123018
:1025C0000107E4FF122E9680057F01122E96122F2E
:1025D000C72212302C1231B41231D11221C8122F5D
:1025E000EB122DC2122E30122F55D2AF751D01E500
:1025F0001D24FE601624FE601F14602F1460392411
:102600000570497F06122A7212309AD2D8122954C4
:10261000122BE8751D048037D2D82004FD12225FEA
:10262000122534123108751D0580241222F28F1DE7
:10263000121991121B568017300003121FE7300148
:1026400003121A771231C3751D048003751D011220
:10265000000312104E8098227830E2FE08E2FF90CC
:102660000108EEF0A3EFF0A3EEF0A3EFF07F01EF8F
:1026700025E02430F8E2FC08E2FDD3900109E09D5A
:10268000900108E09C400FEF25E02430F8E2FD08BF
:10269000E2CDF0A3EDF0EF25E02430F8E2FC08E213
:1026A000FDC390010BE09D90010AE09C500FEF25C7
:1026B000E02430F8E2FD08E2CDF0A3EDF00FEFB436
:1026C00002AD900108E0FFA3E07844CFF208EFF2FA
:1026D000A3E0FFA3E07842CFF208EFF222FE000071
:1026E000FE0008FE0012FE001AFE0018FE0020FE8A
:1026F000002AFE0032FE0030FE00380000460000D6
:102700004E00005600005E01011C01011D01011E6A
:102710000100D30100D00100CE0100D4FE001EFE56
:1027200000360100DE0100D80100DA0100DC010002
:10273000ED0100EF0100E700003200003AFE00600A
:10274000FE0064FE006800003EFE00740100F1011E
:1027500000F5FE007EFE0080FE0084E4FBEB25E039
:1027600025E02452F8120263EF24F0FFEE34D8FE85
:10277000ED34FFFDEC34FFFCEB25E025E02432F8DE
:102780001202ADEB25E02400F87427F2087410F271
:10279000EBC394025017EB25E02418F8E4F208F29A
:1027A000EB25E02412F87427F2087410F20BEBB456
:1027B00002AB22EBC3940A5010EB25E0244CF874D2
:1027C00027F2087410F20B80EA22781CE2FE08E27D
:1027D000FF900107EEF0A3EFF0E4FCFD7B64FAF953
:1027E000F812010FC006C007784AE2FE08E2FFFBBC
:1027F000AA06E4F9F8D007D00612019A7834EEF26E
:1028000008EFF2900107E0FEA3E0FFE4FCFD7B642B
:10281000FAF9F812010FC006C007784AE2FE08E292
:10282000FFFBAA06E4F9F8D007D00612019A782E29
:10283000EEF208EFF222785A120263EC4D4E4F602E
:102840004F783A120263785A120287C312022C5050
:10285000037F0222783A120287C000785A1202637C
:10286000D0001201019001071202B9E47FFF7EFF40
:10287000FDFC900107120294C312022C40037F0258
:102880002290010712026F7804EEF208EFF280093D
:10289000E4781CF208F27F02227F0622E4FDFC7B32
:1028A00003EF7021FE742A2EF8E6902D48934DFD1B
:1028B0000EEEB403F0ED42D4ED42F4ED42E4EDF45B
:1028C00052DC8DB422300009300106E4FC7B038029
:1028D000153001067C027B03800C300006E4FC7B93
:1028E000028003E4FCFBAF04AE07EEC39B500E7402
:1028F0002A2EF8E6902D48934DFD0E80EDAF058F02
:10290000B422E4FBEB25E02464F8E2FE08E2FFEBEE
:1029100025E02461F9D3E39F19E39E4024EB25E0F1
:102920002464F8E2FE08E2FFEB25E02461F8C3E24C
:102930009FFF18E29EFEE4FCFD9001071202B980A1
:102940000A9001071202EA0000000090010712023B
:102950006FEB25E02468F8EEF208EFF20BEBB4021F
:10296000A37F06227861E6FF30E104D2008002C234
:1029700000EF30E204D2018002C2017F0112288CF4
:10298000A202300001B35018122D8A30000B123011
:1029900080120388123108800312274BA200920292
:1029A000A203300101B3501C122F2730010DD20CAD
:1029B0001230801213F81231088005C20C121C2448
:1029C000A201920322123080E4FBEB25E02446F8BA
:1029D000E2FE08E2FF9000E0EE8FF01200DE0BEB6B
:1029E000B402E7E4FBEB25E02486F8E4F208F2EB1E
:1029F00025E025E0249EF812031B000000000BEBED
:102A0000B402E29000E0E0FEA3E0FF7C007D0A1249
:102A100000899000E0EEF0A3EFF0120C2E12038874
:102A200012310822C0E0C0F0C083C082C0D075D08F
:102A300000C000C007C28D758C34758A8C9000F67A
:102A4000E475F0011200DEC39000F7E094029000FC
:102A5000F6E09400401D30000D9000D8E0FFA3E0A8
:102A6000A3CFF0A3EFF09000D8E4F0A3F09000F62D
:102A7000F0A3F0D007D000D0D0D082D083D0F0D057
:102A8000E032EFB4020E7861E64402F6D202D200E0
:102A9000C203C201EFB4040E7861E64404F6C20238
:102AA000C200D203D201EFB4060E7861E64406F606
:102AB000D202D200D203D2019000DAE4F0A374145F
:102AC000F07F0A122C649000DCEEF0A3EFF0D20647
:102AD00022AA079000E6E0F97041FCFF7E04EA5468
:102AE0000FFD9000D5E0540F6D6007E9440290009F
:102AF000E6F09000D5E0540F6008EEC454F04CFCB2
:102B00008003EC4EFCEA540F6005EF4EFF8006EEAA
:102B1000C454F04FFFEC5F9000D2F02290010712F6
:102B200002EA00000000E4900106F09001071202A2
:102B300094C000900106E02464F8E6FFE4FCFDFE8A
:102B4000D0001200F4A31202B9900106E004F0E0F4
:102B5000B402D8E47B02FAF9F890010712026F126E
:102B6000019A7866A60722A907E4FF7E03742A2E3D
:102B7000F8E6902D48934FFF0EEEB405F0E960059E
:102B8000EF42D48004EFF452D4EFF4FE52F4EF425B
:102B9000E4ED6005EF42EC8003EE52ECEFF4FE5200
:102BA000DCEB6005EF42808003EE5280900122EF63
:102BB000F0227816E2FE08E2FF7804E2FC08E2FD6B
:102BC000D39FEC9E40187816E2FE08E2FFED9FFFCF
:102BD000EC9EFEE4FCFD9001071202B9800A900110
:102BE000071202EA0000000090010712026F781C31
:102BF000EEF208EFF27F0622E49000EDF0A3F0A3DE
:102C0000F0A3F030000A9000DAF0A37414F08017FB
:102C100030010B9000DAE4F0A37404F08009900016
:102C2000DAE4F0A374C8F07F0B122C649000EDEE90
:102C3000F0A3EFF0D20522082A0102030506FFFFE8
:102C4000FF602800CE00000000000000000000002F
:102C50000000000000000000000000000000000074
:102C60000000000000000000000000000004AB00B5
:102C70000000000090010C7400F0A374F8F07B01D8
:102C80007A00EFB40D057F017E002290010CE0FC7C
:102C9000A3E02FF582E43CF583E07A00FB9000DAB4
:102CA000E0FCA3E0FDAF037E00120077AA06AB07AD
:102CB00022E4FF9000D1E07016788EE6FC08E6FD75
:102CC000C37835E29D18E29C401E7404FF80197899
:102CD0008FE624F6FD18E634FFFCC3782FE29D183A
:102CE000E29C4004EF4404FF900121EFF022E4FF56
:102CF000FEEE75F008A4246FF8E624FBFD18E63418
:102D0000FFFCEE25E0242BF9C3E39D19E39C400D65
:102D10007401A806088002C333D8FC4FFF0EEEB43E
:102D200002CF90011EEFF022003200320050003C32
:102D3000003C003C003C003C003C003C003C003CB3
:102D4000003C003C003C003C007800780078003CEF
:102D5000003C003C003C003C010204081020408084
:102D6000FB9000E6E0FF5403602FC205EF54FCF037
:102D70007F09122C649000EFEEF0A3EFF0C292787E
:102D80009E7600087696789E08E6161886067001EC
:102D9000164E60030080EFD29222E4FF9000CEF046
:102DA0009000D4F09000D6F09000DEF0A3F09000F8
:102DB000E7F0A3F09000CFF0F52322EFC3940A5080
:102DC00010EF25E0244CF87427F2087410F20F80FD
:102DD000EA227E007FF8E4FDED25E0243EF582E462
:102DE0003400F583E493640D601EED25E0243FF587
:102DF00082E43400F583E493FCEF2DF582E43EF5A4
:102E000083ECF00DEDB40ED022120EFB121E7E12DA
:102E10002385122CDE9000CEE0701490011CE0FFA0
:102E2000900108F090011DE05F900108F08008908B
:102E3000011EE0900108F0900108E0FF122E6422CC
:102E400043F80875CD4053CC7F43CC4043CC20435E
:102E5000CC1043CC0453CCFD43CB0243CB0153CB2A
:102E6000BF43E80853E5FC43E30243F50343900303
:102E700043ED0322A907E4FDFC74017E00A80408C9
:102E80008005C333CE33CED8F9FFE9FBE4EF5B60B6
:102E90000D7401A804088002C333D8FC4DFD0CEC6E
:102EA000B402D6AF0522C20453B9FD43CC02C2D945
:102EB000439F10539FFD438760759262C28DEF70F0
:102EC0000675BD0975BC011230CA75BE0CD28C43A3
:102ED000870300000000227E0A9000D1E06F6007A7
:102EE000EFF0E49000D7F09000D1E070027E05AFE3
:102EF000069000D7E004F0C39F50037F00229000AB
:102F0000D7740AF07F01227E069000CEE06F600742
:102F1000EFF0E49000D6F09000CEE070027E03AFB8
:102F2000069000D6E004F0C39F50037F002290007B
:102F3000D67406F07F0122E49000D1F09000D5F025
:102F40009000D7F09000E9F0A3F09000D2F0787EE6
:102F5000F208F208F208F208F208F2787A12031B7B
:102F6000000000002278467402F20874BCF2087473
:102F700002F208748AF208E4F2087464F208E4F2D7
:102F8000087464F208E4F2087464F22275BF0F005A
:102F90000000000000000000000000000000000031
:102FA00000D2D853B9FD43B901E5B930E1FBE4F5EE
:102FB000BF229000F5E06016D37885E2942818E2ED
:102FC0009400400AE4900121F0121C248003122C8A
:102FD000A1900121E0FF22E4FF75BE0E439F100F78
:102FE000EFB4FFFB439F0275BC0275927643E30288
:102FF000E4F5BFF5B9D2D953CCFD22438901C28D86
:10300000D2A953B8FDE49000F6F0A3F09000D8F0F8
:10301000A3F0758C34758A8CD28CD2AF22EF600508
:1030200043D504800353D5FB53F5FB53E5FB43E342
:103030000443ED04E49000E6F0D29222E4F5E34389
:103040009F10439F02FF0FEFB4FFFB539FEF75BE2E
:103050000EE4F5BFF5B975927622123080E4786CF3
:10306000F208F2787612031B00000000122B0C12FB
:1030700013F812310822AB07AA06D3EB9DEA9C4055
:1030800007EB9DFFEA9CFE22C3ED9BFFEC9AFE221C
:1030900053BAFEE5B920E003300405E5B930E1FBA1
:1030A000E4F5BF53B9FE53B9FD22E4FF12288C1298
:1030B000000E122D8A122F2712118D1229B51230EF
:1030C0004A22FF311CFF312FFF3142FF3155FF31C2
:1030D00068FF317BFF318EFF31A1438901C28CC271
:1030E0008FE49000F6F0A3F0758CFB758AED22ABAF
:1030F00007ECFFAE05C2AFA803F6AF06E804F8A6DA
:1031000007D2AF22E4FFF582F5837440FEE493F426
:103110002FFFA3EEB583F62275BF0F43B92053B935
:10312000FD43BA01D20443B901D2D82253B9EF7892
:10313000ACA6B708A6B608A6B578AB1202632253B0
:10314000B9EF78ACA6EB08A6EA08A6E978AB1202BC
:10315000632253B9EF78ACA6F308A6F208A6F1787B
:10316000AB1202632253B9EF78ACA6FB08A6FA08AB
:10317000A6F978AB1202632243B91078ACA6B7085F
:10318000A6B608A6B578AB1202632243B91078AC94
:10319000A6EB08A6EA08A6E978AB1202632243B9B7
:1031A0001078ACA6F308A6F208A6F178AB12026379
:1031B0002243B91078ACA6FB08A6FA08A6F978ABAA
:1031C000120263227B017D01E4FF122B577F011263
:1031D000300D229000CFE0FF9000D2E04F785EF6F5
:1031E00022C2DA53D80F43D8D0D2D8D2D922FFFF87
:00000001FF
