:100000000110050014000000401C0000FF0000006B
:10001000020C3A751AFF22FFFFFFFF0215D47E067D
:10002000900074E06F6007EFF0E4900077F09000CC
:1000300074E07001FE900077E004F0C39E50037FEF
:1000400000229000777406F07F01220216FAE4FB8A
:10005000EB25E025E02474F8120232EB25E025E0E0
:10006000247CF812024B0BBB02E622021081BB017A
:100070000689828A83E0225002E722BBFE02E32245
:1000800089828A83E49322EF8DF0A4A8F0CF8CF0CC
:10009000A428CE8DF0A42EFE22BC000BBE0029EFBA
:1000A0008DF084FFADF022E4CCF875F008EF2FFF5F
:1000B000EE33FEEC33FCEE9DEC984005FCEE9DFE2D
:1000C0000FD5F0E9E4CEFD22EDF8F5F0EE8420D274
:1000D0001CFEADF075F008EF2FFFED33FD400798E3
:1000E0005006D5F0F222C398FD0FD5F0EA22E88F32
:1000F000F0A4CC8BF0A42CFCE98EF0A42CFC8AF0AC
:10010000EDA42CFCEA8EF0A4CDA8F08BF0A42DCCAD
:100110003825F0FDE98FF0A42CCD35F0FCEB8EF006
:10012000A4FEA9F0EB8FF0A4CFC5F02ECD39FEE4EC
:100130003CFCEAA42DCE35F0FDE43CFC2275F00831
:10014000758200EF2FFFEE33FECD33CDCC33CCC51F
:100150008233C5829BED9AEC99E58298400CF5823A
:10016000EE9BFEED9AFDEC99FC0FD5F0D6E4CEFBAC
:10017000E4CDFAE4CCF9A88222B800C1B90059BA9A
:10018000002DEC8BF084CFCECDFCE5F0CBF97818C8
:10019000EF2FFFEE33FEED33FDEC33FCEB33FB10C2
:1001A000D703994004EB99FB0FD8E5E4F9FA2278DC
:1001B00018EF2FFFEE33FEED33FDEC33FCC933C9EE
:1001C00010D7059BE99A4007EC9BFCE99AF90FD8F8
:1001D000E0E4C9FAE4CCFB2275F010EF2FFFEE3318
:1001E000FEED33FDCC33CCC833C810D7079BEC9A57
:1001F000E899400AED9BFDEC9AFCE899F80FD5F0E0
:10020000DAE4CDFBE4CCFAE4C8F922EB9FF5F0EA9E
:100210009E42F0E99D42F0E89C45F022E8600FEC38
:10022000C313FCED13FDEE13FEEF13FFD8F122E82C
:10023000600FEFC333FFEE33FEED33FDEC33FCD83C
:10024000F122E6FC08E6FD08E6FE08E6FF22E6FBF2
:1002500008E6F908E6FA08E6CBF822ECF608EDF62F
:1002600008EEF608EFF622ECF208EDF208EEF208DE
:10027000EFF222D083D082E493F608740193F6085B
:10028000740293F608740393F6740473D083D082D7
:10029000E493F208740193F208740293F208740371
:1002A00093F27404738A838982E473E4F530E53051
:1002B00025E025E0247CF8C000120232C007745209
:1002C0002530F8E6FFFBE4FAF9F8D0071200DED09B
:1002D0000012024BE53025E025E0247CF8C0001236
:1002E0000232780712020CD00012024BE53025E0F2
:1002F00025E0247CF8120232EC4D4E4F6076E5305A
:1003000025E025E0246CF8120232E53025E025E0F6
:10031000247CF812023EC31201FB50037F0322E546
:100320003025E025E0246CF812023EC000E53025BF
:10033000E025E0247CF8120232D000C3EF9BF534B4
:10034000EE9AF533ED99F532EC98F531E47FFF7EC6
:10035000FFFDFCAB34AA33A932A831C31201FB4024
:10036000037F0322E53025E02400F8E533F208E5B9
:1003700034F28015E530C39402500BE53025E024BB
:1003800008F8E4F208F27F03220530E530640260E9
:100390000302029EE4F530E53025E02404F8E2FE95
:1003A00008E2FFE53025E02400F8E2FC08E2FDD396
:1003B0009FEC9E401EE53025E02404F8E2FE08E2B2
:1003C000FFC3ED9FFFEC9EFEE48F388E37F536F5C8
:1003D000358009E4F538F537F536F535AF38AE3701
:1003E000AD36AC35780712021F8F388E378D368CBC
:1003F00035900074E070447F03FEFDFCAB38AA37F3
:10040000A936A8351200DEE53025E025E02414F8F1
:10041000E2FB08E2F908E2FA08E2CBF8EB2FFFEA88
:100420003EFEE93DFDE83CFC780212020CE5302579
:10043000E025E02414F81202578033E53025E0254A
:10044000E02414F8E2FC08E2FD08E2FE08E22538A8
:10045000FFEE3537FEED3536FDEC3535FC78011213
:10046000020CE53025E025E02414F8120257E530AF
:1004700025E025E02414F8E2FC08E2FD08E2FE088D
:10048000E2FF780712020CE53025E02408F8EEF2CE
:1004900008EFF20530E530640260030203877F074E
:1004A000228E328F33E4F535F536F537900087E04C
:1004B000F536A3E0F537E4F534E5187016900077CB
:1004C000E0B4060FD3900091E09400900090E09487
:1004D00000401EE53425E02448F8E4F208F2E53453
:1004E00025E025E0243CF812027C00000000020513
:1004F000A8E53425E02449F9E3700219E3701AE510
:100500003425E02400F8E2FE08E2FFE53425E0248B
:1005100044F8EEF208EFF28057E53425E02444F881
:10052000E2FE08E2FFE53425E02400F8E2FC08E200
:10053000FD121B07D3EF9537EE95364033E5342592
:10054000E02400F8E2FE08E2FFE53425E02444F868
:10055000EEF208EFF2E53425E02448F8E4F208F280
:10056000E53425E025E0243CF812027C0000000080
:10057000E53425E02400F8E2FE08E2FFE53425E05A
:1005800025E0243CF8C000E2FB08E2F908E2FA08A2
:10059000E2CBF8E4FCFDEB2FFFEA3EFEED39FDEC8B
:1005A00038FCD000120257E53425E02448F808E270
:1005B0002401F218E23400F20534E534C394025009
:1005C000030204A9E4F534E53425E02449F9C3E342
:1005D000953319E39532400205350534E534B4020C
:1005E000E6E5356402600302068574FF900089F039
:1005F000A3F0E4A3F0A3F0F534E53425E02448F8B3
:10060000E2FE08E2FF4E7003020685E4FCFDC00432
:10061000A905AA06AB07E53425E025E0243CF8E26D
:10062000FC08E2FD08E2FE08E2FFD0001201698E3C
:10063000388F39D390008AE09539900089E0953859
:100640004007E538F0A3E539F0C390008CE0953918
:1006500090008BE095385007E538F0A3E539F0E5D8
:100660003425E02404F8E538F208E539F2E53425CC
:10067000E02448F8E4F208F2E53425E025E0243CE3
:10068000F812027C00000000C2080534E534640260
:1006900060030205E922E4F534F533E53325E0256E
:1006A000E0243CF812027C000000000533E533B47E
:1006B00002E912187CE4F533E53325E025E0243C1B
:1006C000F8C000E2FC08E2FD08E2FE08E2FFE533C4
:1006D00025E025E02474F812023EEF2BFFEE3AFEEF
:1006E000ED39FDEC38FCD0001202570533E533B488
:1006F00002C60534E534C3940540B7E4F533AF349E
:10070000E4FCFDFEC004A905AA06AB07E53325E01D
:1007100025E0243CF8E2FC08E2FD08E2FE08E2FFE6
:10072000D0001201698F388E378D368C35AB38AAE0
:1007300037A936A835C00074522533F8E6FFE4FC2B
:10074000FDFED0001200DE8F388E378D368C357866
:100750000712020C8F388E378D368C35E47FB87EC9
:100760000BFDFCAB38AA37A936A835D31201FB40E4
:1007700030E5382448FFE53734F4FEE53634FFFD34
:10078000E53534FFFCE53325E025E0246CF8120262
:100790004BE53325E02400F8740BF20874B8F280BE
:1007A0001EE53325E025E0246CF81202630000000A
:1007B00000E53325E02400F8E537F208E538F2E5F6
:1007C0003325E025E0243CF812027C00000000E51F
:1007D0003325E02448F8E4F208F2E533C3940250EC
:1007E00033E53325E02400F8E2FE08E2FFE5332597
:1007F000E02404F8EEF208EFF2E53325E02408F8EF
:10080000E4F208F2E53325E025E02414F812027C36
:10081000000000000533E533640260030206EE22A7
:1008200074FFF537F538E4FFFE02089CE532C39407
:1008300009501CE53225E0242AF8E2FC08E2FDE537
:100840003225E02428F8ECF208EDF2053280DD785C
:1008500004E2FD08E2783ACDF208EDF2E4F532E583
:100860003225E02428F8E2FC08E2FDC39538EC9537
:100870003750048C378D38D3ED9FEC9E4004AE0486
:10088000AF050532E532B40AD6E538244BFDE43530
:1008900037FCD3EF9DEE9C4011D2097F0412195E04
:1008A000900092EEF0A3EFF08002C209E4F535F576
:1008B00036F532E53225E02408F8E2F53308E2F5B2
:1008C00034AE33FFE4FCFD7B64FAF9F81200DEC0BD
:1008D00006C007E53225E0244CF582E43400F583B8
:1008E000E0FEA3E0FFFBAA06E4F9F8D007D0061269
:1008F0000169E5186022C3EF941EEE94005019E5DB
:100900003225E02410F8E4F208F2E53225E0240C68
:10091000F8E4F208F202098BC3E5349536FFE533BB
:100920009535FEE4FCFD7B64FAF9F81200DEC006A2
:10093000C007E53225E0244CF582E43400F583E07D
:10094000FEA3E0FFFBAA06E4F9F8D007D0061201E7
:1009500069E53225E02410F8EEF208EFF2AE33AF8D
:1009600034E4FCFD7B64FAF9F81200DEC006C0072F
:10097000E53225E0244CF582E43400F583E0FEA363
:10098000E0FFFBAA06E4F9F8D007D006120169E5FA
:100990003225E0240CF8EEF208EFF20532E532647D
:1009A0000260030208A322E4FD300520ED25E024C7
:1009B0001FF582E43418F583E493FE740193FFED90
:1009C00025E02433F8A60608A6078041300420ED70
:1009D00025E024FFF582E43417F583E493FE7401E7
:1009E00093FFED25E02433F8A60608A607801EED48
:1009F00025E024EFF582E43417F583E493FE7401D7
:100A000093FFED25E02433F8A60608A6070DBD02E6
:100A100098E4FDED25E0241CF8E2FE08E2FFED2558
:100A2000E0240DF9D3E39F19E39E4016ED25E02461
:100A30000CF8E2FE08E2FFED25E0241CF8EEF208D7
:100A4000EFF2ED25E02433F8E6FE08E6FFEEC313EF
:100A5000FEEF13FFED25E0240DF9D3E39F19E39E8C
:100A60005034ED25E02433F8E6FE08E6FFED75F09E
:100A700008A4245CF8A60608A607ED25E02433F8B0
:100A8000E6FE08E625E0FFEE33F8ED25E0241CC87D
:100A9000F208EFF2803CED25E0240FF582E43418F3
:100AA000F583E493FE740193FFED25E0240DF9D363
:100AB000E39F19E39E401BED25E0241CF9E3C313DB
:100AC000FE09E313FFED75F008A4245CF8A6060800
:100AD000A6070DED64026003020A03E4FDED75F064
:100AE00008A4245CF8E6FE08E6FFED25E02420F8E3
:100AF000EEF208EFF20DBD02E42285BA3953BA0FC7
:100B000043BA10E4F533E53325E025E02474F81208
:100B10000263000000000533E533B402E9753305D4
:100B200075ABFF121A22E4F534E53425E025E02404
:100B300074F8C000120232C004C005C006C00774B9
:100B4000842534F8E675F003A42421F582E4341BEF
:100B5000F583E493FB740193FA740293F9120295FE
:100B6000A804A905AA06AB07D007D006D005D00473
:100B7000EF2BFFEE3AFEED39FDEC38FCD00012020F
:100B80004B0534E534C39402409FE4F5AB121A22BE
:100B9000E4F534E53425E025E02474F8C0001202C1
:100BA00032C004C005C006C00774842534F8E67559
:100BB000F003A42421F582E4341BF583E493FB7451
:100BC0000193FA740293F9120295A804A905AA06E2
:100BD000AB07D007D006D005D004C3EF9BFFEE9A39
:100BE000FEED99FDEC98FCD00012024B0534E53483
:100BF000C39402409E1533E5336003020B10E4F505
:100C000034E4753810753727F536F535AF38AE371B
:100C1000AD36AC35780712021F8F388E378D368C83
:100C200035E53425E025E02474F812023E1201690E
:100C30008F388E378D368C3574522534F8A60705DB
:100C400034E534B402BB8539BA22439F04E453C669
:100C5000DFE5C600B5C6F375830075820775FD0D27
:100C6000E4E5FEF4FF75830075820675FD0DE4E58D
:100C7000FEB50704F59E8003759E0078100000D82D
:100C8000FC53C6E043C60843C680759607759703B4
:100C900075830075820475FD0D85FE8F7583007563
:100CA000820375FD0DE4E5FEF4FF75830075820295
:100CB00075FD0DE4E5FEB50704F595800375958394
:100CC00075BE0E5392FE9001007F007E02E4F0A3F9
:100CD000DFFCDEFA78007F00E4F208DFFC78FFE456
:100CE000F6D8FD75818F020D17020000020E74E424
:100CF00093A3F8E493A34003F68001F208DFF480A5
:100D000029E493A3F85407240CC8C333C4540F44F4
:100D100020C8834004F456800146F6DFE4800B01CE
:100D20000204081020408090163FE47E019360BCCE
:100D3000A3FF543F30E509541FFEE493A360010E66
:100D4000CF54C025E060A840B8E493A3FAE493A38D
:100D5000F8E493A3C8C582C8CAC583CAF0A3C8C5AE
:100D600082C8CAC583CADFE9DEE780BE7533077D66
:100D70000774017E00A833088005C333CE33CED874
:100D8000F9FFACACECFBE4EF5B7003D533E3ED6053
:100D90001D74017E00A805088005C333CE33CED86C
:100DA000F9FFACAEECFBE4EF5B70031D80E0AF330A
:100DB0007401A807088002C333D8FCF5AC7401A8FD
:100DC00005088002C333D8FCFFF5AD8FAE53AACF20
:100DD00085BA3C53BA0F43BA10E4F537F536F5350A
:100DE000F534121A22E4F53374842533F8E675F0ED
:100DF00003A42421F582E4341BF583E49374019366
:100E0000FA740293F91202958F3B8E3A8D398C3821
:100E1000AB37AA36A935A834C31201FB500C853B69
:100E200037853A368539358538340533E533C3940B
:100E30000240B5AF37AE36AD35AC34780212020C95
:100E4000E5372FF537E5363EF536E5353DF535E541
:100E5000343CF534AF37AE36AD35FC781012020CA9
:100E60008FB3AF37AE36AD35AC34780812020C8F85
:100E7000B28537B143AA30853CBA75AC0375ADC0B5
:100E800075AEC022121ACF7D01E4FF1218B87F019F
:100E9000121A6E7F01121AB2121C1B121C0E121AA9
:100EA000481214F3121929121992D2AF753E01E5B6
:100EB0003E24FD601714602024FE602D1460311460
:100EC0007003020F5324076003020F561217A41277
:100ED00012D1753E04020F56D2D8E53F70FC1200C5
:100EE0003E121B39753E06807D12029B8F3E807636
:100EF000D390007DE0940090007CE09400400CA32F
:100F0000E024FFF090007CE034FFF0D3900091E00B
:100F10009400900090E09400400CA3E024FFF09037
:100F20000090E034FFF0D3900093E09400900092A2
:100F3000E094004016A3E024FFF0900092E034FF1C
:100F4000F0E07002A3E07003121566900079E004EF
:100F5000F07006900078E004F01213FA120F888FF8
:100F60003E8003753E0490008DE0B40124E4784B8C
:100F7000F6FF121C1BE4F0F51CF51D00051DE51D18
:100F80007002051CB42CF4E51CB401EF7F01121CA7
:100F90001B12115F020E9F22E4F530753108120812
:100FA0001012183812136F1219F7900075EFF01223
:100FB000000EEF605F7F0112195EAD07AC06D390A3
:100FC000007DE0940090007CE094004010ECC4F8B8
:100FD00054F0C868FCEDC4540F48FD802E30081151
:100FE000EDAE047803CEC313CE13D8F9FDAC068062
:100FF0001AC37825E2941E18E29400500EECC4F84F
:1010000054F0C868FCEDC4540F48FDAF05AE04129F
:1010100004918003AF3122900074E06034E49000CA
:1010200080F0A3F090007FE004F0700690007EE076
:1010300004F07F0512195ED390007FE09F90007E40
:10104000E09E4014E4FF12169EE4900076F07F03C9
:1010500022E490007EF0A3F0900074E0FF90007610
:10106000E06F602A12169E900074E0900076F0788F
:101070004CE654F060187F0C12195E900090EEF070
:10108000A3EFF0900090E0C313F0A3E013F0AF31B2
:1010900022C0E0C0F0C083C082C0D075D008C2CFEB
:1010A00030CD0302115430CB4720CC447840A6CE3B
:1010B000E6FFC39480403075F003EFA424D0F5829E
:1010C000E5F03415F583E493FB740193FA7402930D
:1010D0008B238A24F5250525E5257002052414F9BE
:1010E00012005EF5CE80097840E62522F8E6F5CEBE
:1010F00030CC297840E6C394804015AB230525E524
:1011000025AA247002052414F912005EF5CE805041
:10111000784006E62522F8E6F5CE804420CB41AFA4
:10112000CE7840E6FE7028BF10028034BF200280D7
:101130002FBF5008784FE64401F68024BF6008783E
:101140004FE654FEF680197841A60F18068011EE7E
:10115000C3940A50087840E62441F8A60F78400668
:10116000784B7601D0D0D082D083D0F0D0E032203E
:10117000CA0302121F7841E6700302121FE4784B83
:10118000F6F53074412530F8E6FF74262530F8A6D0
:101190000774412530F8E4F60530E530B40AE47808
:1011A0004BE6700320CA12E4F53074262530F8E4CB
:1011B000F60530E530B40AF222E52624E0600F247B
:1011C000B0601224607017E4FF121A6E80107F0165
:1011D000121A6E8009E4FF121B627851A607E526F9
:1011E00054F064807049E52745286043E527FE7C7C
:1011F00000E42528FFEC3EFEC3EF940AEE94004085
:101200002EE526540FFDBD0F19E4F530E53075F0DD
:1012100008A4245CF8A60608A6070530E530B40249
:10122000EB22ED75F008A4245CF8A60608A60722B8
:10123000E4FFFEEE75F008A4245CF8E6FC08E6FD89
:10124000EE25E02411F9C3E39D19E39C400D7401E0
:10125000A806088002C333D8FC42070EBE02D48021
:101260007DEEC394025077EE75F008A4245CF8E696
:10127000FC08E6FDEE25E02411F9C3E39D19E39C8B
:10128000401DEE25E02415F9C3E3940A19E3940008
:10129000400D7401A806088002C333D8FC4207EE53
:1012A00075F008A4246CF8E6FC08E6FDEE25E024C1
:1012B00015F9C3E39D19E39C4021EE25E02411F9C3
:1012C000C3E3940A19E394004011EE2402FD740173
:1012D000A805088002C333D8FC42070E80838F180C
:1012E00022E4F531F532121AECE4900074F090002B
:1012F00076F0A3F090007EF0A3F0A3F0A3F09000AE
:1013000094F0A3F0900090F0A3F0F521F530E530D3
:1013100025E0244CF582E43400F583E0FEA3E0FFF1
:10132000900088E02FF0900087E03EF00530E53037
:10133000B402DB900087E0FEA3E0FF7C007D0A1290
:101340000089900087EEF0A3EFF0120D5C120AEA1C
:101350001206868019E530C3940A5012E53025E064
:101360002428F8740BF20874B8F2053080E77F0A7D
:1013700012195E90007CEEF0A3EFF0121B3922E40C
:10138000F532E53225E02404F8E2FE08E2FFE5321A
:1013900025E02400F8E2FC08E2FDC39FEC9E5048E3
:1013A000E53225E02405F8C3E29DF53418E29CF50A
:1013B00033FEAF34E4FCFD7B64FAF9F81200DEC0C2
:1013C00006C007E53225E0244CF582E43400F583BD
:1013D000E0FEA3E0FFFBAA06E4F9F8D007D006126E
:1013E00001698E358F368009E4F533F534F535F52E
:1013F00036D3E536940AE53594004002D20805322A
:10140000E5326402600302137222E4F530E53075C0
:10141000F008A4245EFFE53025E0240CF8E2FC0887
:10142000E2FD121B4EE53075F008A42460FFE530A4
:1014300025E02408F8E2FC08E2FD121B4EE53075B9
:10144000F008A42462FBC003E53025E02400F8E2A4
:10145000FE08E2FFE4FCFDE53025E025E0246CF821
:1014600012023EEF2BFFEE3AFEED39FDEC38FC7830
:101470000412020CAD07AC06D007121B4E0530E576
:1014800030C394024087784FE6F520227DFF8070BC
:101490007864E6FE08E6FFC37813E29F18E29E40F8
:1014A000107874E6FE08E6FF7817E29F18E29E5077
:1014B0004F780CE2FE08E2FF7809E22FF53418E2DB
:1014C0003EF533780EE2FE08E2FF780BE22FFF18BC
:1014D000E23EAB07FAEB25E0FFEA33FEC3E5349FBB
:1014E000E5339E50035305FAE53425E0FFE5333339
:1014F000FEC3EB9FEA9E50085305F580035305F0A9
:101500008D1922E4F530784CF6FF121B628F30E51E
:1015100030BFFF06784D76058004784D76FF784E13
:101520007614E408F6785176FFFFEF25E024EFF516
:1015300082E43417F583E493FC740193FDEF75F0B6
:1015400008A4245CF8A60408A605EF75F008A424F6
:101550005EF8E4F608F6EF75F008A42460F8E4F607
:1015600008F6EF75F008A42462F8E4F608F60FBF59
:1015700002B875224C22E4FBEB25E025E0247CF840
:10158000120232EF2448FFEE34F4FEED34FFFDEC9E
:1015900034FFFCEB25E025E0246CF812024BEB2530
:1015A000E02400F8740BF20874B8F2EBC394025014
:1015B00017EB25E02408F8E4F208F2EB25E0240418
:1015C000F8740BF20874B8F20BBB02AC22EBC394B4
:1015D0000A5010EB25E02428F8740BF20874B8F2D6
:1015E0000B80EA22C0E0C0F0C083C082C0D075D0BA
:1015F00000C000C004C005C006C007C28D758CD8ED
:10160000758AF0051FE51F7002051EAE1EFF7C00E7
:101610007D64120089ED4C7021900078E0FEA3E01B
:10162000FFD3940AEE94004006A3EEF0A3EFF090EF
:101630000078E4F0A3F0F51EF51FD007D006D00522
:10164000D004D000D0D0D082D083D0F0D0E0320807
:10165000840102FFFFFFFFFFFF048C000000006019
:101660004A004C028A01B80064006400640064000F
:101670006400640102040805060708000000000079
:10168000000000000000000000000000000000005A
:10169000000000000000000000000000000000004A
:1016A00000000000000000000000000000009000AA
:1016B0008DE0705504F0E4FEFDFC7401A804088080
:1016C00002C333D8FCF9FB900076E05BB50313EC62
:1016D0002404FA7401A802088002C333D8FC42062D
:1016E0008003E94206EF5BB50305E942058011EC92
:1016F0002404FB7401A803088002C333D8FC42050C
:101700000CBC02B6EE5D784CF622C0E0C0F0C0839F
:10171000C082C0D075D01053B9FD753D00748425CA
:101720003DF8E675F003A42421F582E4341BF5832B
:10173000E493740193FA740293F9120295E53D253E
:10174000E025E02474F812024B053DE53DC3940208
:1017500040CB753F00D0D0D082D083D0F0D0E032E3
:10176000FE0000FE0008FE0004FE000CFE0008FE65
:101770000010FE000CFE0014FE0010FE0018000019
:101780007400007C00008400008C000018010075CB
:10179000010074010076FE0014FE001C01007801B7
:1017A000009201008D01009001006401006CFE00B8
:1017B00020FE0048E4FFFE74842EF8E690182F9374
:1017C00042070EBE02F1EF42D4EF42F4EF42E4EFE3
:1017D000F452DC75AA3B75BA0C43BA4043B92053A6
:1017E000B9BF8FB4E4F5B375B24E75B12075BBFFC8
:1017F00075A950F5AB75AC0375ADC075AEC02200D0
:101800003200320032003200320032003200320048
:101810003200320032003200320032003200320038
:101820007800780032003200320032003200320399
:10183000E803E800320032003200320032003201A8
:1018400002040810204080147810E2FE08E2FF8EA7
:1018500032F5337D01ED25E02410F8E2FA08E2FBD1
:10186000C39533EA953250048A328B33D3EB9FEA27
:101870009E4004AE02AF030DBD02DA7826E532F2D7
:1018800008E533F27824EEF208EFF222121A22E48D
:10189000F53974842539F8E675F003A42421F5821E
:1018A000E4341BF583E493740193FA740293F91200
:1018B0000295E53925E025E02474F812024B05393C
:1018C000E539C3940240CB22E4FE7C02ECC39402CF
:1018D000500E74842CF8E690182F9342060C80EC7E
:1018E000EF6005EE42D48004EEF452D4EEF4FF52E1
:1018F000F4EE42E4ED6005EE42EC8003EF52ECEFD3
:1019000052DC22E4FFFEEE75F008A4245DF8E62424
:10191000FBFD18E634FFFCEE25E0240DF9C3E39D42
:1019200019E39C400D7401A806088002C333D8FC5B
:1019300042070EBE02D08F1B227E007F64E4FDEDC5
:1019400025E02492F582E4341AF583E493F4601DD3
:10195000ED25E02493F582E4341AF583E493FCEF5B
:101960002DF582E43EF583ECF00DBD10D2227539E1
:1019700000753A647B017A00BFFF057F017E00227B
:10198000E53A2FF582E43539F583E07A00FB9000E3
:101990007AE0FCA3E0FDAF037E00120077AA06AB5D
:1019A000072243F80875CD4053CC7F43CC4043CC4D
:1019B0002043CC1043CC0453CCFD43CB0243CB019A
:1019C00053CBBF43E80853E5FC43E30243F503432D
:1019D000900343ED0322A907E4FDFC74017E00A8F7
:1019E00004088005C333CE33CED8F9FFE9FBE4EF1A
:1019F0005B600D7401A804088002C333D8FC420563
:101A00000CBC02D7AF052212099712122012147CC7
:101A10001200031218F3900074E0700D851832E57F
:101A2000195232E51A52328003851B32AF32121935
:101A3000C62275BF0F00000000000000000000007B
:101A400000000000000000D2D853B9FD43B901E501
:101A5000B930E1FBE4F5BF22438901C28DD2A9531D
:101A6000B8FDE4F51EF51F900078F0A3F0A3F0A3F5
:101A70007464F0758CD8758AF0D28CD2AF22E4FEF3
:101A80007D02EDC39402500E74842DF8E690182F59
:101A90009342060D80ECEF6004EE428022EEF45299
:101AA000802200020101020103010402050606066C
:101AB0000702080A09020A020B280C010D030E0195
:101AC000FF01EF600543D504800353D5FB53F5FBBD
:101AD00053E5FB43E30443ED04E490008DF022E47E
:101AE000F5E3439F10439F02FF0FBFFFFC539FEF9F
:101AF00075BE0EE4F5BFF5B97592762253BAFEE5D0
:101B0000B920E004E53F6005E5B930E1FBE4F5BF4D
:101B100053B9FE53B9FD22AB07AA06D3EB9DEA9C4D
:101B20004007EB9DFFEA9CFE22C3ED9BFFEC9AFE73
:101B300022FF1B76FF1B89FF1B9CFF1BAFFF1BC2F5
:101B4000FF1BD5FF1BE8FF1BFB75BF0F43B92053DD
:101B5000B9FD43BA01753F0143B901D2D822AB07A1
:101B6000AF04AE05C2AFA803A607E804F8A606D2E4
:101B7000AF22E4FFF582F5837420FEE493F42FFF97
:101B8000A3EEB583F62253B9EF788DA6B708A6B6B3
:101B900008A6B5788C1202322253B9EF788DA6EBE5
:101BA00008A6EA08A6E9788C1202322253B9EF7827
:101BB0008DA6F308A6F208A6F1788C120232225301
:101BC000B9EF788DA6FB08A6FA08A6F9788C120260
:101BD000322243B910788DA6B708A6B608A6B57804
:101BE0008C1202322243B910788DA6EB08A6EA08BF
:101BF000A6E9788C1202322243B910788DA6F30838
:101C0000A6F208A6F1788C1202322243B910788D20
:101C1000A6FB08A6FA08A6F9788C12023222C2DACC
:101C200053D80F43D8D0D2D8D2D922EF6003D29262
:101C300022C29222FFFFFFFFFFFFFFFFFFFFFFFF18
:101C4000FFFFFFFFFFFFFFFFFFFFFFFFFFFFFFFFA4
:00000001FF
