:100000000110020000000000001C0000FF000000C2
:10001000020C2E751AFF22FFFFFFFF02150D7E0353
:10002000900060E06F6007EFF0E4900063F09000F4
:1000300060E07001FE900063E004F0C39E50037F17
:1000400000229000637403F07F0122021688E4FB13
:10005000EB25E025E02473F8120232EB25E025E0E1
:10006000247BF812024B0BBB02E622021061BB019B
:100070000689828A83E0225002E722BBFE02E32245
:1000800089828A83E49322EF8DF0A4A8F0CF8CF0CC
:10009000A428CE8DF0A42EFE22BC000BBE0029EFBA
:1000A0008DF084FFADF022E4CCF875F008EF2FFF5F
:1000B000EE33FEEC33FCEE9DEC984005FCEE9DFE2D
:1000C0000FD5F0E9E4CEFD22EDF8F5F0EE8420D274
:1000D0001CFEADF075F008EF2FFFED33FD400798E3
:1000E0005006D5F0F222C398FD0FD5F0EA22E88F32
:1000F000F0A4CC8BF0A42CFCE98EF0A42CFC8AF0AC
:10010000EDA42CFCEA8EF0A4CDA8F08BF0A42DCCAD
:100110003825F0FDE98FF0A42CCD35F0FCEB8EF006
:10012000A4FEA9F0EB8FF0A4CFC5F02ECD39FEE4EC
:100130003CFCEAA42DCE35F0FDE43CFC2275F00831
:10014000758200EF2FFFEE33FECD33CDCC33CCC51F
:100150008233C5829BED9AEC99E58298400CF5823A
:10016000EE9BFEED9AFDEC99FC0FD5F0D6E4CEFBAC
:10017000E4CDFAE4CCF9A88222B800C1B90059BA9A
:10018000002DEC8BF084CFCECDFCE5F0CBF97818C8
:10019000EF2FFFEE33FEED33FDEC33FCEB33FB10C2
:1001A000D703994004EB99FB0FD8E5E4F9FA2278DC
:1001B00018EF2FFFEE33FEED33FDEC33FCC933C9EE
:1001C00010D7059BE99A4007EC9BFCE99AF90FD8F8
:1001D000E0E4C9FAE4CCFB2275F010EF2FFFEE3318
:1001E000FEED33FDCC33CCC833C810D7079BEC9A57
:1001F000E899400AED9BFDEC9AFCE899F80FD5F0E0
:10020000DAE4CDFBE4CCFAE4C8F922EB9FF5F0EA9E
:100210009E42F0E99D42F0E89C45F022E8600FEC38
:10022000C313FCED13FDEE13FEEF13FFD8F122E82C
:10023000600FEFC333FFEE33FEED33FDEC33FCD83C
:10024000F122E6FC08E6FD08E6FE08E6FF22E6FBF2
:1002500008E6F908E6FA08E6CBF822ECF608EDF62F
:1002600008EEF608EFF622ECF208EDF208EEF208DE
:10027000EFF222D083D082E493F608740193F6085B
:10028000740293F608740393F6740473D083D082D7
:10029000E493F208740193F208740293F208740371
:1002A00093F2740473D083D082F8E49370127401D3
:1002B00093700DA3A393F8740193F5828883E4737C
:1002C0007402936860EFA3A3A380DF8A838982E42A
:1002D000738E328F33E4F535F536F537900073E0E1
:1002E000F536A3E0F537E4F534900061E070169040
:1002F0000063E0B4030FD390007DE0940090007C95
:10030000E09400401EE53425E02434F8E4F208F2DD
:10031000E53425E025E02428F812027C00000000E6
:100320000203DAE53425E02435F9E3700219E370BD
:100330001AE53425E02400F8E2FE08E2FFE5342562
:10034000E02430F8EEF208EFF28057E53425E0249F
:1003500030F8E2FE08E2FFE53425E02400F8E2FC94
:1003600008E2FD121AC6D3EF9537EE95364033E515
:100370003425E02400F8E2FE08E2FFE53425E0241D
:1003800030F8EEF208EFF2E53425E02434F8E4F238
:1003900008F2E53425E025E02428F812027C00006C
:1003A0000000E53425E02400F8E2FE08E2FFE53431
:1003B00025E025E02428F8C000E2FB08E2F908E285
:1003C000FA08E2CBF8E4FCFDEB2FFFEA3EFEED3944
:1003D000FDEC38FCD000120257E53425E02434F857
:1003E00008E22401F218E23400F20534E534C39443
:1003F0000250030202D9E4F534E53425E02435F94E
:10040000C3E3953319E39532400205350534E534ED
:10041000B402E6E535640260030204D474FF900080
:1004200075F0A3F0E4A3F0A3F0F534E53425E0245F
:1004300034F8E2FE08E2FF4E70030204B7E4FCFD6C
:10044000C004A905AA06AB07E53425E025E0242869
:10045000F8E2FC08E2FD08E2FE08E2FFD00012012B
:10046000698E388F39D3900076E09539900075E029
:1004700095384007E538F0A3E539F0C3900078E0FF
:100480009539900077E095385007E538F0A3E539C5
:10049000F0E53425E02404F8E538F208E539F2E522
:1004A0003425E02434F8E4F208F2E53425E025E0D0
:1004B0002428F812027C00000000C2080534E5344C
:1004C0006402600302041B900075E0FEA3E0FFA33A
:1004D000E0FCA3E0FD121AC6D3EF9464EE94004052
:1004E0000312163122E4F530E53025E025E0247BC7
:1004F000F8C000120232C00774512530F8E6FFFB45
:10050000E4FAF9F8D0071200DED00012024BE53011
:1005100025E025E0247BF8C00012023278071202A1
:100520000CD00012024BE53025E025E0247BF812C8
:100530000232EC4D4E4F6076E53025E025E0246B2D
:10054000F8120232E53025E025E0247BF812023E65
:10055000C31201FB50037F0322E53025E025E02490
:100560006BF812023EC000E53025E025E0247BF860
:10057000120232D000C3EF9BF534EE9AF533ED99B9
:10058000F532EC98F531E47FFF7EFFFDFCAB34AA39
:1005900033A932A831C31201FB40037F0322E530A7
:1005A00025E02400F8E533F208E534F28015E53063
:1005B000C39402500BE53025E02408F8E4F208F279
:1005C0007F03220530E530640260030204D8E4F5BD
:1005D00030E53025E02404F8E2FE08E2FFE53025AE
:1005E000E02400F8E2FC08E2FDD39FEC9E401EE50B
:1005F0003025E02404F8E2FE08E2FFC3ED9FFFECA3
:100600009EFEE48F388E37F536F5358009E4F538EF
:10061000F537F536F535AF38AE37AD36AC3578074A
:1006200012021F8F388E378D368C35900060E07047
:10063000447F03FEFDFCAB38AA37A936A83512006B
:10064000DEE53025E025E02414F8E2FB08E2F908B5
:10065000E2FA08E2CBF8EB2FFFEA3EFEE93DFDE8C7
:100660003CFC780212020CE53025E025E02414F869
:100670001202578033E53025E025E02414F8E2FC2F
:1006800008E2FD08E2FE08E22538FFEE3537FEED10
:100690003536FDEC3535FC780112020CE53025E0ED
:1006A00025E02414F8120257E53025E025E0241453
:1006B000F8E2FC08E2FD08E2FE08E2FF7807120219
:1006C0000CE53025E02408F8EEF208EFF20530E5FD
:1006D00030640260030205C17F0722E4F533F5327E
:1006E000E53225E025E02428F812027C0000000015
:1006F0000532E532B402E912180CE4F532E5322590
:10070000E025E02428F8C000E2FC08E2FD08E2FE53
:1007100008E2FFE53225E025E02473F812023EEFFF
:100720002BFFEE3AFEED39FDEC38FCD000120257FB
:100730000532E532B402C60533E533C3940540B74C
:10074000E4F532AF33E4FCFDFEC004A905AA06AB14
:1007500007E53225E025E02428F8E2FC08E2FD0860
:10076000E2FE08E2FFD0001201698F378E368D3528
:100770008C34AB37AA36A935A834C0007451253261
:10078000F8E6FFE4FCFDFED0001200DE8F378E3667
:100790008D358C34780712020C8F378E368D358C60
:1007A00034E47FE87E03FDFCAB37AA36A935A834D4
:1007B000D31201FB4030E5372418FFE53634FCFE48
:1007C000E53534FFFDE53434FFFCE53225E025E076
:1007D000246BF812024BE53225E02400F87403F292
:1007E0000874E8F2801EE53225E025E0246BF8125B
:1007F000026300000000E53225E02400F8E536F24F
:1008000008E537F2E53225E025E02428F812027CDD
:1008100000000000E53225E02434F8E4F208F2E5B7
:1008200032C394025033E53225E02400F8E2FE089A
:10083000E2FFE53225E02404F8EEF208EFF2E532BB
:1008400025E02408F8E4F208F2E53225E025E0246A
:1008500014F812027C000000000532E532640260E8
:10086000030207332220CA030209AD7840E6700371
:100870000209ADE4784AF6F53074402530F8E6FF19
:1008800074262530F8A60774402530F8E4F60530C4
:10089000E530B40AE4784AE6700320CA12E4F53081
:1008A00074262530F8E4F60530E530B40AF222E586
:1008B0002612029508C31008CB2008D33009074040
:1008C000093B50094360094B70095690095AA00032
:1008D00000095CE4FF121A5202095C7F01121A52ED
:1008E00002095CE4F531E53125E02458F582E43471
:1008F00018F583E493FE740193FFE53175F008A4C5
:10090000245BF8A60608A6070531E531B402D778BE
:100910004EE64410F68055E4F531E53125E02448F3
:10092000F582E43418F583E493FE740193FFE53116
:1009300075F008A4245BF8A60608A6070531E53182
:10094000B402D7784EE654EFF68021784EE64401A3
:10095000F68019784EE654FEF68011E4FF121B2152
:100960007850A6078006D2098002C209E52654F015
:1009700064807049E52745286043E527FE7C00E454
:100980002528FFEC3EFEC3EF940AEE9400402EE5CE
:1009900026540FFDBD0F19E4F530E53075F008A4BD
:1009A000245BF8A60608A6070530E530B402EB2262
:1009B000ED75F008A4245BF8A60608A6072285BA00
:1009C0003853BA0F43BA10E4F532E53225E025E09A
:1009D0002473F8120263000000000532E532B4020D
:1009E000E975320575ABFF1219E6E4F533E53325F9
:1009F000E025E02473F8C000120232C004C005C034
:100A000006C00774832533F8E675F003A424E0F5E7
:100A100082E4341AF583E493FB740193FA7402932D
:100A2000F91202BBA804A905AA06AB07D007D00695
:100A3000D005D004EF2BFFEE3AFEED39FDEC38FC8B
:100A4000D00012024B0533E533C39402409FE4F516
:100A5000AB1219E6E4F533E53325E025E02473F81D
:100A6000C000120232C004C005C006C0077483254E
:100A700033F8E675F003A424E0F582E4341AF58334
:100A8000E493FB740193FA740293F91202BBA80475
:100A9000A905AA06AB07D007D006D005D004C3EF3E
:100AA0009BFFEE9AFEED99FDEC98FCD00012024BF4
:100AB0000533E533C39402409E1532E532600302EC
:100AC00009D4E4F533E4753710753627F535F53478
:100AD000AF37AE36AD35AC34780712021F8F378E84
:100AE000368D358C34E53325E025E02473F8120289
:100AF0003E1201698F378E368D358C347451253313
:100B0000F8A6070533E533B402BB8538BA22E4FD05
:100B1000300420ED25E02458F582E43418F583E410
:100B200093FE740193FFED25E02433F8A60608A692
:100B300007801EED25E02448F582E43418F583E4AF
:100B400093FE740193FFED25E02433F8A60608A672
:100B5000070DBD02BBE4FDED25E0241CF8E2FE0814
:100B6000E2FFED25E0240DF9D3E39F19E39E401643
:100B7000ED25E0240CF8E2FE08E2FFED25E0241C60
:100B8000F8EEF208EFF2ED25E02433F8E6FE08E691
:100B9000FFEEC313FEEF13FFED25E0240DF9D3E3C1
:100BA0009F19E39E5034ED25E02433F8E6FE08E675
:100BB000FFED75F008A4245BF8A60608A607ED254E
:100BC000E02433F8E6FE08E625E0FFEE33F8ED25F5
:100BD000E0241CC8F208EFF2803CED25E02468F523
:100BE00082E43418F583E493FE740193FFED25E06D
:100BF000240DF9D3E39F19E39E401BED25E0241C4F
:100C0000F9E3C313FE09E313FFED75F008A4245BB9
:100C1000F8A60608A6070DED64026003020B47E480
:100C2000FDED75F008A4245BF8E6FE08E6FFED256F
:100C3000E02420F8EEF208EFF20DBD02E422439F1B
:100C400004E453C6DFE5C600B5C6F37583007582BC
:100C50000775FD0DE4E5FEF4FF75830075820675EA
:100C6000FD0DE4E5FEB50704F59E8003759E007852
:100C7000100000D8FC53C6E043C60843C6807596F2
:100C80000775970375830075820475FD0D85FE8FCA
:100C900075830075820375FD0DE4E5FEF4FF758331
:100CA0000075820275FD0DE4E5FEB50704F595803B
:100CB0000375958375BE0E5392FE9001007F007EF2
:100CC00002E4F0A3DFFCDEFA78007F00E4F208DF44
:100CD000FC78FFE4F6D8FD75818E020D0B02000052
:100CE000020E68E493A3F8E493A34003F68001F2B4
:100CF00008DFF48029E493A3F85407240CC8C33315
:100D0000C4540F4420C8834004F456800146F6DFE3
:100D1000E4800B0102040810204080901578E47EE6
:100D2000019360BCA3FF543F30E509541FFEE493D8
:100D3000A360010ECF54C025E060A840B8E493A39F
:100D4000FAE493A3F8E493A3C8C582C8CAC583CACA
:100D5000F0A3C8C582C8CAC583CADFE9DEE780BE82
:100D60007532077D0774017E00A832088005C33301
:100D7000CE33CED8F9FFACACECFBE4EF5B7003D51F
:100D800032E3ED601D74017E00A805088005C333C1
:100D9000CE33CED8F9FFACAEECFBE4EF5B70031DB5
:100DA00080E0AF327401A807088002C333D8FCF595
:100DB000AC7401A805088002C333D8FCFFF5AD8FE1
:100DC000AE53AACF85BA3B53BA0F43BA10E4F536F7
:100DD000F535F534F5331219E6E4F532748325322E
:100DE000F8E675F003A424E0F582E4341AF583E410
:100DF00093740193FA740293F91202BB8F3A8E39FD
:100E00008D388C37AB36AA35A934A833C31201FB11
:100E1000500C853A36853935853834853733053277
:100E2000E532C3940240B5AF36AE35AD34AC33785D
:100E30000212020CE5362FF536E5353EF535E53480
:100E40003DF534E5333CF533AF36AE35AD34FC78A3
:100E50001012020C8FB3AF36AE35AD34AC33780818
:100E600012020C8FB28536B143AA30853BBA75ACFD
:100E70000375ADC075AEC022121A8E7D01E4FF125B
:100E800018B77F01121A527F01121A71121BDA125F
:100E90001BCD121A0C12149A1218ED121956D2AF59
:100EA000753D01E53D24FD601114601924FE6026A6
:100EB00014602A1460752407707412177D1213A52C
:100EC000753D048069D2D8E53E70FC12003E121ACE
:100ED000F8753D0680581204D58F3D8051D390009F
:100EE00069E09400900068E09400400CA3E024FFC7
:100EF000F0900068E034FFF0D390007DE094009023
:100F0000007CE09400400CA3E024FFF090007CE023
:100F100034FFF0900065E004F07006900064E00497
:100F2000F0121323120F708F3D8003753D04900063
:100F300079E0B40124E4784AF6FF121BDAE4F0F514
:100F40001CF51D00051DE51D7002051CB42CF4E503
:100F50001CB401EF7F01121BDA12085520090302AD
:100F60000E937F01121A52121AABE4F53E53B9FDEB
:100F700043CC0212173253CCFD753D03020E93226F
:100F8000E4F5307531081211F61217C812129812D2
:100F900019BB900061EFF012000EEF60577F011255
:100FA0001922AD07AC06D3900069E0940090006868
:100FB000E09400400FED7802CEC313CE13D8F9FDB4
:100FC000AC068027300811EDAE047803CEC313CEF3
:100FD00013D8F9FDAC068013C37825E2940A18E211
:100FE00094005007ECC313FCED13FDAF05AE0412E3
:100FF00002C18003AF3122900060E06034E49000D1
:101000006CF0A3F090006BE004F0700690006AE0D2
:1010100004F07F05121922D390006BE09F90006AC4
:10102000E09E4014E4FF1215D5E4900062F07F03C7
:1010300022E490006AF0A3F0900060E0FF9000626C
:10104000E06F602A1215D5900060E0900062F078A1
:101050004BE654F060187F0C12192290007CEEF0E1
:10106000A3EFF090007CE0C313F0A3E013F0AF31E6
:1010700022C0E0C0F0C083C082C0D075D008C2CF0B
:1010800030CD0302113A30CB4720CC44783FA6CE76
:10109000E6FFC39480403075F003EFA4245EF58230
:1010A000E5F03415F583E493FB740193FA7402932D
:1010B0008B238A24F5250525E5257002052414F9DE
:1010C00012005EF5CE8009783FE62522F8E6F5CEDF
:1010D00030CC29783FE6C394804015AB230525E545
:1010E00025AA247002052414F912005EF5CE80565C
:1010F000783F06E62522F8E6F5CE804A20CB47AFBA
:10110000CE783FE6FE702EBF100553809F8037BF1C
:101110002005438060802FBF5008784EE64401F6DA
:101120008024BF6008784EE654FEF680197840A609
:101130000F18068011EEC3940A5008783FE6244049
:10114000F8A60F783F06784A7601D0D0D082D083B7
:10115000D0F0D0E032E4FFFEEE75F008A4245BF896
:10116000E6FC08E6FDEE25E02411F9C3E39D19E352
:101170009C400D7401A806088002C333D8FC4207C6
:101180000EBE02D4807DEEC394025077EE75F00857
:10119000A4245BF8E6FC08E6FDEE25E02411F9C383
:1011A000E39D19E39C401DEE25E02415F9C3E3946B
:1011B0000A19E39400400D7401A806088002C333A5
:1011C000D8FC4207EE75F008A4246BF8E6FC08E6AC
:1011D000FDEE25E02415F9C3E39D19E39C4021EEC3
:1011E00025E02411F9C3E3940A19E394004011EEB9
:1011F0002402FD7401A805088002C333D8FC42070D
:101200000E80838F1822E4F535F536F532E5322568
:10121000E02408F8E2F53308E2F534C39536FFE53B
:10122000339535FEE4FCFD7B64FAF9F81200DEC06C
:1012300006C007E53225E02438F582E43400F58362
:10124000E0FEA3E0FFFBAA06E4F9F8D007D00612FF
:101250000169E53225E02410F8EEF208EFF2AE3332
:10126000AF34E4FCFD7B64FAF9F81200DEC006C07E
:1012700007E53225E02438F582E43400F583E0FE0A
:10128000A3E0FFFBAA06E4F9F8D007D00612016933
:10129000E53225E0240CF8EEF208EFF20532E532F3
:1012A000640260030211FD22E4F532E53225E024F8
:1012B00004F8E2FE08E2FFE53225E02400F8E2FC53
:1012C00008E2FDC39FEC9E5048E53225E02405F876
:1012D000C3E29DF53418E29CF533FEAF34E4FCFD27
:1012E0007B64FAF9F81200DEC006C007E53225E09B
:1012F0002438F582E43400F583E0FEA3E0FFFBAA86
:1013000006E4F9F8D007D0061201698E358F3680D1
:1013100009E4F533F534F535F536D3E536940AE5C9
:101320003594004002D2080532E5326402600302BF
:10133000129B22E4F530E53075F008A4245DFFE54A
:101340003025E0240CF8E2FC08E2FD121B0DE5302C
:1013500075F008A4245FFFE53025E02408F8E2FCDE
:1013600008E2FD121B0DE53075F008A42461FBC0F6
:1013700003E53025E02400F8E2FE08E2FFE4FCFD8E
:10138000E53025E025E0246BF812023EEF2BFFEE5E
:101390003AFEED39FDEC38FC780412020CAD07ACD6
:1013A00006D007121B0D0530E530C3940240877844
:1013B0004EE6F52022E4F530F531121AABE4900048
:1013C00060F0900062F0A3F090006AF0A3F0A3F048
:1013D000A3F090007EF0A3F090007CF0A3F0F52144
:1013E000FFEF25E02438F582E43400F583E0FCA328
:1013F000E0FD900074E02DF0900073E03CF00FBF32
:1014000002DF900073E0FEA3E0FF7C007D0A120083
:1014100089900073EEF0A3EFF0120D501209AE1296
:1014200006CB7F0A121922900068EEF0A3EFF012AB
:101430001AF8227DFF80707863E6FE08E6FFC37825
:1014400013E29F18E29E40107873E6FE08E6FF78EC
:1014500017E29F18E29E504F780CE2FE08E2FF78F8
:1014600009E22FF53418E23EF533780EE2FE08E289
:10147000FF780BE22FFF18E23EAB07FAEB25E0FF07
:10148000EA33FEC3E5349FE5339E50035305FAE586
:101490003425E0FFE53333FEC3EB9FEA9E5008534B
:1014A00005F580035305F08D1922E4F530784BF6ED
:1014B000FF121B218F30E530BFFF06784C7602808B
:1014C00004784C76FF784D7602E408F6785076FF83
:1014D000FFEF25E02448F582E43418F583E493FC1B
:1014E000740193FDEF75F008A4245BF8A60408A628
:1014F00005EF75F008A4245DF8E4F608F6EF75F042
:1015000008A4245FF8E4F608F6EF75F008A4246157
:10151000F8E4F608F60FBF02B875224B22C0E0C00F
:10152000F0C083C082C0D075D000C000C004C00528
:10153000C006C007C28D758CD8758AF0051FE51FDF
:101540007002051EAE1EFF7C007D64120089ED4C0A
:101550007021900064E0FEA3E0FFD3940AEE9400B3
:101560004006A3EEF0A3EFF0900064E4F0A3F0F5E2
:101570001EF51FD007D006D005D004D000D0D0D0A3
:1015800082D083D0F0D0E032088302040605FFFF4A
:10159000FFFF048B000000006048003802580190F3
:1015A00000640064006400640064006401020408D4
:1015B0000506070800000000000000000000000011
:1015C000000000000000000000000000000000001B
:1015D000000000000000000000000000000000000B
:1015E0000000000000900079E0705504F0E4FEFD7A
:1015F000FC7401A804088002C333D8FCF9FB9000F6
:1016000062E05BB50313EC2404FA7401A8020880BD
:1016100002C333D8FC42068003E94206EF5BB50300
:1016200005E942058011EC2404FB7401A80308803D
:1016300002C333D8FC42050CBC02B6EE5D784BF613
:1016400022E4FBEB25E025E0247BF8120232EF24B4
:1016500018FFEE34FCFEED34FFFDEC34FFFCEB250F
:10166000E025E0246BF812024BEB25E02400F8742F
:1016700003F20874E8F2EBC394025017EB25E02460
:1016800008F8E4F208F2EB25E02404F87403F20809
:1016900074E8F20BBB02AC22C0E0C0F0C083C08291
:1016A000C0D075D01053B9FD753C007483253CF84B
:1016B000E675F003A424E0F582E4341AF583E4939C
:1016C000740193FA740293F91202BBE53C25E025FC
:1016D000E02473F812024B053CE53CC3940240CB76
:1016E000753E00D0D0D082D083D0F0D0E032FE0062
:1016F00000FE0008FE0004FE000CFE0008FE0010C4
:10170000FE000CFE0014FE0010FE00180000730026
:10171000007B00008300008B0000180100610100C5
:1017200060010062FE0014FE001C010064010077ED
:1017300001007901007C010050010058FE0020FEEC
:10174000003453E3FDC2D9439F10E4FF0FBFFFFCF9
:10175000539FFD75BE0C438760759242C28D4387CF
:10176000030000000075BE0EC28D439F10E4FF0F02
:10177000BFFFFC439F02E4FF0FBFFFFC539FEF75C9
:10178000927643E302E4F5BFF5B9D2D922E4FFFE35
:1017900074832EF8E69018789342070EBE02F1EF9C
:1017A00042D4EF42F4EF42E4EFF452DC75AA3B7509
:1017B000BA0C43BA4043B92053B9BF8FB4E4F5B370
:1017C00075B24E75B12075BBFF75A950F5AB75AC00
:1017D0000375ADC075AEC0227810E2FE08E2FF8E40
:1017E00032F5337D01ED25E02410F8E2FA08E2FB42
:1017F000C39533EA953250048A328B33D3EB9FEA98
:101800009E4004AE02AF030DBD02DA7826E532F247
:1018100008E533F27824EEF208EFF2221219E6E43A
:10182000F53874832538F8E675F003A424E0F582D2
:10183000E4341AF583E493740193FA740293F91271
:1018400002BBE53825E025E02473F812024B053889
:10185000E538C3940240CB2200280028003C003C1D
:10186000003C003C003C003C003C003C003C003C98
:10187000003C003C003C003C00960096003C003CD4
:10188000003C003C003C003C010204081020408069
:101890006AE4FFFEEE75F008A4245CF8E624FBFD84
:1018A00018E634FFFCEE25E0240DF9C3E39D19E3AF
:1018B0009C400D7401A806088002C333D8FC42077F
:1018C0000EBE02D08F1B22E4FE7C0274832CF8E64D
:1018D0009018789342060CBC04F1EF6005EE42D4F8
:1018E0008004EEF452D4EEF4FF52F4EE42E4ED60E4
:1018F00005EE42EC8003EF52ECEF52DC227E007FDB
:1019000050E4FDED25E02432F582E4341AF583E459
:1019100093F4601DED25E02433F582E4341AF58359
:10192000E493FCEF2DF582E43EF583ECF00DBD1061
:10193000D2227532007533507B017A00BFFF057FDC
:10194000017E0022E5332FF582E43532F583E07A1B
:1019500000FB900066E0FCA3E0FDAF037E001200F8
:1019600077AA06AB072243F80875CD4053CC7F43D6
:10197000CC4043CC2043CC1043CC0453CCFD43CBD0
:101980000243CB0153CBBF43E80853E5FC43E302DA
:1019900043F50343900343ED0322A907E4FDFC74E0
:1019A000017E00A804088005C333CE33CED8F9FFEA
:1019B000E9FBE4EF5B600D7401A804088002C33307
:1019C000D8FC42050CBC02D7AF0522120AFE121148
:1019D00045121423120003121881900060E0700D6C
:1019E000851832E5195232E51A52328003851B32CE
:1019F000AF3212198A2275BF0F00000000000000EC
:101A00000000000000000000000000D2D853B9FD23
:101A100043B901E5B930E1FBE4F5BF22438901C2D6
:101A20008DD2A953B8FDE4F51EF51F900064F0A314
:101A3000F0A3F0A37464F0758CD8758AF0D28CD2C0
:101A4000AF2200020101020103010405050606069A
:101A50000702080A09020A020B280C010D030E01F5
:101A6000FF01E4FE7D0274832DF8E690187893421E
:101A7000060DBD04F1EF6004EE428022EEF45280C8
:101A800022EF600543D504800353D5FB53F5FB5388
:101A9000E5FB43E30443ED04E4900079F022E4F530
:101AA000E3439F10439F02FF0FBFFFFC539FEF755F
:101AB000BE0EE4F5BFF5B97592762253BAFEE5B9CC
:101AC00020E004E53E6005E5B930E1FBE4F5BF53F5
:101AD000B9FE53B9FD22AB07AA06D3EB9DEA9C40A1
:101AE00007EB9DFFEA9CFE22C3ED9BFFEC9AFE22D2
:101AF000FF1B35FF1B48FF1B5BFF1B6EFF1B81FF9E
:101B00001B94FF1BA7FF1BBA75BF0F43B92053B926
:101B1000FD43BA01753E0143B901D2D822AB07AFEC
:101B200004AE05C2AFA803A607E804F8A606D2AF24
:101B300022E4FFF582F5837420FEE493F42FFFA3E3
:101B4000EEB583F62253B9EF788CA6B708A6B6088F
:101B5000A6B5788B1202322253B9EF788CA6EB0827
:101B6000A6EA08A6E9788B1202322253B9EF788CE4
:101B7000A6F308A6F208A6F1788B1202322253B916
:101B8000EF788CA6FB08A6FA08A6F9788B12023229
:101B90002243B910788CA6B708A6B608A6B5788BEC
:101BA0001202322243B910788CA6EB08A6EA08A6E6
:101BB000E9788B1202322243B910788CA6F308A67A
:101BC000F208A6F1788B1202322243B910788CA663
:101BD000FB08A6FA08A6F9788B12023222C2DA5361
:101BE000D80F43D8D0D2D8D2D922EF6003D29222D4
:101BF000C29222FFFFFFFFFFFFFFFFFFFFFFFFFF7C
:101C0000FFFFFFFFFFFFFFFFFFFFFFFFFFFFFFFFE4
:00000001FF
