:10000000000C0B000000000000230000021A3A124E
:100010002205021E19FFFF021D2DE47889F608F65D
:10002000788DF608F608F608F67887F608F67885EB
:10003000F608F67893F608F6900018E0FF120D9493
:10004000121121121E19120B5E7F0A1221237895BC
:10005000A60608A60722FF0222F7AD07ED25E02439
:1000600068F582E43400F583E07F00FEED25E024AE
:1000700069F582E43400F583E02FFFE43EFE2202BE
:10008000090F900197EFF0E490019AF0A3F07F013F
:1000900012212390019CEEF0A3EFF0D37896E69422
:1000A0000018E69400400708E616187001167896C6
:1000B000E61846601690019CE0FEA3E07802CEC3ED
:1000C00013CE13D8F9F0EE90019CF0E49001B2F059
:1000D000900197F0900010E0FF900197E0FEC39F21
:1000E0004003020440900091E0C394F05013EE25C9
:1000F000E02436F9D3E7941419E79400400302038F
:1001000037900197E0FF12004E90019AEEF0A3EFB6
:10011000F0900197E0FF25E02446F9EF25E0245513
:10012000F8E6FE08E6FFD397EE199750030201ADFB
:10013000E025E02446F8C3EF96FDEE1896FC90010A
:100140009AE0C313FEA3E013FFD3ED9FEC9E40693A
:100150009001B2E004F09001B1E0705D900197F081
:10016000E0FF25E02453F582E43401F583E4F0A3B5
:10017000F0EF25E025E02423F582E43401F5831235
:1001800007FE000000009001977401F0E0FF25E0F9
:100190002453F582E43401F583E4F0A3F0EF25E085
:1001A00025E02423F582E43401F5831207FE0000E4
:1001B00000009001B17401F0229001B1E0700302DF
:1001C000029F900197E0FF25E02453F582E434017B
:1001D000F583E475F0011205C6EF25E025E0242340
:1001E000F582E43401F583C083C082E0F8A3E0F92E
:1001F000A3E0FAA3E0FBC000900197E025E02445CE
:10020000F8E6FE08E6FFE4FCFDD000EB2FFFEA3E37
:10021000FEED39FDEC38FCD082D0831207F290015C
:1002200097E025E02453F582E43401F583E0FEA352
:10023000E0FFD39407EE94004071AB07AA06E4F9FF
:10024000F8900197E025E025E02423F582E43401CD
:10025000F583E0FCA3E0FDA3E0FEA3E0FF12067D32
:10026000900197E0FD25E02455F8A60608A607EDC5
:1002700025E02453F582E43401F583E4F0A3F0EDA6
:1002800025E025E02423F582E43401F5831207FEFE
:1002900000000000900197E06005E49001B1F07F5C
:1002A0000A1221237895A60608A6079001B1E060FE
:1002B00003020437900197E0FF25E02453F582E420
:1002C0003401F583E0FCA3E04C701FEF25E02445EA
:1002D000F8E6FC08E6FDEF25E02443F582E434016E
:1002E000F583ECF0A3EDF0020363900197E0FD25A8
:1002F000E02443F582E43401F583E0FEA3E0FFED62
:1003000025E02445F8E6FC08E6FD1222C1AC06AD66
:100310000790019AE0C313FEA3E013FFD3ED9FEC17
:100320009E404C900197E0FF25E02445F8E6FC084C
:10033000E6FDEF25E02443F582E43401F583ECF09B
:10034000A3EDF0900197E0FF25E02453F582E4341B
:1003500001F583E4F0A3F0EF25E025E02423F58206
:10036000E43401F5831207FE000000000204379018
:100370000197E0FF25E02445F8E6FC08E6FDA3EC44
:10038000F0A3EDF07896E618467064EF25E024556A
:10039000F8E6FE08E6FF1222C190019AE0FAA3E017
:1003A000FBC39FEA9E5048900197E0FF25E024455B
:1003B000F8E6F58308E6F582EF25E02455F8E6FC3B
:1003C00008E6FDC39582EC9583500CEAC313FEEB5F
:1003D000132DFFEC3E801190019AE0C313FEA3E0C1
:1003E00013FFC3ED9FFFEC9E900198F0A3EFF090F8
:1003F0000197E025E025E02423F582E43401F5832C
:10040000C083C082E0F8A3E0F9A3E0FAA3E0FB9088
:100410000198E0FEA3E0FFE4FCFDEB2FFFEA3EFEC7
:10042000ED39FDEC38FCD082D0831207F2900197B1
:10043000E025E02453F582E43401F583E475F0010E
:100440001205C6900197E004F00200C8E49001B2E2
:10045000F0900197F0900010E0FF900197E0FEC34C
:100460009F502EEE25E02453F582E43401F583E01D
:10047000FEA3E0FF90019CE0FCA3E0FDD3EF9DEE26
:100480009C40069001B2E004F0900197E004F080F7
:10049000C49001B2E07003020518E4900197F09057
:1004A0000010E0FF900197E0FEC39F5077EE25E03B
:1004B0002453F582E43401F583E0FEA3E0FF4E60AF
:1004C0005AAB07AA06E4F9F8900197E025E025E089
:1004D0002423F582E43401F583E0FCA3E0FDA3E0EE
:1004E000FEA3E0FF12067D900197E0FD25E0245574
:1004F000F8A60608A607ED25E02453F582E43401AA
:10050000F583E4F0A3F0ED25E025E02423F582E473
:100510003401F5831207FE00000000900197E0040B
:10052000F002049322BB010689828A83E0225002F2
:10053000E722BBFE02E32289828A83E49322BB0185
:100540000CE58229F582E5833AF583E0225006E93D
:100550002582F8E622BBFE06E92582F8E222E58242
:1005600029F582E5833AF583E49322EF8DF0A4A880
:10057000F0CF8CF0A428CE8DF0A42EFE22BC000B70
:10058000BE0029EF8DF084FFADF022E4CCF875F0C9
:1005900008EF2FFFEE33FEEC33FCEE9DEC984005A8
:1005A000FCEE9DFE0FD5F0E9E4CEFD22EDF8F5F06E
:1005B000EE8420D21CFEADF075F008EF2FFFED3376
:1005C000FD4007985006D5F0F222C398FD0FD5F0F4
:1005D000EA22C5F0F8A3E028F0C5F0F8E58215821C
:1005E00070021583E038F022A3F8E0C5F025F0F0A2
:1005F000E582158270021583E0C838F0E822E88FA2
:10060000F0A4CC8BF0A42CFCE98EF0A42CFC8AF096
:10061000EDA42CFCEA8EF0A4CDA8F08BF0A42DCC98
:100620003825F0FDE98FF0A42CCD35F0FCEB8EF0F1
:10063000A4FEA9F0EB8FF0A4CFC5F02ECD39FEE4D7
:100640003CFCEAA42DCE35F0FDE43CFC2275F0081C
:10065000758200EF2FFFEE33FECD33CDCC33CCC50A
:100660008233C5829BED9AEC99E58298400CF58225
:10067000EE9BFEED9AFDEC99FC0FD5F0D6E4CEFB97
:10068000E4CDFAE4CCF9A88222B800C1B90059BA85
:10069000002DEC8BF084CFCECDFCE5F0CBF97818B3
:1006A000EF2FFFEE33FEED33FDEC33FCEB33FB10AD
:1006B000D703994004EB99FB0FD8E5E4F9FA2278C7
:1006C00018EF2FFFEE33FEED33FDEC33FCC933C9D9
:1006D00010D7059BE99A4007EC9BFCE99AF90FD8E3
:1006E000E0E4C9FAE4CCFB2275F010EF2FFFEE3303
:1006F000FEED33FDCC33CCC833C810D7079BEC9A42
:10070000E899400AED9BFDEC9AFCE899F80FD5F0CA
:10071000DAE4CDFBE4CCFAE4C8F922EB9FF5F0EA89
:100720009E42F0E99D42F0E89C45F022E8600FEC23
:10073000C313FCED13FDEE13FEEF13FFD8F122BB44
:10074000010789828A830208805005E9F802079D23
:10075000BBFE05E9F802088C89828A83020898BBEF
:10076000010DE58229F582E5833AF5830208805080
:1007700007E92582F802079DBBFE07E92582F802FA
:10078000088CE58229F582E5833AF583020898BB57
:10079000010789828A830207F25005E9F80207E619
:1007A000BBFE05E9F80208D122E6FC08E6FD08E6F2
:1007B000FE08E6FF22E6FB08E6F908E6FA08E6CBC3
:1007C000F822BB010DE58229F582E5833AF5830223
:1007D00008A85007E92582F80207A9BBFE07E9250A
:1007E00082F80208B4E58229F582E5833AF58302AE
:1007F00008C1ECF608EDF608EEF608EFF622ECF08C
:10080000A3EDF0A3EEF0A3EFF022A8828583F0D051
:1008100083D082120815120815120815120815E463
:1008200073E493A3C583C5F0C583C8C582C8F0A38C
:10083000C583C5F0C583C8C582C822BB010DE5824A
:1008400029F582E5833AF5830207FE5007E9258200
:10085000F80208DDBBFE07E92582F80208F622EC63
:100860008EF0A4CCC5F0CCCDF8EFA4CEC5F02DFD14
:10087000E43CFCE8A42EC8C5F03DFDE43CFCEFA43C
:10088000FFE5F028FEE43DFDE43CFC22E0FCA3E0B3
:10089000FDA3E0FEA3E0FF22E2FC08E2FD08E2FE89
:1008A00008E2FF22E493FC740193FD740293FE744A
:1008B0000393FF22E0F8A3E0F9A3E0FAA3E0FB2210
:1008C000E2FB08E2F908E2FA08E2CBF822E493F846
:1008D000740193F9740293FA740393FB22ECF20807
:1008E000EDF208EEF208EFF222D083D082E493F624
:1008F00008740193F608740293F608740393F6746F
:100900000473D083D082E493F208740193F20874E4
:100910000293F208740393F2740473C0E0C0F0C051
:1009200083C082C0D075D00820F903020B4730FD88
:1009300003020B4720FB03020B4720FC030209BA0A
:1009400078B9E6F5FC53A1BFC2FF751001AB12AA3E
:1009500013A914851082758300120532F511C2FFA8
:1009600043F92078BC76C308765020FF1220FA0F96
:1009700078BDE6161870011678BDE6184670EB30A3
:10098000FA03020B478511FC0510AB12AA13A91438
:10099000851082758300120532F511C2FF43F920DC
:1009A00078BC76C308765020FF1220FA0F78BDE697
:1009B000161870011678BDE6184670EB78BDE6187B
:1009C0004670BC020B4753A1BFC2FF751000C2FFA7
:1009D00043F92078BC76C308765020FF1220FA0F26
:1009E00078BDE6161870011678BDE6184670EB2043
:1009F000FB4085FC1130FA03020B4774982510F870
:100A0000A6110510C2FF43F92078BC76C3087650C2
:100A100020FF1220FA0F78BDE6161870011678BD77
:100A2000E6184670EB85FC1178BDE6184670C602E4
:100A30000B4785FC107897A610AB12AA13A914AF28
:100A40001005108F82758300120532F511C2FF4325
:100A5000F92078BC76C308765020FF1220FA0F7870
:100A6000BDE6161870011678BDE6184670EB20FC3E
:100A700003020B1A7897E6FF54F06480706B7400E1
:100A80002FF582E43400F583E075F003A4249BF590
:100A900082E43421F583E493F9740193FA740293A8
:100AA000900181C9F0A3EAF0A3E9F030FA03020B48
:100AB00047900181E0FBA3E475F0011205DCA9F089
:100AC000FA120519F5FCC2FF43F92078BC76C30879
:100AD000765020FFD620FAD378BDE616187001169E
:100AE00078BDE6184670EB80C220FA678511FCAB32
:100AF00012AA13A914AF1005108F82758300120576
:100B000032F511C2FF43F92078BC76C30876502035
:100B1000FFD720FAD478BDE6161870011678BDE626
:100B2000184670EB80C37897E6062498F8A6FCC2B6
:100B3000FF43F92078BC76C308765020FF1220FAD4
:100B40000F78BDE6161870011678BDE6184670EBF2
:100B500030FAD3C2FF43F92043A14078A47601D0F4
:100B6000D0D082D083D0F0D0E032E4900197F090E2
:100B70000010E0FF900197E0C39F505EE0FB25E08E
:100B800025E02423F582E43401F5831207FE0000FA
:100B90000000EB25E02443F582E43401F583E4F022
:100BA000A3F0900197E0FF25E02453F582E434019F
:100BB000F583E4F0A3F0900120E0FBA3E0FAA3E0CA
:100BC000F975F004EFA4F58285F08312082F000078
:100BD0000000900197E004F0809512184BE490011A
:100BE00097F0900010E0FF900197E0FEC39F5069DE
:100BF000EE25E025E02423F582E43401F583C0836B
:100C0000C082E0FCA3E0FDA3E0FEA3E0FF90012092
:100C1000E0FBA3E0FAA3E0F9900197E075F004A4EB
:100C2000F58285F0831207B6EF2BFFEE3AFEED3921
:100C3000FDEC38FCD082D0831207F2900197E025BA
:100C4000E02453F582E43401F583E475F0011205E4
:100C5000C6900197E004F08089C3900154E09405A8
:100C6000900153E094005003020BCEE4900197F002
:100C7000900010E0FF900197E0FEC39F4003020D3B
:100C80008DEE25E02453F582E43401F583E0FEA3E4
:100C9000E0FBAA06E4F9F8900197E025E025E024BE
:100CA00023F582E43401F583E0FCA3E0FDA3E0FE3C
:100CB000A3E0FF12067D9001981207F2E47F787E90
:100CC00069FDFC900198E0F8A3E0F9A3E0FAA3E045
:100CD000FBD312070F403E900198E0FCA3E0FDA378
:100CE000E0FEA3E02458FFEE349EFEED34FFFDEC61
:100CF00034FFFC900197E0FB25E025E02400F5821D
:100D0000E43401F5831207F2EB25E02455F876610F
:100D10000876A8802E900197E0FB25E025E02400CE
:100D2000F582E43401F5831207FE00000000900113
:100D300098A3A3E0FEA3E0FFEB25E02455F8A60668
:100D400008A607900197E0FF25E02425F8E4F608BF
:100D5000F6EF25E02455F8E6FE08E6FFE0FD25E085
:100D6000246DF8A60608A607ED25E025E02423F566
:100D700082E43401F5831207FE0000000090019721
:100D8000E025E02453F582E43401F583E4F0A3F098
:100D9000900197E004F0020C64900097E004F022C8
:100DA000900019E0F5C290FB04EFF0E4F5C375BBC9
:100DB0000F75B3A0F5AAF5BEF5BF75E61890FB0553
:100DC000743BF0E490FB09F090FB0A74F0F090FBA8
:100DD0000B7478F090FB0CF090FB0D7401F0E4F5CF
:100DE000BC75BD4B900198F0900010E0FF90019809
:100DF000E0FEC39F5024900120E0FBA3E0FAA3E0B3
:100E0000F975F004EEA4F58285F08312082F000036
:100E10000000900198E004F080CE900197740AF0F1
:100E200090FB0674FFF090FB07F090FB08F0E49055
:100E30000198F0900010E0FF900198E0FEC39F50F1
:100E40004E121C13900120E0FBA3E0FAA3E0F990FE
:100E50000198E075F004A4F582E92582F9EA35F0FD
:100E6000FAC002C00112073390FB00E0F8A3E0F9DA
:100E7000A3E0FAA3E02FFFEA3EFEE93DFDE83CFCDB
:100E8000D001D002120783900198E004F080A4E41E
:100E900090FB06F090FB07F090FB08F0900198F0B3
:100EA000900010E0FF900198E0FEC39F5055121C87
:100EB00013900120E0FBA3E0FAA3E0F9900198E091
:100EC00075F004A4F582E92582F9EA35F0FAC00349
:100ED000C002C00112073390FB00E0F8A3E0F9A3C1
:100EE000E0FAA3E0FBC3EF9BFFEE9AFEED99FDEC69
:100EF00098FCD001D002D003120783900198E0043F
:100F0000F0809DD2D8900197E014F0E06003020ECB
:100F100014E4900198F0900010E0FF900198E0C375
:100F20009F505FA31207FE00001950900199E0FC4A
:100F3000A3E0FDA3E0FEA3E0FFE47B4BFAF9F81287
:100F400005F29001991207F2900120E0FBA3E0FA6C
:100F5000A3E0F9900198E075F004A4F58285F08390
:100F60001207B6900199E0FCA3E0FDA3E0FEA3E028
:100F7000FF12067D900198E02465F8A607E004F0D2
:100F800080942253D2EF53D3FB43DD1043E210434E
:100F9000E50443E304900002E0FF121F789000197B
:100FA000E0F5C2900018E090FB04F0E4F5C375BBD7
:100FB0000B75B3B8F5AAF5BEF5BF75E618A3743B7B
:100FC000F0E490FB09F0A37480F0A3F0A3F0A37405
:100FD00001F0E4F5BC75BD32900002E0FF121C1F69
:100FE00090FB00A3A3E0FEA3E0FDAC06900184EC1F
:100FF000F0A3EDF0900002E0FF121F78C3ED94C45F
:10100000EC940950030210B690FFFBE493647670F1
:10101000030210B353D1DF43D52043E120E4900114
:1010200098F0900197F0900196F030850690019726
:10103000E004F0900196E004F0E0B40AED9001972E
:10104000E0D394084005A3E02404F0E4900197F075
:10105000900196F030A206900197E004F09001967E
:10106000E004F0E0B40AED900197E0D39408400565
:10107000A3E02402F0E4900197F0900196F0309400
:1010800006900197E004F0900196E004F0E0B40AC5
:10109000ED900197E0D394084004A3E004F09001A0
:1010A00098E0FEB4030D90FFFFE493D394804003D7
:1010B0007F0522EE25E0249AF582E4342280677FC2
:1010C0000122E4900198F0900197F0900196F030A1
:1010D000A206900197E004F0900196E004F0E0B4DD
:1010E0000AED900197E0D394084005A3E02402F0B4
:1010F000E4900197F0900196F0309406900197E00B
:1011000004F0900196E004F0E0B40AED900197E05D
:10111000D394084004A3E004F0900198E025E02473
:1011200092F582E43422F583740193FF22900197B3
:101130007407F0FD75E61875CF1FE4F5C375BB0F96
:1011400075B3A090FB0674FFF090FB07F090FB08CE
:10115000F0900197E0FF602274017E00A8070880EC
:1011600005C333CE33CED8F9FF90FB0AE0FBEF5B2B
:101170007008900197E014F080D7ED601D74017E37
:1011800000A805088005C333CE33CED8F9FF90FB05
:101190000BE0FBEF5B70031D80E0900197E0FF74B4
:1011A00001A807088002C333D8FC90FB0AF0740141
:1011B000A805088002C333D8FC90FB0BF090FB0C11
:1011C000F09001981207FE00000000E4900197F0F3
:1011D000900010E0FF900197E0FEC39F505C740008
:1011E0002EF582E43400F583E0FFF460459001972A
:1011F000E02465F8E6F5BD121C1F90FB00E0FCA39F
:10120000E0FDA3E0FEA3E0FF900198E0F8A3E0F981
:10121000A3E0FAA3E0FBC312070F501490FB00E019
:10122000FCA3E0FDA3E0FEA3E0FF9001981207F20B
:10123000D2D8900197E004F08096900198E0F8A34E
:10124000E0F9A3E0FAA3E0FBC000900198E0FCA362
:10125000E0FDA3E0FEA3E0FF7803120720D000EB3F
:101260002FFFEA3EFEE93DFDE83CFC9001981207A5
:10127000F2900198E0FCA3E0FDA3E0FEA3E0FF787C
:1012800010120720900020EFF0900198E0FCA3E0FE
:10129000FDA3E0FEA3E0FF7808120720900021EFF5
:1012A000F0900198A3A3A3E0900022F022E4900123
:1012B000A0F0A3F0A3F0A3F07815E6FE08E6FF90F7
:1012C000019CEEF0A3EFF0A3EEF0A3EFF0E4FFF942
:1012D000FE900010E0FDEEC39D5055EE25E0241574
:1012E000F8E6FC08E6FDC390019DE09D90019CE0BE
:1012F0009C5011AF06EE25E02415F8E6FD08E6CD7A
:10130000F0A3EDF0EE25E02415F8E6FC08E6FDD3A9
:1013100090019FE09D90019EE09C4011A906EE2562
:10132000E02415F8E6FD08E6CDF0A3EDF00E80A16F
:10133000900098EFF0A3E9F0E490019CF0A3F0FE98
:10134000900010E0FDEEC39D507AEE25E02415F8E4
:10135000E6FC08E6FDD39423EC940040069001A33C
:10136000E004F0D3ED942DEC940040069001A0E051
:1013700004F0D3ED9437EC940040069001A1E00412
:10138000F0D3ED9441EC940040069001A2E004F00B
:10139000900098E06E6029EE25E02415F8E6FC0840
:1013A000E6FDC390019DE09D90019CE09C5011AF33
:1013B00006EE25E02415F8E6FD08E6CDF0A3EDF0F5
:1013C0000E02133490009DEFF09001A3E090009F77
:1013D000F09001A0E090009AF09001A1E090009BB5
:1013E000F09001A2E090009CF0224101B3FF48017F
:1013F000A4000102040810204050018600D600B964
:10140000010E010E010E010E010E010E48017701C1
:101410000204081020408041017F00610000000D9F
:10142000110BFFFFFFFFFFFFFFFFFFFFFFFFFF02AB
:10143000080FA000000032080C060000280A040271
:10144000000000000000000B01FFFF000000AA00E8
:10145000000000000000000064646464646464646C
:10146000000000000000000000000000000000007C
:10147000000000000000000000000000000000006C
:101480000000000000000000D600B9010E010E01AE
:101490000E010E010E010E010E010E010E010E00D5
:1014A0000102030405060708090A0B0C0D0E0F01C3
:1014B000FFFF0000800000000000000000000000AE
:1014C000000000000000000000000000000000001C
:1014D000000000000000000000000000000000000C
:1014E00000000000000000000000000000000000FC
:1014F00000000000000000000000000000000000EC
:1015000000000000000000000000000000000000DB
:101510000000000000000000000000000000FF00CC
:10152000E4900196F0900010E0FF900196E0C39FD8
:10153000400302163F900120E0FBA3E0FAA3E0F98C
:10154000900196E075F004A4F58285F083120753AC
:10155000EC4D4E4F7003021626900196E025E025D3
:10156000E02400F582E43401F583E0F8A3E0F9A378
:10157000E0FAA3E0FBD312070F40037F03229001A0
:1015800020E0FBA3E0FAA3E0F9900196E075F004F7
:10159000A4F58285F083120753900196E025E0259B
:1015A000E02400F582E43401F583E0F8A3E0F9A338
:1015B000E0FAA3E0FBC3EF9BFFEE9AFEED99FDEC92
:1015C00098FC78C21207E6E47FFF7EFFFDFC78C23C
:1015D0001207A9C312070F40037F032278C2120724
:1015E0009D900196E0FD25E02445F8A60608A60793
:1015F000ED25E02456F9ED25E02445F8E6FE08E661
:10160000FFD397EE1997401BE025E02456F8C3EF6F
:1016100096FFEE1896FEE025E02425F8A60608A61B
:1016200007801F900196E025E02425F8E4F608F6EF
:101630008010900196E025E02425F8E4F608F67F76
:101640000322900196E004F00215197F0722900111
:10165000967408F0121748121CA5BF010A90009258
:10166000E0FF12007680030217427F02122123D38B
:10167000788EE69F18E69E400280157887E6FE0881
:10168000E6FFD39400EE94004014EF64014E700620
:101690001220C902173D7888E616187001169000CE
:1016A00092E09001B3F02410605414605F24F27053
:1016B00073786DE6FE08E6FF08E6FC08E6FD1222F8
:1016C000C1D3EF94A0EE9400400A789406E6187017
:1016D00009068006E47893F608F67F07122123D3E3
:1016E0007894E69F18E69E40069001967403F012E7
:1016F00020C9E47885F608F608F608F6805012202E
:10170000C97888E6184670467F06800C1220C97892
:1017100088E6184670387F041221237887A60608C9
:10172000A607802AE47887F608F69001B3E0FF1256
:101730001ED3788606E6187001067F05122123D392
:101740007886E69F18E69E400512000E8000900104
:1017500096E0FF22E4FF12004EE4FCFDC004A90560
:10176000AA06AB077825E6FE08E6FF7D641208535B
:10177000D00012067D900198EEF0A3EFF090019753
:101780007401F0900010E0FF900197E0F9C39F50C2
:1017900054AF0112004EE4FCFDC004A905AA06AB3B
:1017A00007900197E025E02425F8E6FE08E6FF7D96
:1017B00064120853D00012067D90019AEEF0A3EF58
:1017C000F0D3900199E09F900198E09E400F900126
:1017D0009AE0FFA3E0900198CFF0A3EFF09001977B
:1017E000E004F0809EE4900197F0900010E0FF90FC
:1017F0000197E0F9C39F505EAF0112004EE4FCFD7B
:10180000C004A905AA06AB07900197E025E02425AE
:10181000F8E6FE08E6FF7D64120853D00012067D4C
:1018200090019AEEF0A3EFF0900198E0FCA3E0FDA8
:10183000C3EF9DFDEE9CFC900197E0FB25E0241595
:10184000F8A60408A605EB25E02435F8A60608A6A8
:1018500007E004F080942290001AE090019EF0E4EA
:1018600090019CF0900010E0FF90019CE0FEC39F6F
:101870005024900120E0FBA3E0FAA3E0F975F00406
:10188000EEA4F58285F08312082F0000000090017D
:101890009CE004F080CE75E61875CF1F90FB0674AF
:1018A000FFF090FB07F090FB08F0900018E090FB31
:1018B00004F0900020E0F5C3A3E0F5BBA3E0F5B38E
:1018C000E4F5BC90019CF090019EE0FF90019CE04B
:1018D000C39F5074E4A3F0900010E0FF90019DE0DE
:1018E000C39F505BE0FF2465F8E6F5BD74002F123E
:1018F0001C16900120E0FBA3E0FAA3E0F990019D03
:10190000E075F004A4F582E92582F9EA35F0FAC021
:1019100002C00112073390FB00E0F8A3E0F9A3E056
:10192000FAA3E02FFFEA3EFEE93DFDE83CFCD001D2
:10193000D002120783D2D890019DE004F0809890E5
:10194000019CE004F00218BB75E61875CF1F221247
:1019500021731222D79000907401F012214B121FB4
:10196000261222D712203143D40843DC0853E4F76F
:10197000D2B390009E74FFF012209A43D40343E444
:101980000343B003900090E024FD603114603924DB
:10199000FE604E146055146065240770671222AA19
:1019A00012214B121E7D12000312000E12209A7F8C
:1019B0000A1221237895A60608A6078041121E7DEB
:1019C00012000312000E80369001AEE004F07006A3
:1019D0009001ADE004F012184B9000907406F08076
:1019E00023121514900090EFF08019121642900007
:1019F00090EFF078A5E678B9F6121DA78006900062
:101A0000907404F09000FBE06029E478A4F6C2B37F
:101A1000F0900175F0A3F0900176E004F07006906C
:101A20000175E004F0900175E07004A3E06450706B
:101A3000E6D2B378A4E6600678A5E64408F6D2D8E4
:101A4000121FBF02197843F580C2DC0020DCF7903A
:101A5000FF03E493FFF4FE90FF02E493FDB5060458
:101A60008D9A8003759A4C90FF05E493FFF4FE90E5
:101A7000FF04E493FDB506048D848003758404900F
:101A8000FFFEE493FFF4FE90FFFFE493FDB5060430
:101A90008D8F8003758FFF43C60C9000007F007E02
:101AA00004E4F0A3DFFCDEFA78FFE4F6D8FD7581EC
:101AB000C5021AE6020000021943E493A3F8E49376
:101AC000A34003F68001F208DFF48029E493A3F831
:101AD0005407240CC8C333C4540F4420C8834004A3
:101AE000F456800146F6DFE4800B01020408102062
:101AF00040809013DEE47E019360BCA3FF543F302E
:101B0000E509541FFEE493A360010ECF54C025E005
:101B100060A840B8E493A3FAE493A3F8E493A3C8BD
:101B2000C582C8CAC583CAF0A3C8C582C8CAC5834E
:101B3000CADFE9DEE780BE1212A1900010E0FF903C
:101B40000091E0FEC39F5013EE25E02436F9C3E771
:101B5000943C19E794004003E0FF22900098E0FED7
:101B600025E02416F9D3E7943C19E7940040099046
:101B70000091E0FFF46004227FFF22D3796EE778C2
:101B8000709619E718964007E490019BF080069044
:101B9000019B7401F090019BE06E7040786DE6FE51
:101BA00008E6FF08E6FC08E6FD1222C1900199EE66
:101BB000F0A3EFF07845E6FE08E6FF08E6FC08E64D
:101BC000FD1222C190019AE02450FD900199E03469
:101BD00000FCC3EF9DEE9C50407FFF22900098E0F8
:101BE00025E02445F8E6FC08E6FD90019BE025E0B1
:101BF0002446F9D3E79D19E79C40037FFF2290001C
:101C000098E025E0246EF8E62450FF18E436FEC381
:101C1000ED9FEC9E50037FFF22900098E0FF22741E
:101C2000002EF582E43400F583E0FFEF1313135424
:101C30001FFEEF540790224393FDEFD39417400308
:101C40007F0022EE14600F14601424027018ED421D
:101C5000E1ED42D98013ED42E2ED42DA800BED4234
:101C6000E3ED42DB80037F0022EF4420F5E675C7F9
:101C70000D00000000000043C101E5C130E1FB534D
:101C8000C1FD75E618EE14600F146014240270187C
:101C9000EDF452E152D98013EDF452E252DA800BA6
:101CA000EDF452E352DB80037F0022E4F5C77F01AD
:101CB00022121B2B900197EFF0F4706DA3F09000AF
:101CC00010E0FF900198E0FEC39F505DEE25E024F8
:101CD0006DF8E6FE08E6FFE4FCFD78BE1207E6E4D8
:101CE0007F1FFEFDFC78BE1207A91205F2C004A9F1
:101CF00005AA06AB07900198E025E02445F8E6FE2A
:101D000008E6FFE4FCFDD000EB2FFFEA3EFEED39D4
:101D1000FDEC38FC7805120720E025E0246DF8A6DC
:101D20000608A607E004F08095900197E0FF1220D6
:101D300068EF7002FF227F0122C0E0C0F0C083C0C4
:101D400082C0D075D000C000C004C005C006C00766
:101D5000C28D758CFD758A869001B5E004F0700621
:101D60009001B4E004F09001B4E0FEA3E0FF7C0732
:101D70007DD0120571ED4C70259001ADE0FEA3E021
:101D8000FFD3940AEE940040089001AFEEF0A3EF69
:101D9000F09001ADE4F0A3F09001B4F0A3F0D0070F
:101DA000D006D005D004D000D0D0D082D083D0F0DF
:101DB000D0E032E4900196F0900196E0FF25E02417
:101DC00035F8E6FC08E6FDEF75F008A424ABF8A6AC
:101DD0000408A605E0FF25E02425F8E6FC08E6FD5A
:101DE000EF75F008A424ADF8A60408A6059001201C
:101DF000E0FBA3E0FAA3E0F9900196E075F004A4FB
:101E0000F58285F083120753780812072090019617
:101E1000E075F008A424AFF8A60608A607E004F0D1
:101E2000E0B4029422900019E0F5C2900018E0900E
:101E3000FB04F0900020E0F5C3A3E0F5BBA3E0F5C0
:101E4000B3E4F5AA900014E0F5BEA3E0F5BFA3E06B
:101E5000F5BCA3E0F5BD75E61890FB05743BF0906A
:101E6000FB0674FFF090FB07F090FB08F0E490FB9A
:101E700009F090FB0A74F0F090FB0B7478F090FB83
:101E80000CF090FB0D7401F02290009174FFF0A310
:101E9000F0E4A3F07885F608F67889F608F608F6F7
:101EA00008F608F608F608F608F67887F608F678D1
:101EB00093F608F6FF900010E0FEEFC39E501F90CF
:101EC0000120E0FBA3E0FAA3E0F975F004EFA4F52C
:101ED0008285F08312082F000000000F80D722E4D3
:101EE000FE900010E0FDEFC39D501E900091E06F4A
:101EF0006017E47885F608F674A42FF582E43401BF
:101F0000F583E0FE900091EFF0900091E0FF9000EB
:101F10009EE06F6014EF14600304700D9000FBE00E
:101F2000700704F0EE0478A5F6900091E090009E12
:101F3000F022E478A5F608760B120F7778A7A607AB
:101F4000E408F6FFEF75F008A424A9F876000876F7
:101F50003CEF75F008A424ABF8E4F608F6EF75F052
:101F600008A424ADF8E4F608F6EF75F008A424AF51
:101F7000F8E4F608F60FEFB402CA75120075130004
:101F80007514A522EF131313541FFEEF5407247783
:101F9000F582E43401F583E0FFEE14601214601A58
:101FA00024027021EF42E1EF42D9EF42D18019EFD4
:101FB00042E2EF42DAEF42D2800EEF42E3EF42DB41
:101FC000EF42D380037F00227F01227898E6FF60F2
:101FD00032E4F6EF24E0600C24A0600D247070233E
:101FE0007F018002E4FF0222601220F712227A129F
:101FF00021C253DCF753E4F753D4F7D2B3900090E7
:102000007401F022E4FEEE75F003A4244BF582E4A3
:102010003422F583E493FDF4601FEFB50516EE75E9
:10202000F003A4244CF582E43422F583E493FE7497
:102030000193FF220EEEB407CDE4FEFF227E007F67
:10204000E0E4FDED25E024E5F582E43421F583E4C8
:1020500093B4FF0122ED25E024E6F582E43421F576
:1020600083E493FCEF2DF582E43EF583ECF00DED77
:10207000B410D02290001FE0FE900092E06F600547
:10208000EFF0E4A3F0900092E0B4FF02E4FEAF06AC
:10209000900093E004F0C39F50037F0022900093D0
:1020A0007404F07F012243B14053FAF790FFF8E443
:1020B00093B4F80B43FA0443F90243F90180034354
:1020C000FA0443F90243F90153F9BF75FB4053FA8F
:1020D000FD43A14022E47885F608F690009174FF54
:1020E000F090009EE0FFF46013EF14600304700CA6
:1020F0009000FB7401F078A5E64408F690009E7409
:10210000FFF022E4F5D9F5D1F5E1F5D57580FFF5BD
:10211000DAF5D2F5E2F5DD7590FFF5DBF5D3F5E301
:10212000F5E575A0FF43DC0843E40853D4F722909B
:1021300000E0EFB4FF057F017E0022E5822FF582EB
:10214000E43583F583E0FB9001AFE0FCA3E0FDAF55
:10215000037E0012055F22E4900097F09001ADF03D
:10216000A3F09001AFF0A37420F090002A74FFF068
:102170009001207401F0A37400F0A374A0F0224336
:10218000850343910153E12053D52053802053E22E
:102190003C53DD3C53903C53E30353E50353A0030E
:1021A00053E40B53B00B2200004500006D000055B6
:1021B00000005D00001500001D00002500002D013D
:1021C00000910000650101AF000067010184AFD6F6
:1021D00053C7FBE4F5D6C2D953A1EF539AF05391FC
:1021E000FE5387FC43870200004391018FD60222F1
:1021F000E800020101020103010401051E060507B2
:1022000002080A09020A020B280C3C0D1E0E01FFEF
:1022100001E4FD900010E0FFEDC39F501274002D0B
:10222000F582E43400F583E0FF121F780D80E4228C
:10223000438901C28DD2A953B7FD53B8FDE4900183
:10224000B4F0A3F0758CFD758A86D28CD2AF2201D2
:1022500002040810204080010521060995020CF1B6
:102260000C0F411411A8041662FF00FFEFB4011116
:10227000C292C2937F0A1221237895A60608A60768
:1022800022D292D2932243DC0843E40853D4F7D2FB
:10229000B353B2FDE4F5BA5391DF43A10222000229
:1022A0000002000300020000000200000004000021
:1022B00000000000000075C60CE4F5C7F5C175CE3E
:1022C0004275D6061222E8122224D2AF22D3EF9D05
:1022D000EE9C4007EF9DFFEE9CFE22C3ED9FFFECBE
:1022E0009EFE2253E2F353D2F375AD0C53DAF3D2D0
:1022F00092D29322D2DFC2DA538E1F438EA0D2D85D
:0C230000D2D92253B2DF32FFFFFFFFFFF3
:00000001FF
