:100000000110010000000000C01B0000FF00000004
:10001000020BBB751AFF22FFFFFFFF0214E87E03ED
:1000200090008CE06F6007EFF0E490008FF090009C
:100030008CE07001FE90008FE004F0C39E50037FBF
:10004000002290008F7403F07F0122021678E4FBF7
:10005000EB25E025E02480F8120232EB25E025E0D4
:10006000248CF812024B0BBB03E622021006BB01E4
:100070000689828A83E0225002E722BBFE02E32245
:1000800089828A83E49322EF8DF0A4A8F0CF8CF0CC
:10009000A428CE8DF0A42EFE22BC000BBE0029EFBA
:1000A0008DF084FFADF022E4CCF875F008EF2FFF5F
:1000B000EE33FEEC33FCEE9DEC984005FCEE9DFE2D
:1000C0000FD5F0E9E4CEFD22EDF8F5F0EE8420D274
:1000D0001CFEADF075F008EF2FFFED33FD400798E3
:1000E0005006D5F0F222C398FD0FD5F0EA22E88F32
:1000F000F0A4CC8BF0A42CFCE98EF0A42CFC8AF0AC
:10010000EDA42CFCEA8EF0A4CDA8F08BF0A42DCCAD
:100110003825F0FDE98FF0A42CCD35F0FCEB8EF006
:10012000A4FEA9F0EB8FF0A4CFC5F02ECD39FEE4EC
:100130003CFCEAA42DCE35F0FDE43CFC2275F00831
:10014000758200EF2FFFEE33FECD33CDCC33CCC51F
:100150008233C5829BED9AEC99E58298400CF5823A
:10016000EE9BFEED9AFDEC99FC0FD5F0D6E4CEFBAC
:10017000E4CDFAE4CCF9A88222B800C1B90059BA9A
:10018000002DEC8BF084CFCECDFCE5F0CBF97818C8
:10019000EF2FFFEE33FEED33FDEC33FCEB33FB10C2
:1001A000D703994004EB99FB0FD8E5E4F9FA2278DC
:1001B00018EF2FFFEE33FEED33FDEC33FCC933C9EE
:1001C00010D7059BE99A4007EC9BFCE99AF90FD8F8
:1001D000E0E4C9FAE4CCFB2275F010EF2FFFEE3318
:1001E000FEED33FDCC33CCC833C810D7079BEC9A57
:1001F000E899400AED9BFDEC9AFCE899F80FD5F0E0
:10020000DAE4CDFBE4CCFAE4C8F922EB9FF5F0EA9E
:100210009E42F0E99D42F0E89C45F022E8600FEC38
:10022000C313FCED13FDEE13FEEF13FFD8F122E82C
:10023000600FEFC333FFEE33FEED33FDEC33FCD83C
:10024000F122E6FC08E6FD08E6FE08E6FF22E6FBF2
:1002500008E6F908E6FA08E6CBF822ECF608EDF62F
:1002600008EEF608EFF622ECF208EDF208EEF208DE
:10027000EFF222D083D082E493F608740193F6085B
:10028000740293F608740393F6740473D083D082D7
:10029000E493F208740193F208740293F208740371
:1002A00093F27404738A838982E4738E328F33E409
:1002B000F535F536F53790009FE0F536A3E0F537D4
:1002C000E4F53490008DE0701690008FE0B4030FD9
:1002D000D39000A9E094009000A8E09400401EE5AF
:1002E0003425E0245EF8E4F208F2E53425E025E068
:1002F000244CF812027C000000000203B4E534250F
:10030000E0245FF9E3700219E3701AE53425E02474
:1003100000F8E2FE08E2FFE53425E02458F8EEF2AA
:1003200008EFF28057E53425E02458F8E2FE08E2B1
:10033000FFE53425E02400F8E2FC08E2FD121A7E15
:10034000D3EF9537EE95364033E53425E02400F8B9
:10035000E2FE08E2FFE53425E02458F8EEF208EF6B
:10036000F2E53425E0245EF8E4F208F2E53425E015
:1003700025E0244CF812027C00000000E53425E062
:100380002400F8E2FE08E2FFE53425E025E0244CF5
:10039000F8C000E2FB08E2F908E2FA08E2CBF8E470
:1003A000FCFDEB2FFFEA3EFEED39FDEC38FCD00002
:1003B000120257E53425E0245EF808E22401F21821
:1003C000E23400F20534E534C3940250030202B370
:1003D000E4F534E53425E0245FF9C3E3953319E30C
:1003E0009532400205350534E534B402E6E535645E
:1003F00002600302049174FF9000A1F0A3F0E4A353
:10040000F0A3F0F534E53425E0245EF8E2FE08E2DE
:10041000FF4E7003020491E4FCFDC004A905AA0686
:10042000AB07E53425E025E0244CF8E2FC08E2FDCA
:1004300008E2FE08E2FFD0001201698E388F39D33E
:100440009000A2E095399000A1E095384007E5388A
:10045000F0A3E539F0C39000A4E095399000A3E043
:1004600095385007E538F0A3E539F0E53425E02468
:1004700006F8E538F208E539F2E53425E0245EF8BF
:10048000E4F208F2E53425E025E0244CF812027C81
:1004900000000000C2080534E53464026003020372
:1004A000F522E4F530E53025E025E0248CF8C000A5
:1004B000120232C00774522530F8E6FFFBE4FAF965
:1004C000F8D0071200DED00012024BE53025E025FF
:1004D000E0248CF8C000120232780712020CD0001F
:1004E00012024BE53025E025E0248CF8120232ECB4
:1004F0004D4E4F6076E53025E025E02474F8120279
:1005000032E53025E025E0248CF812023EC31201CA
:10051000FB50037F0322E53025E025E02474F81228
:10052000023EC000E53025E025E0248CF8120232BE
:10053000D000C3EF9BF534EE9AF533ED99F532EC2C
:1005400098F531E47FFF7EFFFDFCAB34AA33A9327E
:10055000A831C31201FB40037F0322E53025E024CC
:1005600000F8E533F208E534F28015E530C3940372
:10057000500BE53025E0240CF8E4F208F27F03226A
:100580000530E53064036003020495E4F530E5309E
:1005900025E02406F8E2FE08E2FFE53025E024002D
:1005A000F8E2FC08E2FDD39FEC9E401EE53025E01A
:1005B0002406F8E2FE08E2FFC3ED9FFFEC9EFEE496
:1005C0008F388E37F536F5358009E4F538F537F58F
:1005D00036F535AF38AE37AD36AC35780712021F79
:1005E0008F388E378D368C3590008CE070447F03C9
:1005F000FEFDFCAB38AA37A936A8351200DEE5307F
:1006000025E025E0241EF8E2FB08E2F908E2FA08FA
:10061000E2CBF8EB2FFFEA3EFEE93DFDE83CFC783B
:100620000212020CE53025E025E0241EF8120257E4
:100630008033E53025E025E0241EF8E2FC08E2FDE9
:1006400008E2FE08E22538FFEE3537FEED3536FDCF
:10065000EC3535FC780112020CE53025E025E0246C
:100660001EF8120257E53025E025E0241EF8E2FCD2
:1006700008E2FD08E2FE08E2FF780712020CE5300E
:1006800025E0240CF8EEF208EFF20530E5306403C3
:10069000600302057E7F0722E4F534F533E5332558
:1006A000E025E0244CF812027C000000000533E550
:1006B00033B403E91217EFE4F533E53325E025E021
:1006C000244CF8C000E2FC08E2FD08E2FE08E2FF6C
:1006D000E53325E025E02480F812023EEF2BFFEE03
:1006E0003AFEED39FDEC38FCD0001202570533E537
:1006F00033B403C60534E534C3940540B7E4F53399
:10070000AF34E4FCFDFEC004A905AA06AB07E5333F
:1007100025E025E0244CF8E2FC08E2FD08E2FE08B2
:10072000E2FFD0001201698F388E378D368C35ABE1
:1007300038AA37A936A835C00074522533F8E6FF29
:10074000E4FCFDFED0001200DE8F388E378D368C33
:1007500035780712020C8F388E378D368C35E47F52
:10076000E87E03FDFCAB38AA37A936A835D31201C1
:10077000FB4030E5382418FFE53734FCFEE536341D
:10078000FFFDE53534FFFCE53325E025E02474F872
:1007900012024BE53325E02400F87403F20874E8F4
:1007A000F2801EE53325E025E02474F81202630090
:1007B000000000E53325E02400F8E537F208E538CD
:1007C000F2E53325E025E0244CF812027C0000001D
:1007D00000E53325E0245EF8E4F208F2E533C39443
:1007E000035033E53325E02400F8E2FE08E2FFE59C
:1007F0003325E02406F8EEF208EFF2E53325E02495
:100800000CF8E4F208F2E53325E025E0241EF812A6
:10081000027C000000000533E53364036003020638
:10082000F02285BA3953BA0F43BA10E4F533E533F1
:1008300025E025E02480F812026300000000053363
:10084000E533B403E975330575ABFF12199EE4F582
:1008500034E53425E025E02480F8C000120232C0DF
:1008600004C005C006C00774982534F8E675F00387
:10087000A42498F582E4341AF583E493FB7401937D
:10088000FA740293F9120295A804A905AA06AB0707
:10089000D007D006D005D004EF2BFFEE3AFEED399D
:1008A000FDEC38FCD00012024B0534E534C3940350
:1008B000409FE4F5AB12199EE4F534E53425E025BC
:1008C000E02480F8C000120232C004C005C006C097
:1008D0000774982534F8E675F003A42498F582E4AB
:1008E000341AF583E493FB740193FA740293F912BA
:1008F0000295A804A905AA06AB07D007D006D00523
:10090000D004C3EF9BFFEE9AFEED99FDEC98FCD06E
:100910000012024B0534E534C39403409E1533E5C1
:10092000336003020838E4F534E47538107537276E
:10093000F536F535AF38AE37AD36AC35780712023F
:100940001F8F388E378D368C35E53425E025E02431
:1009500080F812023E1201698F388E378D368C3541
:1009600074522534F8A6070534E534B403BB853941
:10097000BA22E4FD300420ED25E0243BF582E43486
:1009800018F583E493FE740193FFED25E02434F819
:10099000A60608A607801EED25E0242BF582E43488
:1009A00018F583E493FE740193FFED25E02434F8F9
:1009B000A60608A6070DBD02BBE4FDED25E0242A2E
:1009C000F8E2FE08E2FFED25E02413F9D3E39F19D6
:1009D000E39E4016ED25E02412F8E2FE08E2FFED6A
:1009E00025E0242AF8EEF208EFF2ED25E02434F8B1
:1009F000E6FE08E6FFEEC313FEEF13FFED25E0244D
:100A000013F9D3E39F19E39E5034ED25E02434F825
:100A1000E6FE08E6FFED75F008A4245CF8A60608DB
:100A2000A607ED25E02434F8E6FE08E625E0FFEE13
:100A300033F8ED25E0242AC8F208EFF2803CED25DA
:100A4000E0244BF582E43418F583E493FE740193BB
:100A5000FFED25E02413F9D3E39F19E39E401BED3E
:100A600025E0242AF9E3C313FE09E313FFED75F033
:100A700008A4245CF8A60608A6070DED640260032E
:100A80000209ABE4FDED75F008A4245CF8E6FE086D
:100A9000E6FFED25E02430F8EEF208EFF20DBD029E
:100AA000E42274FFF537F538E4FFFEF532E5322530
:100AB000E0243AF8E2FC08E2FDE53225E02438F8CB
:100AC000ECF208EDF20532E532B409E17804E2FD1A
:100AD00008E2784ACDF208EDF2E4F532E53225E09D
:100AE0002438F8E2FC08E2FDC39538EC9537500451
:100AF0008C378D38D3ED9FEC9E4004AE04AF0505D6
:100B000032E532B40AD6E538243CFDE43537FCD36F
:100B1000EF9DEE9C4011D2097F041219059000AAA6
:100B2000EEF0A3EFF08002C209E4F535F536F532B8
:100B3000E53225E0240CF8E2F53308E2F534C395FC
:100B400036FFE5339535FEE4FCFD7B64FAF9F812D7
:100B500000DEC006C007E53225E02464F582E434F7
:100B600000F583E0FEA3E0FFFBAA06E4F9F8D00756
:100B7000D006120169E53225E02418F8EEF208EFFC
:100B8000F2AE33AF34E4FCFD7B64FAF9F81200DE18
:100B9000C006C007E53225E02464F582E43400F5A0
:100BA00083E0FEA3E0FFFBAA06E4F9F8D007D00635
:100BB000120169E53225E02412F8EEF208EFF205A1
:100BC00032E53264026003020B2022439F04E453A7
:100BD000C6DFE5C600B5C6F375830075820775FDEF
:100BE0000DE4E5FEF4FF75830075820675FD0DE4E6
:100BF000E5FEB50704F59E8003759E0078100000A1
:100C0000D8FC53C6E043C60843C68075960775975F
:100C10000375830075820475FD0D85FE8F75830055
:100C200075820375FD0DE4E5FEF4FF7583007582A2
:100C30000275FD0DE4E5FEB50704F5958003759595
:100C40008375BE0E5392FE9001007F007E02E4F099
:100C5000A3DFFCDEFA78007F00E4F208DFFC78FF17
:100C6000E4F6D8FD7581A3020C98020000020CDDA9
:100C7000E493A3F8E493A34003F68001F208DFF4C1
:100C80008029E493A3F85407240CC8C333C4540F39
:100C90004420C8834004F456800146F6DFE4800B0C
:100CA00001020408102040809015BDE47E0193608D
:100CB000BCA3FF543F30E509541FFEE493A3600139
:100CC0000ECF54C025E060A840B8E493A3FAE493A3
:100CD000A3F8E493A3C8C582C8CAC583CAF0A3C851
:100CE000C582C8CAC583CADFE9DEE780BE121A46DC
:100CF0007D01E4FF12189A7F01121A0A7F01121A6D
:100D000029121B92121B851219C41214751218D0C5
:100D1000121939D2AF753E01E53E24FD601714600B
:100D20002024FE602E146032147003020DC02407CC
:100D30006003020DC3121722121256753E04020DF3
:100D4000C3D2D8E53F70FC12003E121AB0753E06C1
:100D5000020DC31204928F3E8079D3900095E094E7
:100D600000900094E09400400CA3E024FFF0900079
:100D700094E034FFF0D39000A9E094009000A8E044
:100D80009400400CA3E024FFF09000A8E034FFF0B2
:100D9000D39000ABE094009000AAE094004016A32A
:100DA000E024FFF09000AAE034FFF0E07002A3E03E
:100DB0007003121553900091E004F07006900090BB
:100DC000E004F012137C120F0D8F3E753E04800379
:100DD000753E049000A5E0B40124E4784BF6FF12C0
:100DE0001B92E4F0F51CF51D00051DE51D700205C4
:100DF0001CB42CF4E51CB401EF7F01121B921210FD
:100E0000E4020D08227533077D0774017E00A833C4
:100E1000088005C333CE33CED8F9FFACACECFBE48D
:100E2000EF5B7003D533E3ED601D74017E00A80510
:100E3000088005C333CE33CED8F9FFACAEECFBE46B
:100E4000EF5B70031D80E0AF337401A807088002D8
:100E5000C333D8FCF5AC7401A805088002C333D8AD
:100E6000FCFFF5AD8FAE53AACF85BA3C53BA0F4302
:100E7000BA10E4F537F536F535F53412199EE4F578
:100E80003374982533F8E675F003A42498F582E4CA
:100E9000341AF583E493740193FA740293F91202FD
:100EA000958F3B8E3A8D398C38AB37AA36A935A849
:100EB00034C31201FB500C853B37853A36853935F2
:100EC0008538340533E533C3940340B5AF37AE36C8
:100ED000AD35AC34780212020CE5372FF537E53624
:100EE0003EF536E5353DF535E5343CF534AF37AE06
:100EF00036AD35FC781012020C8FB3AF37AE36AD7D
:100F000035AC34780812020C8FB28537B143AA3061
:100F1000853CBA75AC0375ADC075AEC022E4F53042
:100F2000753108120A9212176D1212F11217B19050
:100F3000008DEFF012000EEF605F7F01121905AD1A
:100F400007AC06D3900095E09400900094E09400E4
:100F5000400FED7803CEC313CE13D8F9FDAC068055
:100F60002F300811EDAE047803CEC313CE13D8F999
:100F7000FDAC06801BC37835E2941E18E294005045
:100F80000FEDAE047802CEC313CE13D8F9FDAC0634
:100F9000AF05AE0412029B8003AF312290008CE0BB
:100FA0006034E4900098F0A3F0900097E004F070B3
:100FB00006900096E004F07F05121905D390009783
:100FC000E09F900096E09E4014E4FF12161CE4900F
:100FD000008EF07F0322E4900096F0A3F090008C46
:100FE000E0FF90008EE06F602A12161C90008CE0EB
:100FF00090008EF0784CE654F060187F0C121905C2
:101000009000A8EEF0A3EFF09000A8E0C313F0A3C7
:10101000E013F0AF3122C0E0C0F0C083C082C0D086
:1010200075D008C2CF30CD030210D930CB4720CCC9
:10103000447840A6CEE6FFC39480403075F003EFBD
:10104000A4244EF582E5F03415F583E493FB740196
:1010500093FA7402938B238A24F5250525E52570E0
:1010600002052414F912005EF5CE80097840E625C9
:1010700022F8E6F5CE30CC297840E6C394804015BE
:10108000AB230525E525AA247002052414F91200D6
:101090005EF5CE8050784006E62522F8E6F5CE8053
:1010A0004420CB41AFCE7840E6FE7028BF100280CE
:1010B00034BF2002802FBF5008784FE64401F680ED
:1010C00024BF6008784FE654FEF680197841A60FD9
:1010D00018068011EEC3940A50087840E62441F8BF
:1010E000A60F784006784B7601D0D0D082D083D03E
:1010F000F0D0E03220CA030211A47841E670030266
:1011000011A4E4784BF6F53074412530F8E6FF740D
:10111000262530F8A60774412530F8E4F60530E5B9
:1011200030B40AE4784BE6700320CA12E4F5307458
:10113000262530F8E4F60530E530B40AF222E5263B
:1011400024E0600F24B0601224607017E4FF121ACC
:101150000A80107F01121A0A8009E4FF121AD97856
:1011600051A607E52654F064807049E527452860BC
:1011700043E527FE7C00E42528FFEC3EFEC3EF9408
:101180000AEE9400402EE526540FFDBD0F19E4F53C
:1011900030E53075F008A4245CF8A60608A607051B
:1011A00030E530B402EB22ED75F008A4245CF8A61B
:1011B0000608A60722E4FFFEEE75F008A4245CF8FA
:1011C000E6FC08E6FDEE25E02419F9C3E39D19E3EA
:1011D0009C400D7401A806088002C333D8FC420766
:1011E0000EBE02D4807DEEC394025077EE75F008F7
:1011F000A4245CF8E6FC08E6FDEE25E02419F9C31A
:10120000E39D19E39C401DEE25E0241DF9C3E39402
:101210000A19E39400400D7401A806088002C33344
:10122000D8FC4207EE75F008A4246CF8E6FC08E64A
:10123000FDEE25E0241DF9C3E39D19E39C4021EE5A
:1012400025E02419F9C3E3940A19E394004011EE50
:101250002402FD7401A805088002C333D8FC4207AC
:101260000E80838F1822E4F531F532121A63E49070
:10127000008CF090008EF0A3F0900096F0A3F0A305
:10128000F0A3F09000ACF0A3F09000A8F0A3F0F56C
:1012900021F530E53025E02464F582E43400F5835F
:1012A000E0FEA3E0FF9000A0E02FF090009FE03E62
:1012B000F00530E530B402DB90009FE0FEA3E0FFD4
:1012C0007C007D0A12008990009FEEF0A3EFF012DF
:1012D0000DF5120812120688E4F530E53025E024F9
:1012E00038F87403F20874E8F20530E530B40AEB1C
:1012F0007F0A121905900094EEF0A3EFF0121AB0D5
:1013000022E4F532E53225E02406F8E2FE08E2FFA9
:10131000E53225E02400F8E2FC08E2FDC39FEC9EE4
:101320005048E53225E02407F8C3E29DF53418E281
:101330009CF533FEAF34E4FCFD7B64FAF9F812004F
:10134000DEC006C007E53225E02464F582E43400FF
:10135000F583E0FEA3E0FFFBAA06E4F9F8D007D08E
:10136000061201698E358F368009E4F533F534F5C0
:1013700035F536D3E536940AE53594004002D208B7
:101380000532E532640260030212F422E4F530E52E
:101390003075F008A4245EFFE53025E02412F8E261
:1013A000FC08E2FD121AC5E53075F008A42460FFC0
:1013B000E53025E0240CF8E2FC08E2FD121AC5E550
:1013C0003075F008A42462FBC003E53025E024005A
:1013D000F8E2FE08E2FFE4FCFDE53025E025E0242C
:1013E00074F812023EEF2BFFEE3AFEED39FDEC38B9
:1013F000FC780412020CAD07AC06D007121AC50522
:1014000030E530C394024087784FE6F520227DFF17
:1014100080707864E6FE08E6FFC3781BE29F18E25E
:101420009E40107874E6FE08E6FF781FE29F18E2FF
:101430009E504F7810E2FE08E2FF780DE22FF5355E
:1014400018E23EF5347812E2FE08E2FF780FE22F50
:10145000FF18E23EAB07FAEB25E0FFEA33FEC3E5F7
:10146000359FE5349E50035305FAE53525E0FFE549
:101470003433FEC3EB9FEA9E50085305F5800353B7
:1014800005F08D1922E4F530784CF6FF121AD98F49
:1014900030E530BFFF06784D76018004784D76FF49
:1014A000784E7601E408F6785176FFFFEF25E024C8
:1014B0002BF582E43418F583E493FC740193FDEF7B
:1014C00075F008A4245CF8A60408A605EF75F008DA
:1014D000A4245EF8E4F608F6EF75F008A42460F89A
:1014E000E4F608F6EF75F008A42462F8E4F608F6CE
:1014F0000FBF03B875224C22C0E0C0F0C083C08289
:10150000C0D075D000C000C004C005C006C007C26E
:101510008D758CD8758AF0051FE51F7002051EAE0B
:101520001EFF7C007D64120089ED4C7021900090BC
:10153000E0FEA3E0FFD3940AEE94004006A3EEF091
:10154000A3EFF0900090E4F0A3F0F51EF51FD00794
:10155000D006D005D004D000D0D0D082D083D0F037
:10156000D0E032E4FBEB25E025E0248CF8120232D7
:10157000EF2418FFEE34FCFEED34FFFDEC34FFFCED
:10158000EB25E025E02474F812024BEB25E0240063
:10159000F87403F20874E8F2EBC394035017EB25D8
:1015A000E0240CF8E4F208F2EB25E02406F87403DA
:1015B000F20874E8F20BBB03ACE4FBEB25E0243843
:1015C000F87403F20874E8F20BBB0AEF22089802E1
:1015D0000100FFFFFFFFFF04A000000000604A00C1
:1015E000640258010E00640064006400640064003A
:1015F000640102040805060708000000000000005E
:1016000000000000000000000000000000000000DA
:1016100000000000000000000000000000000000CA
:101620000000000000000000000000009000A5E0A5
:10163000705504F0E4FEFDFC7401A804088002C3A8
:1016400033D8FCF9FB90008EE05BB50313EC240467
:10165000FA7401A802088002C333D8FC4206800352
:10166000E94206EF5BB50305E942058011EC24046D
:10167000FB7401A803088002C333D8FC42050CBCEC
:1016800002B6EE5D784CF622C0E0C0F0C083C082A6
:10169000C0D075D01053B9FD753D007498253DF844
:1016A000E675F003A42498F582E4341AF583E493F4
:1016B000740193FA740293F9120295E53D25E02531
:1016C000E02480F812024B053DE53DC3940340CB76
:1016D000753F00D0D0D082D083D0F0D0E032FE0071
:1016E00000FE0008FE0006FE000EFE000CFE0014C8
:1016F000FE0012FE001AFE0018FE0020000080000E
:10170000008800009000009800001801008D010082
:101710008C01008EFE001EFE002A0100900100AA2E
:101720000100A50100A801007C010084FE0030FE3C
:10173000005EE4FFFE74982EF8E690185B93420773
:101740000EBE03F1EF42D4EF42F4EF42E4EFF45265
:10175000DC75AA3B75BA0C43BA4043B92053B9BFF4
:101760008FB4E4F5B375B24E75B12075BBFF75A9A2
:1017700050F5AB75AC0375ADC075AEC0227818E2FC
:10178000FE08E2FF8E32F5337D01ED25E02418F8E6
:10179000E2FA08E2FBC39533EA953250048A328BB1
:1017A00033D3EB9FEA9E4004AE02AF030DBD02DAD5
:1017B0007836E532F208E533F27834EEF208EFF2EB
:1017C000221209621211A51213FE120003121864EC
:1017D00090008CE0700D851833E5195233E51A52EC
:1017E000338003851B339000AAE07002A3E07009E8
:1017F000AF3312196D8F328003E4F532AF3222120B
:10180000199EE4F53974982539F8E675F003A42497
:1018100098F582E4341AF583E493740193FA740220
:1018200093F9120295E53925E025E02480F81202AB
:101830004B0539E539C3940340CB22003700320011
:1018400037003700370037003700370037003700E0
:101850003700370037003700370037006400640076
:10186000370037003700370037003701020408100F
:101870002040801BE4FFFEEE75F008A4245DF8E62E
:1018800024FBFD18E634FFFCEE25E02413F9C3E346
:101890009D19E39C400D7401A806088002C333D84B
:1018A000FC42070EBE02D08F1B22E4FE7C0274981D
:1018B0002CF8E690185B9342060CBC03F1EF600530
:1018C000EE42D48004EEF452D4EEF4FF52F4EE4231
:1018D000E4ED6005EE42EC8003EF52ECEF52DC22C7
:1018E0007E007F7CE4FDED25E024EAF582E43419F6
:1018F000F583E493F4601DED25E024EBF582E434F8
:1019000019F583E493FCEF2DF582E43EF583ECF0CA
:101910000DBD10D222753900753A7C7B017A00BF6B
:10192000FF057F017E0022E53A2FF582E43539F587
:1019300083E07A00FB900092E0FCA3E0FDAF037E21
:1019400000120077AA06AB072243F80875CD405372
:10195000CC7F43CC4043CC2043CC1043CC0453CC6D
:10196000FD43CB0243CB0153CBBF43E80853E5FC17
:1019700043E30243F50343900343ED0322A907E445
:10198000FDFC74017E00A804088005C333CE33CE6D
:10199000D8F9FFE9FBE4EF5B600D7401A80408804F
:1019A00002C333D8FC42050CBC02D7AF052275BF79
:1019B0000F00000000000000000000000000000018
:1019C000000000D2D853B9FD43B901E5B930E1FBBD
:1019D000E4F5BF22438901C28DD2A953B8FDE4F5D5
:1019E0001EF51F900090F0A3F0A3F0A37464F075AF
:1019F0008CD8758AF0D28CD2AF220002010102018C
:101A000003010402050606060702080A09020A0283
:101A10000B280C010D030E01FF01E4FE7D027498FA
:101A20002DF8E690185B9342060DBD03F1EF6004BC
:101A3000EE428022EEF4528022EF600543D504800E
:101A40000353D5FB53F5FB53E5FB43E30443ED049C
:101A5000E49000A5F022E4F5E3439F10439F02FFCA
:101A60000FBFFFFC539FEF75BE0EE4F5BFF5B975D0
:101A700092762253BAFEE5B920E004E53F6005E521
:101A8000B930E1FBE4F5BF53B9FE53B9FD22AB0712
:101A9000AA06D3EB9DEA9C4007EB9DFFEA9CFE2241
:101AA000C3ED9BFFEC9AFE22FF1AEDFF1B00FF1B0C
:101AB00013FF1B26FF1B39FF1B4CFF1B5FFF1B7215
:101AC00075BF0F43B92053B9FD43BA01753F0143B8
:101AD000B901D2D822AB07AF04AE05C2AFA803A6A6
:101AE00007E804F8A606D2AF22E4FFF582F5837476
:101AF00020FEE493F42FFFA3EEB583F62253B9EF53
:101B000078A1A6B708A6B608A6B578A01202322218
:101B100053B9EF78A1A6EB08A6EA08A6E978A012C7
:101B200002322253B9EF78A1A6F308A6F208A6F173
:101B300078A01202322253B9EF78A1A6FB08A6FAC8
:101B400008A6F978A01202322243B91078A1A6B7EC
:101B500008A6B608A6B578A01202322243B91078BA
:101B6000A1A6EB08A6EA08A6E978A0120232224351
:101B7000B91078A1A6F308A6F208A6F178A012027F
:101B8000322243B91078A1A6FB08A6FA08A6F97874
:101B9000A012023222C2DA53D80F43D8D0D2D8D200
:101BA000D922EF6003D29222C29222FFFFFFFFFFF1
:101BB000FFFFFFFFFFFFFFFFFFFFFFFFFFFFFFFF35
:101BC000FFFFFFFFFFFFFFFFFFFFFFFFFFFFFFFF25
:00000001FF
